:100000000C9462000C948A000C948A000C948A0070
:100010000C948A000C948A000C948A000C94360389
:100020000C948A000C948A000C948A000C948A0028
:100030000C948A000C948A000C948A000C948A0018
:100040000C94EC020C948A000C94BA020C94940266
:100050000C948A000C948A000C948A000C948A00F8
:100060000C948A000C948A000000000023002600F3
:10007000290000000000240027002A0000000000E2
:10008000250028002B0004040404040404040202D4
:100090000202020203030303030301020408102007
:1000A0004080010204081020010204081020000012
:1000B0000008000201000003040700000000000027
:1000C0000000480411241FBECFEFD8E0DEBFCDBF33
:1000D00011E0A0E0B1E0E8E0FBE002C005900D9285
:1000E000A632B107D9F721E0A6E2B1E001C01D9226
:1000F000A63FB207E1F710E0C2E6D0E004C02197C6
:10010000FE010E947705C136D107C9F70E94770426
:100110000C9482050C940000FC0120915001309158
:100120005101220F331F262B309351012093500190
:1001300090914F019F5F90934F01903121F548E0DE
:1001400090E0990F822F8170982B369527953695E0
:1001500027954150B1F73093510120935001809180
:100160004E01DF01A80FB11D2AEC92279C939091BC
:100170004E019F5F90934E01913019F480818093DE
:10018000050110924F010895CF92DF92EF92FF92F6
:100190000F931F93CF93DF936C017A018B01C0E023
:1001A000D0E0CE15DF0581F0D8016D918D01D6012B
:1001B000ED91FC910190F081E02DC6010995892B0C
:1001C00011F02196EECF7E01C701DF91CF911F91F3
:1001D0000F91FF90EF90DF90CF900895089580E009
:1001E00090E00895FC01538D448D252F30E0842F3D
:1001F00090E0821B930B541710F0CF96089501974F
:100200000895FC01918D828D981761F0828DDF0138
:10021000A80FB11D5D968C91928D9F5F9F73928FF9
:1002200090E008958FEF9FEF0895FC01918D828DEE
:10023000981731F0828DE80FF11D858D90E00895BB
:100240008FEF9FEF0895FC01918D228D892F90E013
:10025000805C9F4F821B91098F739927089582E5D7
:1002600091E00E94230121E0892B09F420E0822FF4
:100270000895FC01848DDF01A80FB11DA35ABF4F63
:100280002C91848D90E001968F739927848FA68995
:10029000B7892C93A089B1898C91837080648C93E9
:1002A000938D848D981306C00288F389E02D808198
:1002B0008F7D80830895EF92FF920F931F93CF93CA
:1002C000DF93EC0181E0888F9B8D8C8D981305C0A6
:1002D000E889F989808185FD26C0F62E0B8D10E016
:1002E0000F5F1F4F0F731127E02E8C8DE8120CC08B
:1002F0000FB607FCFACFE889F989808185FFF5CF31
:10030000CE010E943901F1CF8B8DFE01E80FF11D66
:10031000E35AFF4FF0829FB7F8940B8FEA89FB896D
:10032000808180620AC09FB7F894EE89FF8960835C
:10033000E889F98980818370806480839FBF81E030
:1003400090E0DF91CF911F910F91FF90EF90089572
:10035000CF93DF93EC01888D8823C9F0EA89FB896C
:10036000808185FD05C0A889B9898C9186FD0FC063
:100370000FB607FCF5CF808185FFF2CFA889B98938
:100380008C9185FFEDCFCE010E943901E7CFDF913F
:10039000CF91089580E090E0892B29F00E942F01F1
:1003A00081110C9400000895833081F028F481308D
:1003B00099F08230A1F008958730A9F08830B9F023
:1003C0008430D1F4809180008F7D03C080918000C3
:1003D0008F7780938000089584B58F7702C084B5AD
:1003E0008F7D84BD08958091B0008F7703C0809188
:1003F000B0008F7D8093B00008951F93CF93DF935B
:10040000EBEBF0E09491E7EAF0E0D491E3E9F0E07F
:10041000C491CC23D1F0182F992319F0892F0E9471
:10042000D401EC2FF0E0EE0FFF1FE458FF4FA59131
:10043000B4919FB7F894111104C08C91D095D82332
:1004400002C0EC91DE2BDC939FBFDF91CF911F9117
:100450000895CF93DF9390E0FC01E656FF4F24917F
:10046000FC01EA57FF4F8491882361F190E0880FE7
:10047000991FFC01EE58FF4FC591D491FC01E4583F
:10048000FF4FA591B491611109C09FB7F89488817D
:10049000209582238883EC912E230BC0623061F477
:1004A0009FB7F8948881322F309583238883EC910D
:1004B0002E2B2C939FBF06C08FB7F894E8812E2B6C
:1004C00028838FBFDF91CF9108953FB7F894809133
:1004D000340190913501A0913601B091370126B5D4
:1004E000A89B05C02F3F19F00196A11DB11D3FBF6C
:1004F000BA2FA92F982F8827820F911DA11DB11DFA
:10050000BC01CD0142E0660F771F881F991F4A95F5
:10051000D1F7089542E050E068E171E082E591E0B2
:100520000C94C4000E947D051F920F920FB60F928B
:1005300011242F933F934F935F936F937F938F93E8
:100540009F93AF93BF93EF93FF9382E591E00E9457
:100550003901FF91EF91BF91AF919F918F917F9161
:100560006F915F914F913F912F910F900FBE0F9020
:100570001F9018951F920F920FB60F9211242F9370
:100580008F939F93EF93FF93E0916201F09163014A
:100590008081E0916801F091690182FD12C0908133
:1005A00080916B018F5F8F7320916C01821751F0E6
:1005B000E0916B01F0E0EE5AFE4F958F80936B0156
:1005C00001C08081FF91EF919F918F912F910F90AA
:1005D0000FBE0F901F9018951F920F920FB60F929B
:1005E00011242F933F938F939F93AF93BF93809149
:1005F000300190913101A0913201B09133013091DD
:100600002F0123E0230F2D3720F40196A11DB11DEA
:1006100005C026E8230F0296A11DB11D20932F01CE
:100620008093300190933101A0933201B093330154
:100630008091340190913501A0913601B09137013C
:100640000196A11DB11D8093340190933501A093B3
:100650003601B0933701BF91AF919F918F913F9138
:100660002F910F900FBE0F901F9018951F920F9211
:100670000FB60F9211242F933F934F935F936F9375
:100680007F938F939F93AF93BF93CF93DF93EF931A
:10069000FF9380910101833008F0E7C080912E0123
:1006A000885F80932E012091000130E0F901E2552E
:1006B000FF4F8491F901E656FF4FD491F901EA57B3
:1006C000FF4FC491CC23A1F081110E94D401EC2FE3
:1006D000F0E0EE0FFF1FE859FF4FA591B491EC91A8
:1006E000ED2331E020E009F430E0832F922F02C0A7
:1006F00080E090E0282F30912D01831304C0909367
:100700002C0180932B0120932D0120912B013091FE
:100710002C018091290190912A0140910101411100
:100720000AC028173907E9F180912B0190912C011B
:100730000197B9F53FC0409101014130B1F428174C
:10074000390779F180912801823030F080912901B8
:1007500090912A010197C9F480912E018132F8F01D
:1007600080912E018234D8F410C0409101014230B2
:10077000C1F428173907A9F080912E01813278F051
:1007800080912E01823858F445C0809129019091C2
:100790002A01892BC9F480912E01813288F41092AC
:1007A000010180912B0190912C0190932A0180935B
:1007B00029015BC010922E011092280181E045C0F2
:1007C00080912E01823858F7809128018F5F8093A5
:1007D00028018091290190912A01892BA1F480910F
:1007E0002801823080F080912E01823460F082E016
:1007F00080930101109251011092500110924F010B
:1008000010924E012FC0809128018A3058F1109229
:10081000010128C080912E01823450F0609129019D
:1008200070912A0180910201909103010E948C0035
:1008300080912B0190912C01019751F490914E01E0
:1008400080910501981720F083E080930101A9CFE2
:1008500060912B0170912C01809102019091030114
:100860000E948C0010922E019CCFFF91EF91DF919E
:10087000CF91BF91AF919F918F917F916F915F9138
:100880004F913F912F910F900FBE0F901F90189591
:10089000E2E5F1E01382128288EE93E0A0E0B0E09E
:1008A00084839583A683B7838AE091E091838083D4
:1008B00085EC90E09587848784EC90E09787868725
:1008C00080EC90E0918B808B81EC90E0938B828B1D
:1008D00082EC90E0958B848B86EC90E0978B868BF6
:1008E000118E128E138E148E1092F5010895789445
:1008F00084B5826084BD84B5816084BD85B5826025
:1009000085BD85B5816085BD80916E0081608093D5
:100910006E0010928100809181008260809381003E
:10092000809181008160809381008091800081604E
:10093000809380008091B10084608093B1008091A9
:10094000B00081608093B00080917A0084608093D1
:100950007A0080917A00826080937A0080917A0098
:10096000816080937A0080917A00806880937A0019
:100970001092C10061E08DE00E9429028091040183
:100980000E94FD01E0916201F0916301C2E0C08329
:10099000E0915E01F0915F011082E0916001F091C1
:1009A000610187E6808310926A01E0916601F0910F
:1009B000670186E08083E0916401F09165018081A8
:1009C00080618083E0916401F0916501808188609D
:1009D0008083E0916401F09165018081806880836B
:1009E000E0916401F091650180818F7D808314E046
:1009F0001093000160E084E00E94290260E084E03E
:100A00000E942902C093B0001093B10081E080934E
:100A1000B300C09370001092B20086E1809305018C
:100A200088E391E090930301809302011092010109
:100A30000E9465026B017C0194EF892E99249394A6
:100A4000A12CB12C0E946502DC01CB018C199D09FF
:100A5000AE09BF09883E9340A105B10598F321E096
:100A6000821A9108A108B10888EEC80E83E0D81E4A
:100A7000E11CF11C81149104A104B10419F74AE0AE
:100A800050E06BE171E082E591E00E94C4000E94B9
:100A90008A02D6E188E3E82E81E0F82E80910101F8
:100AA000833011F5D090380109E311E0C1E0CD1594
:100AB00048F4F80161918F0182E591E00E945B01A9
:100AC000CF5FF5CF0E948A02D0930501F092030117
:100AD000E092020110920101809104018F5F817008
:100AE000809304010E94FD010E94CA01D7CFEE0F3E
:100AF000FF1F0590F491E02D099481E090E0F894B7
:080B00000C948205F894FFCF6C
:100B0800FF0426010102000000005B01C400F2009E
:100B1800A8012301010115010D0A005365747570C0
:060B280020456E6421006F
:00000001FF
