:1059BE00FD0AA4FD0B40FD0DE0FD0F09FD1004FDD9
:1059CE001401FD1504FD160AFD1A04FE837FFFB0B7
:1059DE0027FFB10FFFB210FFB310FFB410FFF01A84
:1059EE00FFF1E9FFF2FDFFF3F5FFF4FDFFF50EFF0A
:1059FE00F6FDFFF7F5FFF8E9FFF9FDFFFA23FFFBD0
:105A0E0081FC0000FC90C2FC9101FC9204FC93000E
:105A1E00FC98E9FC9901FC9AA1FC9B03FC9C03FCFD
:105A2E009D00FC9E06FC9F00FCA05BFCA100FCA25E
:105A3E007FFCA303FCA406FCA500FCA60BFCA700A0
:105A4E00FCA821FCA900FCAA01FCAB02FCB728FCB7
:105A5E00B802FCBB20FCBC02FCBD01FCBE00FCBFBE
:105A6E0000FCC44EFCC502FCC669FCC704FCC8029F
:105A7E00FCC900FCCA06FCCB00FCCC54FCCD00FCDF
:105A8E00CE7AFCCF03FCD100FCD20AFCD300FCD4AE
:105A9E0021FCD500FCD601FCD702FCD002FF00038E
:105AAE00FF0103FF0207FF030CFF0411FF0518FFA0
:105ABE000620FF0729FF0833FF093DFF0A47FF0BAA
:105ACE0052FF0C5DFF0D69FF0E75FF0F81FF108DEC
:105ADE00FF119AFF12A6FF13B2FF14BDFF15C8FFE8
:105AEE0016D1FF17DAFF18E2FF19E8FF1AEEFF1BB7
:105AFE00F2FF1CF5FF1DF8FF1EFBFF1FFDFF20032D
:105B0E00FF2107FF220CFF2311FF2418FF2520FF82
:105B1E002629FF2733FF283DFF2947FF2A52FF2B57
:105B2E005DFF2C69FF2D75FF2E81FF2F8DFF309AA3
:105B3E00FF31A6FF32B2FF33BDFF34C8FF35D1FFB0
:105B4E0036DAFF37E2FF38E8FF39EEFF3AF2FF3B75
:105B5E00F5FF3CF8FF3DFBFF3EFDFF3F03FF400717
:105B6E00FF410CFF4211FF4318FF4420FF4529FF60
:105B7E004633FF473DFF4847FF4952FF4A5DFF4B03
:105B8E0069FF4C75FF4D81FF4E8DFF4F9AFF50A65A
:105B9E00FF51B2FF52BDFF53C8FF54D1FF55DAFF7C
:105BAE0056E2FF57E8FF58EEFF59F2FF5AF5FF5B3A
:105BBE00F8FF5CFBFF5DFDFC9670A570707070FCCD
:105BCE0097030403030303FCAC1D1D00000000FC3F
:105BDE00AD006900000000FCAE006E00000000FC8D
:105BEE00AF000000000000FCB0000000000000FC50
:105BFE00C27AA767676767FCC3030403030303FC4A
:105C0E00D8080C00000000FCD9026700000000FC60
:105C1E00DA006D00000000FCDB000000000000FC5C
:105C2E00DC000000000000FFD38080808080808038
:105C3E0080FFD4808C8C8C8C8C8C8CFFD5000000DB
:105C4E000000000000FFD63E36363636363636FDBC
:105C5E003211FD3311FD3411FD3511FD3611FD37B5
:105C6E0011FD3811FD3911FD3A11FD3B11FD3C11AD
:105C7E00FD3D11FD3E11FD3F11FD4011FD4111FD98
:105C8E004401FD4500FD4600FD4700FD4800FD496D
:105C9E0000FD4A00FD4B00FD500F00FF59BEFF5B9B
:045CAE00C5FF5C359D
:0B7EC400FDE0F5347535647BA97F49B3
:047ECF008D32AA073F
:107ED300E532C3940A5003027F80E53494004031B5
:107EE300E53513F924FEFFE534C39F5024EA240A41
:107EF300FFE433FEC3ED9FFFE49EFEAD347C00122E
:107F03004CECE924FEFDEC34FFFC124CFEEF2A801E
:107F130066E535C313FF24FEFEE534C39E4021EF1F
:107F23002402FFE433FED3E5349FEE6480F87480CB
:107F330098500DE535C313FFE5322534C39F8037D1
:107F4300E535C313F92402FFE433FEC3E5349FFD93
:107F5300E49EFCEB24F6FFE434FFFEC3EF9532FF0F
:107F6300EE9400FE124CECE924FEFDE434FFFC1217
:0F7F73004CFEE532240A2FFF900066F022AF3259
:017F820022DC
:109D5500EDC313FEB50703E48046EFC39E501FEF26
:109D6500C394004019EF75F014A4FFAEF0EDC313D2
:109D7500FD7C00124CFEC374149F44808022EDC309
:109D850013F9EFD399401DEFD39D5018EF75F01ED1
:109D9500A4FFAEF0E9FD7C00124CFEEF24E2547FF7
:099DA500900066F0900066E0FFFA
:019DAE002292
:05A4470090000BE0FF96
:10A44C00E4900066F0900066E0FEC394015021EEAB
:10A45C0075F00AA424A8F582E4345CF583E493B582
:10A46C000706900066E0FF22900066E004F080D5BD
:02A47C007F005F
:01A47E0022BB
:108FAE0012A44C90005BEFF0E4900059F0A3F09007
:108FBE000059E0FEA3E0FFC394ADEE940050707C28
:108FCE00007D03124CECA3E0FD75F00AA424A9F574
:108FDE0082E4345CF583E493FB740193FA74029398
:108FEE002FF9EA3EFA900002124C9DFFED75F00A41
:108FFE00A424A9F582E4345CF583E493FB74019315
:10900E00FA740293F9900059E0FCA3E0F5828C8388
:10901E007403124F4F124DCAF58285F083EFF09014
:0F902E00005AE004F07088900059E004F0808050
:01903D002210
:109CF700E4900059F0A3F0900059E0FEA3E0FF9034
:109D07005C5F75F003124F60EE75F003A42583F5D1
:109D170083E493FD905C5D75F003EF124F60EE7581
:109D2700F003A42583F583E493FE740193F5828EF3
:109D370083EDF090005AE004F07006900059E004BB
:0D9D4700F0900059E07004A3E0641970AAC8
:019D540022EC
:01B9300022F4
:0271E9008F30E5
:1071EB0012A447900065EFF0E4900064F090006407
:1071FB00E0FFC394045076A3E075F00AA424AFF526
:10720B0082E4345CF583E493FB740193FA74029388
:10721B00F9EF75F00AA4FFE92FF9EA35F0FAE92442
:10722B0002F9E43AFA7E00E92530F9EE3AFA124C0B
:10723B0084FF900065E075F00AA424AFF582E43476
:10724B005CF583E493FB740193FA740293F9900059
:10725B0064E075F00AA4F58285F083124DCAF582BD
:10726B0085F083EFF0900064E004F0808090FFD411
:10727B00E0900094F090FFD3E0900095F090FFD653
:10728B00E0900093F090FFD5E0900092F090009486
:10729B00E0900014127EC4900094EFF0A3E0FD90F8
:1072AB000015E0F5347535647BB0E4FF127ECF90AA
:1072BB000095EFF0900093E0FD900016E0F534752B
:1072CB0035647B44E4FF127ECF900093EFF002898C
:0172DB006D45
:028D5A008F3058
:108D5C00C2AF90FCE4E04440F0E4900064F012A454
:108D6C0047EF75F00AA424ACF582E4345CF583E497
:108D7C0093FB740193FA740293F9900064E075F01C
:108D8C0008A4FFE92FF9EA35F0FAE92402F9E43AEC
:108D9C00FA7E00E92530F9EE3AFA124C84FD12A461
:108DAC0047EF75F00AA424ACF582E4345CF583E457
:108DBC0093FB740193FA740293F9900064E075F0DC
:108DCC0008A4F58285F083124DCAF58285F083EDF7
:108DDC00F0900064E004F0E0C3940E408190FCEA53
:048DEC00E4F0D2AF2E
:018DF0002260
:01B9310022F3
:10896D00900094E0900010127EC490FFD4EFF09030
:10897D000095E0FD900011E0F5347535647BB0E4B1
:10898D00FF127ECF90FFD3EFF0900093E0FD9000AB
:10899D0012E0F5347535647B44E4FF127ECF90FF11
:1089AD00D6EFF0900013E0FF7D64129D5590FFD53A
:1089BD00EFF07F04E47056EF14601C14602B14600C
:1089CD003A2403704890000EA3E0F5357F007E0039
:1089DD007D007C000285F990000EA3E0F5357F0047
:1089ED007E007D007C000286AA90000EA3E0F53586
:1089FD007F007E007D007C0002875B90000EA3E06F
:0E8A0D00F5357F007E007D007C0012880C2273
:10451B004A616E00466562004D6172004170720027
:10452B004D6179004A756E004A756C0041756700E4
:10453B00536570004F6374004E6F760044656300E3
:10454B0041707220313320323031350031313A3401
:10455B00303A33390001E501E601E701E801E901F1
:10456B00EA01EB01EC01ED01EE01EF01F001F101CC
:10457B00F201F301F401F501F601F701F801F9017C
:10458B00FA01FB01FC01FD01FE01FF020002010229
:10459B00020203020401C0021002050020020802FD
:1045AB00090020020B020C024202060241005100DC
:1045BB0052020D005801C101C201C301C401C50162
:1045CB00C601C701C801C901CA020E0059004D023C
:1045DB0011004E020F021201CB01CC01CD01CE0115
:1045EB00CF01D001D101D201D301D401D501D60124
:1045FB00D701D801D901DA01DB01DC01DD01DE01D4
:10460B00DF01E001E101E201E301E400630064008A
:10461B006500660067010901CB01CC01CD01CE011C
:10462B00CF01D001D101D201D301D401D501D601E3
:10463B00D701D801D901DA01DB01DC01DD01DE0193
:10464B00DF01E001E101E201E301E4010A010B01F9
:10465B000D02390133013701380139013A013B02AF
:10466B001302140215021602170218021A021B0279
:10467B001C021D021E021F0220022102250226021D
:10468B00270228022A022B022C022D022E022F02B5
:10469B00300229023B0020023F0222024002190293
:1046AB0023002000200020022402320233023E02AB
:1046BB003A023C017B017C01980199019A019F010F
:1046CB00A001A10207020A00000000000000000088
:1046DB0000000000000000000000000000000000CF
:1046EB0000000000000000000000000000000000BF
:1046FB0000000000000000000000000000000000AF
:10470B00000000000000000000000000000000009E
:10471B00000000000000000000000000000000008E
:10472B00000000000000000000000000000000007E
:10473B00000000000000000000000000000000006E
:10474B00000000000000000000000000000000005E
:10475B000000000000024300640065025700670080
:10476B00680069006A006B006C006D006E024F0000
:10477B00700249024A00730074007500760245020C
:10478B00460079007A007B007C007D007E007F0272
:10479B00550081008200830084008500860087001D
:1047AB00880089008A008B008C008D008E008F00A2
:1047BB0090025002510093009400950096009700D0
:1047CB0098009902470248009C009D009E009F00A4
:1047DB00A000A100A2024B025200A50254025800F5
:1047EB00A800A900AA00AB00AC00AD00AE00AF0260
:1047FB005600B100B200B300B4026200B600B700BD
:10480B00B800B900BA00BB024C024D024E00BF000B
:10481B00C000C100C200C300C4025300C602440260
:10482B006000C900CA00CB026700CD025D025E02C8
:10483B005F0261025B025C026300D700D800D90003
:10484B00DA026900DC00DD00DE00DF00E000E100E1
:10485B00E200E300E400E50268026602640265021E
:10486B0059025A00EC00ED00EE00EF00F000F100F1
:10487B00F200F300F400F500F600F700F800F90081
:10488B00FA00FB00FC00FD00FE00FF01000101012E
:10489B0002010301040105010E010F0110011101B9
:1048AB001201130114011501160117011801190149
:1048BB001A011B011C011D011E011F0120012101F9
:1048CB0022012301240125012601270128012901A9
:1048DB002A012B012C012D012E012F013001310159
:1048EB0066016701680169016A016B016C016D0169
:1048FB006E016F0170017101720173017401750119
:10490B0076017701780179017A017D017E017F01C2
:10491B008001810182018301840185018601870168
:10492B00880189018A018B018C018D018E018F0118
:10493B0090019101920193019401950196019701C8
:10494B009B019C019D019E000000000000000000E7
:10495B000000000000026A026B026C026D026E0224
:10496B006F02700271027202730274027502760298
:10497B0077027802790000000000000000000000C0
:10498B00000000000000000000000000000000001C
:10499B00000000000000000000000000000000000C
:1049AB0000000000000000000000000000000000FC
:1049BB0000000000000000000000000000000000EC
:1049CB0000000000000000000000000000000000DC
:1049DB0000000000000000000000000000000000CC
:1049EB0000000000000000000000000000000000BC
:1049FB0000000000000000000000000000000000AC
:104A0B00000000000000000000000000000000009B
:104A1B00000000000000000000000000000000008B
:104A2B00000000000000000000000000000000007B
:104A3B00000000000000000000000000000000006B
:104A4B00000000000000000000000000000000005B
:104A5B00000000000000000000000000000000004B
:104A6B00000000000000000000000000000000003B
:104A7B00000000000000000000000000000000002B
:104A8B00000000000000000000000000000000001B
:104A9B00000000000000000000000000000000000B
:104AAB0000000000000000000000000000000000FB
:104ABB0000000000000000000000000000000000EB
:104ACB0000000000000000000000000000000000DB
:104ADB0000000000000000000000000000000000CB
:104AEB0000000000000000000000000000000000BB
:104AFB0000000000000000000000000000000000AB
:104B0B00000000000000000000000000000000009A
:104B1B00000000000000000000000000000000008A
:104B2B00000000000000000000000000000000007A
:104B3B00000000000000000000000000000000006A
:104B4B00000000000000000000000000000000005A
:104B5B00000000000030313233343536373839003D
:104B6B0000000000303132333435363738394142AA
:104B7B004344454600000000000234023502360271
:034B8B00370238B6
:109BD8001808451B451F45234527452B452F453369
:109BE8004537453B453F45434547420074000042E1
:089BF800007600004100780036
:10B36800C3EF9DEE9C4007EF9DFFEE9CFE22C3EDD0
:06B378009FFFEC9EFE2287
:100DA600E490009EF0A3740AF07F647E0012B27B8A
:100DB60090009FE0FF14F0EF602A12A9DC7F027E0C
:100DC6000012B45F7FE012A0797F017E0012B45F4B
:100DD60012A4B5400690009EE004F07F017E00124A
:100DE600B45F80CC12B21A90009EE0C39405400F07
:100DF6009000537401F0FF7E0012B45F02B3BFE4AB
:0A0E0600900053F053EEFE43EA01A2
:010E100022BF
:1085F900AB07AA06A905A8047FC07EFC7D9B7C0168
:10860900124E8DE4FCFD900066124F43746485356B
:10861900F08490006EF0FBE4FAF9F8900066E0FC53
:10862900A3E0FDA3E0FEA3E0FF124E8DE4FCFD9064
:10863900006A124F4390FD19E054BFF0E04408F07E
:1086490090FD42E04403F0E054FBF090FD1FE0543C
:10865900EFF0E04401F0900066A3A3A3E0FF90FDD2
:1086690020EFF0900066E0FCA3E0FDA3E0FEA3E0AC
:10867900FF7808124F3090FD21EFF090006AA3A314
:10868900A3E0FF90FD28EFF090006AE0FCA3E0FD75
:10869900A3E0FEA3E0FF7808124F3090FD29EFF028
:0186A90022AE
:1086AA00AB07AA06A905A8047FC07EFC7D9B7C01B6
:1086BA00124E8DE4FCFD900066124F4374648535BA
:1086CA00F08490006EF0FBE4FAF9F8900066E0FCA2
:1086DA00A3E0FDA3E0FEA3E0FF124E8DE4FCFD90B3
:1086EA00006A124F4390FD19E054BFF0E04408F0CD
:1086FA0090FD42E04430F0E054BFF090FD1FE0549A
:10870A00DFF0E04402F0900066A3A3A3E0FF90FD2F
:10871A0022EFF0900066E0FCA3E0FDA3E0FEA3E0F8
:10872A00FF7808124F3090FD23EFF090006AA3A360
:10873A00A3E0FF90FD2AEFF090006AE0FCA3E0FDC1
:10874A00A3E0FEA3E0FF7808124F3090FD2BEFF074
:01875A0022FC
:10875B00AB07AA06A905A8047FC07EFC7D9B7C0104
:10876B00124E8DE4FCFD900066124F437464853508
:10877B00F08490006EF0FBE4FAF9F8900066E0FCF0
:10878B00A3E0FDA3E0FEA3E0FF124E8DE4FCFD9001
:10879B00006A124F4390FD19E054BFF0E04408F01B
:1087AB0090FD43E04403F0E054FBF090FD1FE054D8
:1087BB00BFF0E04404F0900066A3A3A3E0FF90FD9C
:1087CB0024EFF0900066E0FCA3E0FDA3E0FEA3E045
:1087DB00FF7808124F3090FD25EFF090006AA3A3AD
:1087EB00A3E0FF90FD2CEFF090006AE0FCA3E0FD0E
:1087FB00A3E0FEA3E0FF7808124F3090FD2DEFF0C1
:01880B00224A
:10880C00AB07AA06A905A8047FC07EFC7D9B7C0152
:10881C00124E8DE4FCFD900066124F437464853556
:10882C00F08490006EF0FBE4FAF9F8900066E0FC3E
:10883C00A3E0FDA3E0FEA3E0FF124E8DE4FCFD904F
:10884C00006A124F4390FD19E054BFF0E04408F069
:10885C0090FD31E04430F0E054BFF090FD1FE05447
:10886C007FF0E04408F0900066A3A3A3E0FF90FD26
:10887C0026EFF0900066E0FCA3E0FDA3E0FEA3E091
:10888C00FF7808124F3090FD27EFF090006AA3A3F9
:10889C00A3E0FF90FD2EEFF090006AE0FCA3E0FD5A
:1088AC00A3E0FEA3E0FF7808124F3090FD2FEFF00D
:0188BC002299
:107ACE0078597C007D017BFF7A45794B7E007F0CD7
:107ADE00124C5E78657C007D017BFF7A4579577E7E
:107AEE00007F09124C5E7B017A007962128A1B902C
:107AFE00006EEFF0E490005FF07B017A00795D128A
:107B0E008A1B900070EFF0E490005CF0900073F030
:107B1E00900073E0FFC3940C502EEF25E02408F87C
:107B2E00E6FE08E6AA06F97BFF78597C007D011275
:107B3E005166EF700B900073E00490006FF08008B8
:107B4E00900073E004F080C87B017A007965128A98
:107B5E001B900071EFF07B017A007968128A1B90FE
:107B6E000072EFF090FD5C7414F090006EE090FDEA
:107B7E005DF090006FE090FD5EF0900070E090FD83
:107B8E005FF0900071E090FFDBF0900072E090FFEC
:027B9E00DCF019
:017BA00022C2
:10026B00AFB2900074E4F0A3EFF0E07F00FE9000DB
:10027B0074F0A3EFF0ADB1EDFF900074EEF0A3EFCF
:10028B00F0A3E0FEA3E0FF900074E0FCA3E0FDD33D
:10029B009FEC9E404CED9FFFEC9EFE9000A0F0A3C8
:1002AB00EFF0C39491EE945B5003020356E0246F7E
:1002BB00F09000A0E034A4F0E0FEA3E0FFC39000B8
:1002CB0075E09FFF900074E09EFEF0A3EFF0A3EEAD
:1002DB00F0A3EFF0900051E004F0C3943C406CD3DA
:1002EB0022900076E0FEA3E0FFC374FF9F9000A175
:1002FB00F074FF9E9000A0F0900074E0FEA3E0FF6E
:10030B009000A1E02FF09000A0E03EF0C3A3E0949A
:10031B00919000A0E0945B4032A3E0246FF090003A
:10032B00A0E034A4F0E0FCA3E0FDC3EF9DFFEE9C46
:10033B00FE900074F0A3EFF0A3EEF0A3EFF09000AB
:0C034B0051E004F0C3943C4002D322C3F4
:010357002283
:1004330074FF900061F0A3F0EF14604414607B2418
:1004430002600302050343E90143ED0190FDB0E0BF
:1004530054874408F0A3E0540F4420F090FDB8E023
:1004630030E2F990FDBDE0FF900061E4F0A3EFF00E
:10047300E07F00FE900061F0A3EFF090FDBC80727E
:1004830043E90243ED0290FDB0E054874410F0A32A
:10049300E0540F4440F090FDB8E030E5F990FDBF23
:1004A300E0FF900061E4F0A3EFF0E07F00FE900036
:1004B30061F0A3EFF090FDBE803843E90443ED04FF
:1004C30090FDB0E054874420F0A3E0540F4480F043
:1004D30090FDB9E030E0F990FDC1E0FF900061E4E8
:1004E300F0A3EFF0E07F00FE900061F0A3EFF09047
:1004F300FDC0E0FDEDFF900061EEF0A3EFF08000A2
:0F05030090FDB8E4F0A3F0900061E0FEA3E0FFEC
:0105120022C6
:0D000E00EF700343C680BF010353C67F227D
:10B3D400300310C20390FD1FE054FEF07F647E0032
:04B3E40012B27B2204
:10B3E800200310D2037F647E0012B27B90FD1FE021
:04B3F8004401F022FA
:10B0000090FD11E0541FF0A3E05410F0A3E0E4F031
:0FB0100090FD0EE054F3F090FED7E054FCF022D8
:10AA040090FD11E044E0F0A3E044EFF0A3E074FF14
:10AA1400F090FD0EE0440CF090FED7E04403F07F8C
:06AA2400C87E0002B27BB7
:109C3900EFB407005052909C46F8282873029C8B79
:109C4900029C5B029C63029C6B029C73029C8302D4
:109C59009C7B90FFD27450F0802E90FFD27451F00B
:109C6900802690FFD27452F0801E90FFD27453F078
:109C7900801690FFD27454F0800E90FFD27455F084
:0F9C8900800690FFD2744FF07F647E0002B27BA2
:01B9320022F2
:10997400EF1460451460232402703E90FED7E05437
:10998400E7F0A3E04480F0E054BFF090FED7E04459
:1099940018F090FEDCE054DF801990FED7E054E725
:1099A400F0A3E0543FF090FED7E04418F090FEDCC2
:1099B400E04420F0E054EFF02290FED7E054E7F0CA
:1099C400A3E044C0F090FED7E04418F090FEDCE041
:0899D4004420F0E04410F022F1
:01B9330022F1
:10964B0053EDF743E90890FF827401F090FF6274C9
:10965B003FF0A37410F0A37404F090FF6BE4F0A33D
:10966B00F0A3F0A3F090FF7904F0A37473F0A3744C
:10967B00FFF0A37402F090FF777459F0A3E4F0901D
:10968B00FF657476F0A3743BF0A37408F0A3741514
:10969B00F0A37407F0A304F090FF6F7476F0A3743B
:1096AB001CF0A37408F0A374F5F090FF617405F03F
:0796BB0090FF7D740FF02207
:100ED50090FF85E0FF90009AE4F0A3EFF0E07F003B
:100EE500FE90009AF0A3EFF090FF83E0FDEDFF90F8
:100EF500009AEEF0A3EFF090009AE0FEA3E0FFBEAB
:100F05006B14BF8611ADE4EDFF90009CEEF0A3EFEE
:100F1500F075E4FF800B75E4FF74FF90009CF0A36F
:0A0F2500F090009CE0FEA3E0FF2224
:10A0310090FD177418F090FDB27420F090FDB1748A
:10A041000FF090FDB0E4F090FDB47422F0A37437EA
:10A05100F090FDC874FFF0A3740FF0A3E4F090FD3D
:10A06100CC74FFF0A3740FF090FDB8E4F0A3F0906E
:08A07100FDB674FFF0A3F0221C
:10A47F0090FED7E04414F0E04408F0A3E0441BF052
:10A48F00E054DBF0A3E054CFF0E04440F090FEDB6B
:10A49F00E0547FF090FE01E04410F090FE04743021
:06A4AF00F0A37440F0224E
:10A10600128CC1129CF790000BE0FF128FAE7F04F9
:10A11600129974E4FF128D5AE4FF1271E912B930F4
:10A1260090FD0E742CF07F647E0012B27B90FEA030
:10A13600E04401F07F0A7E0012B27B90FEA0E0545C
:03A14600FEF02206
:10A0C00090FB57740FF090FB56E4F090FB5974F03E
:10A0D000F090FB58E4F090FB5B74F0F090FB5A7446
:10A0E0000FF090FB5D74FFF090FB5CE4F090FB5F81
:10A0F0007488F090FB5E7408F090FB6174FFF09040
:06A10000FB60740FF02269
:0699DC008B538A548955EB
:1099E200E49000A6F0F0AB53AA54A9559000A6E06B
:1099F200FF75F002A42401F582E435F0F583124CE0
:109A02009DFE75F002EFA42436F582E5F034FBF5F5
:109A120083EEF09000A6E0FF75F002A4F58285F0D7
:109A220083124C9DFE75F002EFA42437F582E5F017
:109A320034FBF583EEF09000A6E004F0E0B410A64B
:019A42002201
:1092EE00AB07EB64017019ED90FB17F090FB14E0E7
:1092FE00547FF0E0FAECC43333335480FFEA4FF07E
:10930E00EB64027019ED90FB1DF090FB1AE0547F98
:10931E00F0E0FAECC43333335480FFEA4FF0EB64E1
:10932E00037019ED90FB23F090FB20E0547FF0E0EA
:10933E00FAECC43333335480FFEA4FF0EB6404701D
:10934E0019ED90FB29F090FB26E0547FF0E0FBEC4A
:0F935E00C43333335480FFEB4FF0AE04AF05221E
:10768900E490006CF0A3F0900078E0F96401702FA9
:1076990090FB14E05480C41313135401FF90006C41
:1076A900E4F0A3EFF0E07F00FE90006CF0A3EFF0B0
:1076B90090FB17E0FDEDFF90006CEEF0A3EFF0E911
:1076C9006402702F90FB1AE05480C4131313540101
:1076D900FF90006CE4F0A3EFF0E07F00FE90006CF7
:1076E900F0A3EFF090FB1DE0FDEDFF90006CEEF0D4
:1076F900A3EFF0E96403702F90FB20E05480C413DA
:1077090013135401FF90006CE4F0A3EFF0E07F0045
:10771900FE90006CF0A3EFF090FB23E0FDEDFF90ED
:10772900006CEEF0A3EFF0E96404702F90FB26E003
:107739005480C41313135401FF90006CE4F0A3EFB9
:10774900F0E07F00FE90006CF0A3EFF090FB29E0E1
:10775900FDEDFF90006CEEF0A3EFF090006CE0FE01
:03776900A3E0FF9B
:01776C0022FA
:10A29500900078E0FE700890FB07EFF0A3EDF0EE7C
:10A2A500B4010890FB12EFF0A3EDF0EEB4020890B4
:10A2B500FB18EFF0A3EDF0EEB4030890FB1EEFF0F2
:10A2C500A3EDF0EEB4040890FB24EFF0A3EDF0222B
:05A14900EEF0A3EFF0B1
:10A14E00900078E0FD700590FB078029EDB40105C5
:10A15E0090FB128020900078E0FDB4020590FB1871
:10A16E008013EDB4030590FB1E800A900078E0B4D6
:0EA17E00040890FB24E0FF7E0022E4FEFF2296
:1096C200E4900061F0A3F0900078E0FF700DA3E059
:1096D200FDA3E0900061CDF0A3EDF0EFB4010F9097
:1096E200007BE0FFA3E0900061CFF0A3EFF09000D9
:1096F20078E0B4020F90007DE0FFA3E0900061CF1C
:10970200F0A3EFF0900078E0FFB4030F90007FE049
:10971200FDA3E0900061CDF0A3EDF0EFB4040F9053
:109722000081E0FFA3E0900061CFF0A3EFF0900092
:0697320061E0FEA3E0FF70
:01973800220E
:10B4100090FB05E0FE7401A807088002C333D8FC46
:03B420004EF022C9
:10B3FC0090FB05E0FE7401A807088002C333D8FC5B
:04B40C00F45EF022D8
:08B7BD0090FB05E054E1F022CD
:06B90800900078EFF02230
:09B7990090FB76EFF0A3EDF02225
:10A3CD00E4900059F0A3F0900059E0FCA3E0FDECFF
:10A3DD0090FB0DF0ED90FB00F090FB0EE4F090FB88
:10A3ED0001F090005AE004F07006900059E004F07E
:0CA3FD00900059E0B401D0A3E0B4A2CB62
:01A409002230
:1095D300E490005DF0A3F0A3F0A3F012B9081276B3
:1095E3008990005DEEF0A3EFF01296C290005FEE5B
:1095F300F0A3EFF090005DE0FEA3E0FF900060E0D9
:109603002FF090005FE03EF0EE90FB0DF090005DD8
:10961300A3E090FB00F090005FE0FEA3E0FF90006A
:109623005DE0FCA3E0C39FEC9E501CEC90FB0DF0AF
:10963300A3E4F090FB01F090005EE004F070D7909B
:07964300005DE004F080CFA0
:01964A0022FD
:048042008F2FAA05CD
:10804600900069E52FF0EBC3952FFFE49400FE7CCA
:1080560000EF252FFFEC3EFE900069E0D39FEE6413
:1080660080F874809840030280FE1276899000643E
:1080760012A149900069E0FD124CECEA2FFFEC3E9C
:10808600FE900066F0A3EFF0900065E02FF0900000
:1080960064E03EF0E0FCA3E0FDEC90FB0DF0ED901B
:1080A600FB00F0900068EAF0EAFFC3E5329FFFE4C8
:1080B6009400FEEA7C002FFFEC3EFE900068E0D3C1
:1080C6009FEE6480F87480985025900064E090FBE1
:1080D6000DF0A3E4F090FB01F0900068E004F0904E
:1080E6000065E004F070C1900064E004F080B9908F
:0880F6000069E004F002804C77
:0180FE00225F
:10A78600EF6401702090FB06E04440F0ED7006E0B7
:10A796004480F0800790FB06E0547FF090FB0CE0CD
:0DA7A60054F84BF02290FB06E054BFF02267
:0FB47B00EFC43354E0FF90FB0CE0541F4FF0225E
:109F510090FB05E054BFF0BF0106E04480F08007AC
:109F610090FB05E0547FF0ED14601214601B146047
:109F7100242403702790FB78E0540FF02290FB78A3
:109F8100E0543FF0E04430F02290FB78E054CFF011
:0D9F9100E044C0F02290FB78E044F0F022A4
:0297AF00AC0705
:1097B100E490005DF0A3F0A3F0A3F012768990008D
:1097C1005DEEF0A3EFF01296C290005FEEF0A3EF12
:1097D100F090005DE0FEA3E0FF900060E02FF090CC
:1097E100005FE03EF0EE90FB0DF090005DA3E09095
:1097F100FB00F090005FE0FEA3E0FF90005DE0FA67
:10980100A3E0C39FEA9E501AEA90FB0DF090FB1073
:10981100ECF090005EE004F070D990005DE004F09F
:0298210080D1F4
:019823002222
:1079FA008E2A8F2B900078E0702190FB0AEFF0A37B
:107A0A00EDF090FB09E05488F0E0FBEC5407C45415
:107A1A00F0FAE52A54074AFFEB4FF0900078E06449
:107A2A0001702290FB15E52BF0A3EDF090FB14E01A
:107A3A005488F0E0FBEC5407C454F0FAE52A5407E2
:107A4A004AFFEB4FF0900078E06402702290FB1B33
:107A5A00E52BF0A3EDF090FB1AE05488F0E0FBEC84
:107A6A005407C454F0FAE52A54074AFFEB4FF09042
:107A7A000078E06403702290FB21E52BF0A3EDF07F
:107A8A0090FB20E05488F0E0FBEC5407C454F0FA71
:107A9A00E52A54074AFFEB4FF0900078E06404703F
:107AAA002290FB27E52BF0A3EDF090FB26E054880B
:107ABA00F0E0FBEC5407C454F0FDE52A54074DFFEF
:047ACA00EB4FF0226C
:066E8E008D388B39AC07C2
:106E9400E53C453B453A7003026FAF12768990009A
:106EA4006612A149ECFD7C00124CECEF2538FFEC96
:106EB4003EFE90006AF0A3EFF0900067E02FF090A0
:106EC4000066E03EF0E0FEA3E0FFA3EEF0A3EFF0E7
:106ED400EE90FB0DF0900066A3E090FB00F0E4F56B
:106EE40038AB3AAA3BA93C8C82758300124C9DFDB9
:106EF4007003026F79900066E090FB0DF0ED64235F
:106F040070160C8C82F583124C9D75F002A42460DB
:106F1400F582E5F034478036AB3AAA3BA93C8C8233
:106F2400758300124C9DFD642670160C8C82F583CB
:106F3400124C9D75F002A42460F582E5F03449807A
:106F44000D75F002EDA42460F582E5F03445F58377
:106F5400E493FA740193FBEA90FB0EF0EB90FB01CF
:106F6400F0900067E004F07006900066E004F00C16
:106F74000538026EE5900068E0FCA3E0FDEC90FBB0
:106F84000DF0ED90FB00F0E5386020900068E09093
:106F9400FB0DF090FB10E539F01538900069E00422
:0B6FA400F070E4900068E004F080DC76
:016FAF0022BF
:066AFF008F2F8D308B315A
:106B0500E536453545347003026C32E5337009903E
:106B1500FB78E054BFF0805390FB78E04440F0E50B
:106B25003324FE601714601B14601F146027146063
:106B3500302405703690FBC6740F801390FBC67425
:106B4500F0800C90FBC674F0801C90FBC674FFF0BF
:106B5500A3E4F0801690FBC67488F0A37408F08057
:106B65000A90FBC674FFF0A3740FF0900063E52F45
:106B7500F0E52F2532FFE433FE900063E0C39FEE7E
:106B85006480F87480984003026C32127689900014
:106B95005E12A149900063E0FD7C00124CECEF25EC
:106BA50030FFEC3EFE900060F0A3EFF090005FE058
:106BB5002FF090005EE03EF0E0FCA3E0FDEC90FBE2
:106BC5000DF0ED90FB00F0900062E530F0E530252A
:106BD50031FFE433FE900062E0C39FEE6480F874F9
:106BE50080985040AB34AA35A936124D9FFF9000CE
:106BF50064E5F0F0A3EFF090005EE090FB0DF090FF
:106C05000064E0FCA3E0FDEC90FB0EF0ED90FB01D1
:106C1500F074022536F536E43535F535900062E039
:0D6C250004F080A9900063E004F0026B769B
:016C3200223F
:109824008F2D8E2C8D2B8C2AC2AF90FDDFE030E77C
:10983400F990FDDE7480F090FDDDE4F043C60890FD
:10984400FDD6E52DF0FFAE2CAD2BAC2A7808124FD7
:1098540030A3EFF0AF2DAE2CAD2BAC2A7810124F05
:1098640030A3EFF0A3E52FF0E52EA3F0E53114A328
:10987400F0E53124FFE53034FFA3F090FDD07440CF
:10988400F090FDDDE030E6F990FDDFE030E7F953DC
:05989400C6F7D2AF226F
:087D41008F4F8B508A518952CB
:107D4900E94A4B7003027E0290FB76E0900098F0BE
:107D590090FB77E0900099F0900098E0D394105050
:107D690004A3E08024900099E020E00D75F003A4BD
:107D7900FFE5F0C313EF138010900099E075F0034D
:107D8900A4FFE5F0C313EF1304900097F090009758
:107D9900E0854FF0A490FB02F0E4900096F090008B
:107DA90097E0FF900096E0C39F504EEF854FF0A4F7
:107DB900FFE07C002FEC35F0FF3395E090FB0FEFEF
:107DC900F0AB50AA51A952900096E0FF75F002A4B9
:107DD900F58285F083124C9D90FB04F0EF75F0025B
:107DE900A429F9EA35F0FA900001124C9D90FB03A1
:097DF900F0900096E004F080A572
:017E0200225D
:0A72DC008F2A8D2B8B2C8A2D892E12
:1072E600E94A4B70030273C990FB76E090005CF0AC
:1072F60090FB77E090005DF090005CE0D394105036
:1073060004A3E0802490005DE020E00D75F003A466
:10731600FFE5F0C313EF13801090005DE075F003F6
:10732600A4FFE5F0C313EF130490005BF090005B3D
:10733600E0852AF0A490FB02F0E4900059F090005A
:1073460059E0C3952B507CE4A3F090005BE0FF90DE
:10735600005AE0C39F504EEF852AF0A4FFE07C0060
:107366002FEC35F0FF3395E090FB0FEFF0AB2CAA36
:107376002DA92E90005AE0FF75F002A4F58285F043
:1073860083124C9D90FB04F0EF75F002A429F9EAF4
:1073960035F0FA900001124C9D90FB03F090005AD4
:1073A600E004F080A590005BE075F002A4AEF02545
:1073B6002EF52EEE352DF52D052A900059E004F018
:0373C6000273440B
:0173C90022A1
:0A6FB0008F3F8D408B418A428943D8
:106FBA00E94A4B70030270CC90FB76E0FB7A00A39F
:106FCA00E0754600F547EB54037015AC46AD47AF84
:106FDA0003FE124CECEEC313F544EF13F54580287B
:106FEA00EB54036402700AEAC313FEEB1324018014
:106FFA0008EAC313FEEB132402FFE43EFEAC46ADDF
:10700A0047124CEC8E448F45D3EB9410EA9400500F
:10701A00089000A3E547F08008E54725E09000A323
:10702A00F09000A3E0853FF0A490FB02F0E490000A
:10703A00A2F09000A2E0C3954040030270CCE4F5B0
:10704A0048F549E544C313FEE54513FFC3E5499FE7
:10705A00E5489E50589000A2E0FD7C00124CECAC32
:10706A0006AD07A3E0853FF0A42DFFEC35F0FEE561
:10707A00492FE5483E90FB0FF0E54925E0FFE5483A
:10708A0033FEAB41AA42A9438F82F583124C9D90ED
:10709A00FB04F0E92FF9EA3EFA900001124C9D90A8
:1070AA00FB03F00549E549709A05488096E54525B0
:1070BA0043F543E5443542F5429000A2E004F0026C
:0270CA00703C18
:0170CC0022A1
:0665BB008F328D338B349A
:1065C100785F7C007D017BFF7A4B796A7E007F05D5
:1065D100124C5EC3E53564809480400C900064E504
:1065E10035F0A3E536F08015E536F4FFE535F4FE28
:1065F100EF2401FFE43E900064F0A3EFF0C3E53522
:106601006480948090005F400474208002742DF0B7
:10661100900064E0FAA3E0FB7C007D64FFAE02120F
:106621004CFE74602FF582744B3EF583E493900029
:1066310060F07C007D64AF03AE02124CFEAA04AB95
:10664100057D0A7C00AF03AE02124CFE74602FF58B
:1066510082744B3EF583E493900061F07D0A7C00E7
:10666100AF03AE02124CFE74602DF582744B3CF503
:1066710083E493900062F0C3E53564809480403EEA
:10668100900064E0FAA3E0FB7C007D64FFAE02129F
:106691004CFEEF4E706B9000607420F07C007D64C6
:1066A100AF03AE02124CFE7E007F0ACFCDCFCECC1F
:1066B100CE124CFEEF4E7049A37420F0804390003F
:1066C10064E0FAA3E0FB7C007D64FFAE02124CFEA5
:1066D100EF4E702D90005F7420F0A3742DF07C00BC
:1066E1007D64AF03AE02124CFE7E007F0ACFCDCF98
:1066F100CECCCE124CFEEF4E70077420F0A3742D59
:10670100F0753A01753B00753C5FAB34AD33AF3288
:03671100026E8E87
:068328008F328D338B340F
:10832E00785F7C007D017BFF7A4B797F7E007F0535
:10833E00124C5EAE35AF367C107D00124D53746F0D
:10834E002FF582744B3EF583E49390005FF0AE35CB
:10835E00AF367C107D00124D53AA04AB057D007C18
:10836E0001AF03AE02124D53746F2FF582744B3E64
:10837E00F583E493900060F07D007C01AF03AE02C4
:10838E00124D53AA04AB057D107C00AF03AE021252
:10839E004D53746F2FF582744B3EF583E49390002A
:1083AE0061F07D107C00AF03AE02124D53746F2D41
:1083BE00F582744B3CF583E493900062F0753A01BC
:0F83CE00753B00753C5FAB34AD33AF32026E8E42
:0469BA00AA05AC0777
:1069BE0012768990005F12A149AD047C00124CEC56
:1069CE00EA2FFFEC3E900065F0A3EFF0900065E03B
:1069DE00FEA3E0FF900060E02FF090005FE03EF03D
:1069EE00E0FEA3E0FFA3EEF0A3EFF0EE90FB0DF0C0
:1069FE0090005FA3E090FB00F0AF367E007D481262
:106A0E004CECAD03124CFEAD07E4900063F0A3F026
:106A1E0090005FE090FB0DF0EDD39400404CED94B0
:106A2E00044019904B8CE49390FB0EF0904B8C74B9
:106A3E00019390FB01F074FC2DFD8053ED5403FD8A
:106A4E0025E02484F582E4344BF583E49390FB0E29
:106A5E00F0ED540325E02484F582E4344BF5837481
:106A6E00019390FB01F0E4FD8025ED25E02484F5F3
:106A7E0082E4344BF583E49390FB0EF0ED25E02495
:106A8E0084F582E4344BF58374019390FB01F0900E
:106A9E000060E004F0700690005FE004F090006487
:106AAE00E004F07006900063E004F0900063E07084
:106ABE0004A3E064126003026A1E900061E0FCA36E
:106ACE00E0FDEC90FB0DF0ED90FB00F07A14EA6027
:106ADE001F900061E090FB0DF090FB10E535F01A71
:106AEE00900062E004F070E6900061E004F080DE59
:016AFE002275
:1081BB00900078E0FE7046EFC39402402990FB2BB1
:1081CB0074FFF0A3F0A3F090FB2FF0A3F0A3F01F2C
:1081DB001FEFC454F0FF25E025E04207A3E0540F46
:1081EB00F0E04FF08017EF6401701290FB2BF0A3BF
:1081FB00F0A3F090FB2FF0A3F0A3F0A3F0EEB401EB
:10820B00121FEF25E025E0420790FB33E054F0F01E
:10821B00E04FF0900078E0640270161FEFC454F04A
:10822B00FF25E025E0420790FB33E054F0F0E04FF0
:10823B00F0900078E0FEB403121FEF25E025E0423A
:10824B000790FB34E054F0F0E04FF0EE640470164E
:10825B001FEFC454F0FF25E025E0420790FB34E00C
:07826B0054F0F0E04FF02297
:0BB73100EF90FB11F090FB70E4F022A1
:0CB6D10090FB64EFF0A3EDF0A3EBF0227F
:0BB73C0090FB62E054FEF0E04FF022B2
:10A6A0008E598F5A90FB6AE4F0EFA3F090FB6AE0BA
:10A6B000FBE5595407FFEB4FF0ED90FB6CF090FB7E
:0EA6C0006AE0FBAF04EFC45470FFEB4FF022D2
:10A83A008E5B8F5C90FB67E4F0EFA3F090FB67E020
:10A84A00FBE55BFFEB4FF0ED90FB69F090FB67E0F7
:0CA85A00FBAF04EFC454F0FFEB4FF02202
:10B3AA0090FD42E04403F0E054FBF090FD1FE054AE
:05B3BA00FEF0C20322B9
:10AA5000C28CC28E758911758CFB758A9F758DD8D5
:10AA6000758BEFE4F5B1F5B2F5B3F5B4C2A9D2AB8D
:05AA7000C28CD28E2211
:109899008F2B8E2A8D298C2875C830759850E47FB6
:1098A90020FEFDFCAB2BAA2AA929A828124E02A842
:1098B90004A905AA06AB077FC07EFC7D9B7C01122B
:1098C9004E8DC3E49FFFE49EFE74019DFDE49CFC64
:1098D9007808124F30E48FCB7F20FEFDFCAB2BAA1A
:1098E9002AA929A828124E02A804A905AA06AB0785
:1098F9007FC07EFC7D9B7C01124E8DC3E49FFF8F50
:02990900CA2270
:10B23300C2CA7F007EE17D007C00129899D2CAC207
:08B24300ADC299C298C2AC2211
:0AB75D0075BE55E4F5BA75BEAA22C8
:10B4230075BE5575B90375BDFF75BCFFE4F5BA75F7
:03B43300BEAA228C
:10070D0075BE5575BBBB63BBFFE4F5BB75BEAA22B9
:10A9B400E4F5B8D288C2895391EF5391DF5391BF24
:10A9C40053917FC2F8C2F9C2FAC2FBD2A8C2E8C24C
:08A9D400E9C2EAC2EBC2AF22A6
:0FB48A0012B3AA12AA5012B23312B42302A9B4F9
:08B7CD00392006D706D806203A
:08B7C50090FDDFE030E7F922FE
:10AE580012B7C590FDDDE4F0A37480F090FDD174C5
:10AE68000CF090FDD07404F090FDDDE060FA02B7BC
:01AE7800C514
:10AF600012B7C590FDDDE4F0A37480F090FDD1E44C
:10AF7000F090FDD07404F090FDDDE060FA02B7C5FA
:10B24B0012B7C590FDDE7480F090FDE47404F090AD
:08B25B00FDD07408F002B7C534
:1080FF008F3E8E3D8D3C8C3BE4FF7EF0FDFCAB3E16
:10810F00AA3DA93CA83BC3124F1F6011E4FF7EE0BC
:10811F00FDFCA83BC3124F1F60030080DBE4FF7E12
:10812F00F0FDFCAB3EAA3DA93CA83BC3124F1F700C
:10813F003312AF6012B7C590FDDE7480F090FDDD95
:10814F00E4F090FDD6F0A374F0F0A3E4F0900009F2
:10815F00E090FDE4F090FDD07408F090FDDDE0605C
:10816F00FA12B7C5E4FF7EE0FDFCAB3EAA3DA93C89
:10817F00A83BC3124F1F703312AF6012B7C590FDEB
:10818F00DE7480F090FDDDE4F090FDD6F0A374E096
:10819F00F0A3E4F0900009E090FDE4F090FDD074BE
:0C81AF0008F090FDDDE060FA12B7C52278
:108272008F3E8E3D8D3C8C3BE4FF7EF0FDFCAB3EA1
:10828200AA3DA93CA83BC3124F1F6011E4FF7EE048
:10829200FDFCA83BC3124F1F60030080DBE4FF7E9E
:1082A200F0FDFCAB3EAA3DA93CA83BC3124F1F7098
:1082B2003012B7C590FDDE7480F090FDDDE4F090E1
:1082C200FDD6F0A374F0F0A3E4F090000AE090FD74
:1082D200E4F090FDD07408F090FDDDE060FA12B792
:1082E200C5E4FF7EE0FDFCAB3EAA3DA93CA83BC332
:1082F200124F1F703012B7C590FDDE7480F090FDF2
:10830200DDE4F090FDD6F0A374E0F0A3E4F0900079
:108312000AE090FDE4F090FDD07408F090FDDDE0FD
:0683220060FA12B7C5224B
:0E8C1F008F2F8E2E8D2D8C2C8B308A3189322A
:108C2D0012B24B12AE5812B7C590FDDE7480F0E44F
:108C3D00F535F536C3E5369534E5359533507490F5
:108C4D00FDDDE4F090FDD6E52FF0FFAE2EAD2DACA1
:108C5D002C7808124F30A3EFF0AF2FAE2EAD2DAC08
:108C6D002C7810124F30A3EFF090FDD07410F0E47B
:108C7D00FF90FDDDE0B4101590FDD2E0AB30AA31D0
:108C8D00A932853682853583124CCA80040FBF14F4
:108C9D00E0E52F2401F52FE4352EF52EE4352DF5E5
:108CAD002DE4352CF52C12B7C50536E53670850546
:038CBD003580817E
:018CC0002291
:08784B008F328E318D308C2F3D
:1078530074FFF539F53A1280FFAF32AE31AD30AC7B
:107863002F128272D3E5369400E53594005003025B
:10787300791F12B7C590FDDE7480F090FDDDE4F052
:1078830090FDD6E532F0FFAE31AD30AC2F78081263
:107893004F30A3EFF0AF32AE31AD30AC2F781012D2
:1078A3004F30A3EFF0A3E534F0E533A3F0E04480D9
:1078B300F0D3E536953AE535953950088535378562
:1078C30036388006853937853A38C3E53794014021
:1078D30006753701753800E5381490FDDBF0A3E435
:1078E300F090FDD07480F0E4FCFDE5322538F532EC
:1078F300E5313537F531ED3530F530EC352FF52FF2
:10790300E5382534F534E5373533F533C3E53695B6
:1079130038F536E5359537F53502786712AE5802F6
:02792300B24B65
:089F9E007F007EF07D007C00D5
:089FA6008F2B8E2A8D298C28D7
:109FAE00E490005AF0AF2BAE2AAD29AC287B017A93
:109FBE00007905753300753444128C1F900005E04E
:109FCE00B4AA09900047E0B45502D32290005AE09B
:099FDE0004F0E0C3940340CDC37C
:019FE7002257
:108DF100129F9E5003028E86E4900059F090005914
:108E0100E0FF25E024CEF582E434B7F583E49390C6
:108E1100000AF0EF25E024CDF582E434B7F583E4D0
:108E210093900009F09000477455F090000574AAE2
:108E3100F07533007534057535007536447F007E55
:108E4100F07D007C0012784B129F9E50297F007E9E
:108E5100F07D007C001280FF7F007EF07D007C00B1
:108E6100128272129F9E4009900059E09000A7F073
:108E710022E49000A7F0900059E004F0E0C39405CB
:058E81005003028DFE0C
:018E860022C9
:04B45B007F147E00DC
:0CB45F00EF4E6007EF1F70F81E80F52212
:10A9DC007F057E0012B45F7F0112A9627F0112A96C
:10A9EC008B12B45B7F0012A96212B45B7F0012A9B8
:08A9FC008B7F147E0002B45FA2
:10B21A007F0012A9627F0112A98B12B45B7F01120F
:09B22A00A9627F147E0002B45FEA
:10A4B500752FC812B1427F027E0012B45F7F011270
:10A4C500A98B7F0A7E0012B45F12B14240077F005C
:10A4D50012A98BC322E52FB401077F0012A98BD3E4
:05A4E50022D52FDED39B
:01A4EA00224F
:10A910007F0112A9627F0A7E0012B45F7F0112A933
:10A920008B7F0A7E0012B45F7F0012A98B7F0A7EA4
:09A930000012B45F7F0102A9626C
:02A079008F2F27
:10A07B00E4900064F0900064E0FFC394085031C397
:10A08B0074079FFFE52FA807088002C313D8FC5461
:10A09B0001FF12A96212B45B7F0112A98B12B45B90
:10A0AB007F0012A98B12B45B900064E004F080C5B2
:05A0BB007F0102A96213
:109EB10090006474FFF012B142E4900065F07F01FC
:109EC10012A98B12B45B900064E0FF25E0F012B19F
:109ED100425007900064E04401F012B14240079003
:109EE1000064E054FEF07F0012A98B12B45B900075
:0F9EF10065E004F0E0C3940840C4900064E0FF13
:019F0000223E
:049B10008F5D8D5E7A
:109B14009000A87414F09000A8E0FF14F0EF604ED9
:109B240012A9DC7F027E0012B45F7FE012A0797F6D
:109B3400017E0012B45F12A4B540DBE4FF12A079E9
:109B44007F017E0012B45F12A4B540CAAF5D12A0BB
:109B5400797F017E0012B45F12A4B540B9AF5E12E2
:109B6400A0797F017E0012B45F12A4B540A802B2AE
:019B74001AD6
:028E87008F2E2C
:108E89009000637414F0900063E0FF14F0EF607BCE
:108E990012A9DC7F027E0012B45F7FE012A0797F05
:108EA900017E0012B45F12A4B540DBE4FF12A07981
:108EB9007F017E0012B45F12A4B540CAAF2E12A082
:108EC900797F017E0012B45F12A4B540B97F017E9B
:108ED9000012B45F12B21A7F017E0012B45F12A9A8
:108EE900DC7F027E0012B45F7FE112A0797F017EF0
:108EF9000012B45F12A4B5408D129EB1900062EFCA
:108F0900F07F017E0012B45F12A91012B21A90000C
:038F190062E0FF14
:018F1C002232
:10B3BF007D72E4FF129B107D137F02129B107D03A1
:05B3CF007F03029B104A
:0B84920012B75D12B2637F16129269F0
:10849D0012070DA20A92141206A78F27E527F46082
:1084AD000612B7477527FFA20D92141205F48F27F8
:1084BD00E527F4600612AA757527FFA20B92141218
:1084CD00067A8F27E527F4600612B6E97527FFA215
:1084DD001092141206D18F27E527F4600612AE799B
:1084ED007527FFA20E921412071D8F27E527F46042
:1084FD000612B7A27527FFA20992141200708F27DA
:10850D00E527F4600612776D7527FFA211921412FC
:10851D0007388F27E527F4600612B9137527FFA2D8
:10852D000F92141207408F27E527F4700302849DE4
:06853D0012B3237527FFB5
:0385430002849D12
:0CB6DD00E4FF12000E90FD0E7420F0221D
:109AAA009000A574FFF09000A4F090009CE4F0A34D
:109ABA0074FFF0E4900051F0A3F090008FF0900052
:109ACA0050F0900053F0900049F0900000F0C20C62
:109ADA00C202C200C206C20774FF900054F0A3F08B
:109AEA00A3F0E4A3F0A37404F074FF90004AF0A377
:109AFA00F0A3F0E4A3F0A37404F0755FFFC205C2FB
:069B0A00017F0202B2001F
:01B9340022F0
:01B9350022EF
:10A93900129AAA128DF1129C98500A900036E09052
:10A94900000BF0800890000BE0900036F090003585
:09A959007401F090003704F022B3
:10B2630012B6DD12B48A12A93912B93512B44912D1
:08B27300B934127ACED2AF22E9
:089C00004100A900C112C1934B
:1006A70090005974FFF030141EC20A120FC6900052
:1006B70059EFF0F46003E0FF22120D02900059EFAA
:0906C700F0F46003E0FF227FFF64
:0106D0002207
:1005F40030143DC20D90FE26E05402C313FFA21234
:10060400E4336F701A9000A9E0C394145022E004FC
:10061400F0E06414701A3012037F10227F1122E478
:100624009000A9F090FE26E05402C31324FF921216
:020634007FFF46
:0106360022A1
:10067A00301427C20B9000A4E0FF9000A5E0FE6FA3
:10068A006018E09000A4F0F4601090000DEEF0C342
:0D069A00940650037F0F227FFF227FFF2276
:1006D10030141FC210D390001FE0940090001EE060
:1006E1009400400E74FFF5F0124D8945F070037FC0
:0506F10013227FFF222F
:0F071D0074FF900059F0A3F0301402C20E7FFF5A
:01072C0022AA
:10007000201403020268A20150028001C35003024F
:100080000268C209900036E06402600302012B900E
:10009000FE2AE030E6277F02129974900007E07094
:1000A0000E900037E0640170030202687F1722900F
:1000B0000037E0640370030202687F152290FE2679
:1000C000E05402C313704290FED7E054E7F0A3E07F
:1000D0004480F0E054BFF090FED7E04418F090FE6A
:1000E000DCE04420F0E04410F0900007E0700C9059
:1000F0000037E07003020268020260900037E0649B
:1001000002700302026802024F900007E0700E9036
:100110000037E0640170030202687F172290003705
:10012000E0640370030202687F1522900035E070DE
:10013000030201EB24FE7003020232147003020278
:10014000652402600302026830132EC21390FE2A57
:10015000E030E606E4900035805F90FED7E054E79B
:10016000F0A3E04480F0E054BFF090FED7E04418E4
:10017000F090FEDCE054DF806BD21390FED7E054A9
:10018000E7F0A3E04480F0E054BFF090FED7E044F5
:1001900018F090FEDCE054DFF0E054EFF090FE2A1F
:1001A000E030E627900007E0B4011D9000377403AB
:1001B000F090003514F090000BF0FF1299747F90CE
:1001C0007E0112B27B0202687F172290FED7E054B4
:1001D000E7F0A3E0543FF090FED7E04418F090FE23
:1001E000DCE04420F0E054EFF0807D90FED7E05456
:1001F000E7F0A3E04480F0E054BFF090FED7E04485
:1002000018F090FEDCE054DFF0E054EFF090FE2AAE
:10021000E030E60D900007E0B401037F15227F1760
:100220002290FE26E05402C313703D90003504F086
:10023000803690FE26E05402C313702C900007E035
:10024000B4011190000BE0FF900036E06F6019D20E
:10025000137F162290000BE0FF900036E06F6008DD
:0A026000D2137F18227F19227FFFBE
:01026A002271
:08073800301402C2117FFF2200
:08074000301402C20F7FFF22FA
:0EB6B500EF1FAC0670011E4C60030080F322F4
:10B27B00AB07AA06EB1BAE0270011A4E60097F905A
:08B28B007E0112B6B580ED2230
:069C0800015700015600A7
:03000300020637BB
:10063700C0E0C0F0C083C082C0D075D000C000C089
:1006470001C002C003C004C005C006C007120ED512
:1006570090009CEEF0A3EFF0D007D006D005D004B1
:10066700D003D002D001D000D0D0D082D083D0F038
:03067700D0E0329E
:030023000207547D
:010754003272
:030043000206F6BC
:1006F600C0E0C083C0825391EF90FDB8E4F0A3F050
:07070600D082D083D0E03265
:03004B0002074861
:040748005391DF32B8
:0300530002074C55
:04074C005391BF32D4
:03005B0002075049
:0407500053917F3210
:03000B0002072DBC
:0B072D00C28C758CFB758A9FD28C3249
:03001B0002035885
:10035800C0E0C0F0C083C082C0D075D000C000C06B
:0D03680001C002C003C004C005C006C007EC
:10037500C28E758DD8758BEFD28E05587F0B120501
:1003850013E55875F00184E5F0700490FCEAF0E59A
:100395005820E006D20AD20ED20DE5585403700655
:1003A500D20BD20FD211E55875F00684E5F0700234
:1003B500D210E55875F01484E5F07002D209300BBF
:0103C50052E5
:1003C60090FE26E05402C31370079000A5E0F47077
:1003D6003C90FE28E054041313543FF52365566001
:1003E600058523568027900049E0C394145023E0E6
:1003F60004F0B4141DE52314600804700575230386
:1004060080037523009000A5E523F0800590004940
:02041600E4F010
:10041800D007D006D005D004D003D002D001D00038
:0B042800D0D0D082D083D0F0D0E032E2
:02B74700AE074B
:09B74900E4AF061297390292697F
:10AA75008F28E528B4100C900007E0B401057F1578
:10AA8500129269E528B4110C900007E0B401057F26
:05AA9500151292692278
:0CB6E900BF0F0890000DE0FF1271E92275
:10AE79008F28E528B413057F08129269E528B414D0
:10AE8900057F09129269E528B412057F17129269A4
:01AE99002296
:09B7A200BF20057F2B12926922E1
:10776D008F28E528B4181E9000357401F0E49000C0
:10777D0037F0900036E090000BF09000077401F0A8
:10778D007F17123750E5286416702A90003504F0E3
:10779D0090003704F0900036E090000BF0D2057F9A
:1077AD0014129269C20590FE26E05402C3136005BF
:1077BD00E4900035F0E5286417704590000B7402D5
:1077CD00F0900035F090003714F0D2057F14123789
:1077DD0050C205900090E075F003A42400F582E5F9
:1077ED00F03437F583E493FB740193FA740293F943
:1077FD00900022124DCAFF90001EE5F0F0A3EFF0AD
:10780D00E528B4151890000B7402F0900035F09037
:10781D00003704F0D2057F14129269C205E528B431
:10782D00191B90000B7402F0900035F09000370496
:0E783D00F0D2057F15129269C20512B3E8223F
:03B913008F282258
:10B323008F28E528B41F057F19123750E528B41E6E
:07B33300057F1812375022BC
:10A4EB0020000020B10620670120D205208E02003B
:10A4FB0001000002060008010100050400020B0028
:10A50B000A06020104050302FFFFFF0004FFFFFF21
:02A51B0000043A
:100FC60090005A74FFF0A3F0A3F090009CE0FEA3FB
:100FD600E0FF120F8290005BEEF0A3EFF0F47002D8
:100FE600EEF460169000027402F090005BE0FEA33F
:0F0FF600E0FF120F2F90005AEFF090005AE0FF2B
:0110050022C8
:100D02007528FF78297C007D007BFF7AA579137E08
:100D1200007F05124C5E900053E014603904706449
:100D22001209F978297C007D007E007F05124C5E55
:100D3200E52D6404601CC206782E7C007D007B00D9
:100D42007A0079297E007F05124C5E1207558F28A2
:100D52008032D206802E120AE978297C007D007E3C
:100D6200007F05124C5EE52D64046018782E7C002D
:100D72007D007B007A0079297E007F05124C5E128D
:100D82000C598F28E528F460189000027401F0AF26
:100D920028120E7678297C007D007E007F05124C99
:030DA2005EAF2B16
:010DA500222B
:020E76008F2EBD
:100E7800785B7C007D017BFF7AA579187E007F0571
:100E8800124C5EE490005AF090005AE0FFC39405BB
:100E98005034EF25E0240AF582E434A5F583E49381
:100EA800FFF4601AE52EB5071590005AE025E024F6
:100EB80009F582E434A5F583E49390005DF0900091
:0C0EC8005AE004F080C27B017A00795BE4
:010ED40022FB
:1007550090005C74FFF0E490005AF090005AE0FFBE
:10076500C3940540030208F0EF75F003A424EBF5EC
:1007750082E434A4F583E493FE740193F47002EEED
:10078500F470030208E7EE5430FEE52E5430FCE425
:100795007002EE6C60030208E7E52F452E60030248
:1007A500085890005BF090005BE0FFC394054003A0
:1007B5000208E7EF75F003A424EBF582E434A4F511
:1007C50083E493FE740193FFF47002EEF4607BEF13
:1007D500652F7003EE652E7071E52E5430C4540FED
:1007E500900001F090005BE075F003A424EDF58224
:1007F500E434A4F583E49390005CF0E532B4011A87
:10080500E531C3941550069000047401F09000047E
:10081500E054FBF054FDF00208E7E53264026003A2
:100825000208E7900004E054FEF0E531B4150974C0
:1008350002F054FBF00208E7E5316450600302085A
:10084500E79000047406F00208E790005BE004F00E
:100855000207AB90005AE075F003A424EBF582E49F
:1008650034A4F583E493FE740193FFAD2FAC2E12EF
:10087500B368C3EF940AEE94005067E52E5430C474
:10088500540F900001F090005AE075F003A424ED98
:10089500F582E434A4F583E49390005CF0E532B48A
:1008A5000119E531C3941550069000047401F090C8
:1008B5000004E054FBF054FDF08030E53264027032
:1008C5002A900004E054FEF0E531B415087402F0F6
:1008D50054FBF08016E531B450119000047406F015
:1008E500800990005AE004F002076090005CE0FF88
:0108F50022E0
:100C590090005B74FFF0E490005AF090005AE0FFB6
:100C6900C394054003020CFCEF75F003A424FAF5C4
:100C790082E434A4F583E493FE740193FFF47002D3
:100C8900EEF46066EF652F7003EE652E705C9000E0
:100C99005AE075F003A424FCF582E434A4F583E456
:100CA9009390005BF0E532B40119E531C394155016
:100CB900069000047401F0900004E054FBF054FD28
:100CC900F08030E5326402702A900004E054FEF0AE
:100CD900E531B415087402F054FBF08016E531B41F
:100CE90050119000047406F0800990005AE004F055
:080CF900020C6490005BE0FFB7
:010D010022CF
:0BB75200FFFFFF000402FFFFFF0004E8
:109C0E00480083FFFFFFFFFFFFFFFF41008B004176
:039C1E00008C00B7
:0808F6008B328A3389348D3501
:1008FE00E4900068F0A3F0A3F0A3F0900065F090F0
:10090E000065E0FFC395355033AB32AA33A9347579
:10091E00F002EFA4F58285F083124DCAFFAEF012FD
:10092E004D9FFDACF012B368900069E02FF090007F
:10093E0068E03EF0900065E004F080C3E49000674C
:10094E00F090006504F0900065E0C3953540030219
:10095E0009DFE4A3F0900066E0FDC395355040AB8F
:10096E0032AA33A934900065E075F002A4F58285B1
:10097E00F083124DCAFFAEF075F002EDA4F582853C
:10098E00F083124DCAFDACF012B36890006BE02FED
:10099E00F090006AE03EF0900066E004F080B690C1
:1009AE00006AE0FEA3E0FFD3900069E09F9000682C
:1009BE00E09E400DEEF0A3EFF0900065E090006732
:1009CE00F0E490006AF0A3F0900065E004F00209F4
:1009DE0054AB32AA33A934900067E075F002A4F547
:0A09EE008285F083124DCAFFAEF0BF
:0109F80022DC
:080BA9008B2E8A2F89308D315B
:100BB10074FF900063F0A3F0D215E4900061F0E5BA
:100BC1003114FF900061E0FEC39F505AEE04A3F080
:100BD100900062E0FDC395315041AB2EAA2FA930A0
:100BE100900061E075F002A4F58285F083124DCA90
:100BF100FFAEF075F002EDA4F58285F083124DCAC7
:100C0100FDACF012B368D3EF940DEE94004004C232
:100C1100158008900062E004F080B530150890005E
:100C210061E004F0809930151FAB2EAA2FA930ADD9
:100C3100311208F6900063EEF0A3EFF0EE448090DD
:100C41000063F0A3EFF08007900063E0547FF09021
:070C51000063E0FEA3E0FFD9
:010C58002279
:040E11008E2E8F2F63
:100E150078617C007D017BFF7AB779527E007F0582
:100E2500124C5EE52E5430C4540FFF900001E0B51E
:100E3500073874FF90004AF0A3F0900054E0FEA339
:100E4500E0FFF47002EEF46014900061EEF0A3EFA1
:100E5500F090004DE0900064F0A37401F0E4900080
:100E65004DF074FF900054F0A3F07B017A00796196
:010E7500225A
:1009F900785A7C007D017BFF7AB779587E007F05A4
:100A0900124C5E90008BE090B75793FF120433EEBF
:100A1900C4F854F0C868FEEFC4540F48FF90008C26
:100A2900E025E02483F582E43400F583EEF0A3EFBA
:100A3900F090008CE004F0E0C394045003020AE251
:100A4900E4F07B017A0079837D04120BA990005FA1
:100A5900EEF0FCA3EFF0FD90008BE090B75793C444
:100A690054F04CFEEDFF90005FEEF0A3EFF0EE3096
:100A7900E76790005FE0FEA3E0FFC394F0E4940011
:100A8900401490008BE004F0E094014002E4F0EEA1
:100A9900547FFE020E1190005FE0547FFEA3E0FF39
:100AA90090004AEEF0A3EFF0900054EEF0A3EFF0BF
:100AB90090004DE0D394FF5003E004F090004AE029
:100AC900FFA3E090005ACFF0A3EFF090004DE09023
:0F0AD900005DF0A37402F080007B017A00795A6F
:010AE80022EB
:10005E00026B04036B060B6B12046B050A6B1B0819
:02006E006B1A0B
:100F820074FF90005DF0A3F0E5E530E00353E5FE69
:100F9200EFF47002EEF4602320072074FF90009CAF
:100FA200F0A3F0E5E590000430E1057402F080035F
:100FB2007401F090005DEEF0A3EFF090005DE0FEB2
:030FC200A3E0FFAA
:010FC5002209
:100F2F0090005E74FFF0E490005DF090005DE0FDD6
:100F3F00C394065038ED75F003A4245FF582E434B2
:100F4F0000F583740193B5071CE493B50617900061
:100F5F005DE075F003A4245EF582E43400F583E4CC
:100F6F009390005EF090005DE004F080BE90005E14
:020F7F00E0FF91
:010F8100224D
:05000600FFFFFF0004F4
:100AE900785D7C007D017BFF7A0079067E007F05B9
:100AF900124C5E7F08128E87EF540F90005CF090C5
:100B0900005AF0A3E4F07F09128E8790005AE0FEA4
:100B1900A3E04FFF90005AEEF0FEA3EFF04E703ABB
:100B290074FF90004AF0A3F0900054E0FEA3E0FFA8
:100B3900F47002EEF4601490005DEEF0A3EFF09013
:100B4900004DE0900060F0A37401F0E490004DF0D6
:100B590074FF900054F0A3F0803F90005AE0FEA388
:100B6900E0FF90004AEEF0A3EFF0900054EEF0A3FE
:100B7900EFF090004DE0D394FF5003E004F09000B3
:100B89004AE0FFA3E090005DCFF0A3EFF090004DA5
:0F0B9900E0900060F0A37402F07B017A00795DB8
:010BA800222A
:109A43009000077401F012AA047F0212A6127FC8C5
:109A53007E0012B27B90FE26E05402C3136008908E
:109A630000357403F0802290000BE0FF12A6127FF2
:109A7300C87E0012B27B90FE26E05402FFC313603F
:109A830005E4900035F012B3E89000377402F090CB
:109A9300FE26E05402C31324FF9202D20074FF9007
:079AA300009CF0A3F0D322A8
:10A89200E4900007F012B3D4129DAF90000BE0FFDA
:10A8A20012B93312B00012B82D7FF47E0112B27BBE
:0AA8B20074FF90009CF0A3F0D32285
:0A9E5F008B2F8A3089318C328D334D
:109E6900E4900066F0900064F0A3F0900064E0FED6
:109E7900A3E0FFC39533EE95325027A3E0FDAB2F46
:109E8900AA30A9318F828E83124C9DFFED6F90000D
:109E990066F0900065E004F070D1900064E004F091
:079EA90080C9900066E0FF94
:019EB000228F
:106C330090000BE0C394034002E4F0900036E0C3FD
:106C430094034002E4F0900010E0D3946440037492
:106C530032F0900012E0D3946440037432F0900059
:106C630011E0D3946440037432F0900013E0D394A2
:106C73006440037432F090001AE0D39464400374C8
:106C830032F090002FE0D394014002E4F090003002
:106C9300E0D394034002E4F090001DE0D394094054
:106CA300037409F0900023E0D3648094B24002E4BB
:106CB300F0900024E0D3648094B24002E4F09000AA
:106CC30032E0D394024002E4F0900032E0D3940225
:106CD3004002E4F0900034E0D394084002E4F090E2
:106CE300001BE0D394014002E4F0900042E0D3940F
:106CF3000140037401F0900040E0D3940140037419
:106D030001F0900041E0D3940140037401F090003E
:106D130043E0D3940140037401F0900044E0D39422
:106D23000140037401F0900007E0D3940140037421
:106D330001F0900046E0D3940240037402F0900007
:106D430045E0D3940140037401F0900038E0D394FC
:106D53000440037404F0900018E0D39406400374D5
:036D630006F02215
:1094E1007B017A007905900048E0F52D7D437C00F1
:0A94F1008B288A29892A8C2B8D2CE8
:1094FB00E490005BF0900047E064557050900005DD
:10950B00E064AA7048900059F0A3F0900059E0FE77
:10951B00A3E0FFC3952CEE952B5027A3E0FDAB28C2
:10952B00AA29A92A8F828E83124C9DFFED6F900082
:10953B005BF090005AE004F070D1900059E004F019
:0E954B0080C990005BE0B52D02D322C322C37D
:0195590022EF
:109DAF00126C339000477455F090000574AAF07B45
:109DBF00017A0079057D437C00129E5F900048EF89
:109DCF00F0300435C20475330075340575350075F0
:109DDF0036447F007EF07D0012784B7F647E001248
:109DEF00B27B7533007534057535007536447F00C9
:0A9DFF007EE07D007C0012784B220C
:1090CB00E490000BF0900036F09000107432F090AA
:1090DB000012F0900011F0900013F0E4900018F0E3
:1090EB0090000DF0A3F0A3F090001A7432F0E4A3FB
:1090FB00F090002FF0A3F090001D7409F0E4A3F0A2
:10910B00A3F090000704F0E4900038F0900032F0E8
:10911B00900034F0900042F090004004F0A3F090E7
:10912B000043F0E4A3F0A3F0A37402F0900010E06E
:10913B00900014F0900011E0900015F0900012E0F8
:0C914B00900016F0E4900023F0A3F02246
:109C98007F007EF07D007C00129FA61294E15002A6
:109CA80080107F007EE07D007C00129FA61294E168
:109CB8005005126C33D3221290CB9000A7E0FF75A9
:109CC800F002A424CEF582E5F034B7F583E493904E
:109CD800000AF075F002EFA424CDF582E5F034B760
:0F9CE800F583E493900009F0D204129DAFC322DC
:02B91C00000227
:03B91600028FAEEF
:10A7B3009000A574FFF0E4900049F0900064F07FEE
:10A7C300057E0012B27B9000A5E0F46002D32290D4
:0CA7D3000064E004F0E0C3942840E4C3FC
:01A7DF002257
:10A7E000E4900064F0900064E0FEC394035010EE27
:10A7F00090B91C936F6008900064E004F080E690CC
:0CA800000064E004F0540190B91C93FFC8
:01A80C002229
:10A612008F2F12B932AF2F129974D20C90002FE003
:10A62200FF128D5A12B9317FC87E0012B27B12A777
:10A63200B3500C9000A5E0FF9000A4F01271E92243
:10B4490012A10612B919129FE812964B12A03102E5
:02B45900A47FCE
:1010060000000000000000000000000000000000DA
:1010160000000000000000000000000000000000CA
:101026000000000000000F00198019801980198047
:1010360019801980198019800F0000000000000037
:1010460000000000000006001E0006000600060064
:1010560006000600060006001F80000000000000D3
:101066000000000000000F0019801980198001801F
:10107600030006000C0019801F800000000000001D
:101086000000000000000F001980198001800F0089
:1010960001800180198019800F0000000000000007
:1010A60000000000000003000300070007000F0017
:1010B6001B0033003FC00300078000000000000053
:1010C6000000000000001F801800180018001F0014
:1010D60019800180018019800F00000000000000C7
:1010E6000000000000000F001980198018001F0082
:1010F60019801980198019800F0000000000000077
:101106000000000000003F803180318003000600AF
:1011160006000C000C000C000C0000000000000093
:101126000000000000000F001980198019800F00D0
:1011360019801980198019800F0000000000000036
:101146000000000000000F00198019801980198026
:101156000F800180018019800F0000000000000050
:101166000000000000000600060006000F000F0049
:1011760019801F8030C030C079E0000000000000F8
:101186000000000000003F8018C018C018C01F8073
:1011960018C018C018C018C03F800000000000002A
:1011A6000000000000000F8019C030C03000300081
:1011B6003000300030C018C00F8000000000000072
:1011C6000000000000003F00198018C018C018C0B9
:1011D60018C018C018C019803F00000000000000A9
:1011E6000000000000003FC018C0180019801F80D2
:1011F60019801800180018C03FC000000000000049
:101206000000000000003FC018C0180019801F80B1
:1012160019801800180018003C00000000000000AB
:101226000000000000001F8031C060C06000600048
:1012360061E060C060C031C01F8000000000000097
:1012460000000000000079E030C030C030C030C07F
:101256003FC030C030C030C079E000000000000060
:101266000000000000000F00060006000600060051
:1012760006000600060006000F0000000000000041
:101286000000000000001F800600060006000600A1
:1012960006000600660066003C0000000000000034
:1012A6000000000000007BC03180330036003C00A7
:1012B6003C003600330031807BC000000000000097
:1012C6000000000000003C0018001800180018007C
:1012D60018001800186018C03FC000000000000089
:1012E600000000000000E070606070E070E079E0EF
:1012F60079E06F606F606660F6F000000000000045
:1013060000000000000071E030C038C03CC036C0AC
:1013160033C031C030C030C078C0000000000000CB
:101326000000000000000F8018C0306030603060A0
:1013360030603060306018C00F8000000000000090
:101346000000000000003F8018C01860186018C038
:101356001F801800180018003C0000000000000064
:101366000000000000000F00198030C030C030C0FF
:1013760030C030C03FC019C00F8001E000C000007F
:101386000000000000003F8018C018C018C018C038
:101396001F80198018C018C03CE000000000000043
:1013A6000000000000001F8031C030C030001C006B
:1013B600078000C030C038C01F8000000000000059
:1013C6000000000000003FC036C066600600060050
:1013D60006000600060006000F00000000000000E0
:1013E60000000000000079E030C030C030C030C0DE
:1013F60030C030C030C030C01F8000000000000088
:1014060000000000000079E030C030C0198019806B
:1014160019800F000F000600060000000000000003
:10142600000000000000F6F06660666066603FC07F
:101436003FC03FC0198019801980000000000000DD
:1014460000000000000079E030C019800F0006009F
:1014560006000F00198030C079E00000000000008F
:1014660000000000000079E030C0198019800F00EC
:1014760006000600060006000F000000000000003F
:101486000000000000003FC030C030C001800300F3
:1014960006000C00180030C03FC00000000000002D
:1014A60000000000060000003FC030C030C00180D0
:1014B600030006000C00180030C03FC0000000000A
:1014C60000000000030006001F8031C030C030005D
:1014D6001C00078000C030C038C01F80000000001C
:1014E60000000000018003000F8019C030C03000EA
:1014F60030003000300030C018C00F8000000000FF
:10150600000000000180030038F018601C601E60B7
:101516001B6019E018E0186018603C6000000000CD
:1015260000000000000000003C0018001E001C0027
:10153600180038001800186018C03FC000000000EE
:101546000000000006000C007F80618061800300BF
:1015560006000C001800300061807F80000000004B
:1015660000000000000000003FC018C018001980ED
:101576001F8019801800180018C03FC0030001C062
:1015860000000000000000000000060006000F003A
:101596000D800F8018C018C039E000000000000060
:1015A60000000000000000003FC018C0180018002E
:1015B6001F8018C018C018C03F800000000000003F
:1015C60000000000000000003F8018C018C018C0CE
:1015D6001F8018C018C018C03F800000000000001F
:1015E60000000000000000003FC018C018001800EE
:1015F60018001800180018003C0000000000000049
:1016060000000000000000001FE00CC00CC00CC071
:101616000CC00CC00CC018C03FE0306000000000D9
:1016260000000000000000003FE01860180019806C
:101636001F801980186018603FE00000000000005D
:1016460000000000000000001F801CC018C000C081
:10165600078000C018C018C00F80000000000000FE
:1016660000000000000000003DE018C018C019C0CE
:101676001BC01EC01CC018C03DE0000000000000DA
:101686000000000000000D8007003DE018C019C0F2
:101696001BC01EC01CC018C03DE0000000000000BA
:1016A60000000000000000003D801BC01B001B0066
:1016B6001E001B001B001BC03D8000000000000038
:1016C60000000000000000001FE00CC00CC00CC0B1
:1016D6000CC00CC00CC03CC039E00000000000008B
:1016E600000000000000000070E030C039C039C0C2
:1016F6003FC03FC036C036C079E0000000000000A1
:1017060000000000000000003DE018C018C018C02E
:101716001FC018C018C018C03DE00000000000003F
:1017260000000000000000003FE018C018C018C00C
:1017360018C018C018C018C03DE000000000000026
:1017460000000000000000003DE018C019800D8078
:101756000F000700060036001C0000000000000015
:1017660000000000000000003DE018C00D8007806A
:10177600030007000D8018C03DE0000000000000D7
:1017860000000000000000003DE018C018C018C0AE
:1017960018C018C018C018C03FF000300000000084
:1017A60000000000000000003DE018C018C018C08E
:1017B60019C00FC000C000C001E00000000000001A
:1017C6000000000000000000F7F063306330633073
:1017D6006330633063306330FFF0000000000000C8
:1017E60000000000000000007FF03330333033305B
:1017F60033303330333033307FF0001000000000D8
:1018060000000000000000007E006C000C000C00D0
:101816000FC00C600C600C601FC0000000000000D0
:10182600000000000000000078F03060306030609A
:101836003F6031E031E031E07FF000000000000061
:1018460000000000000000001F001D8018C000C03E
:1018560007C000C018C019800F000000000000007B
:101866000000000000000000F3C066606C306C30C1
:101876007C306C306C306660F3C000000000000005
:1018860000000000000000000FE018C018C018C0DB
:101896000CC007C00CC03CC019E0000000000000EE
:1018A6000000000000001B003FC018C018001B000D
:1018B6001F001B00180018C03FC0000000000000F9
:1018C60000000000000000006F6036C036C036C061
:1018D6001F8036C036C036C06F60000000000000B2
:1018E60000000000000000000F00198030C030C06A
:1018F60030C030C030C019800F000000000000006A
:1019060000000000000000003F8018C018C018C08A
:101916001F801800180018003C000000000000009E
:1019260000000000000000000FC019C030C030C029
:101936003000300030C019800F00000000000000A9
:1019460000000000000000003FC036C00600060090
:1019560006000600060006000F000000000000005A
:1019660000000000000000000F0006003FC0666097
:10197600666066603FC006000F00000000000000C1
:1019860000000000000000003C00180018001800CD
:101996001F8018C018C018C03F800000000000005B
:1019A6000000000000000000000000000000000031
:1019B600000000000C000C00000000000000000009
:1019C60000000000000000000C000C0000000000F9
:1019D60000000C000C0000000000000000000000E9
:1019E6000000000000003E006300630006000C00DB
:1019F6000C0000000C000C000000000000000000BD
:101A06000000000000003000780078007800300008
:101A16003000000030003000000000000000000030
:101A260000C081C0C35066703C60F8C0CDC0CF40D6
:101A3600CF40CDC0F8C03C606670C35081C000C0C6
:101A46000C000700318038C01C60C660E660266066
:101A56002660E660C6601C6038C0318007000C0056
:101A66000C00060000000600060006000F000F002E
:101A760019801F8030C030C079E0000000000000EF
:101A86000300060000000600060006000F000F0017
:101A960019801F8030C030C079E0000000000000CF
:101AA6000200050008800600060006000F000F0071
:101AB60019801F8030C030C079E0000000000000AF
:101AC6000C80130000000600060006000F000F0041
:101AD60019801F8030C030C079E00000000000008F
:101AE6000D800D8000000600060006000F000F00A6
:101AF60019801F8030C030C079E00000000000006F
:101B06000600090006000000060006000F000F0090
:101B160019801F8030C030C079E00000000000004E
:101B26000000000000000FC01EC01600260026C0E0
:101B360067C07EC0660066C067C000000000000087
:101B46000C00060000003FC018C0180019801F8056
:101B560019801800180018C03FC0000000000000DF
:101B66000300060000003FC018C0180019801F803F
:101B760019801800180018C03FC0000000000000BF
:101B86000600090000003FC018C0180019801F8019
:101B960019801800180018C03FC00000000000009F
:101BA6001980198000003FC018C0180019801F80D6
:101BB60019801800180018C03FC00000000000007F
:101BC6000C000600000079E030C030C030C030C0E4
:101BD60030C030C030C030C01F80000000000000A0
:101BE60002000500000079E030C030C030C030C0CF
:101BF60030C030C030C030C01F8000000000000080
:101C060003000600000079E030C030C030C030C0AC
:101C160030C030C030C030C01F800000000000005F
:101C260018C018C0000079E030C030C030C030C0E5
:101C360030C030C030C030C01F800000000000003F
:101C460003000600000079E030C0198019800F00FB
:101C560006000600060006000F0000000000000057
:101C66000000000000003C0018001F8018C018C0CB
:101C760018C01F801800180018003C000000000063
:101C8600000000001E00330033003300360033002E
:101C9600330033003300360030000000000000003F
:101CA6003000180000001E000C000C000C000C0098
:101CB6000C000C000C000C001E00000000000000D0
:101CC6000C00180000001E000C000C000C000C009C
:101CD6000C000C000C000C001E00000000000000B0
:101CE6000C00120000001E000C000C000C000C0082
:101CF6000C000C000C000C001E0000000000000090
:101D06006600660000003C00180018001800180065
:101D160018001800180018003C0000000000000021
:101D26000000000000003F00198018C018C03CC029
:101D360018C018C018C019803F000000000000003D
:101D460032004C0000003C00180018001800180073
:101D560018001800180018003C00000000000000E1
:101D660018000C0000001F00318060C060C060C019
:101D760060C060C060C031801F000000000000002D
:101D860006000C0000001F00318060C060C060C00B
:101D960060C060C060C031801F000000000000000D
:101DA60004000A0000001F00318060C060C060C0EF
:101DB60060C060C060C031801F00000000000000ED
:101DC6000C80130000001F00318060C060C060C03E
:101DD60060C060C060C031801F00000000000000CD
:101DE6001B001B0000001F00318060C060C060C087
:101DF60060C060C060C031801F00000000000000AD
:101E06000000000000201F40318061C061C062C038
:101E160064C068C070C031805F00800000000000B0
:101E2600000000000000700030003F00318031806B
:101E3600318031803F00300030003000000000006B
:101E460000000900060000001F00318031801800E4
:101E56000E000300318031801F00000000000000EA
:101E66000000000000000000F1E060C060C060C03B
:101E76007EC062C062C062C0FFE0000000000000D9
:101E8600000000000000000000000000000000004C
:101E9600000000000000000000000000DB60DB60C6
:101EA6000000C000C000C000C000C000C000C000EC
:101EB600C000C000C000C000C0000000DB60DB60E6
:101EC6000000D800D800D800D800D800D800D80024
:101ED600D800D800D800D800D8000000DB60DB604E
:101EE6000000DB00DB00DB00DB00DB00DB00DB00EF
:101EF600DB00DB00DB00DB00DB000000DB60DB601F
:101F06000000DB60DB60DB60DB60DB60DB60DB602E
:101F1600DB60DB60DB60DB60DB600000DB60DB601E
:101F2600000000000000180027E04010C3E0C200D7
:101F3600C200C200C400280010000000000000001B
:101F46000000000000000F8019C030C030003000D3
:101F56003000300030C018C00F80020001000700BA
:101F66000C801300000071E030C038C03CC036C0A1
:101F760033C031C030C030C078C00000000000005F
:101F8600000000001B000E001E0003001F803180B1
:101F960031803180318031801F0000000000000058
:101FA60000000000380018001F00198019801980F1
:101FB60019801F001800180018003C0000000000DF
:101FC600000000000000000037C06EC0664066805A
:101FD6006780668066406EC037C000000000000063
:101FE60011000A0004003FC030C030C00180030069
:101FF60006000C00180030C03FC0000000000000C2
:1020060019801980000079E030C0198019800F000E
:1020160006000600060006000F0000000000000093
:10202600000000000000600078007E007F807FE0F6
:102036007F807E0078006000000000000000000045
:10204600000000000000006001E007E01FE07FE004
:102056001FE007E001E00060000000000000000053
:102066000000000010001F0022007F80C480448012
:102076007F804000402040203FE00000000000003C
:10208600000000000400FFE000003F802080FFE029
:1020960080201F0011202120C1E000000000000068
:1020A600000000000040F84008404FE02840124081
:1020B600114029404840884001C00000000000004F
:1020C6000000000042004200422042407B80420065
:1020D600420042204A20722043E000000000000037
:1020E600000000001800E7E0A920FD207360A92089
:1020F600FB60ADA0F920A920FB60000000000000F5
:10210600000000002100F90047E06100A7E0FA00A6
:1021160023C03840E080230020800000000000003B
:10212600000000009FE042000F800480C4805FE052
:1021360040004FC0584068404FC0000000000000FB
:10214600000000000400FFE000003F8000003F8028
:1021560000003F80208020803F80000000000000BB
:10216600000000003F80208020803F800000FFE0CC
:1021760010001F80008000800700000000000000A3
:102186000000000021007BE094802FC050404F40AB
:1021960049404F4049404F4040C000000000000009
:1021A60000000000040004007FC044404440444056
:1021B6007FC00400040004000400000000000000CA
:1021C6000000000008000440FFE0110011001100AB
:1021D6000A000A0004001B00E0E000000000000006
:1021E600000000004FE029200BA00920CFE0482086
:1021F6004BA05AA06BA0482010E000000000000091
:10220600000000002FE02280F7C0244067C0744021
:10221600A7C0A1002FE022802C6000000000000073
:102226000000000002800240FFE002000200FE0003
:102236001200110011201CA0E06000000000000048
:10224600000000007FC0040004000400FFE00A0054
:102256000A00120012202220C3E000000000000045
:102266000000000021003FE020004FC04000CFC02A
:1022760040004FC048404FC04840000000000000EA
:1022860000000000110011002FE021006300A5806E
:10229600294031202FC0210021000000000000004D
:1022A6000000000010403FE06080BF8020803F803B
:1022B60010001F8069000600F9E000000000000021
:1022C60000000000240022005FE04000C880488033
:1022D60044804500450041005FE00000000000002A
:1022E6000000000002007FE048807FE048804F80C9
:1022F60040005F8045008700B8E000000000000055
:10230600000000004FE029000BE0AA206BE02A2025
:102316004BE05080D2C064A04BA00000000000003B
:102326000000000000004FE0F20007C0F24002404B
:10233600FFE00000F7C094409440F7C000000000A2
:102346000000000007C0F440944097C0F440944059
:1023560097C0F4400440084031C00000000000006F
:1023660000000000000000001E00020004000F0034
:1023760010802C8013000E000000000000000000FA
:102386000000000000000400080005001E00010017
:102396000F80100010000F800000000000000000F9
:1023A60000000000000000000000000003800C8018
:1023B6000080008003801C00000000000000000078
:1023C60000000000000000000000080004000420D7
:1023D6000040008013000C00000000000000000018
:1023E6000000000000000000080008000C000A00C1
:1023F60009000800080008000000000000000000B6
:1024060000000000000000000E0030000E00720008
:102416000200040008003000000000000000000078
:10242600000000000000000000000E003200040062
:1024360004000A0011006000000000000000000017
:10244600000000000E20F44054802B001020FE40B7
:1024560011803820544091801600000000000000D2
:1024660000000000000000000000000011001080C5
:10247600104012C014000C00000000000000000014
:10248600000000003FC02040204020403FC02040C8
:102496002040204020403FC02040000000000000B7
:1024A6000000000004000440FFE004000E001500D8
:1024B60024804440BFA00400040000000000000087
:1024C6000000000000000000000008000B800C80E7
:1024D6003900080008000780000000000000000026
:1024E600000000000000000000000000000083E083
:1024F6007C0000000000000000000000000000005A
