:020000040800F2
:10000000081100204D020008D3240008F123000845
:10001000D1240008D90F00087D4700080000000027
:10002000000000000000000000000000E3240008C1
:100030002D10000800000000E1240008E52400085D
:1000400067020008670200086702000867020008EC
:1000500067020008670200086702000867020008DC
:1000600067020008670200086702000867020008CC
:1000700067020008670200086702000867020008BC
:1000800067020008670200086702000867020008AC
:10009000670200086702000867020008670200089C
:1000A000670200086702000867020008670200088C
:1000B000670200086702000867020008670200087C
:1000C000670200086702000867020008670200086C
:1000D000670200086702000867020008670200085C
:1000E000670200086702000867020008670200084C
:1000F000670200086702000867020008670200083C
:10010000670200086702000867020008670200082B
:10011000670200086702000867020008670200081B
:10012000670200086702000867020008670200080B
:1001300067020008670200086702000867020008FB
:10014000670200086702000867020008D52400085B
:1001500067020008670200086702000867020008DB
:1001600067020008670200086702000867020008CB
:10017000670200086702000867020008000000002C
:10018000670200086702000800F002F800F04FF86C
:100190000AA090E8000C82448344AAF10107DA45E2
:1001A00001D100F044F8AFF2090EBAE80F0013F0E5
:1001B000010F18BFFB1A43F0010318473047000036
:1001C00050470000103A24BF78C878C1FAD85207C7
:1001D00024BF30C830C144BF04680C6070470000C1
:1001E0000023002400250026103A28BF78C1FBD840
:1001F000520728BF30C148BF0B607047642900F028
:100200007D81782900F0B681732900F0F882002002
:1002100070471FB504F016FB9DE8030000F04EFA8E
:1002200000F03EFB1FBD10B500F0A3FB10BD00F0B9
:100230000EFC1146FFF7EDFF04F0BEFA00F0ECFCF7
:1002400003B4FFF7F0FF03BC00F024FD094880472A
:1002500009480047FEE7FEE7FEE7FEE7FEE7FEE7A8
:10026000FEE7FEE7FEE7FEE704480549054A064BC0
:10027000704700007925000889010008080900205E
:1002800008110020080D0020080D002070B506465A
:1002900000F0F8F9056806F10B0020F00704B442FD
:1002A0009CBF002070BD2B466A68BAB11068A0429E
:1002B00010D304F1080188423CBF5068586007D34E
:1002C0005168101941601168091B01605860146081
:1002D000101D70BD13465268002AE7D121462846FA
:1002E00000F0D8F90028DED170BD70B50446051FB6
:1002F00000F0C8F90068002C14BF446870BD002CE1
:1003000018BFAC423CBF20466468F8D301680A18A5
:10031000AA4218BF456003D12A680546114401600E
:1003200028684119A1421CBF6C6070BD616869609A
:1003300021680844286070BD53EA020C00F069800F
:100340002DE9F04B4FF00006002B1FBFB3FA83F5E9
:1003500003FA05F424FA05F65E4012BF1643B2FA1A
:1003600082F502FA05F4C5F120051EBF22FA05FC4C
:1003700044EA0C04203556EA044C4FEA144418BFF2
:10038000641C4FF000084FF00009904271EB030C21
:1003900039D3002919BFB1FA81F701FA07F6B0FA8B
:1003A00080F700FA07F6C7F120071EBF20FA07FC06
:1003B00046EA0C062037B6FBF4FCA7EB0507103F16
:1003C00007F01F0BCBF120060CFA0BFB2CFA06F6FC
:1003D00044BFB3460026202FA4BF5E464FF0000B5B
:1003E0005BEA060C08BF4FF0010B19EB0B09ABFBE6
:1003F000027C48EB0608C01B06FB02CC0BFB03CCBF
:1004000071EB0C01C1E70B46024641464846BDE888
:10041000F08B13B54FF000004FF00001AFF30080F8
:10042000BDE81C40704700000FB4044910B503AA92
:10043000029800F0E9F910BC5DF814FB00080020F8
:100440002DE9F0410E460446002020622046E16876
:10045000884730B3252805D0D4E901219047206A88
:10046000401CF2E7E168204600278847050018D0C5
:10047000A5F14100192802D820354FF40067324613
:10048000294620462760FFF7B9FE40B1012804D075
:10049000F61D26F007060836D8E7361DD6E72846AB
:1004A000DAE7206ABDE8F08170B50C460546012AFE
:1004B00005D02878800600D5EA69002302E00123F0
:1004C00005E05B1C934202D2E05C0028F9D1A869E8
:1004D000E618C01AA861286A184428622846AFF3B3
:1004E000008004E0D5E9012114F8010B9047B442E3
:1004F000F8D32846AFF3008070BD00002DE9F0412D
:100500000646002410687529314616A510D0AFF3B1
:100510000080002802DA404213A507E031688A070C
:1005200001D512A502E0490704D511A5012401E077
:10053000AFF3008000210A2206F1240709E0B0FB96
:10054000F2FCB0FBF2F302FB1C003030785418468A
:10055000491C0028F3D123462A463046BDE8F04125
:1005600000F0E2B8000000002D0000002B000000A9
:100570002000000070B504460D4621461068AFF318
:1005800000802188090502D50F4A7A4402E00E4A0C
:100590007A440E32002104F1240305E000F00F0636
:1005A0000009965D5E54491C0028F7D1207800238D
:1005B000000704D5702D02D009B102231132204664
:1005C000BDE8704000F0B0B8E242000010B5203A3B
:1005D000C0F00B80B1E81850203AA0E81850B1E8FC
:1005E0001850A0E81850BFF4F5AF5FEA027C24BFB2
:1005F000B1E81850A0E8185044BF18C918C0BDE8A9
:1006000010405FEA827C24BF51F8043B40F8043B71
:1006100008BF7047D20728BF31F8023B48BF11F826
:10062000012B28BF20F8023B48BF00F8012B704780
:100630004FF0000200B5134694469646203922BF7B
:10064000A0E80C50A0E80C50B1F12001BFF4F7AFC6
:10065000090728BFA0E80C5048BF0CC05DF804EBA8
:10066000890028BF40F8042B08BF704748BF20F816
:10067000022B11F0804F18BF00F8012B7047704714
:100680007047704700487047B008002070477047B7
:100690007047704738B504460A4600206946AFF3F4
:1006A0000080002808BF38BD02460099204600F0AF
:1006B000C1F8012038BD012000F08EB9F8B5AFF3C4
:1006C0000080054600200C46102000BF0646A819F1
:1006D000A0420DD9324669460020AFF300800700E2
:1006E00008BF00F079F90098A04218BF0546C41968
:1006F000FFF7C8FF05600746F01D20F00700461908
:10070000284600F00AF8B44208BFF8BDA21B3146E3
:100710003868BDE8F84000F08DB800210160C0E9FC
:1007200001107047102070472DE9F0470D4699469B
:100730009246044600F124080168880604D5E06961
:1007400021F01001216000E00120A84201DD471BDB
:1007500000E00027A1697A1902EB0900081AA061DC
:100760002078C00602D42046AFF30080002608E0BF
:10077000D4E901211AF806009047206A401C761C33
:1007800020624E45F4DB2078C0060AD52046AFF340
:10079000008006E0D4E9012130209047206A401C07
:1007A0002062381EA7F10107F4DC07E0D4E901213B
:1007B00018F805009047206A401C2062281EA5F109
:1007C0000105F3DC2046AFF300802078000602D557
:1007D0000220BDE8F0870120FBE710B5436913B1A3
:1007E000AFF3008001E0FFF75FFE012010BD12783B
:1007F00000F124010A7000224A700122EDE711681D
:100800004FF0FF32E9E70000074B70B50D467B441F
:1008100000F02FF80446284600F03EF810B14FF0E3
:10082000FF3070BD204670BD8F3F0000004870470C
:10083000A8080020034640688C46002818BF88425C
:100840003CBF03464068F8D318681844884207D074
:100850000CF1030020F00700001D411A521A014656
:10086000081D0A60FFF741BD01694A1C0261087852
:10087000704700B58FB0CDE90131002105910549E0
:100880007944CDE9031011466846FFF7D9FD0FB052
:1008900000BD0000E5FFFFFF007B00F08000704717
:1008A00010B542485421FFF7C3FE41485421FFF7D9
:1008B000BFFE40485421FFF7BBFE3F493B483C4A3E
:1008C0003F4B08603D490A603A491960531C036573
:1008D000481C1065012008653B48344A39A178441A
:1008E00000F0FEF820B9384878440A3800F0A2F940
:1008F00037482F4A35A1784400F0F2F820B934483F
:1009000078440A3800F096F932482A4A2FA17844F0
:1009100000F0E6F820B92F4878440A3800F08AF948
:1009200040232248DC000021224600F0B5F820B127
:1009300025487844543800F07DF91D48224640236C
:10094000002100F0A9F820B121487844543800F083
:1009500071F9184822461023002100F09DF8002864
:1009600006D01C487844BDE81040563800F062B903
:1009700010BD104870B5006D20F001040B4800F068
:1009800025F90B4800F022F90A4800F01FF909E0A8
:10099000206D20F00105204600F018F92046FFF7F1
:1009A000A4FC2C46002CF3D170BD0000AC07002045
:1009B000000800205408002070000020740000206F
:1009C0007800002072000000B63F000077000000B1
:1009D000A23F00008E3F000010B500F033F9BDE8E3
:1009E000104000F022B90EB5CDE9000100F080FA08
:1009F000029069460120ABBE0EBD08B56946009065
:100A00000220ABBE08BD1FB58DE807006946052072
:100A1000ABBE04B010BD1FB58DE80F0069460620BF
:100A2000ABBEF6E708B5694600900920ABBE08BD2D
:100A30001CB5CDE9000169460A20ABBE1CBD70475C
:100A400008B5694600900C20ABBE08BD70477546DE
:100A5000FFF7ECFEAE4605006946534620F007005E
:100A6000854618B020B5FFF7FFFBBDE820404FF0EA
:100A700000064FF000074FF000084FF0000B21F088
:100A80000701AC46ACE8C009ACE8C009ACE8C00955
:100A9000ACE8C0098D46704770B5C468A50713D08F
:100AA000650211D4B2F5807F09D0B2F5007F06D07F
:100AB000B2F5806F08D1012300F1240106E05D1E2C
:100AC0006FF07F46B54201D3012070BD0161C36163
:100AD000416024F470611143C160002070BD0000CA
:100AE0002DE9F0410C4607461646104600F06EF818
:100AF0002078611C61280AD0722802D077283CD166
:100B000002E00125002405E00225042402E0082477
:100B100048F2020511F8010B2B2806D0622809D0F3
:100B200011F8010C74280AD00BE045F0030544F0DD
:100B30000204EFE745F0040544F00104EAE744F05D
:100B4000100438462146FFF74EFF411C15D0002106
:100B5000316171604FF40071F560F16170612007DF
:100B600004D530460222002100F09AF8306D40F0A2
:100B7000010030653046BDE8F0810020FBE72DE93B
:100B8000F0410D460646104C206DC10704D04108C7
:100B900004D020F00104F7E722460EE05420FFF7CE
:100BA00075FB07000ED0206D47F00101084354216A
:100BB00020653846FFF73CFD3A4629463046BDE8F9
:100BC000F0418DE70020D6E7AC0700202DE9F04783
:100BD00004464FF000094FF0FF37C568D4E904869A
:100BE000A80707D0204600F00BF93046FFF705FFB5
:100BF000002802DA3846BDE8F087280502D54046CD
:100C0000FFF773FB4C212046FFF712FD206D20F00B
:100C1000010020654846EEE710B50446AFF30080BA
:100C20002046BDE81040FFF70BBB002801D000F0C4
:100C300031B8704710B500F041F9BDE81040FFF73A
:100C4000F4BF000010B5012805D0002103A000F07A
:100C50001BF9012010BD09A1F8E7000053494752D4
:100C6000544D454D3A204F7574206F66206865617C
:100C700070206D656D6F7279000000003A20486544
:100C80006170206D656D6F727920636F727275701F
:100C90007465640001491820ABBEFEE7260002001F
:100CA0002DE9F041044616460D464769007B800752
:100CB0002ED03846FFF7B6FE50BB3EB3012E02D011
:100CC000022E25D104E0204600F038F905441DE04D
:100CD0003846FFF7B5FEE168002841F01001E160F9
:100CE00005DA204600F058F80120BDE8F081C9037C
:100CF0000BD56268E16A914200D81146A26911449D
:100D00002269891A814200DD08460544002D01DA76
:100D10000220EAE7E16A6068E268814206D2910354
:100D2000E06203D522F4003141F01002A6690027E9
:100D3000AE4213DCE16A814201D90B4600E0034672
:100D400003EB060C2369ACEB030CAC4506DD8142DA
:100D500001D98C4600E084469C4505D1A7602760F8
:100D600042F02000A5620DE0AD1BE669AE1B81429A
:100D7000A66000D90846C01A281A20605819606079
:100D800022F0200003490840E060002084F8487009
:100D9000ABE70000BFCFD7FFC16821F4001141F0DD
:100DA0008001C16000218160016070472DE9F0473A
:100DB000814614460E464FF0FF383248D5685769D1
:100DC000054209D03846A169FFF732FE002811DB41
:100DD0002C48C0430540E5602B463246494638461C
:100DE000FFF711FEA16920F00042B21A1144002859
:100DF000A16103D02046FFF7CFFF4046BDE8F08752
:100E000070B504460569C06A6168884200D8084622
:100E1000E16821F42011E160C90312D5A84208D08D
:100E20002246411B2846FFF7C1FF10B14FF0FF30AB
:100E300070BD0020E562C4E90150E06820F4803014
:100E4000E060002070BD10B50446C06820F02000AE
:100E5000E060A16AA06988420DD02046FFF7D0FF6C
:100E6000E06820F4405040F01000E060A06AA0610B
:100E70002069E062606044F24001E0688843E0601D
:100E800010BD00001000020070B505460C460A2097
:100E900000E06D1C00F04BF835B128780028F8D13F
:100EA00002E0641C00F043F814B120780028F8D167
:100EB000BDE870400A2000F03AB8000010B50146C5
:100EC00002A0FFF7E1FF012010BD00005349475287
:100ED000545245443A2052656469726563743A20FD
:100EE00063616E2774206F70656E3A200000000009
:100EF00010B5431C02E010F8011B71B18107FAD153
:100F00004FF0013202C88C1A8C4314EAC211F9D096
:100F1000C01A0A0603D0C01E10BDC01A10BD0A04B4
:100F200001D0801E10BD0902FCD0401E10BD08B5C6
:100F300069468DF800000320ABBE08BD10B5014620
:100F4000C268900703D0900607D5886A0AE000F0CF
:100F500017F801210160881E10BD8B69486818448C
:100F60000B69C01A91F848301BB191F84910401A2A
:100F700010BD1103FCD50028FADD401E10BD000095
:100F800000487047A80800200449054A31F81010AD
:100F900052F82000012200F073B900004E4800080A
:100FA000000000200449054A31F8101052F82000D2
:100FB000002200F065B900004E4800080000002043
:100FC0000349044A31F8101052F8200000F050B9DB
:100FD0004E48000800000020FEE7000010B5002287
:100FE0004FEA020100EB8203521CC3F88413102A5B
:100FF000F8D300224FF400738418521C84F81C119B
:101000009A42F9D30170417001228270C0F8C41372
:10101000027640238371417680F81C1380F81D23EB
:1010200080F81F1380F81E13002010BD70470120A8
:10103000FFF7C6FF642000F011F80120FFF7C0FFA2
:10104000642000F00BF80120FFF7BAFF642000F0E5
:1010500005F80120FFF7B4FF72B6FEE770B504464D
:1010600000F014F90546601C02D0044800780444DE
:1010700000F00CF9401BA042FAD370BD180000200C
:101080002DE9F84FDFF8BCA10022012503264FF01F
:101090000F090AF1040BAAF1040E00BF0B6805FA50
:1010A00002F42340A34270D10F7907F00307012F08
:1010B00001D0022F16D187684FEA420806FA08FCD1
:1010C00027EA0C07D1F80CC00CFA08FC4CEA070C14
:1010D000C0F808C04768A7430C79C4F300149440D3
:1010E0003C4344600C79E443A4070AD0C4684FEA47
:1010F000420C06FA0CF7BC438F6807FA0CF727433B
:10110000C7600C7904F00304022C12D1D40800EB60
:10111000840CDCF820405707FF0E09FA07F824EA90
:101120000804D1F8108008FA07F848EA0408CCF857
:10113000208004684FEA420C06FA0CF7BC430F7992
:1011400007F0030707FA0CF7274307604C6814F40D
:10115000403F70D03C4C276847F4804727602468A4
:1011600022F0030704F480440094384C07EB040C8D
:10117000DCF8084897074FEA177809FA08F7BC43E4
:10118000334FB84202D1002724E054E0314FB84237
:1011900001D101271EE0304FB84201D1022719E0EA
:1011A0002E4FB84201D1032714E02D4FB84201D190
:1011B00004270FE02B4FB84201D105270AE02A4F40
:1011C000B84201D1062705E0284FB84201D10727D0
:1011D00000E0082707FA08F72743CCF80878DAF880
:1011E00000405746D1F804C09C435FEACC2C00D5A0
:1011F0001C433C60DBF800405F46D1F804C09C43D0
:101200005FEA8C2C00D51C433C60DEF8004077463A
:10121000D1F804C09C435FEA8C3C00D51C433C6081
:10122000084F083F3C68D1F804C09C435FEACC3CBF
:1012300000D51C433C60521C102AFFF42FAFBDE8C0
:10124000F88F0000083C0140443802400030014063
:10125000000002400004024000080240000C02406E
:10126000001002400014024000180240001C02401E
:10127000426921EA02030A4043EA02418161704760
:101280000AB1816170470904FBE7000001488068EA
:101290007047000018000020D0F8000302F0A3B946
:1012A000D0F8000302F0A9B9006802F085BF006819
:1012B00002F086BF01EB410202EBC10100EB8100AD
:1012C00090F86000704701EB410202EBC10100EBB6
:1012D0008100006D704710B5044690F8F8020128AF
:1012E00009D0012084F8F802206802F074FF002081
:1012F00084F8F80210BD022010BD2DE9FE4305461A
:10130000DDE90B7095F8F842DDF828C0012C1ED0FD
:1013100001EB410404EBC1044FF0010905EB840427
:1013200085F8F892002684F83D6084F83830A4F8F7
:10133000400084F8391084F83F7002F07F0884F888
:101340003A805FEA026805D584F83B9004E0022009
:10135000BDE8FE8384F83B6084F83CC0CDF800C053
:10136000CDE90170286802F099FF85F8F862EFE78F
:1013700070472DE9F00301EB4104DDE906C9DDE921
:10138000087504EBC10400EB8404022684F83B20BA
:1013900084F83F30BCF1000F0AD084F84260002589
:1013A0006BB1012B2FD0022B12D0032B16D10FE0E3
:1013B0004FF0030884F8428084F83D50EFE7BCF119
:1013C000010F0BD152B9DFB9012284F8552003E097
:1013D000B2B194F85420B2B184F84260C4F8449099
:1013E000E76484F86050256584F8391084F861500A
:1013F000027C04F138010068BDE8F00302F0D7BFB9
:1014000094F85520E7E784F84250E7E72DE9F041EA
:1014100006680446304602F0DAFE012875D12068DD
:1014200003F0E9F8002870D0206803F0E4F88002A7
:1014300003D521684FF400104861206803F0DBF801
:10144000C00203D521684FF480104861206803F082
:10145000D2F8400103D521684FF0806048612068D0
:1014600003F0C9F8800702D521680220486120688E
:1014700003F0C1F8800015D521684FF00050486195
:10148000D6F84004C0070DD11021304602F074FE9A
:10149000304602F053FE0121206803F091F8204607
:1014A000FFF7FEFE206803F0A6F8C00102D5204633
:1014B00000F00EFF206803F09EF8000705D52046D7
:1014C00000F0C7F8216808204861206803F093F80D
:1014D000C043C0060CD42068816921F010018161ED
:1014E000204600F03FFF2068816941F010018161D2
:1014F000206803F080F8800123D5206802F053FFB4
:10150000074600254FF0010814E01AE005F00F012E
:1015100008FA01F038420CD006EB4510D0F800056F
:10152000E9B20004204602D500F0CFFC01E000F053
:10153000C1FD6D1CA068A842E8D821684FF000707A
:101540004861BDE8F08170B58AB0040005D094F818
:10155000F9022568002618B107E001200AB070BD25
:1015600084F8F862204600F027F8032084F8F90296
:10157000E86BC00500D42661206802F0ABFD04F1E1
:10158000100128220D466846FFF720F894E80F0066
:1015900002F046FD0121206803F069F8282229465F
:1015A0006846FFF713F894E80F0002F0A1FF01204E
:1015B00084F8F9020020D1E710B586B00446142162
:1015C0006846FFF735F82068B0F1A04F2FD11948D1
:1015D0000021026842F001020260006800F0010090
:1015E00005904FF4C05000900220CDE90101032086
:1015F00003900A20049069460F48FFF741FD0D480B
:10160000001D016841F0800101600A481430016842
:1016100041F4804101600068002200F480400590A0
:101620001146432000F0AAF8432000F099F806B0D4
:1016300010BD00003038024000000240D0F8000326
:1016400002F056B8D0F8000302F056B8006802F075
:10165000F5BFD0F8000302F006B810B5044690F8C4
:10166000F80201280DD0012084F8F8020121206839
:1016700002F048FD206802F05BFD002084F8F802CB
:1016800010BD022010BD10B5044690F8F8020128E4
:1016900009D0012084F8F802206803F016F8002031
:1016A00084F8F80210BD022010BD000002488168D5
:1016B0000278114481607047180000200B4810B573
:1016C000016841F400710160016841F480610160CA
:1016D000016841F480710160032000F06FF80F2071
:1016E00000F006F800F024F8002010BD003C024095
:1016F00070B50D4D04464FF47A712878B1FBF0F0C7
:101700000A490968B1FBF0F000F00AFB48B9102C57
:1017100007D200222146501E00F030F800206C60F5
:1017200070BD012070BD00001800002024000020C2
:101730000A4808B5016841F480410160006800F47E
:10174000804000900548001F016841F08051016011
:10175000006800F08050009008BD0000443802404E
:10176000002809DB00F01F020121914040098000A0
:1017700000F1E020C0F8001170470000F0B40E4BFB
:101780001B680C46C3F30223C3F10705042D00D9DF
:101790000425191D072901D2002300E0DB1E0126C4
:1017A00006FA05F1491E214099409E40761E1640DA
:1017B0003143F0BC02F0E3BF0CED00E0064900F05D
:1017C000070208684FF6FF03184040EA0220034A68
:1017D00010430860704700000CED00E00000FA05BF
:1017E0002DE9F0470E46050065D0DFF81481D8F8E2
:1017F0000000F7B200F00700B04207D288F800708E
:10180000D8F8000000F00700B04254D128683D4CE1
:10181000810712D5400703D5206840F4E0502060CE
:101820002878000703D5206840F4604020602068D5
:10183000A96820F0F000084320602878C0072DD068
:10184000304968680839012812D0022813D00328CB
:1018500011D00968890700292DDA216821F00301D8
:1018600001432160FFF712FD814641F2883A0EE004
:1018700009688903EFE709688901ECE7FFF706FDCE
:10188000A0EB0901514502D90320BDE8F08720688B
:10189000696800F00C00B0EB810FEFD1D8F80010B0
:1018A000404601F00701B14207D90770006800F017
:1018B0000700B04201D00120E7E72878400705D5AE
:1018C0002068E96820F4E050084320602878000789
:1018D00006D52068296920F4604040EAC1002060F4
:1018E00000F038F82168084AC1F30311515CC84080
:1018F0000649086006480068FFF7FAFE0020C4E7C2
:10190000003C0240083802405848000824000020EB
:101910001C0000200448054900680968044AC1F316
:101920008221515CC84070472400002008380240E2
:10193000684800080448054900680968044AC1F37A
:101940004231515CC84070472400002008380240F2
:1019500068480008154810B5006810F00C021448DB
:1019600013D04110042A0FD0082A0ED10F4C241F87
:101970002268236802F03F025B0207D52068C0F3AB
:101980008810A0FB010106E0084610BD2168C1F3E4
:101990008811A1FB00010023FEF7CEFC2168C1F3F2
:1019A0000141491C4900B0FBF1F010BD083802406C
:1019B0000024F4002DE9F84F04006ED02078DFF801
:1019C0004C93C007A9F104054AD009F1040001684D
:1019D000C1F38101012908D00068C0F38100022809
:1019E0000AD1D9F80000400206D52868800337D50F
:1019F00060680028E1D033E06068B0F5803F10D027
:101A0000B0F5A02F286810D020F480302860286816
:101A100020F4802028606068A8B1FFF737FC0646F4
:101A20000DE0286840F48030F4E740F4802028601E
:101A3000F7E700BFFFF72AFC801B642873D82868EB
:101A40008003F7D50CE0FFF721FC064605E000BF58
:101A5000FFF71CFC801B6428F0D828688003F7D4AB
:101A60002078DFF8AC8280074FF0000A3ED5A74807
:101A7000001D016811F00C0F08D00068C0F3810050
:101A800002280BD1D9F80000400207D4286880074B
:101A900016D5E068012800D112E033E1E068B8B162
:101AA0000120C8F80000FFF7F1FB064605E000BF83
:101AB000FFF7ECFB801B0228C0D828688007F7D509
:101AC0002868216920F0F80040EAC10028600DE094
:101AD000C8F800A0FFF7DAFB064604E0FFF7D6FBE4
:101AE000801B02281FD828688007F7D420780007B9
:101AF00022D5864F87486169703771B10121016035
:101B0000FFF7C4FB064604E0FFF7C0FB801B02287A
:101B100009D838688007F7D50EE0C0F800A0FFF7B5
:101B2000B5FB064605E082E0FFF7B0FB801B02280C
:101B30007DD838688007F7D42078400768D5DFF86B
:101B4000CCB100270BF13C0BDBF80000C0000BD43C
:101B5000DBF8001041F08051CBF80010DBF80000FA
:101B6000012700F0805000906B4E3068C00510D403
:101B7000306840F480703060FFF788FB009005E02B
:101B8000FFF784FB0099401A022850D83068C0053E
:101B9000F6D55E4EA0686C3601280FD00528306857
:101BA00010D020F001003060306820F00400306078
:101BB000A068B8B1FFF76AFB00900FE0306840F012
:101BC0000100F4E740F004003060F7E7FFF75EFB48
:101BD0000099411A41F28830814266D83068800706
:101BE000F4D50EE0FFF752FB009007E0FFF74EFB45
:101BF0000099411A41F28830814256D830688007F6
:101C0000F4D42FB1DBF8001021F08051CBF8001094
:101C1000A069C8B33D49091D0968C1F381010229C2
:101C20004AD00228504607D0C8F8600000E03CE0E7
:101C3000FFF72CFB04463BE04746C8F86000FFF77F
:101C400025FB064605E000BFFFF720FB801B0228AE
:101C50002BD828688001F7D4D4E907010843A16A8A
:101C60002E4A490802EB0141626A41EA82110843A7
:101C700094F82C1040EA0161C9F800100120386680
:101C8000FFF704FB044606E03EE000BFFFF7FEFA64
:101C9000001B022809D828688001F7D534E000BF6E
:101CA000FFF7F4FA001B022802D90320BDE8F88FE1
:101CB00028688001F4D427E00128F7D0D9F8000083
:101CC000E26900F4800191421CD1226A00F03F01D8
:101CD000914217D147F6C071626A0140B1EB821F91
:101CE00010D1A26A4FF0FF3300F4403103EB5202EF
:101CF000B1EB024F06D194F82C1000F07060B0EBFD
:101D0000016F01D00120D1E70020CFE70438024065
:101D100000004742800E4742007000400000FFFF75
:101D200010B5401EB0F1807F01D3012010BD4FF0EF
:101D3000E02460610F21601702F021FD0020A06106
:101D400007202061002010BD70B5040004D094F875
:101D50003D00002510B106E0012070BD84F83C5024
:101D6000204600F023F8242084F83D002068C16854
:101D700021F40051C160204600F006FC2068016992
:101D800021F4904101612068416921F02A014161FB
:101D90002068C16841F40051C1602564202084F8A6
:101DA0003D0084F83E00002070BD000010B586B0F4
:101DB000044614216846FEF73BFC1449206888421B
:101DC00021D113480021026842F01002026000682D
:101DD00000F0100005900E481438026842F001022D
:101DE0000260006800F0010005904FF4C0600090B0
:101DF0000220CDE9010103200390072004906946E9
:101E00000448FFF73DF906B010BD00000010014086
:101E100044380240000002402DE9F843044690F89F
:101E20003D001F4616460D4620284CD1C5B1BEB117
:101E300094F83C00012846D0012084F83C004FF083
:101E40000008C4F84080212084F83D00FFF71EFA06
:101E5000A6848146E684A068B0F5805F03D004E0E4
:101E60000120BDE8F883206928B12E465FF0000507
:101E700084F83C800EE00026FAE78021204600F03E
:101E800009FCA0B9AEB116F8010B21684860E08CDE
:101E9000401EE084E08C4B464FF000020097002883
:101EA000EBD14FF04001204600F0F4FB30B10320AD
:101EB000D7E735F8020BC0F30800E6E7202084F8E6
:101EC0003D000020CDE70220CBE72DE9F047074693
:101ED00000680D4600EB4116D6F8080501EB4103FA
:101EE000420703EBC5014FF006004FF004084FF026
:101EF000050A07EB810401D541463CE0D6F80815F8
:101F0000C90507D54FF48070C6F80805072084F886
:101F100061001CE0D6F80815890603D52020C6F814
:101F2000080518E0D6F808150A074FF0080104D58F
:101F3000C6F8081584F861A009E0D6F8082552050E
:101F400014D54FF48060C6F8080584F8611029465E
:101F5000386802F040F9D6F8080580050ED5294604
:101F6000386802F038F94FF40070A0E0D6F8081590
:101F70000906F0D58021C6F80815C8E7D6F8080587
:101F80004FF00001C0074FF010094FF001023BD0A5
:101F9000386930B1A06CD6F81035C3F31203C01AFB
:101FA000206584F86120E165C6F8082594F83F00B3
:101FB00030B1022804D0032809D0012807D012E04C
:101FC0002946386802F007F9C6F808950BE0D6F8FC
:101FD000000540F00050C6F8000584F8602029464E
:101FE0003846FFF7C5F93869012806D1B4F8401022
:101FF000A06CB0FBF1F0C00704D014F8540F80F0CF
:1020000001002070BDE8F087D6F80805800735D5B7
:1020100094F86100022301280AD005280BD0062875
:102020000CD008280AD003280FD0072818D01CE0AD
:1020300084F8602019E084F860A016E0E06D401C90
:10204000E065022801D9E1650DE084F86030D6F83A
:10205000000520F0804040F00040C6F8000504E094
:10206000E06D401CE06584F86080C6F8083594F89F
:10207000602029463846FFF77BF9C3E7D6F8080504
:10208000C006BFD594F83F00032803D020B1022832
:1020900002D00BE0E16505E0E165386930B9032065
:1020A00084F861002946386802F095F84846C6F879
:1020B0000805A7E72DE9F047026802EB4114D4F8C0
:1020C000082501EB4103550703EBC1034FF0040260
:1020D0004FF0060A00EB830304D5C4F8082583F803
:1020E00061A051E0D4F808554FF00007AD064FF05D
:1020F000020C0BD52022C4F8082593F83D20012AB4
:1021000033D183F83D7083F860C03DE0D4F80855C2
:10211000AD0504D54FF40072C4F8082534E0D4F8B6
:1021200008554FF001065FEAC5784FF040050DD025
:10213000DF65D4F80825520603D583F83D60C4F85E
:102140000855C4F8086583F861601DE0D4F8088577
:102150005FEA48680BD583F8612083F83D60DF654E
:10216000006802F038F8C4F80855BDE8F087D4F8E4
:1021700008554FF008095FEA05784FF0050508D5C6
:10218000C4F8089583F861500068BDE8F04702F094
:1021900022B8D4F808855FEAC86810D50322DF6545
:1021A00083F8612093F83D2022B993F83C200AB9C6
:1021B00083F83D60006802F00EF810201AE0D4F8B1
:1021C00008855FEA086818D5056955B1DD6D6D1C95
:1021D000DD65022D0BD9DF6583F86020FFF7C8F8B5
:1021E00007E083F861A0006801F0F5FF01E083F8E3
:1021F00060C08020C4F80805B7E7D4F808855FEA16
:10220000485807D583F86190006801F0E4FF4FF467
:102210008060EFE7D4F808855FEA8878A5D593F861
:102220006180B8F1010F0FD0B8F1030F30D0B8F1D1
:10223000040F2DD0B8F1050F2DD0B8F1060F2DD019
:10224000B8F1080F2AD03CE083F8606093F83F2093
:10225000022A01D0032A34D102692AB993F8552001
:1022600082F0010283F855200269012A29D1DA6C33
:102270003AB3B3F840502A44521EB2FBF5F2D207EB
:102280001FD093F8552082F0010283F8552018E002
:1022900083F860C015E083F8605012E0DD6D6D1CBE
:1022A000DD65022D03D9DF6583F8602009E083F83E
:1022B00060C0D4F8002522F0804242F00042C4F809
:1022C0000025C4F808C593F86020FFF751F84CE7E3
:1022D0007CB504680546D4F840040190D4F8400465
:1022E00020F02E0000900198800709D50198C007C2
:1022F00002D02846FEF7D0FF009840F00200009080
:102300000198000724D5009840F00800009001983B
:1023100040071AD5A869022803D0E86801280CD024
:102320000FE00198C0F341400228286803D0012142
:1023300002F046F905E00221FAE74EF66020C4F803
:1023400004042846FFF77EF902E02846FFF776F9F5
:1023500001988006009802D540F020000090C4F853
:1023600040047CBD2DE9F041024600680646016A42
:10237000C1F3434301F00F07C1F30A15022B31D11A
:10238000002D2FD007EB470101EBC70102EB8104C1
:10239000616C002926D0226DE36C2A449A4223D82E
:1023A0002A4602F02CF9606C28446064206D2844B1
:1023B000206506EB4710D0F81015B4F84020C1F3A3
:1023C000C941AA420ED100290CD0D0F8001521F045
:1023D000804141F00041C0F8001514F8540F80F01E
:1023E00001002070BDE8F081042084F86000F9E766
:1023F000FEE7000070B586B014216846FEF718F9B4
:102400001D480024016841F010010160016801F0DD
:1024100010010591016841F080010160016801F03F
:1024200080010591016841F0010101600068134ECF
:1024300000F0010005900022C0213046FEF720FF89
:102440001820CDE9000469460D480294FEF718FEF5
:102450000125CDE90054694630460294FEF710FE8E
:10246000C0200090CDE90154694630460394FEF740
:1024700007FE06B070BD0000303802400000024088
:102480000010024010B501220B490C4801F05AF827
:1024900008B1FEF7CCFD0A49084801F0C5FC08B1B7
:1024A000FEF7C5FD054801F0A1FD002803D0BDE8F9
:1024B0001040FEF7BCBD10BD01400008C000002068
:1024C00028000020014801F045BA0000C0000020AB
:1024D000FEE7FEE70148FEF799BF000098040020E0
:1024E00070477047FFF7E2B830B593B030216846C7
:1024F000FEF79EF814210CA8FEF79AF81C48002558
:10250000016841F080510160006800F08050119036
:102510001848016841F4804101600068022400F419
:102520008040119001200090000401908001CDE9CD
:10253000064004200890A820CDE9090407200B904C
:102540006846FFF737FA70B90CA90F2081E831000F
:102550004FF4A0500F90E002109005210CA8FFF757
:102560003FF9002801D0FEF762FD13B030BD000036
:1025700040380240007000400248016841F4700198
:102580000160704788ED00E070B50446006801699D
:10259000E26821F44051114301612169A068E269B8
:1025A00008436169114308432168CA6849F20C6312
:1025B0009A430243CA6020684169A26921F44071CC
:1025C0001143416131492068884202D03049884234
:1025D00002D1FFF7AFF901E0FFF79CF9E2690023B0
:1025E000192164253226B2F5004F626828D0A0FB7D
:1025F0000101930F9200FDF79FFE0146B0FBF5F03D
:102600006FF01802504301EB800006EB0010B0FBA6
:10261000F5F000F0F002B1FBF5F002EB0012B1FBB7
:10262000F5F06FF01803584301EB800006EB001043
:10263000B0FBF5F000F00F0021681044886070BD19
:10264000A0FB010192185B41FDF776FE0146B0FB4D
:10265000F5F00201B1FBF5F06FF01803584301EB00
:10266000800006EBC000B0FBF5F000F0F80002EBD4
:102670004002B1FBF5F0584301EB800006EBC000CF
:10268000B0FBF5F000F00700D6E7000000100140B5
:10269000001401402DE9F041984617460E460446C5
:1026A000069D27E0681C25D02DB1FEF7EFFDA0EBBD
:1026B0000800A8421ED920680C3050E8001F21F401
:1026C000D07140E80012002AF5D12068143050E89B
:1026D000001F21F0010140E80012002AF5D120205E
:1026E00084F83D0084F83E00002084F83C0003207C
:1026F000BDE8F0812068006836EA000004D00020C0
:10270000B842CFD00020F3E70120F9E710B500224E
:102710004FF6FF7300EB8204B4F8844324040BD417
:102720009A4207D002F00F0300EB830041F400410E
:10273000C0F88413D0B210BD521CD2B2102AE9D313
:102740001A46F7E710B500F045FF002010BD82786B
:10275000012A07D10222027401224274002242821D
:102760008182C2820022114600F00FB87FB51C465C
:10277000012501AE0023009586E80E002A46214679
:1027800000F0EEFF04B0002070BD70B504460120DB
:10279000A3780546012B0BD0022B08D1204600F070
:1027A000FDFB58B1032809D0022800D1A57070BDE7
:1027B000A160A28125760221A17070BDA5700021C3
:1027C000217670BD7FB51D4690F81D33089C03B17E
:1027D00000240123CDE90031CDE9022400231A466B
:1027E000294600F0BDFF04B0002070BD1FB50023D6
:1027F0001446CDE900310822CDE902231A462146CC
:1028000000F0AEFF04B0002010BDFEF727BC0000B2
:1028100070B50546002005F54E7500BF00EB80043D
:1028200004EBC00405EB4404E67B0A348E4201D07D
:10283000FF2909D1A679964201D0FF2A04D1E47973
:102840009C4206D0FF2B04D0401CC0B20228E5D326
:10285000FF2070BD102907D200EB8100B0F884136F
:10286000C1F30E01C0F884130020704730B485789E
:10287000029C012D0FD141F08001017406214174A9
:1028800003214282B1EB122F02D140F2094100E054
:1028900000218182C482224630BC1946FFF775BFF1
:1028A0000A8803781A440A80017808447047F8B50A
:1028B0000E4600F11C040091054623464FF40072B9
:1028C0000021FFF7D3FF002806D1324621462846D3
:1028D000BDE8F84000F05FBFF8BD38B50D46009187
:1028E000044600F58E734FF480720021FFF7BEFF9F
:1028F000010044D194F81C0184F8260394F81D01CA
:1029000084F82703B4F81E01A4F8280394F82001E2
:1029100084F82A0394F8210184F82B0394F8220107
:1029200084F82C0394F8230184F82D03082806D09A
:10293000102804D0202802D0402800D0402084F85D
:102940002D03082D1BD9B4F82401A4F82E03B4F8E4
:102950002601A4F83003B4F82801A4F8320394F84F
:102960002A0184F8340394F82B0184F8350394F891
:102970002C0184F8360394F82D0184F837030846B7
:1029800038BDF8B51C461646009341F4407200F578
:102990008E731D460021FFF769FF002814D1697866
:1029A000032911D129788A1EA24200D81446002199
:1029B000A2B2AD1C04E06B5C891C06F8013B89B235
:1029C0009142F8D300213170F8BD01004FF00000B2
:1029D00004D0012901D0022901D002207047012032
:1029E00070470000F8B50546D0F87C030126C4699D
:1029F0006079062864D2DFE800F003632D033D48C8
:102A000005F11C00ED8B092D0DD90921ADF8001041
:102A100005E06946FFF744FF4178212905D0BDF85C
:102A20000010A942F5D302201DE0017884F8261099
:102A3000417884F8271041882185017984F82A108B
:102A4000417984F82B10817984F82C10B0F80700B4
:102A5000E085E8E7E18D284600F0A6F810B10328EC
:102A600003D02DE0042060712AE016A0FDF7DCFC05
:102A700016A01FE000221146284600F072FA052138
:102A800008B103281CD161711AE00021284600F02A
:102A900075FA10B1032809D012E001206071D5F851
:102AA000D423022128469047002609E005A0FDF71F
:102AB000BBFC16A0FDF7B8FC22A0FDF7B5FC022672
:102AC0003046F8BD4552524F523A2000436F6E7463
:102AD000726F6C206572726F723A204849443A20D6
:102AE00044657669636520476574205265706F722E
:102AF000742044657363726970746F7220726571BB
:102B000075657374206661696C656400436F6E74EB
:102B1000726F6C206572726F723A204849443A2095
:102B2000446576696365205365742070726F746FB5
:102B3000636F6C2072657175657374206661696C72
:102B4000656400000A000000704700238380C38092
:102B50008372028101607047F0B5837A0024EBB97B
:102B600001238372002317E08588C7886E1CBE424C
:102B700017D0B0F808C0664500D197B1076811F8C2
:102B8000016B7E5585886D1CADB285800689B54286
:102B900000D184805B1C9BB29342E5D384721046C3
:102BA000F0BD84721846F0BD08B500F58E73009133
:102BB0004FF408520121FFF759FE08BD30B4A1259A
:102BC000029C0574012542EA0121457441820021DD
:102BD0008182C482224630BC1946FFF7D6BD70B54B
:102BE0000546D0F87C030026C469617839B12846CF
:102BF000FFF7A8FD61782846FFF72CFE6670217864
:102C000039B12846FFF79EFD21782846FFF722FEBE
:102C10002670D5F87C03C06920B1FDF766FBD5F8B6
:102C20007C03C661002070BD2DE9FE430546D0F847
:102C30007C030027FF23017901222846FFF7E8FDE6
:102C40000646FF2826D0022E24D20146284601F04F
:102C500029F9F8B93420FDF719FBD5F87C1304469F
:102C6000C861200016D03421FDF7E2FC0720A070D7
:102C700006EB860000EBC60005EB400696F849031C
:102C800001280AD0022810D035A0FDF7CDFB3AA0CC
:102C9000FDF7CAFB0220BDE8FE8338A0FDF7C4FBA8
:102CA00035A0FDF7C1FB3B4806E03BA0FDF7BCFBB0
:102CB00031A0FDF7B9FB3D4820630020A070607192
:102CC00096F84E03A076B6F85003208396F8520388
:102CD000A0830A2801D20A20A08396F8460302287E
:102CE00001D8804637E04FF0020800BF06EBC7006E
:102CF0004FF0030990F84E13080613D521712846AA
:102D0000FFF704FD60700146208B95F81D33CDE977
:102D10000039029095F81C332279284600F031FDE5
:102D2000617812E0E1702846FFF7F0FC2070014660
:102D3000208B95F81D33CDE90039029095F81C33AE
:102D4000E278284600F01DFD21780022284600F098
:102D5000E3FC7F1CFFB24745C8D300209BE700007F
:102D600050726F746F636F6C206E6F742073757028
:102D7000706F727465642E000A0000004B65794222
:102D80006F6172642064657669636520666F756E35
:102D900064210000B12D00084D6F757365206465D6
:102DA0007669636520666F756E6421000D2E0008DC
:102DB00070B50146D0F87C03124A134DC369002058
:102DC00050709070D070107150719071D0711072FD
:102DD0000246A5F1080400BF45F8220044F822008D
:102DE000521C022AF8D3188B082801D9082018830E
:102DF000502203F1080001F58E715C61FFF7A5FE1A
:102E0000002070BD9C0700205000002070B50146D6
:102E1000D0F87C03114A114DC36900201070507026
:102E20009070D07010710835024605F1080400BF9B
:102E300045F8220044F82200521C022AF8D3188BCD
:102E4000082801D908201883502203F1080001F551
:102E50008E715C61FFF779FE002070BD5800002084
:102E60002DE9F8430646D0F87C0300250127C46904
:102E70004FF00408A07807285FD2DFE800F00409CB
:102E80005E5E29243800216B30468847A77054E0E5
:102E9000207E00900022012130466369FFF78EFEFC
:102EA00005004FF0050107D0012D07D0032807D0FA
:102EB0000720A070022540E0A1703EE0A77000E06E
:102EC000A170002539E0D6F8C403C00733D134E03F
:102ED0006378227E3046616900F06CFB0620A070AA
:102EE000D6F8C4032062002084F8240025E061782D
:102EF000304600F0B4FB01286178304604D000F081
:102F0000AEFB052812D018E000F094FB94F82410D2
:102F100099B990B1228B04F108006169FFF71CFE9A
:102F200084F824703046FFF70FFE06E0A17E30469D
:102F3000FFF70DFC08B984F802802846BDE8F88345
:102F4000D0F87C13C9698A78062A08D1D0F8C4035E
:102F50000A6A801A8A8B904201D30420887000206C
:102F60007047212303740A23437442EA01214182FA
:102F700000218182C1820A46FFF707BC2122027428
:102F80000B224274002209B1428201E001214182F8
:102F90008282C28200221146FFF7F7BB2DE9F84F6B
:102FA0000125017E04460B26092728464FF0070815
:102FB0004FF0050A4FF00D090C2919D2DFE801F096
:102FC000BD060E26313C48606B7C899A627904F11B
:102FD00010012046FFF70AFC022012E0617920462A
:102FE00000F03DFB012804D0042871D002287FD0D6
:102FF000A3E0207CE18A00F0800021B180283AD152
:103000000320207699E0802814D02EE0D4F8C40361
:10301000E0812379A2892046A168FFF7A7FB04205D
:10302000EFE72179204600F01AFB012802D005289D
:1030300040D056E0277680E000906379A289204650
:10304000A168FFF7BFFBD4F8C403E0810620D8E7EE
:103050006179204600F003FB012806D0052807D03F
:10306000022808D0042809D067E084F8188064E0BA
:103070000C2020761EE084F818A05EE026765BE047
:103080000022237911462046FFF770FBD4F8C403D1
:10309000E0810820B5E72179204600F0E0FA012818
:1030A00004D0042824D0052804D046E084F81890E1
:1030B000002542E0032540E000900022637911469C
:1030C0002046FFF77FFBD4F8C403E0810A2098E78D
:1030D0000EE06179204600F0C2FA012804D00228EF
:1030E000A8D0042804D028E0002584F8189024E013
:1030F000267622E0617E491CC9B26176022902D897
:103100002076A07019E0D4F8D423062120469047F9
:10311000002565760AA0FDF787F90BA0FDF784F975
:1031200013A0FDF781F961792046FFF793FB217920
:103130002046FFF78FFB257002252846BDE8F88F53
:103140004552524F523A2000436F6E74726F6C209A
:103150006572726F723A20446576696365206E6F9E
:103160007420726573706F6E64696E670000000092
:103170000A0000002DE9FE430126417800250D27B5
:103180000446B04600F58E7908290CD2DFE801F03C
:10319000042C4B8DADC7D9F508212046FFF79DFBC8
:1031A00010B1032806D0FCE094F82D03A07184F838
:1031B00001804FE07EA0FDF737F97FA0FDF734F9DD
:1031C0008AA0FDF731F994F81E03401CC0B284F8C0
:1031D0001E03032870D861792046FFF73BFB217955
:1031E0002046FFF737FB98E012212046FFF775FBDA
:1031F00010B1032812D0D4E0B4F830137CA0FDF74E
:1032000013F97AA0FDF710F9B4F82E137BA0FDF79F
:103210000BF976A0FDF708F902206EE064A0FDF737
:1032200003F979A04CE00121204600F0B5FE10B171
:10323000032829D0B5E00220FFF7E7FA414684F8D9
:103240001C8380A0FDF7F0F868A0FDF7EDF80320DF
:103250006070A07994F81D130091CDE9015094F8A5
:103260001C3321798022204600F08BFAA07994F853
:103270001D130091CDE9015094F81C3361790022AF
:10328000204600F07EFA8CE049A0FDF7CDF873A04F
:10329000FDF7CAF855A0FDF7C7F87DA0FDF7C4F803
:1032A00052A0FDF7C1F827705FE009212046FFF723
:1032B000FEFA10B9042020E00FE003281FD070E0D0
:1032C000FDF7B2F849A0FDF7AFF894F81E03401CD3
:1032D000C0B284F81E03032816D96DA0FDF7A4F828
:1032E00042A0FDF7A1F827705BE0B4F83A1320463E
:1032F000FFF7DDFA0028E0D10520607051E02CA036
:10330000FDF792F87248DBE761792046FFF7A2FAF1
:1033100021792046FFF79EFA6570257041E094F808
:103320003413062559B1FF234A462046FFF729FBEF
:1033300010B1032803D034E0494666A010E06AA02B
:1033400016E094F835130725A9B1FF234A46204615
:10335000FFF717FB10B103280DD022E0494667A004
:10336000FDF762F821A0FDF75FF8657019E004E051
:10337000FDF75AF8F6E765A0FAE794F8361399B125
:10338000FF234A462046FFF7FCFA10B103280BD072
:1033900007E0494661A0FDF747F814A0FDF744F89F
:1033A00000263046BDE8FE8361A0FDF73DF8F4E756
:1033B0004552524F523A2000436F6E74726F6C2028
:1033C0006572726F723A204765742044657669634E
:1033D000652044657363726970746F7220726571E1
:1033E00075657374206661696C6564000A0000008D
:1033F0005049443A20257868000000005649443A74
:103400002025786800000000436F6E74726F6C2096
:103410006572726F723A204765742046756C6C2035
:103420004465766963652044657363726970746F7F
:10343000722072657175657374206661696C65646C
:1034400000000000416464726573732028232564C2
:10345000292061737369676E65642E00436F6E7413
:10346000726F6C206572726F723A20446576696380
:1034700065205365742041646472657373207265BE
:103480007175657374206661696C65640000000085
:10349000436F6E74726F6C206572726F722C204471
:1034A0006576696365206E6F7420526573706F6E08
:1034B00064696E6720506C6561736520756E706C11
:1034C000756720746865204465766963652E000021
:1034D000A44800084D616E7566616374757265720B
:1034E000203A2025730000004D616E75666163749B
:1034F00075726572203A204E2F41000050726F6441
:10350000756374203A2025730000000050726F64C8
:10351000756374203A204E2F410000005365726994
:10352000616C204E756D626572203A202573000033
:1035300053657269616C204E756D626572203A2028
:103540004E2F410070B50E46040018D084F8CC23ED
:103550000025C4F87C53C4F8805304F54874FDF783
:103560003DFDE57025706570A570A4F548740EB139
:10357000C4F8D463204600F085F8002070BD05A093
:10358000FCF752FF05A0FCF74FFF09A0FCF74CFF2A
:10359000022070BD4552524F523A2000496E76616A
:1035A0006C696420486F73742068616E646C650098
:1035B0000A0000007FB51C46012501AE00230095DE
:1035C00086E80E0003232A46214600F0C9F804B01D
:1035D000002070BD10B5D0F8D003FDF77CFEBDE82B
:1035E0001040FFF7F2B9012180F82013002180F884
:1035F000211380F822130846704710B504460120B5
:1036000084F82103002084F8200384F82303204653
:1036100000F09DF821792046FFF71CF961792046DA
:10362000FFF718F9002010BD10B5C820FDF716FDF2
:10363000002010BDD0F8D003FDF745BE10B5012421
:10364000D0F8D003FDF733FE20B1012805D00228C1
:1036500003D101E0002400E00224204610BDD0F890
:10366000D003FDF727BED0F8C413491CC0F8C4131B
:1036700001780B2905D1D0F87C13002901D0896984
:103680000847704710B5044690F8CC0301281CD1B8
:103690000F484FF0A0410022C0F80043C4F8D00307
:1036A0000160082181600121C0E903120221C0E903
:1036B0000612FDF748FF08B1FDF7B9FC0448FDF715
:1036C000F3FD0146204600F024F8002010BD000064
:1036D00098040020FEB508AF97E870008DE87000F0
:1036E000D0F8D003FDF709FEBDE8FE40FFF76DB945
:1036F000002180F823137047012180F823137047BD
:1037000010B5D0F8D003FDF7A1FFBDE81040FFF7DA
:103710005CB9C0F8C4137047D0F8D00301EB410383
:1037200003EBC10100EB810090F83B1011B180F870
:10373000542001E080F855200020704710B5D0F8E3
:10374000D003FDF78AFFBDE81040FFF73EB910B582
:10375000D0F8D003FDF797FFBDE81040FFF735B96B
:103760002DE9FF410DF1280898E8F0008DE8F00000
:10377000D0F8D003FDF7FDFD04B0BDE8F041FFF740
:1037800024B9FEB508AF97E870008DE87000FFF728
:10379000A1FF0020FEBD2DE9F74F82B00878029D01
:1037A0004FF0000B0C4685F83803487885F839034C
:1037B0004888D84605F54E75FF2801D94FF480702A
:1037C000688008792871487968718879A871C87902
:1037D000E871207A287229780920092900D02870F8
:1037E000092A7CD98146ADF800005FE06946204691
:1037F000FFF756F804464078042854D12078092869
:1038000001D084F8009008EB880101EBC80005EBBB
:10381000400A20788AF80A0060788AF80B00A078BD
:103820008AF80C00E0788AF80D0020798AF80E00FA
:1038300060798AF80F00A0798AF81000E0790AF11F
:103840000A068AF81100207A307200271CE06946C7
:103850002046FFF725F804464078052814D17079F2
:10386000012802D1B079022830D02078072801D071
:10387000072020700AEBC70122461431029800F09D
:1038800031F87F1C8346FFB23079B84204D968888A
:10389000BDF800108842DAD83079B84211D808F162
:1038A000010000F0FF08B8F1020F04D26888BDF8EB
:1038B000001088429AD82879022800D30220404577
:1038C0000DD9032005B0BDE8F08F08E0F07900289D
:1038D000D0D120780928CDD084F80090CAE7584686
:1038E000F0E70000F0B513780B7053784B709378C5
:1038F0008B70D478CC7095888D80064693790020A3
:103900008B71D5B16FF30A058D8092884FF40077E3
:10391000C2F30A02BA4200D33A461543A1F8045052
:1039200096F81D13002904F0030108D001290BD0DB
:10393000E143890700D153B1F0BD0320F0E701292D
:1039400002D0E1438907F7D10BB1102BF4D9032042
:10395000F0BD00002DE9FE434FF0020804468DF84B
:10396000008094F821130020012901D10321217046
:1039700021780D26082700250C291DD2DFE801F04B
:10398000061D47FD1C7CFC9AA4AFCDFB94F82003D8
:10399000002811D0ABA0FCF747FDB0A0FCF744FD18
:1039A00001202070C820FEF730FF2046FFF7A8FE58
:1039B00084F81C53C4F8C8533AE194F8230301284F
:1039C00014D0D4F8C803B0F57A7F19D994F81F033E
:1039D000401CC0B284F81F03032874D9A0A0FCF7D0
:1039E00023FD9EA0FCF720FD267021E1A7A0FCF797
:1039F0001BFD9AA0FCF718FD84F81F534046E2E037
:103A00000A30C4F8C8030A20FEF7FFFE10E1D4F81C
:103A1000D42312B10421204690476420FEF7F5FE1E
:103A20002046FFF70BFE84F81D03052020700021BF
:103A30002046FEF76BFE607180212046FEF766FE91
:103A400020710146A07994F81D230092CDE9015020
:103A500094F81C3380222046FFF793FEA07994F857
:103A60001D130091CDE9015094F81C3361790022B7
:103A70002046FFF786FEDBE02046FFF77BFB8DF854
:103A800000009DF80000002896D187A0FCF7CCFC30
:103A900072A0FCF7C9FC84F8245394F8370301287A
:103AA00001D007208FE085A0FCF7BEFC6BA0FCF7DF
:103AB000BBFC06E0D4F8D423002A96D0012120468E
:103AC00090472770B4E026E094F83D13204600F0BC
:103AD00071FA002889D10920207082A033E094F87F
:103AE0003F034FF00A05800615D50121204600F05E
:103AF0006FFA8DF800009DF8000020B19DF80000DD
:103B0000032802D094E07EA000E085A0FCF78CFCA6
:103B100052A0FCF789FC25708AE0D4F8801389B1A3
:103B2000C4F87C5394F8471304EB8002D2F878234E
:103B300012798A420AD104EB8000D0F87803C4F8E5
:103B40007C0308E081A0FCF76FFC10E0401C10F043
:103B5000FF00E9D0284610B381682046884768B145
:103B60002670D4F87C03016880A0FCF75DFC3BA0C4
:103B7000FCF75AFC5CE034E014E039E006202070E9
:103B8000D4F87C03016881A0FCF74EFC33A0FCF75D
:103B90004BFCD4F8D42303212046904748E02670FC
:103BA0007FA0D0E7D4F87C03A8B1016920468847FC
:103BB0008DF800009DF8000020B19DF8000002285B
:103BC00003D035E00B20207032E026707EA0FCF799
:103BD0002BFC7FA0B7E726707BA0FCF725FC86A016
:103BE000B1E7D4F87C0318B34169204688471FE049
:103BF00084F821532046FDF7F1F9D4F87C0320B175
:103C0000C16820468847C4F87C53D4F8D42312B145
:103C10000521204690477EA0FCF706FC0FA0FCF78C
:103C200003FC94F82203012805D02046FFF786FD07
:103C30000020BDE8FE8384F82253204600F0D6F928
:103C4000F6E70000555342204465766963652043DA
:103C50006F6E6E6563746564000000000A0000000A
:103C6000555342205265736574204661696C6564E2
:103C70002C20506C6561736520756E706C756720C3
:103C8000746865204465766963652E00555342204B
:103C900044657669636520526573657420436F6D72
:103CA000706C657465640000456E756D6572617455
:103CB000696F6E20646F6E652E0000005468697332
:103CC0002064657669636520686173206F6E6C7926
:103CD000203120636F6E66696775726174696F6EFB
:103CE0002E00000044656661756C7420636F6E661B
:103CF000696775726174696F6E207365742E000058
:103D00004465766963652072656D6F7465207761BF
:103D10006B65757020656E61626C65640000000003
:103D200052656D6F74652077616B657570206E6F7D
:103D30007420737570706F7274656420627920747A
:103D40006865206465766963650000004E6F2043F6
:103D50006C61737320686173206265656E207265A3
:103D600067697374657265642E0000004465766946
:103D70006365206E6F7420737570706F7274696EF6
:103D80006720257320636C6173732E002573206395
:103D90006C61737320737461727465642E0000002B
:103DA0004E6F207265676973746572656420636C19
:103DB00061737320666F722074686973206465761E
:103DC0006963652E000000004552524F523A2000B0
:103DD000446576696365206E6F7420726573706FD9
:103DE0006E64696E6720506C6561736520556E70F6
:103DF0006C75672E00000000496E76616C69642066
:103E0000436C617373204472697665722E00000002
:103E10005553422044657669636520646973636F16
:103E20006E6E65637465640010B50022A1B1D0F8B0
:103E3000803353B10BA0FCF7F7FA0CA0FCF7F4FAAF
:103E400011A0FCF7F1FA022204E00123C0F880334C
:103E5000C0F87813104610BD02A0FCF7E5FA0BA0DD
:103E6000ECE700004552524F523A20004D61782055
:103E7000436C617373204E756D626572207265616B
:103E800063686564000000000A000000496E766106
:103E90006C696420436C6173732068616E646C6547
:103EA0000000000070B5054690F83C030C46002663
:103EB000A04227D985F82443214618A0FCF7B4FA7C
:103EC0001EA0FCF7B1FA04EB840000EBC40005EB84
:103ED00040041BA094F8471304F24734FCF7A4FAFB
:103EE00016A0FCF7A1FA617819A0FCF79DFA13A0BF
:103EF000FCF79AFAA1781AA0FCF796FA0FA0FCF743
:103F000093FA09E01AA0FCF78FFA1BA0FCF78CFAD1
:103F10000AA0FCF789FA0226304670BD537769740F
:103F20006368696E6720746F20496E74657266619C
:103F30006365202823256429000000000A00000092
:103F4000436C617373202020203A2025786800009C
:103F5000537562436C617373203A202578680000C2
:103F600050726F746F636F6C203A20257868000080
:103F70004552524F523A200043616E6E6F74205387
:103F8000656C656374205468697320496E7465724A
:103F9000666163652E0000008278012A06D1002246
:103FA00002740523437441828282C2820022114638
:103FB000FEF7EBBB8278012A06D1002202740923A6
:103FC000437441828282C28200221146FEF7DDBB29
:103FD0008278012A06D100220274032343744182AD
:103FE0008282C28200221146FEF7CFBB10B5044682
:103FF000FFF7A4FB01212046FFF716FB002010BDB0
:1040000001290AD00548022906D0042903D0052930
:1040100003D1032100E0012101707047140000204A
:1040200070B5044606990A9E049D0D98012916D084
:10403000E06840F04000E060204600F02BF8A16B03
:104040001EB321F48031A163012D07D1A16841F095
:104050000601A160A16841F02001A16070BDA16BC3
:1040600021F48031A163E168094A1140E160E1680F
:1040700021F44011E160012803D1E06840F4801090
:10408000E060204600F006F8DEE741F48031DAE730
:10409000BFFFBDFF08B500220D490092009B5B1CCD
:1040A00000938B420CD80369002BF7DA0092026967
:1040B00042F001020261009A521C00928A4201D928
:1040C000032008BD0269D207F5D1002008BD000019
:1040D000400D0300816821F00101816000207047DC
:1040E00000EB4110064AC0F81025D0F8001521F069
:1040F000804141F00041C0F80015002070470000E9
:104100000000088008B5D0F8402422F02E0200926A
:10411000D20405D4012909D1009941F4805103E06A
:1041200021B9009921F48051C0F84014002008BD45
:10413000816841F0010181600020704708B50022CC
:104140000C490092009B5B1C00938B420AD80369C8
:10415000002BF7DA009210220261009A521C0092A2
:104160008A4201D9032008BD0269D206F5D4002095
:1041700008BD0000400D030018B500230D4A009350
:10418000009C641C009494420CD80469002CF7DA5B
:104190000093202343EA811101610099491C009199
:1041A000914201D9032018BD01698906F5D4002088
:1041B00018BD0000400D0300D0F8080480B270471D
:1041C00008B5D0F840040090C0F3414008BD4069F4
:1041D00000F00100704718B5002200EB4111009279
:1041E000D1F80025D1F80035C2F381428468DB0F95
:1041F000A40600D51BB34FF47A736AB1022A0BD020
:10420000D1F8002542F08042C1F80025D0F8100412
:1042100010F47F0F2BD00CE0D1F8002542F0804243
:10422000C1F800258268920609D4C06A10F47F0F95
:1042300007D0D1F8000540F00040C1F8000500208B
:1042400018BDD1F8000520F00040C1F80005D1F8F4
:10425000000540F00040C1F800050098401C0090A7
:104260009842ECD8D1F800050028F6DBE7E7D1F852
:10427000000520F00040C1F80005D1F8000540F02D
:104280000040C1F800050098401C00909842D6D824
:10429000D1F800050028F6DBD1E700002DE9F04356
:1042A0001E46DDE90785002700EB41147B1EDDF883
:1042B0002490C4F8083505B3012D39D0022D1CD047
:1042C000032D2ED05FF00107D4F80C3543F0020324
:1042D000C4F80C35D0F8183401F00F0C012101FAA4
:1042E0000CF10B43C0F81834816941F00071816111
:1042F00011062AD54FF4004128E040F29D43C4F84E
:104300000C35130605D500BFD4F80C3543F4807383
:1043100018E0C36BDB05D7D5D4F80C3543F0600348
:1043200010E040F29D63C4F80C351306ECD4CBE7E3
:1043300040F22523C4F80C351306C5D5D4F80C3546
:1043400043F4C073C4F80C35BEE70021FFF738FF13
:10435000B8F1020F04D1022802D04FF4003000E07F
:1043600000204FF0FE5303EA86534FF4F04606EA6E
:10437000C22213434FF4402202EA85421343C9F399
:104380000A0213430B430343C4F80035032D01D045
:10439000012D05D1D4F8000540F00050C4F8000507
:1043A0003846BDE8F083D0F8140480B27047F8B501
:1043B0004C78C56B4FF48073ED0515D50D799DB91B
:1043C000012A01D06AB10FE0CD790DB1022D0BD1D8
:1043D00000EB4415D5F80C6526F07006C5F80C65A1
:1043E00002E04D79012D0DD04E697EB10D8977190E
:1043F0007F1EB7FBF5F7BFB29F4208D91F462B02BD
:104400000B6104E02146FFF76BFE6EE00127CB78DD
:104410001BB10B897B430B6101E033460E61C3F393
:1044200012056FF0604303EAC7431D438B7A4FF0D8
:10443000C04606EA43731D4300EB4413C3F810550E
:1044400012B1CC68C3F81445D0F80844D3F800552D
:1044500044F3000425F00055C3F80055D3F8005587
:10446000641C45EA4474C3F80045D3F8004524F0C1
:1044700080440094CC78002C009C02D044F400448A
:1044800001E024F4004444F000440094C3F80045E3
:104490005ABBCA784ABB4A693AB3CB7933B1012BCC
:1044A0000FD0022B02D0032B17D10AE0D21CC36A13
:1044B000C2F38F029BB293420FD2826942F0200274
:1044C0000AE0D21CD0F81034C2F38F029BB29342A0
:1044D00003D2826942F080628261002200928A8A5D
:1044E00093B24A78C96800F035F90020F8BD0000A1
:1044F0002DE9F0410025DDF81880174604462E46C8
:10450000C0F8005E806B40F40010A063A06B20F444
:104510000020A063A06B20F48020A063E06BC005A6
:1045200001D5012B04D0D4F8000420F0040103E0ED
:10453000D4F8000440F004012046C4F8001410210F
:10454000FFF71AFE00B101252046FFF7F7FD00B185
:1045500001250020411E06E004EB4012C2F80815B8
:10456000C2F80C65401C8742F6D8A6616161E06B19
:10457000C00506D54FF4007060620C48A0620C487C
:1045800004E0802060620B48A0620B48C4F8000180
:10459000B8F1000F03D1A06940F01000A061A0693C
:1045A00006490843A0612846BDE8F08100020001E9
:1045B0000003E00080006000E0004000080020A34D
:1045C000D0F8002422F00302C0F80024D0F8002420
:1045D00001F003031A43C0F80024012902D0022984
:1045E00003D006E04BF6803101E041F27071C0F873
:1045F000041400207047416980690840704730B555
:1046000003460846940802F00301002203F5805394
:1046100003E01D6840F8045B521CA242F9D3002954
:104620000BD01C680022D50024FA05F3491E521C49
:10463000090400F8013B090CF5D130BD38B504463A
:10464000D0F8400420F02E00009040F48070C4F8B0
:104650004004642004F58864FCF700FD009820F411
:10466000807020600A20FCF7F9FC002038BD70B58E
:104670000446C068002520F0C040E060012901D058
:1046800079B120E0E06840F00050E0600120FCF7E4
:10469000E5FC60696D1C10F0010F10D1322DF5D3CF
:1046A0000DE0E06840F08040E0600120FCF7D6FCBF
:1046B00060696D1C10F0010F01D0322DF5D3322D41
:1046C00001D0002070BD012070BD38B50025044622
:1046D0000095806820F00100A06010212046FFF7BF
:1046E0004BFD00B101252046FFF728FD00B1012553
:1046F000002004EB4011D1F8002522F0802242F086
:104700008042C1F80025401C0F28F2D900204FF448
:104710007A7304EB4011D1F8002522F4004242F0F4
:104720004042C1F80025009A521C00929A4203D8D8
:10473000D1F80025002AF6DB401C0F28E9D94FF0FC
:10474000FF30C4F814046061A06840F00100A0606C
:10475000284638BD10B5029C74B9DB1C9C0800EBE0
:104760000230002300F5805004E000BF51F8042B14
:1047700002605B1CA342F9D3002010BDFEE70907CD
:10478000090E002804DB00F1E02080F800147047D7
:1047900000F00F0000F1E02080F8141D70470000C9
:1047A00013B54FF6FF73012269460248FDF734FB4B
:1047B00000981CBD7C000020FCF780FFFDF794FEF4
:1047C000FDF718FE1A4819490C2201604FF4E13137
:1047D000416000218160C160C0E904128161C16152
:1047E000FDF7B2FA08B1FCF722FCFDF74BFE002002
:1047F000FCF7CAFB0120FCF7C7FBC820FCF72EFC26
:104800000020FCF7CFFB0120FCF7CCFBC820FCF715
:1048100025FC0020FCF7B8FB0120FCF7B5FB05A048
:10482000FBF702FEFDF74EFEFCE700000010014022
:104830007C00002053746172742073797374656D09
:104840000D0A00004FF04070E1EE100A7047400082
:1048500080000100100008000000000000000000BF
:104860000102030406070809000000000102030416
:104870003031323334353637383941424344454696
:104880004030580030313233343536373839616290
:1048900063646566403078003A7474003A7474005A
:1048A0003A747400436F6E74726F6C206572726F2D
:1048B000723A204765742044657669636520636FAA
:1048C0006E66696775726174696F6E206465736383
:1048D000726970746F722072657175657374206689
:1048E00061696C6564000000484944000C49000897
:1048F000000000207C000000C40100088849000876
:104900007C0000208C100000E00100080000024044
:10491000000002400000024000100240001002406F
:104920000000000001000000100000000000000076
:104930000024F400E848000803000000292C0008C7
:10494000DF2B0008E5290008612E0008412F000830
:104950000000000000000000000000000000000057
:104960000000000000000000000000000000000047
:104970000000000000000000000000000000000037
:0849800000000000000000002F
:040000050800018965
:00000001FF
