:020000040800F2
:10000000909600209D0100087B200008911F0008A9
:1000100079200008890300089B4C000800000000BC
:100020000000000000000000000000008B2000081D
:10003000C905000800000000892000088D20000884
:10004000B7010008B7010008B7010008B7010008B0
:10005000B7010008B7010008B7010008B7010008A0
:10006000B7010008B7010008B7010008B701000890
:10007000B7010008B7010008B7010008B701000880
:10008000B7010008B7010008B7010008B701000870
:10009000B7010008B7010008B7010008B701000860
:1000A000B7010008B7010008B7010008B701000850
:1000B000B7010008B7010008B7010008B701000840
:1000C000B7010008B7010008B7010008B701000830
:1000D000B7010008B7010008B7010008B701000820
:1000E000B7010008B7010008B7010008B701000810
:1000F000B7010008B7010008B7010008B701000800
:10010000B7010008B7010008B7010008B7010008EF
:10011000B7010008B7010008B7010008B7010008DF
:10012000B7010008B7010008B7010008B7010008CF
:10013000B7010008B7010008B7010008B7010008BF
:10014000B7010008B7010008B70100087D200008CA
:10015000B7010008B7010008B7010008B70100089F
:10016000B7010008B7010008B7010008B70100088F
:10017000B7010008B7010008B7010008000000003F
:10018000B7010008B7010008DFF80CD000F08CF8C8
:1001900000480047E55E000890960020064880472A
:1001A00006480047FEE7FEE7FEE7FEE7FEE7FEE75C
:1001B000FEE7FEE7FEE7FEE71521000889010008DB
:1001C0002DE9F05F0546002092469B46884606468C
:1001D000814640241BE0284641464746224600F01F
:1001E00053F853465A46C01A914110D31146184647
:1001F000224600F03AF82D1A67EB01084F462246D6
:100200000120002100F031F817EB00094E41201EBB
:10021000A4F10104DFDC484631462A464346BDE8E6
:10022000F09F40EA01039B0703D009E008C9121FB1
:1002300008C0042AFAD203E011F8013B00F8013BA0
:10024000521EF9D27047D2B201E000F8012B491ECC
:10025000FBD270470022F6E710B513460A46044663
:100260001946FFF7F0FF204610BD202A04DB203A94
:1002700000FA02F1002070479140C2F1200320FAF9
:1002800003F3194390407047202A04DB203A21FAF7
:1002900002F00021704721FA02F3D040C2F120029F
:1002A0009140084319467047064C074D06E0E06848
:1002B00040F0010394E8070098471034AC42F6D3AD
:1002C000FFF766FFDC640008FC6400080449054A87
:1002D00031F8101052F82000002200F063BD000039
:1002E00084630008280000200449054A31F81010F2
:1002F00052F82000012200F055BD00008463000880
:10030000280000200349044A31F8101052F8200058
:1003100000F041BD84630008280000200349044A1E
:1003200031F8101052F8200000F030BD8A63000848
:100330003400002010B5114A86B0002318B10128FE
:1003400001D0022807D1146844F010041460126828
:1003500002F01002059200290ED1094931F810105F
:10036000CDE900130121029102210391054951F8C1
:100370002000694600F02EFC06B010BD3038024067
:100380008A63000834000020FEE7000010B5002258
:1003900029492A4805F008F908B129A048E02EA00B
:1003A00004F07CFC2F490122A1F51C7005F028F90E
:1003B00020B12DA004F072FC00F041FB0120FFF7FA
:1003C000A1FF32A004F06AFC36483749C068884271
:1003D00004D90120FFF788FF00F02AFB0020FFF777
:1003E00083FF324800F072F920B10020FFF76EFF62
:1003F00000F0EBF82EA004F051FC0220FFF774FF90
:1004000000F084F84FF4FA7000F028FB2EA004F0FE
:1004100045FC0020FFF75AFF0120FFF765FF02208F
:10042000FFF754FF00F076F91E4805F0A9F82AA05E
:10043000BDE8104004F032BC140000209880002079
:1004400054686520665F6D6F756E742066616C75AB
:1004500072650D0A00000000665F6D6F756E740DA9
:100460000A0000006887002050726F6772616D207B
:10047000666C617368206D656D6F7279206E6F7444
:1004800020666F756E64200D0A0000004F70656E67
:10049000207468652062696E6172792066696C6596
:1004A0000D0A0000F8840020FC3F0F0000C0000887
:1004B00050726F6772616D20666C617368206D6544
:1004C0006D6F72790D0A0000446F776E6C6F616416
:1004D00020446F6E650D0A00436C6F73652066697A
:1004E0006C650D0A00000000BFF34F8F05480168DE
:1004F000054A01F4E06111430160BFF34F8F00BF73
:10050000FDE700000CED00E00400FA05F8B5174C1B
:1005100015480126E06016482061F7036B463A460D
:100520001149144805F072F9BDF80000A060B84206
:1005300000D2002600250CE0E068415920692844DB
:1005400000F04AF920B10120FFF7CEFE00F070FA6A
:100550002D1DA0688542EFD32069A1680844206161
:10056000012EDBD0F8BD0000980000200000002024
:1005700000C00008F884002010B500224FEA0201F4
:1005800000EB8203521CC3F884130F2AF8D3002215
:100590004FF400738418521C84F81C119A42F9D34A
:1005A0000170417001228270C0F8C41302764023AA
:1005B0008371417680F81C1380F81D2380F81F1387
:1005C00080F81E13002010BD70470120FFF79AFE2F
:1005D0000020FFF797FE642000F040FAF5E770472F
:1005E000002200F001B8000030B50E4B0546012096
:1005F0005C7A002C14D1587A1C54587A03EB800092
:1006000045605D7A03F108002A54587A421C5A72F8
:10061000303008703A2048702F208870CC7000204D
:1006200030BD0000848E0020002229B101291AD09B
:1006300002291BD04FF440720E490B6823F440731B
:100640000B600B6813430B600A6822F0F8020A6023
:100650000A68022303EBC00002430A60086840F402
:100660008030086070474FF48072E5E74FF4007205
:10067000E2E70000103C02401348016889050FD5ED
:10068000016821F400710160016841F400610160BA
:10069000016821F400610160016841F400710160AA
:1006A000016849050FD5016821F480610160016886
:1006B00041F480510160016821F4805101600168BA
:1006C00041F4806101607047003C024070B50E4DFE
:1006D000A84217D800F022F80C4C2060284600F001
:1006E0001DF822680023811A0948491C61600360D3
:1006F000C0E902210221016104F1080100F0C0F902
:10070000002800D0012070BDFBFF0F084000002032
:10071000308E002000F000BA00F046BA0021A0F1AF
:1007200000634FF4804293423FD3214901449142F8
:1007300001D2012139E01F490144914201D2022135
:1007400033E01D490144914201D203212DE01B49B0
:100750000144B1F5803F01D2042126E01849421836
:100760004FF400318A4201D205211EE0154A0244AD
:100770008A4201D2062118E0134A02448A4201D279
:10078000072112E0114A02448A4201D208210CE0FA
:100790000F4A02448A4201D2092106E00D4A104460
:1007A000884201D20A2100E00B2108467047000070
:1007B00000C0FFF70080FFF70040FFF70000FFF7E1
:1007C0000000FEF70000FCF70000FAF70000F8F761
:1007D0000000F6F70000F4F7064A10B5904207D87B
:1007E0000A4601460023022000F0A0F9002800D0AC
:1007F000012010BDFBFF0F0808490A6822F440726F
:100800000A600A6842F004020A600A684FF4803302
:1008100043EA002002430A6070470000103C024097
:10082000064A136823F44073136013681360136857
:1008300043F001031360017070470000103C024058
:10084000094910B50C6824F440740C600C6844F439
:1008500040740C600C6844F001040C600260BFF34B
:100860006F8F436010BD0000103C0240074A1368C0
:1008700023F440731360136843F4807313601368A8
:1008800043F001031360018070470000103C0240F8
:10089000074A136823F440731360136843F400732A
:1008A0001360136843F00103136001607047000098
:1008B000103C024017490868C206174805D5C269AE
:1008C00042F01002C26110220A600A68920605D541
:1008D000C26942F00802C26120220A600A68520618
:1008E00005D5C26942F00402C26140220A600A686A
:1008F000120605D5C26942F00202C26180220A6076
:100900000A68920705D5C26942F02002C26102203E
:10091000086070470C3C0240448E002070B51149BD
:1009200004460020C86100F043FA06460E4D09E077
:10093000601C07D024B100F03BFA801BA04201D913
:10094000032070BD2868C003F2D42868C00701D016
:1009500001202860286810F0F200F2D0FFF7AAFF0B
:10096000012070BD448E00200C3C024070B5254C27
:100970000125207810B1012837D10FE02149224804
:100980001431FFF72DFE38B9002220A1204804F0D1
:100990000BFE08B100F053F8257070BD0020FFF782
:1009A000A3FC1C4802F02EFCF8B10020FFF78EFCDF
:1009B0000120FFF78BFC0020FFF7B0FC48B940F6A0
:1009C000B83000F04BF80020FFF7A8FC40B1002041
:1009D000606011A004F062F9FFF7D8FCFFF784FD16
:1009E00065600120FFF780FCF3E7104800780328DA
:1009F000D3D10120FFF786FCBDE87040642000F0F1
:100A00002DB8000000000020706300080000000006
:100A10009880002078870020434F4D4D414E445F21
:100A2000446F776E6C6F61640A0D00002500002032
:100A30000120FFF767FC642000F010F8F8E74FF49E
:100A400096740020FFF75EFC0120FFF75BFC02209C
:100A5000FFF758FC204600F001F8F2E770B50446B5
:100A600000F0A6F90546601C02D004480078044452
:100A700000F09EF9401BA042FAD370BD5400002044
:100A80002DE9F047044622480F46017E01290AD08D
:100A90000121804601764CF250394846FFF73EFF6F
:100AA000020003D02FE00220BDE8F0874FF0FF30B6
:100AB00038602068174D012801D0A6681CE0207C12
:100AC0006168FFF799FE4846FFF728FF024628684D
:100AD00020F00400286014E0217C3046FFF7A4FDDC
:100AE0004846FFF71BFF0200286820F0FA00286044
:100AF00001D03E6005E0761CD4E902100844B04203
:100B0000EAD8FFF7B9FD002188F818101046CBE7A6
:100B1000448E0020103C02400348016841F000412F
:100B20000160002070470000103C02402DE9F047B2
:100B30001B4E05461446307E1F468946012808D0C4
:100B4000012030764CF250384046FFF7E7FE18B1EE
:100B500014E00220BDE8F0879DB1012D16D0022DD2
:100B600019D022463B464846FFF76AFE4046FFF74B
:100B7000D5FE0C490A6822F001020A600021317694
:100B8000E8E7E1B24846FFF74BFEEFE7A1B248467F
:100B9000FFF76CFEEAE721464846FFF779FEE5E7F6
:100BA000448E0020103C0240074900200A68002AB9
:100BB00009DA054A054B0C3A1360054B13600968C6
:100BC000002900DA01207047103C024023016745EC
:100BD000AB89EFCD2DE9F84F00224FF00108032536
:100BE0004FF00F0E0B6808FA02F42340A3426ED1B7
:100BF0004E68012E05D0022E03D0112E01D0122EE8
:100C000012D186684FEA420C05FA0CF7BE43CF6852
:100C100007FA0CF7374387604668A6430C79C4F39C
:100C20000014944034434460C668570005FA07FC3A
:100C30008C6826EA0C06BC403443C4604C68022C25
:100C400001D0122C13D1D40800EB8404A346D4F8AD
:100C5000209054074FEAD46A0EFA0AF629EA0609E8
:100C60000E6906FA0AF646EA0906CBF8206006681D
:100C70000C7926EA0C0604F00304BC4034430460FB
:100C80004C68E40065D5364C266846F480462660FC
:100C9000246822F0030604F480440094314C344468
:100CA000A446D4F808489607370F0EFA07F6B4435F
:100CB0002D4EB04201D1002624E02C4EB04201D18D
:100CC00001261FE02A4EB04202D102261AE040E07F
:100CD000284EB04201D1032614E0274EB04201D184
:100CE00004260FE0254EB04201D105260AE0244E2D
:100CF000B04201D1062605E0224EB04201D10726BE
:100D000000E00826BE402643CCF808681E4E346832
:100D10004F689C43FF0300D51C4334601A4C241DCC
:100D200026684F689E43BF0300D51E432660164EBB
:100D3000083634684F689C43FF0200D51C4334607A
:100D4000114E0C3634684F689C43BF0200D51C43DB
:100D50003460521C102AFFF445AFBDE8F88F000044
:100D600044380240003001400000024000040240CC
:100D700000080240000C0240001002400014024033
:100D800000180240001C0240003C0140006908407D
:100D900000D001207047426931EA020200D1090403
:100DA000816170470AB1816170470904FBE7000067
:100DB000014880687047000054000020D0F8C0024D
:100DC00001F015BFD0F8C00201F01BBF006803F0AE
:100DD000B5BC006803F0B6BC01EB810100EBC100BB
:100DE00090F85C00704701EB810100EBC100C06C22
:100DF000704710B5044690F8B802012809D00120C8
:100E000084F8B802206803F0A8FC002084F8B80237
:100E100010BD022010BD2DE9FE430546DDE90B7033
:100E200095F8B842DDF828C0012C1CD001EB8104F4
:100E30004FF0010905EBC40485F8B892002684F848
:100E40003D6084F83830A4F8400084F8391084F804
:100E50003F7002F07F0884F83A805FEA026805D5A7
:100E600084F83B9004E00220BDE8FE8384F83B60F8
:100E700084F83CC0CDF800C0CDE90170286803F0CB
:100E8000CDFC85F8B862EFE770472DE9F0030E4618
:100E9000DDE906C9DDE9087401EB860100EBC1015B
:100EA000022581F83B2081F83F30BCF1000F0AD0C9
:100EB00081F8425000246BB1012B2DD0022B12D0AF
:100EC000032B16D10FE04FF0030881F8428081F820
:100ED0003D40EFE7BCF1010F0BD152B9CFB9012270
:100EE00081F8512003E0A2B191F85020A2B181F81D
:100EF0004250C1E9119781F85C40CC6481F83960B7
:100F000081F85D40027C0068BDE8F003383103F0F1
:100F100001BD91F85120E9E781F84240E9E700007E
:100F20002DE9F04104460068064603F012FC012852
:100F30007ED1206803F01DFE002879D0206803F0E0
:100F400018FE800203D521684FF400104861206824
:100F500003F00FFEC00203D521684FF480104861F2
:100F6000206803F006FE400103D521684FF0806041
:100F70004861206803F0FDFD800702D5216802204A
:100F80004861206803F0F5FD80000ED521684FF020
:100F900000504861D6F84004C00706D12046FFF74C
:100FA00011FF0121206803F0C9FD206803F0E1FD75
:100FB000C00102D5204600F069FF206803F0D9FD8A
:100FC000000705D5204600F0CAF8216808204861CE
:100FD000206803F0CEFD800123D5206803F096FC45
:100FE000074600254FF0010814E000BF05F00F018F
:100FF00008FA01F038420CD006EB4510D0F8000595
:10100000E9B20004204602D500F0E2FC01E000F065
:101010001BFE6D1CA068A842E8D821684FF0007044
:101020004861206803F0A5FDC043C0060ED400E06F
:101030000CE02068816921F010018161204600F0F8
:101040006FFF2068816941F010018161BDE8F08186
:1010500070B58AB0040005D094F8B902256800265E
:1010600018B107E001200AB070BD84F8B8622046CC
:1010700000F028F8032084F8B902E86BC00500D41A
:101080002661206803F004FB04F1100128220D46BC
:101090006846FFF7C6F894E80F0003F0A3FA0121B1
:1010A000206803F091FD282229466846FFF7B9F829
:1010B00094E80F0003F0D6FC012084F8B902002068
:1010C000D1E7000010B586B0044614216846FFF74A
:1010D000C1F82068B0F1A04F2FD119480021026853
:1010E00042F001020260006800F0010005904FF438
:1010F000C05000900220CDE90101032003900A2096
:10110000049069460F48FFF765FD0D48001D016812
:1011100041F0800101600A481430016841F48041C7
:1011200001600068002200F48040059011464320D1
:1011300000F0AAF8432000F099F806B010BD0000B6
:101140003038024000000240D0F8C00201F0E4BD97
:10115000D0F8C00201F0E4BD006803F01CBDD0F877
:10116000C00201F093BD10B5044690F8B802012802
:101170000DD0012084F8B802206803F0B7FA0121ED
:10118000206803F09DFA002084F8B80210BD022008
:1011900010BD10B5044690F8B802012809D001200E
:1011A00084F8B802206803F027FD002084F8B80214
:1011B00010BD022010BD0000024881680278114471
:1011C00081607047540000200B4810B5016841F45D
:1011D00000710160016841F480610160016841F4BF
:1011E00080710160032000F06FF8002000F006F825
:1011F00000F024F8002010BD003C024070B50D4DF9
:1012000004464FF47A712878B1FBF0F00A49096876
:10121000B1FBF0F000F002FB48B9102C07D200221D
:101220002146501E00F030F800206C6070BD012097
:1012300070BD000054000020600000200A4808B57E
:10124000016841F480410160006800F48040009032
:101250000548001F016841F080510160006800F0FE
:101260008050009008BD000044380240002809DB8F
:1012700000F01F02012191404009800000F1E020B0
:10128000C0F8001170470000F0B40E4B1B680C460C
:10129000C3F30223C3F10705042D00D90425191D4A
:1012A000072901D2002300E0DB1E012606FA05F122
:1012B000491E214099409E40761E16403143F0BCA5
:1012C00003F010BD0CED00E0064900F007020868CD
:1012D0004FF6FF03184040EA0220034A104308601B
:1012E000704700000CED00E00000FA052DE9F04722
:1012F0000E46050065D0DFF81481D8F80000F7B27B
:1013000000F00F00B04207D288F80070D8F8000053
:1013100000F00F00B04254D128683D4C810712D52F
:10132000400703D5206840F4E0502060287800078B
:1013300003D5206840F4604020602068A96820F050
:10134000F000084320602878C0072DD03049686835
:101350000839012812D0022813D0032811D00968B7
:10136000890700292DDA216821F00301014321605A
:10137000FFF71EFD814641F2883A0EE009688903B5
:10138000EFE709688901ECE7FFF712FDA0EB09011F
:10139000514502D90320BDE8F0872068696800F054
:1013A0000C00B0EB810FEFD1D8F80010404601F0EF
:1013B0000F01B14207D90770006800F00F00B0427A
:1013C00001D00120E7E72878400705D52068E968C3
:1013D00020F4E050084320602878000706D52068F4
:1013E000296920F4604040EAC100206000F038F82C
:1013F0002168084AC1F30311515CC84006490860DE
:1014000006480068FFF7FAFE0020C4E7003C0240EF
:101410000838024090630008600000205800002057
:101420000448054900680968044AC1F38221515CF7
:10143000C84070476000002008380240A0630008E0
:101440000448054900680968044AC1F34231515C07
:10145000C84070476000002008380240A0630008C0
:10146000154810B5006810F00C02144813D0411054
:10147000042A0FD0082A0ED10F4C241F226823689B
:1014800002F03F025B0207D52068C0F38810A0FB82
:10149000010106E0084610BD2168C1F38811A1FBD7
:1014A00000010023FEF78CFE2168C1F30141491CB5
:1014B0004900B0FBF1F010BD083802400024F400F0
:1014C0002DE9F84F04006ED02078DFF83C93C00778
:1014D000A9F104054AD009F104000168C1F38101B2
:1014E000012908D00068C0F3810002280AD1D9F888
:1014F0000000400206D52868800337D560680028C0
:10150000E1D033E06068B0F5803F10D0B0F5A02F97
:10151000286810D020F480302860286820F48020CB
:1015200028606068A8B1FFF743FC06460DE0286814
:1015300040F48030F4E740F480202860F7E700BFF3
:10154000FFF736FC801B642873D828688003F7D522
:101550000CE0FFF72DFC064605E000BFFFF728FC76
:10156000801B6428F0D828688003F7D42078DFF83F
:101570009C8280074FF0000A3ED5A348001D0168F9
:1015800011F00C0F08D00068C0F3810002280BD1C5
:10159000D9F80000400207D42868800716D5E06813
:1015A000012800D112E02BE1E068B8B10120C8F8B1
:1015B0000000FFF7FDFB064605E000BFFFF7F8FB64
:1015C000801B0228C0D828688007F7D528682169C1
:1015D00020F0F80040EAC10028600DE0C8F800A043
:1015E000FFF7E6FB064604E0FFF7E2FB801B02285C
:1015F0001FD828688007F7D42078000722D5824EAC
:1016000083486169703671B101210160FFF7D0FB39
:10161000074604E0FFF7CCFBC01B022809D830685E
:101620008007F7D50EE0C0F800A0FFF7C1FB074622
:1016300005E082E0FFF7BCFBC01B02287DD83068C4
:101640008007F7D42078400768D5DFF8BCB10027C1
:101650000BF13C0BDBF80000C0000BD4DBF80010F2
:1016600041F08051CBF80010DBF80000012700F0BA
:1016700080500090674E3068C00510D4306840F448
:1016800080703060FFF794FB009005E0FFF790FB5F
:101690000099401A022850D83068C005F6D55A4E35
:1016A000A0686C3601280FD00528306810D020F0D3
:1016B00001003060306820F004003060A068B8B1EC
:1016C000FFF776FB00900FE0306840F00100F4E790
:1016D00040F004003060F7E7FFF76AFB0099411A19
:1016E00041F28830814266D830688007F4D50EE038
:1016F000FFF75EFB009007E0FFF75AFB0099411AE5
:1017000041F28830814256D830688007F4D42FB136
:10171000DBF8001021F08051CBF80010A069C8B3AD
:101720003949091D0968C1F3810102294AD00228FB
:10173000504607D0C8F8600000E03CE0FFF738FBF7
:1017400004463BE04746C8F86000FFF731FB064619
:1017500005E000BFFFF72CFB801B02282BD8286870
:101760008001F7D4D4E907010843A16A2A4A49084D
:1017700002EB0141626A41EA8211084394F82C109D
:1017800040EA0161C9F8001001203866FFF710FB3C
:10179000044606E036E000BFFFF70AFB001B022804
:1017A00009D828688001F7D52CE000BFFFF700FBBF
:1017B000001B022802D90320BDE8F88F28688001A9
:1017C000F4D41FE00128F7D0D9F80000E26900F452
:1017D0008001914214D1226A00F03F0191420FD161
:1017E00047F6C071626A0140914209D1A26A00F4D1
:1017F0004031914204D1E16A00F07060884201D02A
:101800000120D9E70020D7E7043802400000474212
:10181000800E4742007000400000FFFF10B5401EE0
:10182000B0F1807F01D3012010BD4FF0E024606152
:101830000F21601703F056FA0020A06107202061F5
:10184000002010BD70B5040004D094F839000025C4
:1018500010B106E0012070BD84F83850204600F039
:1018600023F8242084F839002068C16821F400514D
:10187000C160204600F05CFC2068016921F49041C1
:1018800001612068416921F02A0141612068C16835
:1018900041F40051C160E563202084F8390084F8E8
:1018A0003A00002070BD000010B586B00446142137
:1018B0006846FEF7CFFC14492068884221D11348BE
:1018C0000021026842F010020260006800F010007F
:1018D00005900E481438026842F001020260006868
:1018E00000F0010005904FF4C06000900220CDE9A7
:1018F0000101032003900720049069460448FFF784
:1019000069F906B010BD00000010014044380240E3
:10191000000002402DE9F843044690F839001F46C4
:1019200016460D46202850D1B5B1AEB194F8380016
:1019300001284AD0012084F838004FF00008C4F88C
:101940003C80212084F83900FFF732FAA6848146D2
:10195000E68484F8388026E00120BDE8F883E08C36
:10196000401EE084A0684B46B0F5805F4FF0000257
:101970004FF080012046009703D000F06DFCE8B9DD
:101980000DE000F069FCC8B928882168C0F30800A0
:101990004860206908B16D1C05E0AD1C03E02168BA
:1019A00015F8010B4860E08C0028D8D14B46002286
:1019B00040212046009700F04FFC08B10320CCE7FF
:1019C000202084F839000020C7E70220C5E7000086
:1019D0002DE9F05F074600680E4600EB4114D4F88D
:1019E00008054FF00409420701EB86004FF0050B94
:1019F0004FF0100807EBC00508D5C4F80895D4F8D7
:101A00000C0540F00200C4F80C0542E0D4F80805CB
:101A1000C0050DD54FF48070C4F80805072085F87F
:101A20005D00D4F80C0540F00200C4F80C0517E086
:101A3000D4F80805800601D5202028E0D4F8080550
:101A40004FF0080A00070FD5D4F80C0540F002004B
:101A5000C4F80C0585F85DB0C4F80885C4F808A57D
:101A6000386802F07AFE14E0D4F80805400510D575
:101A7000D4F80C0540F00200C4F80C05386802F0F8
:101A80006CFEC4F8088585F85DA04FF48060C4F84A
:101A90000805D4F8080580050ED5D4F80C0540F0EB
:101AA0000200C4F80C05314604F5A164386802F060
:101AB00054FE4FF40070A4E0D4F808054FF0000184
:101AC000C0074FF0010242D0386930B1A86CD4F899
:101AD0001035C3F31203C01AE86485F85D20A965C8
:101AE000C4F8082595F83F0030B1022804D0032837
:101AF00011D0012818D023E0D4F80C0540F00200E2
:101B0000C4F80C05314604F5A164386802F025FEDE
:101B1000C4F8008014E0D4F8000540F00050C4F888
:101B2000000585F85C2007E085F85C2095F85000FA
:101B300080F0010085F8500031463846FFF7A4F9DF
:101B400015F8500F80F001002870BDE8F09FD4F820
:101B5000080580073ED5D4F80C0520F00200C4F833
:101B60000C0595F85D00022301280AD005280BD04A
:101B700006280CD008280AD003281AD007281BD022
:101B80001FE085F85C201CE085F85CB019E0A86DCA
:101B9000401CA86503280CD9A96585F85C9000BF96
:101BA000D4F8000520F0804040F00040C4F8000563
:101BB00007E085F85C30F3E7A86D401CA86585F860
:101BC0005C90C4F8083595F85C2031463846FFF73C
:101BD0005BF9BAE7D4F80805000614D5D4F80C056B
:101BE00040F00200C4F80C05A86D3146401CA86501
:101BF000062085F85D0004F5A164386802F0ADFDAB
:101C000080202060A1E7D4F80805C0069DD595F88E
:101C10003F00032803D020B1022802D011E0A965BB
:101C200005E0A965386960B9032085F85D00D4F83E
:101C30000C0540F00200C4F80C053146386802F08B
:101C40008CFDC4F8088580E72DE9F047026802EBB7
:101C50004114D4F808254FF00403520709D5C4F8FD
:101C60000835D4F80C0540F00200C4F80C05BDE8B6
:101C7000F087D4F8082501EB810596064FF00002A5
:101C800000EBC5054FF0020C15D52023C4F808352C
:101C900095F83D30012BEAD185F83D2085F85CC0F0
:101CA000D4F80C2542F00202C4F80C250068BDE807
:101CB000F04702F052BDD4F8086577064FF00106F0
:101CC00011D585F85D3085F83D60AA65D4F80C25FE
:101CD00042F00202C4F80C25006804F5A16402F089
:101CE0003CFD402010E0D4F80875BF050ED5D4F8AF
:101CF0000C2542F00202C4F80C25006804F5A1642A
:101D000002F02BFD4FF400702060B0E7D4F80875A6
:101D1000FF070FD0AA65D4F80C2542F00202C4F8E0
:101D20000C25006804F5A16402F017FD266085F813
:101D30005D609CE7D4F808754FF005095FEA077805
:101D40004FF008070DD5C4F80875D4F80C2542F0FB
:101D50000202C4F80C25006802F0FFFC85F85D90D3
:101D600085E7D4F808854FF0100A5FEAC86818D5EF
:101D7000AA65032285F85D2095F83D2022B995F8E3
:101D80003C200AB985F83D60D4F80C2542F00202E7
:101D9000C4F80C25006804F5A16402F0DEFC50468E
:101DA000B2E7D4F808855FEA08680FD5D4F80C25A7
:101DB00042F00202C4F80C25006804F5A16402F0A8
:101DC000CCFC062085F85D0080209DE7D4F80885CE
:101DD0005FEA485812D5D4F80C2542F00202C4F844
:101DE0000C25006804F5A16402F0B7FCC4F800A05B
:101DF0004FF48060206085F85D7038E7D4F808758E
:101E0000BF0796D5D4F80C7527F00207C4F80C75F7
:101E100095F85D70012F0AD0032F17D0042F15D02D
:101E2000052F16D0062F17D0082F15D027E085F8DC
:101E30005C6095F83F20022A01D0032A1FD195F853
:101E4000512082F0010285F8512018E085F85CC02D
:101E500015E085F85C9012E0AE6D761CAE65032E41
:101E600003D9AA6585F85C3001E085F85CC0D4F838
:101E7000002522F0804242F00042C4F80025C4F858
:101E800008C595F85C20FEF7FFFFF0E67CB5046816
:101E90000546D4F840040190D4F8400420F02E0008
:101EA00000900198800709D50198C00702D0284604
:101EB000FEF784FF009840F00200009001980007B0
:101EC00024D5009840F008000090019840071AD5EA
:101ED000A869022803D0E86801280CD00FE0019817
:101EE000C0F341400228286803D0012102F026FEF9
:101EF00005E00221FAE74EF66020C4F80404284603
:101F0000FFF726F902E02846FFF71EF90198800640
:101F1000009802D540F020000090C4F840047CBD39
:101F20002DE9F041024600680646016AC1F34343C9
:101F300001F00F07C1F30A14022B25D1002C23D086
:101F400007EB870102EBC105696C00291CD0224612
:101F500002F013FE686C20446864E86C2044E86476
:101F600006EB4710D0F81015084A11420CD0D0F8F3
:101F7000001521F0804141F00041C0F8001515F82E
:101F8000500F80F001002870BDE8F0810000F81FBC
:101F9000FEE7000010B504490448FEF721FB0249A2
:101FA000491E087010BD0000210000207063000869
:101FB00070B586B014216846FEF74CF91948002424
:101FC000016841F010010160016801F01001059104
:101FD000016841F080010160016801F08001059114
:101FE000016841F00101016000680F4E00F001003E
:101FF0000590002270213046FEF7D4FE702000903C
:102000000125CDE90154694630460394FEF7E2FD0F
:102010004FF460508DE8310069463046FEF7DAFD36
:1020200006B070BD303802400010024010B50122E9
:102030000B490C4800F09AFD08B1FEF7D0FA0A49A6
:10204000084802F0FDF808B1FEF7C9FA054802F0A9
:10205000D9F9002803D0BDE81040FEF7C0BA10BD82
:1020600019440008788700206C000020014801F026
:102070009DBE000078870020FEE770470148FEF70C
:102080004FBF0000508B002070477047FFF794B897
:1020900030B593B030216846FEF7DCF814210CA867
:1020A000FEF7D8F819480025016841F08051016019
:1020B000006800F0805011901548016841F480419B
:1020C00001600068022400F480401190012000901B
:1020D000000401908001CDE9064004200890A8206A
:1020E000CDE9090407200B906846FFF7E9F90CA930
:1020F0000F2081E831004FF4A0500F90E0021090C3
:1021000005210CA8FFF7F2F813B030BD40380240AB
:10211000007000400548016841F470010160034906
:102120004FF00060803908607047000088ED00E0E3
:102130002DE9F041044600680169E26821F440514C
:10214000114301612169A068E26908436169114393
:1021500008432168CA6849F20C639A430243CA6083
:1021600020684169A26921F4407111434161E0692D
:10217000192764253226B0F5004F354A35492068C5
:102180004FF0000806D0884201D0904236D1FFF7C8
:1021900057F935E0884201D0904202D1FFF750F95B
:1021A00001E0FFF73DF961684A18A0FB070148EB21
:1021B0000803FEF705F80146B0FBF5F00201B1FB9C
:1021C000F5F06FF01803584301EB800006EBC000F8
:1021D000B0FBF5F000F0F80002EB4002B1FBF5F0C7
:1021E000584301EB800006EBC000B0FBF5F000F0B7
:1021F0000700216810448860BDE8F081FFF710F9FE
:1022000061688B0F8A00A0FB0701FDF7D9FF01462B
:10221000B0FBF5F06FF01802504301EB800006EBC5
:102220000010B0FBF5F000F0F002B1FBF5F002EBAE
:102230000012B1FBF5F06FF01803584301EB80007A
:1022400006EB0010B0FBF5F000F00F00D1E7000046
:1022500000140140001001402DE9F0419846174656
:102260000E460446069D1DE0681C1BD02DB1FEF7EE
:102270009FFDA0EB0800A84214D92068C16821F492
:10228000D071C1602068416921F0010141612020C5
:1022900084F8390084F83A00002084F838000320DC
:1022A000BDE8F0812068006836EA000004D0002014
:1022B000B842D9D00020F3E70120F9E710B5002299
:1022C0004FF6FF7300EB8204B4F8844324040BD46C
:1022D0009A4207D002F00F0300EB830041F4004163
:1022E000C0F88413D0B210BD521CD2B20B2AE9D36D
:1022F0001A46F7E77FB51C46012501AE002300957D
:1023000086E80E0002232A46214600F03BFD04B079
:10231000002070BD7FB51D4690F81D33089C03B1A9
:1023200000240123CDE90031CDE90224022300225B
:10233000294600F027FD04B0002070BD10B500F064
:102340004DFC002010BD8278012A07D102220274C0
:1023500001224274002242828182C28200221146FE
:1023600000F00FB87FB51C46012501AE0023009593
:1023700086E80E002A46214600F004FD04B0002045
:1023800070BD70B504460120A3780546012B0BD023
:10239000022B08D1204600F015F958B1032809D0C6
:1023A000022800D1A57070BDA160A281257602210E
:1023B000A17070BDA5700021217670BD7FB51D464E
:1023C00090F81D33089C03B100240123CDE90031AE
:1023D000CDE9022400231A46294600F0D3FC04B0BC
:1023E000002070BD1FB500231446CDE9003108223E
:1023F000CDE902231A46214600F0C4FC04B00020B7
:1024000010BDFEF72BBB000070B50546002005F59A
:102410004E7500BF00EB800404EBC00405EB4404E0
:10242000E67B0A348E4201D0FF2909D1A679964273
:1024300001D0FF2A04D1E4799C4206D0FF2B04D0BE
:10244000401CC0B20228E5D3FF2070BD0B2907D283
:1024500000EB8100B0F88413C1F30E01C0F88413BF
:102460000020704730B48578029C012D0FD141F0D7
:10247000800101740621417403214282B1EB122FC5
:1024800002D140F2094100E000218182C48222464B
:1024900030BC1946FFF775BF0A8803781A440A80D2
:1024A000017808447047F8B50E4600F11C0500910C
:1024B00004462B464FF400720021FFF7D3FF0700BC
:1024C00005D13246294604F54E7001F000FC38462D
:1024D000F8BD38B50D460091044600F58E734FF4F3
:1024E00080720021FFF7BEFF002839D194F81C113B
:1024F00084F8261394F81D1184F82713B4F81E11DC
:10250000A4F8281394F8201184F82A1394F82111C0
:1025100084F82B1394F8221184F82C1394F82311C7
:1025200084F82D13082D1BD9B4F82411A4F82E1308
:10253000B4F82611A4F83013B4F82811A4F8321313
:1025400094F82A1184F8341394F82B1184F8351375
:1025500094F82C1184F8361394F82D1184F837135D
:1025600038BDF8B51C461646009341F4407200F59C
:102570008E731D460021FFF775FF002814D169787E
:10258000032911D129788A1EA24200D814460021BD
:10259000A2B2AD1C04E06B5C891C06F8013B89B259
:1025A0009142F8D300213170F8BD01004FF00000D6
:1025B00004D0012901D0022901D002207047012056
:1025C000704700002DE9F84F0125017E04460B26D7
:1025D000092728464FF007084FF0050A4FF00D096C
:1025E0000C2919D2DFE801F0BD060E26313C486007
:1025F0006B7C899A627904F110012046FFF7F2FEA4
:10260000022012E06179204600F03CFB012804D052
:10261000042871D002287FD0A3E0207CE18A00F05A
:10262000800021B180283AD10320207699E08028CB
:1026300014D02EE0D4F8C403E0812379A289204687
:10264000A168FFF78FFE0420EFE72179204600F014
:1026500019FB012802D0052840D056E0277680E0FB
:1026600000906379A2892046A168FFF7A7FED4F8FD
:10267000C403E0810620D8E76179204600F002FB20
:10268000012806D0052807D0022808D0042809D040
:1026900067E084F8188064E00C2020761EE084F85F
:1026A00018A05EE026765BE00022237911462046E2
:1026B000FFF758FED4F8C403E0810820B5E721797C
:1026C000204600F0DFFA012804D0042824D0052891
:1026D00004D046E084F81890002542E0032540E04D
:1026E00000900022637911462046FFF767FED4F878
:1026F000C403E0810A2098E70EE06179204600F0EB
:10270000C1FA012804D00228A8D0042804D028E067
:10271000002584F8189024E0267622E0617E491C8A
:10272000C9B26176022902D82076A07019E0D4F8E7
:10273000D423062120469047002565760AA002F0A2
:10274000ADFA0BA002F0AAFA13A002F0A7FA617981
:102750002046FFF77BFE21792046FFF777FE2570A4
:1027600002252846BDE8F88F4552524F523A2000C4
:10277000436F6E74726F6C206572726F723A204490
:102780006576696365206E6F7420726573706F6E15
:1027900064696E67000000000A0000002DE9FE4336
:1027A0000126417800250D270446B04600F58E79B4
:1027B00008290CD2DFE801F0042C4B8DADC7D9F508
:1027C00008212046FFF785FE10B1032806D0FCE063
:1027D00094F82D03A07184F801804FE07EA002F0F0
:1027E0005DFA7FA002F05AFA8AA002F057FA94F834
:1027F0001E03401CC0B284F81E03032870D8617900
:102800002046FFF723FE21792046FFF71FFE98E0C0
:1028100012212046FFF75DFE10B1032812D0D4E04C
:10282000B4F830137CA002F039FA7AA002F036FA3C
:10283000B4F82E137BA002F031FA76A002F02EFA43
:1028400002206EE064A002F029FA79A04CE0012198
:10285000204601F0ADFD10B1032829D0B5E00220DB
:10286000FFF7CFFD414684F81C8380A002F016FAE2
:1028700068A002F013FA03206070A07994F81D1389
:102880000091CDE9015094F81C3321798022204633
:1028900001F013FAA07994F81D130091CDE90150CD
:1028A00094F81C3361790022204601F006FA8CE08E
:1028B00049A002F0F3F973A002F0F0F955A002F07C
:1028C000EDF97DA002F0EAF952A002F0E7F92770D5
:1028D0005FE009212046FFF7E6FD10B9042020E063
:1028E0000FE003281FD070E002F0D8F949A002F0F1
:1028F000D5F994F81E03401CC0B284F81E030328C7
:1029000016D96DA002F0CAF942A002F0C7F92770EB
:102910005BE0B4F83A132046FFF7C5FD0028E0D18C
:102920000520607051E02CA002F0B8F97248DBE796
:1029300061792046FFF78AFD21792046FFF786FD61
:102940006570257041E094F83413062559B1FF23D2
:102950004A462046FFF705FE10B1032803D034E0B5
:10296000494666A010E06AA016E094F835130725E2
:10297000A9B1FF234A462046FFF7F3FD10B1032813
:102980000DD022E0494667A002F088F921A002F0AC
:1029900085F9657019E004E002F080F9F6E765A0BA
:1029A000FAE794F8361399B1FF234A462046FFF719
:1029B000D8FD10B103280BD007E0494661A002F012
:1029C0006DF914A002F06AF900263046BDE8FE83D6
:1029D00061A002F063F9F4E74552524F523A2000E9
:1029E000436F6E74726F6C206572726F723A20471B
:1029F0006574204465766963652044657363726914
:102A000070746F7220726571756573742066616988
:102A10006C6564000A0000005049443A202578683B
:102A2000000000005649443A202578680000000064
:102A3000436F6E74726F6C206572726F723A2047CA
:102A400065742046756C6C20446576696365204426
:102A5000657363726970746F7220726571756573E6
:102A600074206661696C65640000000041646472F2
:102A70006573732028232564292061737369676E49
:102A800065642E00436F6E74726F6C206572726F96
:102A9000723A204465766963652053657420416409
:102AA00064726573732072657175657374206661F5
:102AB000696C656400000000436F6E74726F6C2077
:102AC0006572726F722C20446576696365206E6F43
:102AD0007420526573706F6E64696E6720506C6508
:102AE00061736520756E706C75672074686520442D
:102AF00065766963652E0000946400084D616E750B
:102B00006661637475726572203A20257300000057
:102B10004D616E756661637475726572203A204E00
:102B20002F41000050726F64756374203A20257342
:102B30000000000050726F64756374203A204E2FBD
:102B40004100000053657269616C204E756D6265CD
:102B500072203A202573000053657269616C204E23
:102B6000756D626572203A204E2F410070B50E4699
:102B7000040018D084F8CC230025C4F87C53C4F892
:102B8000805304F54874FDF7F7FCE5702570657017
:102B9000A570A4F548740EB1C4F8D463204600F0C3
:102BA00085F8002070BD05A002F078F805A002F0BD
:102BB00075F809A002F072F8022070BD4552524F1C
:102BC000523A2000496E76616C696420486F7374D4
:102BD0002068616E646C65000A00000010B5D0F8D2
:102BE000D003FEF706F9BDE81040FFF7DEBC012177
:102BF00080F82013002180F8211380F82213084662
:102C0000704710B50446012084F82103002084F8A1
:102C1000200384F82303204600F0ABF821792046F6
:102C2000FFF714FC61792046FFF710FC002010BD6F
:102C300010B5C820FDF712FF002010BDD0F8D0035A
:102C4000FEF7D1B810B50124D0F8D003FEF7C1F8D3
:102C500020B1012805D0022803D101E0002400E0C2
:102C60000224204610BDD0F8D00301EB810100EB17
:102C7000C10090F83B1011B190F85000704790F8E7
:102C800051007047D0F8D003FEF7A6B8D0F8C413AF
:102C9000491CC0F8C41301780B2905D1D0F87C1366
:102CA000002901D0896908477047000010B5044623
:102CB00090F8CC0301281CD10F484FF0A04100220E
:102CC000C0F8C042C4F8D00301600821816001212E
:102CD000C0E903120221C0E90612FEF7B9F908B1F2
:102CE000FDF77DFC0448FEF771F80146204600F030
:102CF00024F8002010BD0000508B0020FEB508AF66
:102D000097E870008DE87000D0F8D003FEF783F8E4
:102D1000BDE8FE40FFF749BC002180F8231370474F
:102D2000012180F82313704710B5D0F8D003FEF7C7
:102D300013FABDE81040FFF738BCC0F8C413704761
:102D4000D0F8D00301EB810100EBC10090F83B10FB
:102D500011B180F8502001E080F851200020704728
:102D600010B5D0F8D003FEF7FEF9BDE81040FFF72C
:102D70001CBC10B5D0F8D003FEF70BFABDE810402C
:102D8000FFF713BC2DE9FF410DF1280898E8F0008A
:102D90008DE8F000D0F8D003FEF777F804B0BDE876
:102DA000F041FFF702BC03460220D3F87C13C96947
:102DB0002AB1012A05D189791846FFF7C4BAC97921
:102DC000FAE77047D0F87C030549C06941650549B9
:102DD0008165012100F8501F8170002070470000BC
:102DE00055534243504030202DE9F84F0746D0F864
:102DF0007C0301263546C4694FF00B0A4FF00A0BDD
:102E000094F850004FF009094FF007080C2845D2FC
:102E1000DFE800F0D20611252E4852757EA7AFCB11
:102E200084F86110022084F85000009563791F2215
:102E300004F1540159E061793846FFF723FF012876
:102E400002D002287ED03FE0E06D002829D094F81F
:102E50006000000601D503204BE0052049E02379FE
:102E600062893846D4F88C10FFF744FA042040E019
:102E700021793846FFF706FF01284FD16289E06DBE
:102E800090420CD9D4F88C10801A1144C4F88C10DC
:102E9000E0656BD023793846FFF72CFA8CE00020F0
:102EA000E06563E00095637922893846D4F88C1098
:102EB000FFF730FA06201CE061793846FFF7E2FEA2
:102EC000012804D00228C8D0052815D074E0228932
:102ED000E06D9042E3D9D4F88C10801A1144C4F804
:102EE0008C10E06542D0009563793846FFF712FAFE
:102EF00062E084F850005FE084F850B05CE0237931
:102F00000D2204F178013846FFF7F4F90820F0E7C4
:102F100021793846FFF7B6FE012802D005281DD0DA
:102F20004AE004F8505F3846A570D7F87C13CC69A6
:102F30002179FFF783FE0D280CD12149A06F88422B
:102F400008D100E036E0A16DE06F884202D194F82C
:102F5000840008B102262FE000262DE084F850906E
:102F60002AE000223846FFF71EFF38B984F8508067
:102F700022E001223846FFF716FF10B1042811D0D5
:102F80001AE061793846FFF76EFEC0F10100C2B267
:102F900061793846FFF7D4FE217900223846FFF7E1
:102FA000CFFEDBE784F850A006E0384600F015F8C5
:102FB000060001D184F850503046BDE8F88F00007B
:102FC00055534253A1220274FE22427400224282CF
:102FD00082820122C282FFF7D4B921210174FF212C
:102FE0004174002141828182C1820A46FFF7C9B93A
:102FF00070B5D0F87C130125CC69A17B21B10229E1
:1030000002D0032934D12DE02146FFF7DBFF002653
:103010000546032801D01DB12AE02670002504E0F2
:103020002078022801D9022001E02078401CC1B29A
:10303000217010A001F032FE15A001F02FFE00203B
:1030400002220BE000EB800101EBC00104EB8101E7
:10305000401C81F8922081F8C160C0B22178814281
:10306000F0D805E00021FFF76EF908B9E07BA07306
:10307000284670BD4E756D626572206F662073754F
:1030800070706F72746564204C554E3A2025640050
:103090000A00000010B51446D0F87C230078D369EC
:1030A0000B2801D0022010BD01EB810000EBC10014
:1030B00003EB8001342220469031FDF7B2F8002066
:1030C00010BD70B50546D0F87C030026C46961794F
:1030D00039B12846FFF732F961792846FFF7B6F98A
:1030E0006671217939B12846FFF728F921792846F8
:1030F000FFF7ACF92671D5F87C03C06920B102F066
:10310000E5FDD5F87C03C661002070BDFEB505461F
:10311000D0F87C035023062201792846FFF774F982
:103120000646FF2823D0022E21D20146284601F070
:10313000C5F8E0B94FF48077384602F061FFD5F862
:103140007C130446C861200011D03946FDF782F88F
:1031500006EB860000EBC60005EB400090F84E132E
:103160000A0606D5E171B0F85013618105E002202E
:10317000FEBDA171B0F85013218190F856130A06D4
:1031800004D5E171B0F85803608103E0A171B0F893
:1031900058032081002020736073A073A179284612
:1031A000FFF78CF86071E1792846FFF787F8207106
:1031B0002846FFF707FE208995F81D130226009187
:1031C000CDE9016095F81C33A2796179284600F0B9
:1031D00074FD608995F81D130091CDE9016095F8A3
:1031E0001C33E2792179284600F067FD217900221D
:1031F0002846FFF7A5FD617900222846FFF7A0FDCC
:103200000020FEBDD0F87C130078C9690B2802D1DC
:10321000087B012800D00020704700002DE9F0470E
:103220000746D0F87C034FF0010AC469207B10B137
:1032300001283BD1DFE1B4F8F800217801254FF0F7
:103240000008884270D200EB800101EBC00004EB63
:103250008000022680F89150B4F8F8104FF005096C
:1032600001EB810000EBC10004EB800292F89000BA
:1032700009281BD2DFE800F0051A5CD11BFA1A1AE4
:10328000F900DFA001F00AFDE0A001F007FDB4F8AD
:10329000F810042001EB810202EBC10104EB810173
:1032A00081F89000D7F8C403C4F8FC00A5E1C9B2C6
:1032B00038469F3200F011FB002836D1B4F8F800F0
:1032C00000EB800101EBC00004EB8001D0A0A23133
:1032D00001F0E4FCCDA001F0E1FCB4F8F80000EB53
:1032E000800101EBC00004EB8001CFA0AB3101F005
:1032F000D5FCC6A001F0D2FCB4F8F80000EB8001C8
:1033000001EBC00004EB8001CDA0BC3101F0C6FC94
:10331000BEA001F0C3FCB4F8F80000EB800101EBA3
:10332000C00004EB8000FAE05CE1022874D0DCE02D
:10333000C9B2384600F001FC10B1022836D0D4E002
:10334000B4F8F80000EB800101EBC00004EB800052
:1033500090F8921041B180F8C150BFA001F09EFCDE
:10336000AAA001F09BFC01E080F8C180B4F8F8202D
:10337000032002EB820101EBC20104EB810181F821
:103380009000B4F8F81001EB810202EBC10104EBEC
:10339000810181F89180B4F8F81001EB810202EB11
:1033A000C10104EB810181F8928026E1B4F8F800B4
:1033B00000EB800101EBC00004EB800090F892105C
:1033C000022908D080F8C150A8A001F067FC8FA0A6
:1033D00001F064FC01E080F8C180B4F8F81001EB62
:1033E000810202EBC10104EB810181F89090B4F8F5
:1033F000F80000EB800101EBC00004EB800080F8D6
:103400009150B4F8F80000EB800101EBC00004EB30
:10341000800080F89260F0E054E0C9B238469432FF
:1034200000F005FB002880D1B4F8F80000EB800123
:1034300001EBC00004EB800090F8C11001292CD1F1
:1034400050F8941F808841438EA001F027FC6FA0A4
:1034500001F024FCB4F8F80000EB800101EBC0009F
:1034600004EB8000D0F8941001E0B7E035E08DA0C7
:1034700001F014FC65A001F011FCB4F8F80000EBB9
:10348000800101EBC00004EB8000B0F898108AA026
:1034900001F004FC5DA001F001FCB4F8F80000EBC1
:1034A000800101EBC00004EB800080F89050B4F87C
:1034B000F81001EB810202EBC10104EB810181F8FC
:1034C00091805FE0B4F8F81001EB810202EBC101DA
:1034D00004EB810181F890908FE0C9B238469C32AC
:1034E00000F0E2FA20B1022851D0042861D084E033
:1034F000B4F8F80000EB800101EBC00004EB8000A1
:1035000090F89C10062901D002290BD1D7F8C423CA
:10351000D4F8FC30D21A42F210739A4202D280F8E8
:1035200090606AE069A001F0B9FB38A001F0B6FB39
:10353000B4F8F80000EB800101EBC00004EB800060
:1035400090F89D1065A001F0A9FB30A001F0A6FB4A
:10355000B4F8F80000EB800101EBC00004EB800040
:1035600090F89E1064A001F099FB28A001F096FB52
:10357000B4F8F80000EB800101EBC00004EB800020
:1035800080F8905034F8F80F401C208035E037A0C8
:1035900001F084FB1DA001F081FBB4F8F8100820B5
:1035A00001EB810202EBC10104EB810181F8900083
:1035B00023E0B4F8F80000EB800101EBC00004EB5D
:1035C000800080F89050B4F8F80000EB800101EB27
:1035D000C00004EB800080F891600EE0491CA4F864
:1035E000F8100AE0A4F8F8802573D7F8D423022154
:1035F0003846904701E04FF0000A5046BDE8F0879A
:103600004C554E202325643A200000000A0000009B
:10361000496E71756972792056656E646F722020EB
:103620003A20257300000000496E71756972792097
:1036300050726F64756374203A2025730000000097
:10364000496E71756972792056657273696F6E2063
:103650003A202573000000004D53432044657669ED
:103660006365207265616479000000004D5343205A
:10367000446576696365204E4F54207265616479B4
:10368000000000004D534320446576696365206364
:1036900061706163697479203A20256C75204279E4
:1036A00074657300426C6F636B206E756D6265723A
:1036B000203A20256C750000426C6F636B205369C3
:1036C0007A652020203A20256C75000053656E73C2
:1036D00065204B657920203A202578004164646993
:1036E00074696F6E616C2053656E736520436F64FF
:1036F00065203A20257800004164646974696F6E22
:10370000616C2053656E736520436F64652051754D
:10371000616C69666965723A202578002DE9F84385
:10372000D0F87C2301EB810303EBC103D2690125AF
:1037300002EB8304082794F890302E46052B22D004
:1037400000224FF00508062B02D0072B40D10CE0D9
:10375000002300921A4600F02AF90BE002280FD04D
:1037600018E000BF84F8907031E0002300921A4600
:1037700000F009FA0028F1D184F89060002527E0D4
:1037800084F8908024E004F19C0200F08DF920B1CF
:10379000022820D00428E5D01AE094F89C1011A04B
:1037A000903401F07BFA13A001F078FA617B12A04B
:1037B00001F074FA0FA001F071FAA17B15A001F0DD
:1037C0006DFA0CA001F06AFA2670022060700225E2
:1037D0002846BDE8F88318A001F060FA05A001F0C2
:1037E0005DFAF5E753656E7365204B657920203AE5
:1037F000202578000A0000004164646974696F6ED6
:10380000616C2053656E736520436F6465203A20B8
:10381000257800004164646974696F6E616C20539F
:10382000656E736520436F6465205175616C6966D0
:103830006965723A202578004D53432044657669C6
:103840006365204E4F54207265616479000000006A
:103850002DE9F8430446D0F87C03089E0F46C5695D
:1038600094F8200360B120780B2809D107EB87007A
:1038700000EBC70005EB800090F89010012902D002
:103880000220BDE8F8830621297380F89010A5F87E
:10389000FA7039462046009600F089F8D4F8C483BF
:1038A00040F271204FF00109464309E0D4F8C413F7
:1038B000A1EB0800B0EB061F0CD894F8200348B128
:1038C00039462046FFF72AFF0128EFD085F80C90F3
:1038D0000020D6E785F80C90D2E72DE9F041154697
:1038E000D0F87C2302270026D4694FF0010894F811
:1038F0005220012A02D0022A56D126E0242080221A
:10390000E06584F860200A2284F86220C4F86360CD
:10391000C4F86760A4F86B60122284F86320490140
:1039200084F8641084F8656084F8666084F8670041
:1039300084F86860022084F8508084F8520004F112
:1039400010000127C4F88C002EE0FFF74DFA0700A5
:103950002AD122212846FCF77DFCD4F88C0000787F
:1039600000F01F006870D4F88C00007840092870BF
:10397000D4F88C004078000602D585F8028000E07B
:10398000AE7054F88C0F10228168C5F80310C0681F
:10399000C5F80700216805F10C001031FCF741FC67
:1039A0002068006AC5F81D003846BDE8F0812DE9A1
:1039B000F041154602461F46D2F87C330220069E8F
:1039C000DC6994F85230012B06D0022B2DD1BDE8D2
:1039D000F0411046FFF708BAB4F898001021704380
:1039E000E065802084F860000A2084F8620004F119
:1039F0006300FCF72FFC282084F86300280E84F86D
:103A00006500280C84F86600280A84F8670084F8AA
:103A10006850300A84F86A0084F86B60012004F86A
:103A2000500F0220A0700120E763BDE8F08170B55F
:103A30001646D0F87C230125D46994F85220012A37
:103A400002D0022A2ED11AE00820E065802084F8F6
:103A500060000A2084F86200102104F16300FCF782
:103A6000F9FB252084F86300012084F8500002202F
:103A700084F8520004F11000C4F88C0012E0FFF743
:103A8000B3F905000ED154F88C0F4188427849BA39
:103A9000007862F31F4141EA006030602068C0880E
:103AA00040BAB080284670BD70B5154602460E4635
:103AB000D2F87C130220CC6994F85210012914D05A
:103AC000022911D131461046FFF78EF900280BD19B
:103AD00054F88C1F897801F00F0129702168097B47
:103AE00069702168497BA97070BD0E258020E5654D
:103AF00084F860000A2084F86200102104F1630059
:103B0000FCF7A8FB032084F86300700184F86400CC
:103B1000002084F8650084F8660084F8675084F813
:103B20006800012084F85000022084F8520004F15B
:103B30001000C4F88C00012070BD70B50246022050
:103B4000D2F87C33DC6994F85230012B06D0022B7A
:103B500018D1BDE870401046FFF746B90025E5656D
:103B600084F860500A2084F86200102104F1630098
:103B7000FCF770FB84F86350012004F8500F02201A
:103B8000A070012070BD2DE9F041154602461F4688
:103B9000D2F87C330220069EDC6994F85230012B67
:103BA00006D0022B2DD1BDE8F0411046FFF71CB91D
:103BB000B4F8980010217043E065002084F860009C
:103BC0000A2084F8620004F16300FCF743FB2A201A
:103BD00084F86300280E84F86500280C84F86600D9
:103BE000280A84F8670084F86850300A84F86A006C
:103BF00084F86B60012004F8500F0220A0700120AF
:103C0000E763BDE8F08100207047D0F87C2300789E
:103C1000D2690B2808D101EB810000EBC10002EB57
:103C2000800090F8910008B1002070470120704793
:103C30002DE9F8430446D0F87C03089E0F46C56979
:103C400094F8200360B120780B2809D107EB870096
:103C500000EBC70005EB800090F89010012902D01E
:103C60000220BDE8F8830721297380F89010A5F899
:103C7000FA70394620460096FFF785FFD4F8C483D2
:103C800040F271204FF00109464309E0D4F8C41313
:103C9000A1EB0800B0EB061F0CD894F8200348B144
:103CA00039462046FFF73AFD0128EFD085F80C9001
:103CB0000020D6E785F80C90D2E7FEB508AF97E86C
:103CC00070008DE87000FFF719F80020FEBD2DE9A7
:103CD000F84105460B782B704B786B704B886B80E6
:103CE0000B792B714B796B718B79AB71CB79084662
:103CF000EB710027097A2972092A54D90921ADF8F4
:103D000000104BE06946FEF7C7FB4178042943D118
:103D100007EB870101EBC70105EB4108017888F843
:103D20000A10417888F80B10817888F80C10C17857
:103D300088F80D10017988F80E10417988F80F1075
:103D4000817988F81010C17908F10A0488F81110F7
:103D5000017A2172002615E06946FEF79DFB417845
:103D600005290FD108EBC60102780A7542784A7519
:103D700082788A75C278CA7582880A838279761CAD
:103D80008A76F6B22179B14204D96A88BDF800106A
:103D90008A42E1D87F1CFFB2022F04D26988BDF8A5
:103DA00000209142AED8BDE8F88100002DE9FE4325
:103DB0004FF0020804468DF8008094F8211300208B
:103DC000012901D10321217021780D260827002522
:103DD0000C291DD2DFE801F0061D47F31C7CF29A86
:103DE000A4AFC3F194F82003002811D0A6A000F0DE
:103DF00055FFABA000F052FF01202070C820FEF755
:103E000000FB2046FEF790FF84F81C53C4F8C8530B
:103E100030E194F82303012814D0D4F8C803B0F596
:103E20007A7F19D994F81F03401CC0B284F81F038D
:103E3000032874D99BA000F031FF99A000F02EFF59
:103E4000267017E1A2A000F029FF95A000F026FF40
:103E500084F81F534046D8E00A30C4F8C8030A204B
:103E6000FEF7CFFA06E1D4F8D42312B1042120469C
:103E700090476420FEF7C5FA2046FEF7E3FE84F87B
:103E80001D030520207000212046FEF717FA6071FF
:103E900080212046FEF712FA20710146A07994F89D
:103EA0001D230092CDE9015094F81C338022204656
:103EB000FFF703FFA07994F81D130091CDE901509D
:103EC00094F81C33617900222046FFF7F6FED1E01A
:103ED0002046FEF763FC8DF800009DF800000028E6
:103EE00096D182A000F0DAFE6DA000F0D7FE84F833
:103EF000245394F83703012801D0072085E080A0DF
:103F000000F0CCFE66A000F0C9FE06E0D4F8D42391
:103F1000002A96D00121204690472770AAE01CE095
:103F200094F83D13204600F051FA002889D1092069
:103F300020707DA029E094F83F034FF00A05800629
:103F40000BD50121204600F04FFA00288AD17DA030
:103F500000F0A4FE52A000F0A1FE25708AE0D4F883
:103F6000801389B1C4F87C5394F8471304EB8002A2
:103F7000D2F8782312798A420AD104EB8000D0F873
:103F80007803C4F87C0308E076A000F087FE10E018
:103F9000401C10F0FF00E9D0284610B3816820468D
:103FA000884768B12670D4F87C03016875A000F0DA
:103FB00075FE3BA000F072FE5CE034E014E039E0F6
:103FC00006202070D4F87C03016876A000F066FE1D
:103FD00033A000F063FED4F8D42303212046904799
:103FE00048E0267074A0D0E7D4F87C03A8B101693A
:103FF000204688478DF800009DF8000020B19DF80C
:104000000000022803D035E00B20207032E026703B
:1040100073A000F043FE74A0B7E7267070A000F014
:104020003DFE7BA0B1E7D4F87C0318B3416920467C
:1040300088471FE084F821532046FCF79DFAD4F806
:104040007C0320B1C16820468847C4F87C53D4F86B
:10405000D42312B105212046904773A000F01EFE24
:104060000FA000F01BFE94F82203012805D0204683
:10407000FEF776FE0020BDE8FE8384F8225320463A
:1040800000F0C0F9F6E70000555342204465766918
:10409000636520436F6E6E656374656400000000A5
:1040A0000A00000055534220526573657420466132
:1040B000696C65642C20506C6561736520756E7049
:1040C0006C756720746865204465766963652E00A9
:1040D0005553422044657669636520526573657463
:1040E00020436F6D706C657465640000456E756D7E
:1040F00065726174696F6E20646F6E652E000000DA
:10410000546869732064657669636520686173200B
:104110006F6E6C79203120636F6E666967757261AE
:1041200074696F6E2E00000044656661756C7420C2
:10413000636F6E66696775726174696F6E2073650F
:10414000742E00004465766963652072656D6F7436
:10415000652077616B65757020656E61626C656462
:10416000000000004E6F20436C6173732068617320
:10417000206265656E207265676973746572656437
:104180002E000000446576696365206E6F742073AD
:104190007570706F7274696E6720257320636C612F
:1041A00073732E00257320636C61737320737461C5
:1041B000727465642E0000004E6F2072656769732B
:1041C000746572656420636C61737320666F72201E
:1041D00074686973206465766963652E0000000069
:1041E0004552524F523A2000446576696365206E0D
:1041F0006F7420726573706F6E64696E6720506CA7
:104200006561736520556E706C75672E0000000047
:10421000496E76616C696420436C617373204472EB
:10422000697665722E000000555342204465766918
:10423000636520646973636F6E6E656374656400A3
:1042400010B50022A1B1D0F8803353B10BA000F01B
:1042500025FD0CA000F022FD11A000F01FFD0222A0
:1042600004E00123C0F88033C0F87813104610BD75
:1042700002A000F013FD0BA0ECE700004552524FE6
:10428000523A20004D617820436C617373204E7563
:104290006D6265722072656163686564000000008C
:1042A0000A000000496E76616C696420436C61739A
:1042B000732068616E646C650000000070B505468F
:1042C00090F83C030C460026A04227D985F82443E9
:1042D000214618A000F0E2FC1EA000F0DFFC04EB79
:1042E000840000EBC40005EB40041BA094F84713C6
:1042F00004F2473400F0D2FC16A000F0CFFC617845
:1043000019A000F0CBFC13A000F0C8FCA1781AA003
:1043100000F0C4FC0FA000F0C1FC09E01AA000F0FE
:10432000BDFC1BA000F0BAFC0AA000F0B7FC0226FE
:10433000304670BD537769746368696E6720746F27
:1043400020496E746572666163652028232564299F
:10435000000000000A000000436C617373202020FD
:10436000203A202578680000537562436C617373AE
:10437000203A20257868000050726F746F636F6C6C
:10438000203A2025786800004552524F523A2000CA
:1043900043616E6E6F742053656C6563742054685E
:1043A000697320496E746572666163652E00000052
:1043B0008278012A06D100220274052343744182C7
:1043C0008282C28200221146FDF7DBBF8278012A79
:1043D00006D1002202740923437441828282C28280
:1043E00000221146FDF7CDBF8278012A06D10022B6
:1043F00002740323437441828282C28200221146E6
:10440000FDF7BFBF10B50446FEF7AAFC0121204608
:10441000FEF70EFC002010BD01290AD00548022934
:1044200006D0042903D0052903D1032100E001218E
:1044300001707047250000200020704730B58DB016
:104440001546012449B1012909D0022910D00329B8
:1044500018D004240DB0204630BD0024FAE70146F0
:104460006A460E48FEF716FE0028F3D1019813E0C5
:1044700001466A460948FEF70DFE0028EAD1BDF85C
:10448000080009E001466A460448FEF703FE0028DA
:10449000E0D1BDF80800400A2860DEE778870020F8
:1044A00030B58FB0054600930B46014601241048F5
:1044B000FFF7CEF968B101AA29460D48FEF7EAFDDB
:1044C0009DF81100042806D0282804D03A280CD1E1
:1044D00001E0002409E007A000F0E0FB07A000F0E5
:1044E000DDFB0CA000F0DAFB03240FB0204630BD4A
:1044F000788700204552524F523A200055534220AF
:104500004469736B206973206E6F742072656164F7
:10451000792100000A00000010B50146012403487B
:10452000FFF773FB00B10024204610BD7887002000
:1045300030B58FB0054600930B460146012417485D
:10454000FFF776FB78B101AA29461448FEF7A2FDD1
:104550009DF81100042813D0272806D028280FD052
:104560003A2817D10CE0002414E00DA000F096FBCF
:104570000DA000F093FB14A000F090FB022409E0D2
:1045800007A000F08BFB11A000F088FB0EA000F04C
:1045900085FB03240FB0204630BD00007887002043
:1045A0004552524F523A2000555342204469736B92
:1045B0002069732057726974652070726F74656327
:1045C00074656421000000000A0000005553422079
:1045D0004469736B206973206E6F74207265616427
:1045E0007921000070B5044606990A9E049D0D9835
:1045F000012916D0E06840F04000E060204600F05D
:104600002BF8A16B1EB321F48031A163012D07D1DA
:10461000A16841F00601A160A16841F02001A160FC
:1046200070BDA16B21F48031A163E168094A11409A
:10463000E160E16821F44011E160012803D1E06804
:1046400040F48010E060204600F006F8DEE741F418
:104650008031DAE7BFFFBDFF01220C4902E0521CA6
:104660008A420BD80369002BF9DA026942F0010291
:104670000261012204E0521C8A4201D903207047E2
:104680000369DB07F7D1002070470000400D0300ED
:10469000816821F0010181600020704700EB41102A
:1046A000064AC0F81025D0F8001521F0804141F0ED
:1046B0000041C0F80015002070470000000008808D
:1046C00008B5D0F8402422F02E020092D20405D47E
:1046D000012909D1009941F4805103E021B90099E1
:1046E00021F48051C0F84014002008BD816841F0D9
:1046F0000101816000207047002110220261054AFB
:10470000491C914201D9032070470369DB06F7D4A5
:1047100000207047400D03000022202343EA81114E
:1047200001610549521C8A4201D90320704703697F
:104730009B06F7D400207047400D0300D0F8080412
:1047400080B2704708B5D0F840040090C0F34140F3
:1047500008BD406900F00100704700EB4111D1F83D
:1047600000254FF47A73C2F381426AB1022A0BD05A
:10477000D1F8002542F08042C1F80025D0F810049D
:1047800010F47F0F2ED009E0D1F8002542F08042CE
:10479000C1F80025C06A10F47F0F07D0D1F80005DA
:1047A00040F00040C1F8000500207047D1F8000536
:1047B00020F00040C1F80005D1F8000540F00040AD
:1047C000C1F80005D1F8000520F40040C1F800054B
:1047D000012002E0401C9842E6D8D1F80025002ACA
:1047E000F8DBE1E7D1F8000520F00040C1F8000552
:1047F000D1F8000540F00040C1F80005D1F80005EF
:1048000020F40040C1F80005012002E0401C98425D
:10481000CAD8D1F80025002AF8DBC5E72DE9F04316
:104820000026DDE9078500EB4114771EDDF82490B2
:10483000C4F80875CDB1012D32D0022D15D0032D4D
:1048400027D00126D0F8187401F00F0C012101FACD
:104850000CF10F43C0F81874816941F00071816157
:1048600010062AD54FF4004028E040F29D47C4F8D6
:104870000C75170605D500BFD4F80C7547F4807782
:1048800018E0C76BFF05DDD5D4F80C7547F060075D
:1048900010E040F29D67C4F80C751706ECD4D1E720
:1048A00040F22527C4F80C751706CBD5D4F80C7543
:1048B00047F4C077C4F80C75C4E70020B8F1020FC4
:1048C00018D000214FF0FE5707EA83534FF4F0470A
:1048D00007EAC22213434FF4402202EA85421343FF
:1048E000C9F30A02134303430B43C4F80035032DF5
:1048F00003D008E04FF40031E4E7D4F8000540F0BD
:104900000050C4F800053046BDE8F083D0F8140428
:1049100080B27047F8B54C78C56B4FF48073ED05E5
:104920004FF0000715D50D799DB912B1012A07D0B6
:104930000FE04D79012D0CD12146FFF7AFFE8CE041
:1049400000EB4415D5F80C6526F06006C5F80C653B
:104950004F710E695EB10D892E44761EB6FBF5F6D9
:10496000B6B29E4204D91E462B020B6100E001261E
:10497000CB78CBB30B897343C1F810306FF060452F
:10498000C3F3120305EAC6452B438D7A4FF0C046A8
:1049900006EA45752B4300EB44140546C4F8103570
:1049A00012B1CB68C4F81435D5F80834D4F80055E2
:1049B00043F3000325F00055C4F80055D4F8005522
:1049C0005B1C45EA4373C4F80035D4F80055244B0A
:1049D0001D601D6825F080451D60CD78002D1D6887
:1049E00005D045F4004504E0FFE70B69C6E725F470
:1049F00000451D601D6845F000451D601B68C4F83A
:104A0000003552BBCA7842BB0A6932B3CB7933B1A5
:104A1000012B0FD0022B02D0032B17D10AE0D21C9E
:104A2000C36AC2F38F029BB293420FD2826942F0F3
:104A300020020AE0D21CD0F81034C2F38F029BB2DD
:104A4000934203D2826942F08062826100970A8AAF
:104A500093B24A78C96800F00EF90020F8BD000052
:104A6000500000202DE9F0410025DDF818801746A0
:104A70000446C0F8005E806B40F40010A063A06B99
:104A800020F40020A063A06B20F48020A063E06BE2
:104A9000C00501D5012B04D0D4F8000420F0040196
:104AA00003E0D4F8000440F004012046C4F80014E8
:104AB0001021FFF731FE2046FFF71EFE0020461EA4
:104AC00007E000BF04EB4011C1F80865C1F80C55C0
:104AD000401C8742F6D801212046FFF7F1FDC8208F
:104AE000FBF7BCFFA5616661E06BC00506D54FF41E
:104AF000007060620C48A0620C4804E08020606294
:104B00000B48A0620B48C4F80001B8F1000F03D1B4
:104B1000A06940F01000A061A06907490843A061A6
:104B20000020BDE8F0810000000200010003E00069
:104B300080006000E0004000080020A3D0F80024BE
:104B400022F00302C0F80024D0F8002401F003038F
:104B50001A43C0F80024012902D0022903D006E03C
:104B60004BF6803101E041F27071C0F8041400206E
:104B700070474169806908407047D21C10B593089E
:104B8000002200F5805002E00468521C10C19A42D5
:104B9000FAD3084610BD38B50446D0F8400420F0DA
:104BA0002E00009040F48070C4F84004642004F5A6
:104BB0008864FBF753FF009820F4807020600A207F
:104BC000FBF74CFF002038BD10B5C26822F0C04290
:104BD000C260012902D029B1012010BDC16841F095
:104BE000005102E0C16841F08041C1603220FBF712
:104BF00035FF002010BD000030B504468068002558
:104C000020F00100A06010212046FFF785FD20461E
:104C1000FFF772FD5FF0000004EB4011D1F80025B2
:104C200022F0802242F08042C1F80025401C0F286B
:104C3000F2D900204FF47A7304EB4011D1F800252B
:104C400022F4004242F04042C1F800256D1C9D4212
:104C500003D8D1F80025002AF8DB401C0F28EBD937
:104C60004FF0FF30C4F814046061A06840F0010008
:104C7000A060002030BD10B5029C64B9DB1C9C080C
:104C800000EB0230002300F5805002E004C902600E
:104C90005B1CA342FAD3002010BDFEE70FB4054B06
:104CA00010B503A9044A029800F03CF810BC5DF866
:104CB00014FB0000B55C00088C0000200FB4084B0A
:104CC00010B504A902AA039800F02CF8044602A922
:104CD000002000F087F9204610BC5DF814FB0000AE
:104CE000E54F00080907090E002804DB00F1E02069
:104CF00080F80014704700F00F0000F1E02080F809
:104D0000141D704702E008C8121F08C1002AFAD11A
:104D100070477047002001E001C1121F002AFBD13B
:104D2000704700002DE9FF4F8DB09B460F460446AB
:104D3000002606E025280BD05A460F999047641CA0
:104D4000761C20780028F5D111B03046BDE8F08FF0
:104D50000025A8460122984900E0054314F8013FC8
:104D6000203B02FA03F00842F7D120782E2817D111
:104D700014F8010F45F004052A280ED06FF02F0219
:104D80002078A0F1300109290AD808EB880102EB4C
:104D9000410100EB0108641CF2E757F8048B641C26
:104DA00020786C280DD004DC4C2812D06A2811D150
:104DB00004E074280DD07A280CD10AE045F40015DF
:104DC00007E0617845F48015814202D1641C05F545
:104DD0008015641C2278692A45D008DC002AB3D0EB
:104DE000582A69D0632A10D0642A08D13BE0702A7F
:104DF00067D0732A13D0752A5CD0782A5CD010460D
:104E00005A460F999047761CD3E017F8040B8DF89B
:104E1000000000208DF80100E946012003E057F86A
:104E2000049B4FF0FF3069074FF0000501D40AE002
:104E30006D1C45450DDA8542FADB19F8051000298D
:104E4000F6D106E06D1C8542FCDB19F8051000293F
:104E5000F8D12E4404E019F8010B5A460F999047F7
:104E60006D1EF8D2A5E00A200021CDE90801C5F3A6
:104E7000025002280DD001CFC117031E71F10003AB
:104E80000DDA4FF0000CD0EB0C006CEB01012D2380
:104E900008E0FF1D27F00707F7E80201EDE72B0503
:104EA00004D52B238DF8283001233BE0EB0739D0C4
:104EB0002023F7E70A2000E010200021CDE90801B7
:104EC00007E01020002145F00405CDE908014FF06E
:104ED0000808C5F3025002280FD001CF00214FF07F
:104EE000000A2B071FD5702A0DD0DDE908C38CF00E
:104EF000100C5CEA030C0CD015E0FF1D27F007072F
:104F0000F7E80201EBE740228DF828204FF0010A74
:104F10000BE050EA010306D030238DF828308DF8DD
:104F2000292002239A46582A04D024A20DF12009F0
:104F30000B9209E026A2F9E7DDE90823FBF740F927
:104F40000B9B9B5C09F8013D50EA0102F4D1ADEBEB
:104F5000090020300890680701D44FF00108089933
:104F6000884502DDA8EB010000E000208046002516
:104F700006E00AA85A46405D0F9990476D1C761CC2
:104F80005545F6DB04E030205A460F999047761CD1
:104F9000B8F10001A8F10108F5DC05E019F8010BF2
:104FA0005A460F999047761C0899481E0890002988
:104FB000F4DC641CC5E600000928010030313233FE
:104FC0003435363738396162636465660000000045
:104FD000303132333435363738394142434445462F
:104FE000000000000A68531C0B601070704700003E
:104FF00010B504460020E070401EE062204601F03B
:1050000046F808B1042010BD04F22E2000F064FF21
:10501000A0F52A41553901D0032010BD94F8300085
:10502000E92805D0EB2814D194F83200902810D14B
:1050300004F1660000F045FF0749B1EB002F06D0F0
:1050400004F1820000F03DFF0449884201D10020B4
:1050500010BD022010BD00000046415446415433AB
:10506000F0B50022144D134605EB021426685EB11C
:105070000768BE4209D166688768BE4205D1A46848
:105080004669B44204D000E00123521C022AEBD34B
:10509000022A01D069B904E04BB9022907D01220D5
:1050A000F0BD05EB02108089B0F5807F01D00020B3
:1050B000F0BD1020F0BD0000648E002030B500214E
:1050C000054B0C4603EB01121568854200D11460B4
:1050D000491C0229F6D330BD648E00200268490ABB
:1050E000C06A5289B1FBF2F1001D04C81AB19142A5
:1050F00003D3891AF8E70020704700680844704716
:105100004269891E921E8A4201D800207047826A35
:10511000408901FB002070472DE9F04105680F0030
:10512000804606D000F0FAFD022809D20120BDE831
:10513000F081EE6816B16869B04207D8012605E033
:10514000411CF4D069698142F1D83E463446686911
:10515000641CA04202D80224022E0AD321464046F3
:1051600000F0DCFD38B10128E1D0411CDFD0B442B1
:10517000EDD10020DBE74FF0FF36324621462846CE
:1051800000F09EFF30B957B122463946284600F05C
:1051900097FF20B101280FD001242046C7E7EC601B
:1051A000D5E90401891E884201D8401E286128796A
:1051B00040F001002871F0E73446EEE72DE9F041B8
:1051C0000E4624300D6804460B22202100F058FFC3
:1051D0000020014608272A5C401C202A12D92F2AC9
:1051E0000BD05C2A09D02E2A01D0B94214D30B2F40
:1051F00022D02E2A20D10CE0401C2B5C2F2BFBD080
:105200005C2BF9D028443060B1B12078E5281FD05C
:1052100020E008210B27DEE7802A03D3114B1A4434
:1052200012F8802C10A300E05B1C93F800C0BCF1C6
:10523000000F04D09445F7D10620BDE8F081A2F11B
:105240006103192B01D8203AD2B26254491CC2E73B
:1052500005202070202A01D8042000E00020E07200
:105260000020EAE7A8630008222A2B2C3A3B3C3DA9
:105270003E3F5B5D7C7F0000401E022812D20A493F
:1052800001EB00118889B0F5807F05D008B1401E80
:1052900080B2888110B103E00020FAE700200860A6
:1052A0000020704702207047648E00202DE9F041F5
:1052B00004460021056800F0D8F8002826D12846C9
:1052C000E16900F0E4FE02001FD1206A017899B183
:1052D000C17A01F03F01A171C17A09070FD404F12D
:1052E00024010B2610F8013B11F8017BDB1B761E15
:1052F00004D0002BF6D002E0042206E02BB10021FE
:10530000204600F005F80200D9D01046BDE8F08133
:105310002DE9F047054647690468C069894620378A
:1053200010B1B7F5001F02D30420BDE8F087F905DE
:1053300060D1401CE861A9694FF0000829B160897B
:10534000401E10EA572F05D054E02089B0EB571FBC
:105350001DD94FE0284600F0E1FC064601281BD984
:10536000701C33D06069B0423ED8B9F1000F0ED046
:105370002846A969FFF7D0FE06000BD0012E0BD0FE
:10538000701C23D0204600F0AFFFF8B906E0C5F846
:105390001C80C9E70720C8E70220C6E74FF4007267
:1053A000002104F1300000F06BFE4FF000083146A0
:1053B0002046FFF7A5FE4FF00109E0620DE000BFB7
:1053C00084F80390204600F08FFF08B10120ACE77D
:1053D000E06A08F10108401CE06261894145EFD8AC
:1053E000E16AA1EB0800E06231462046AE61FFF7BA
:1053F00087FEE861C7F30800204430306F612862FF
:10540000002092E770B504460021066800F02DF8F0
:105410000DE03046E16900F03AFE50B9206A0078AC
:10542000E52809D040B101212046FFF771FF00288F
:10543000EFD0042807D007E03046E16900F027FEEE
:10544000050003D00FE0072005460CE020220021D4
:10545000206A00F015FE0B2204F12401206A00F0FE
:1054600005FE0120F070284670BD2DE9F041076867
:105470000E460546B1F5001F36D2F00634D16E61F6
:10548000AC6824B93878032805D37C6A1CB17889C4
:105490004FEA402812E03889B0EB561F24D9786AC9
:1054A00012E0284600F03AFC0446401C1AD0022CB8
:1054B0001AD37869A04217D9A6EB080646452146BB
:1054C000EFD23846FFF71CFEC5E9064060B100EB9D
:1054D0005620E861C6F308003844303028620020C6
:1054E000BDE8F0810120FBE70220F9E7084910B58B
:1054F0000B5C002253B901220A540A1801EB800008
:10550000127A40680168104688470246104610BD6E
:10551000848E002030B4054C231804EB80001B7AE5
:10552000406804691846A44630BC6047848E002059
:1055300030B4054D2C1805EB8000247A406885684E
:105540002046AC4630BC6047848E0020044A1118C7
:1055500002EB8000097A4068426808461047000064
:10556000848E002030B4054D2C1805EB8000247A81
:105570004068C5682046AC4630BC6047848E002039
:1055800038B5044600F0EBF900280CD169462046F6
:1055900000F0D3FE002806D12069FFF76DFE002839
:1055A00001D10021216038BD2DE9F74181B090463D
:1055B00002980090684600F012FC040003D50B200E
:1055C00004B0BDE8F0810D4E002756F824501DB1FF
:1055D0002846FFF773FD2F700198002800D0077050
:1055E00046F8240002D0B8F1010F01D00020E7E70F
:1055F000002201A902A800F0F9F9E1E76800002003
:105600002DE9F74392B005000BD002F03F06324679
:10561000694613A800F0EAF904004FF0000804D02E
:10562000ECE0092015B0BDE8F0830098049004A8D0
:10563000139900F005FB04000ED19DF83F00000611
:1056400001D5062408E0700801D0012100E0002106
:1056500004A8FFF705FD044616F01C0F5DD04FF0BF
:105660000109C4B1042C10D10020674902E0401C9C
:10567000022804D201EB00121268002AF7D1022896
:1056800007D004A8FFF7BEFE044646F008065CB14A
:10569000B4E01224B2E09DF8160010F0110F47D1CB
:1056A000700701D50824A9E0300747D500F095FB25
:1056B00007460C9839460E3000F0C5FD0C98394667
:1056C000163000F0C0FD0C982021C1720C99009892
:1056D00000F0E4FB074600220C99009800F09FFDC3
:1056E0000C9800211C3000F0AEFD009981F8039069
:1056F00017B3D1F82C900022394604A800F055FDCC
:1057000004007BD14946009800F0C1FC04000098D9
:10571000A7F10107C7600DD070E0ECBB9DF8160043
:10572000C10601D5042469E0B10703D5C00701D043
:10573000072463E0300701D546F040060098C06AB0
:1057400068620C98A862700801D0012100E0002175
:1057500004A800F063FB2861B8B30C99009800F02E
:105760009DFBA8600C981C3000F0ABFBC5F82C80AA
:10577000E86000992960009905F130004FF400724B
:10578000C988A9802E7585F81580C5F8208000216C
:105790008146C5F8188000E030E000F071FCB006EA
:1057A0002ED5EE6866B3AE610098A96840894702BD
:1057B0000FE0284600F0B2FA0146012800D8022482
:1057C000481C03D0F61B24B105E01BE00124F61BA6
:1057D00001E0BE42EDD8E96184B9F00510D000982F
:1057E000FFF78EFC70B100EB56222A62009801236D
:1057F00049464078FFF79CFE10B10124C5F80080AF
:1058000020460FE70224F9E7648E00202DE9FE4FC1
:1058100088460021196099461546044602A900F001
:105820008CFD002812D1607D00280FD1207DC0079B
:105830000BD0E168A0690127081A4FF0020A04F1B1
:10584000300B854200D9054684E00720BDE8FE8F75
:10585000A169C80566D102984089401E10EA512608
:1058600011D129B1E06A28B12046FFF737FC05E0E5
:10587000A06803E02046E16900F050FA02281BD33B
:10588000411C4AD0E061E1690298FFF739FC98B108
:1058900030440190680A009025D002993218488956
:1058A000824201D9801B0090DDE9003248784146F0
:1058B000FFF73EFE88BB03E084F815A00220C5E791
:1058C000207D00060CD5216A0198081A00998842AB
:1058D00006D208EB40204FF40072594600F0C6FB98
:1058E000009846022CE0226A0198824218D0207D5E
:1058F00000060AD50298012359464078FFF732FE88
:1059000058B9207D00F07F00207502980123594688
:105910004078019AFFF70CFE10B16775012095E7FA
:1059200001982062208BC0F30800C0F50076AE42DB
:1059300000D92E46011932464046303100F096FB20
:10594000A069B0443044A061D9F800008119AD1BB2
:10595000C9F80010002D7FF47BAF002076E7F8B582
:105960000446694600F0E9FC00280ED1217D4A0674
:105970000BD508060ED50098226A0123407804F161
:105980003001FFF7EFFD08B10120F8BD207D00F0E8
:105990007F00207500F021FA0646616A009800F049
:1059A00076FB0028F1D1A56A2946E87A40F020006C
:1059B000E872A268206800F032FC05F11C00E16882
:1059C00000F041FC314605F1160000F03CFC0021DE
:1059D00005F1120000F03FFC00980121C17000F0B9
:1059E0003FFC217D01F0BF012175F8BD2DE9FF418C
:1059F000002790460E460F6000F0F1F9050003D530
:105A00000B2004B0BDE8F0818A4850F825409CB1D5
:105A10003460207808F0FE0620B16078FFF796FD2C
:105A2000C1070BD02770E8B2B8466070FFF75EFD83
:105A3000C10708D00320E4E70C20E2E70EB14007DD
:105A400004D40020DDE71EB1400701D50A20D8E7C5
:105A5000002631462046FFF7CBFA022822D1002546
:105A60004FEA0D0704EB051090F8F21100F5F770FE
:105A700019B1083000F025FA00E0002047F82500B1
:105A80006D1C042DEED3002557F8256036B1314644
:105A90002046FFF7ADFA022801D203E003206D1C77
:105AA000042DF1D3042809D002286DD204F13B0063
:105AB00000F012FAB0F5007F66D101E00120A0E706
:105AC00004F1460000F008FA18B904F1540000F09F
:105AD000F8F9A06194F84050A570012D01D0022D75
