:020000020000FC
:1000000002E00EBF0FEF0DBF00E00093B90000EC5F
:100010000093B80004E00093BC0005E110E01093E9
:10002000C5000093C40008E10093C10006E00093FE
:10003000C20002E00093C00000E004B900E007B98C
:100040000FE008B900E10AB900E00BB980E05C9864
:100050001FEF0FEF0A95F1F71A95D9F704EA00930D
:10006000BC000091BC0007FFFCCF22EC2093BB003A
:1000700024E82093BC002091BC0027FFFCCF20E3A4
:100080002093BB0024E82093BC002091BC0027FFF4
:10009000FCCF2CEB2093BB0024E82093BC002091E4
:1000A000BC0027FFFCCF2EE82093BB0024E8209360
:1000B000BC002091BC0027FFFCCF20E02093BB00B8
:1000C00024E82093BC002091BC0027FFFCCF24E94A
:1000D0002093BC005C98B2E0A0E09FE070B775FF91
:1000E000FDCF0C9070B775FFF9CFC895C89500008B
:1000F00070B775FDF3CFC895C895000070B775FF50
:10010000EDCFC895C895000070B775FDE7CFC895CD
:10011000C895000070B775FDE1CFC895C89500007F
:1001200070B775FDDBCFC895C895000070B775FD39
:10013000D5CFC8950C9001C0C2C070B775FFCECFA7
:10014000C895C895000070B775FDC8CFC895C8950B
:10015000000070B775FFC2CFC895C895000070B792
:1001600075FDBCCFC895C895000070B775FDB6CFBA
:10017000C895C895000070B775FDB0CFC895C895F3
:10018000000070B775FDAACFC895C895000070B77C
:1001900075FDA4CFC895C895000070B775FD9ECFBA
:1001A0005C9A88940C9002C07AC0C6CF00B70072E7
:1001B00033279A95C9F3C8950C9010B71072102781
:1001C000A1F3302BC8950C9000B70072C895C89564
:1001D0000C9010B710721027C9F0331F302BC89540
:1001E000000000B70072C895C8950C9010B7107247
:1001F000102761F0331F302BC895000000B7007244
:10020000C895C8950C9010B710721027C9F1331F0C
:10021000302BC895000000B70072C895C8950C90A7
:1002200010B71072102761F1331F05FBC89500004D
:1002300000B70072C895C8950C9010B710721027BF
:10024000F9F0331F302BC895000000B70072C89535
:10025000C8950C9010B71072102791F0331F302BF7
:10026000C895000000B70072C895C8950000331FFC
:1002700010B71072102721F0302B34F93D9396CF30
:100280000EE108B9319B26CF01E23ED0092F33D0D1
:100290000BE33AD00AE038D00DE036D01BCF0AE2AB
:1002A00033D0B2E0A0E09EE00D911FD09A95E1F727
:1002B0000BE32AD00AE028D00DE026D00BCF9730F0
:1002C000F9F60FE008B9309B05CF0AE21DD0B2E085
:1002D000A0E097E00D9109D09A95E1F70BE314D0D7
:1002E0000AE012D00DE010D0F5CE04FB001F001F75
:1002F000001F001F03F90F93029501D00F910F709B
:10030000005D0A3308F0095F1091C00015FFFCCFB3
:060310000093C6000895F1
:00000001FF
