:100000000CEF00F0039E000CD8CFF3F3E0CF3BF0F1
:04001000EAEF1DF006
:1000180001EE00F013EEE7F042EC30F000EE3CF0B9
:1000280010EE3FF042EC30F000EE41F011EE00F03F
:1000380042EC30F000EE14F010EE3CF042EC30F000
:100048009EEF1EF0FFFF04FE10FC23FA3EF860F658
:100058008AF4BAF2F1F02FEF73EDBEEB0FEA66E81F
:10006800C3E626E58EE3FCE170E0E9DE68DDEBDB64
:1000780074DA02D994D72CD6C7D468D30DD2B7D0A6
:1000880064CF17CECDCC87CB46CA08C9CEC798C691
:1000980066C537C40CC3E5C1C1C0A0BF83BE69BD76
:1000A80052BC3FBB2FBA21B917B810B70BB60AB567
:1000B8000BB40FB316B220B12CB03BAF4CAE60AD51
:1000C80077AC8FABABAAC8A9E8A80BA82FA756A6F0
:1000D8007FA5AAA4D7A306A338A26BA1A1A0D89FE5
:1000E800119F4D9E8A9DC99C0A9C4C9B919AD799B9
:1000F8001F996998B49701975096A095F2944694E1
:100108009B93F1924992A391FE905A90B88F178FC2
:10011800788EDA8D3E8DA38C098C708BD98A438AB0
:10012800AE891B898988F8876887D9864C86BF85F8
:100138003485AA842184998312838D8208828581DB
:10014800028181800180DD000001E16BE0AF14D005
:10015800DDC000F0DEC001F0DFC002F0E0C003F057
:1001680049EC30F000C0DDF001C0DEF002C0DFF085
:1001780003C0E0F0010EE16F830E046EF90E056E08
:10018800220E066E3E0E076EDD0EE96E000EEA6E5A
:1001980037EC30F0DDC0EAF0DEC0EBF0DFC0ECF0A9
:1001A800E0C0EDF055EC2DF000C004F001C005F002
:1001B80002C006F003C007F0DDC000F0DEC001F0A9
:1001C800DFC002F0E0C003F0FAEC2DF0046A056A23
:1001D800800E066E400E076EC9EC2CF000C0DDF0F4
:1001E80001C0DEF002C0DFF003C0E0F0DDC004F0C3
:1001F800DEC005F0DFC006F0E0C007F0006A016A63
:10020800026A400E036E4BEC2FF0D8B011D0046A8E
:10021800056A066A400E076EDD0EE96E000EEA6E8C
:1002280001EC30F00001E151000ED8B4010EE16F8D
:10023800DDC004F0DEC005F0DFC006F0E0C007F066
:10024800006A016A800E026E3F0E036E4BEC2FF0BF
:10025800DDC004F0DEC005F0DFC006F0E0C007F046
:10026800D8B017D0006A016A026A400E036EFAEC31
:100278002DF000C0DDF001C0DEF002C0DFF003C0E9
:10028800E0F0DDC004F0DEC005F0DFC006F0E0C03D
:1002980007F0DDC000F0DEC001F0DFC002F0E0C012
:1002A80003F0C9EC2CF000C0E2F001C0E3F002C09A
:1002B800E4F003C0E5F0E2C0F2F0E3C0F3F0E4C01C
:1002C800F4F0E5C0F5F00001820EF66F050EF76F49
:1002D800030EF86FF96B39EC2CF000C0E6F001C0A2
:1002E800E7F002C0E8F003C0E9F0E2C0F2F0E3C0D2
:1002F800F3F0E4C0F4F0E5C0F5F000016E0EF66F1F
:10030800050EF76F040EF86FF96B39EC2CF0E6C0A8
:1003180004F0E7C005F0E8C006F0E9C007F01EECFD
:1003280027F000C004F001C005F002C006F003C0C9
:1003380007F0DD0EE96E000EEA6E37EC30F00001D2
:10034800E151DDC000F0DEC001F0DFC002F0E0C026
:1003580003F0D8B4120049EF30F00E6A02340334C7
:100368000C6E04E00E36036A028E1200006A016AFF
:10037800026A036A000C0E92063407340D6E05E01B
:10038800D8B00E82076A068E12000D6A046A056AE2
:10039800066A076A12000C50E9E0029E0E320C3021
:1003A800036ED8B0028ECBEF2FF00C521EE0035034
:1003B8000DE0030404E1002A012202220322D8905E
:1003C80003320232013200320C2AEFD700500110FA
:1003D800021003100AE002BEDED70C4EC7EF2FF062
:1003E800D890003601360236F6D7C7EF2FF0A6A20E
:0403F8001200FDD71B
:100400000000020001000400FF00030004000200DD
:1004100003000000FF0001000000B4420A00AE42E9
:100420002612AD42CF82AB4291C8A942CEFBA74271
:10043000E624A6427F47A4426B65A242A47FA04265
:10044000B5969E42E9AA9C4265BC9A4238CB984236
:100450005CD79642C4E0944257E79242F6EA904253
:100460007BEB8E42BDE88C428DE28A42B8D888424E
:1004700005CB864239B9844213A382424E8880421A
:100480003BD17C4264877842693274428ED16F429C
:1004900008646B42FCE86642795F62427CC65D425A
:1004A000E61C59427E615442EA924F42A9AF4A4249
:1004B00013B6454248A4404230783B426B2F364247
:1004C00042C73042993C2B42D58B2542BEB01F42D9
:1004D0005AA61942B066134286EA0C42EC2806423C
:1004E0004F2DFE41834AEF411883DF4158A2CE4190
:1004F0004B5CBC413D3CA841807D914141406D41F8
:100500001687274100000000AE329C31A031A43193
:10051000A831A832A832A832A832AE32AE32AE32FA
:10052000AE32AE32AE32AE32AE32AE32AE320E3568
:10053000AE32AE32AE322A382A382A382A382A3831
:10054000DA37063C04427D9F6A425C900142604D6E
:10055000BB4051EC473EDE8D1FBB063C0442C059F8
:100560008B4274044442F99B4F410000803FECF3FE
:100570004A48359595C717C1DC45FDDB6DC372B39D
:1005800033402B3401487F9DB045E7FFD94200003E
:10059000803FAF00D96E030ED926D9500001AF6F4E
:1005A000AFC004F0B0C005F0B1C006F0B2C007F0B3
:1005B000006A500E016EC30E026E470E036EC9EC48
:1005C0002CF005EC2FF000C0B0F001C0B1F002C07B
:1005D000B2F003C0B3F0FBEC01F00001AF51A96E23
:1005E000AF07B051A86E3F0EA616D890F2BED880C5
:1005F000F29EA684550EA76EAA0EA76EA682A1989B
:10060000A694D8B0F28EB1C0B0F0B2C0B1F0B3C011
:10061000B2F0B36BB2BFB307FBEC01F00001AF5116
:10062000A96EAF07B051A86E3F0EA616D890F2BEC5
:10063000D880F29EA684550EA76EAA0EA76EA6823B
:10064000A198A694D8B0F28EB1C0B0F0B2C0B1F00B
:10065000B3C0B2F0B36BB2BFB307FBEC01F0000163
:10066000AF51A96EAF07B051A86E3F0EA616D89035
:10067000F2BED880F29EA684550EA76EAA0EA76E73
:10068000A682A198A694D8B0F28EB1C0B0F0B2C044
:10069000B1F0B3C0B2F0B36BB2BFB307FBEC01F083
:1006A0000001AF51A96EB051A86E3F0EA616D890AA
:1006B000F2BED880F29EA684550EA76EAA0EA76E33
:1006C000A682A198A694D8B0F28E12000001B76F4E
:1006D000BC6BBD6BBE6BBF6BFBEC01F00001B75197
:1006E000A96EB72B3F0EA616A680A8CF00F0016A10
:1006F000026A036A0050BC130150BD130250BE13BE
:100700000350BF13BEC0BFF0BDC0BEF0BCC0BDF043
:10071000BC6BFBEC01F00001B751A96EB72B3F0E8B
:10072000A616A680A8CF00F0016A026A036A0050EC
:10073000BC130150BD130250BE130350BF13BEC003
:10074000BFF0BDC0BEF0BCC0BDF0BC6BFBEC01F0A7
:100750000001B751A96EB72B3F0EA616A680A8CFF1
:1007600000F0016A026A036A0050BC130150BD1315
:100770000250BE130350BF13BEC0BFF0BDC0BEF0D9
:10078000BCC0BDF0BC6BFBEC01F00001B751A96E21
:100790003F0EA616A680A8CF00F0016A026A036A7F
:1007A0000050BC130150BD130250BE130350BF13C1
:1007B000BCC000F0BDC001F0BEC002F0BFC003F07D
:1007C000F3EC2FF000C0B8F001C0B9F002C0BAF0ED
:1007D00003C0BBF0046A500E056EC30E066E470ED2
:1007E000076EB8C000F0B9C001F0BAC002F0BBC0DB
:1007F00003F01EEF27F0CC000001CFAF0CD0046A4D
:10080000056A800E066EBF0E076ECC0EE96E000EF6
:10081000EA6E37EC30F03B0EF36EF46AF3CF00F083
:10082000F4CF01F0D89000360136D890003601366A
:100830000050180FF66E0150F76E040EF7220900F3
:10084000F5CF04F00900F5CF05F00900F5CF06F06B
:100850000900F5CF07F0CCC000F0CDC001F0CEC04C
:1008600002F0CFC003F04BEC2FF0D8B003D0F35020
:10087000020F1200F306D8A0F406F4BE000CCED787
:100880000001420E5A6F650E596F2E0E586FE10E21
:10089000576F01010053D8A409D00001420E5A6FCE
:1008A000680E596F420E586F110E576F00013C0EC3
:1008B0005E6F8E0E5D6FFA0E5C6F350E5B6F010121
:1008C0000053D8A409D000013C0E5E6F8D0E5D6F01
:1008D000150E5C6F9E0E5B6F200EF8DE00C077F089
:1008E00001C078F002C079F003C07AF0240EEEDE89
:1008F00000C07FF001C080F002C081F003C082F030
:100900005BC004F05CC005F05DC006F05EC007F09F
:1009100077C000F078C001F079C002F07AC003F02F
:10092000C9EC2CF000C087F001C088F002C089F04B
:1009300003C08AF05BC004F05CC005F05DC006F047
:100940005EC007F07FC000F080C001F081C002F0FF
:1009500082C003F0C9EC2CF000C08FF001C090F011
:1009600002C091F003C092F00001400EA26FC00ED1
:10097000A16FA06B9F6B400EA66FC30EA56F410EBB
:10098000A46F160EA36F9FC004F0A0C005F0A1C015
:1009900006F0A2C007F077C000F078C001F079C07F
:1009A00002F07AC003F01EEC27F000C0EAF001C0AC
:1009B000EBF002C0ECF003C0EDF055EC2DF005ECCF
:1009C0002FF000C05FF001C060F0A3C004F0A4C02D
:1009D00005F0A5C006F0A6C007F077C000F078C00B
:1009E00001F079C002F07AC003F01EEC27F000C0DD
:1009F000EAF001C0EBF002C0ECF003C0EDF055EC02
:100A00002DF005EC2FF000C061F001C062F05FC076
:100A100000F060C001F0E5EC2FF09FC004F0A0C032
:100A200005F0A1C006F0A2C007F0C9EC2CF000C090
:100A300004F001C005F002C006F003C007F077C063
:100A400000F078C001F079C002F07AC003F0FAEC4F
:100A50002DF09FC004F0A0C005F0A1C006F0A2C018
:100A600007F01EEC27F0046A056A066A3F0E076E5F
:100A7000FCEC2DF000C0A7F001C0A8F002C0A9F066
:100A800003C0AAF000EE61F0EECF00F0EDCF01F070
:100A9000E5EC2FF0A3C004F0A4C005F0A5C006F05B
:100AA000A6C007F0C9EC2CF000C004F001C005F0AE
:100AB00002C006F003C007F077C000F078C001F074
:100AC00079C002F07AC003F0FAEC2DF0A3C004F074
:100AD000A4C005F0A5C006F0A6C007F01EEC27F0E4
:100AE000046A056A066A3F0E076EFCEC2DF000C032
:100AF000ABF001C0ACF002C0ADF003C0AEF012002C
:100B0000B0000001B96FB851B0C000F0B1C001F041
:100B1000B2C002F0B3C003F0D8B423D0FFEC2FF082
:100B2000046A056A066A490E076E1EEC27F000C0CB
:100B3000C4F001C0C5F002C0C6F003C0C7F0B4C025
:100B400000F0B5C001F0B6C002F0B7C003F0FFEC92
:100B50002FF0046A056A066A490E076E1EEC27F03C
:100B600022D0FFEC2FF0046A056A066A480E076E71
:100B70001EEC27F000C0C4F001C0C5F002C0C6F0F2
:100B800003C0C7F0B4C000F0B5C001F0B6C002F0B9
:100B9000B7C003F0FFEC2FF0046A056A066A480E3E
:100BA000076E1EEC27F000C0C0F001C0C1F002C00B
:100BB000C2F003C0C3F0C4C004F0C5C005F0C6C095
:100BC00006F0C7C007F00001B951040DA70EF324C9
:100BD000E96E000EF420EA6EEECF00F0EECF01F0E9
:100BE000EECF02F0EECF03F0FAEC2DF000C0EAF009
:100BF00001C0EBF002C0ECF003C0EDF055EC2DF0BD
:100C000005EC2FF00001B951020D5F0EF324E96EDF
:100C1000000EF420EA6EEECF02F0EDCF03F00250AA
:100C20000024BA6F03500120BB6FBAC000F0BBC0F4
:100C300001F0E5EC2FF0C4C004F0C5C005F0C6C05B
:100C400006F0C7C007F0FCEC2DF0B951040D9F0E63
:100C5000F324E96E000EF420EA6EEECF04F0EECF3E
:100C600005F0EECF06F0EECF07F0C9EC2CF000C097
:100C700073F001C074F002C075F003C076F073C069
:100C8000CCF074C0CDF075C0CEF076C0CFF0B4DD3E
:100C9000006E0004D96E0001B951D95ED950D8A4B4
:100CA00007D0C86BC96BB40ECA6F430ECB6F1CD094
:100CB000D9CF00F0C1EC2FF000C004F001C005F066
:100CC00002C006F003C007F0006A016AB40E026EAB
:100CD000430E036E1EEC27F000C0C8F001C0C9F03F
:100CE00002C0CAF003C0CBF0C8C004F0C9C005F010
:100CF000CAC006F0CBC007F07FC000F080C001F092
:100D000081C002F082C003F01EEC27F000C0EAF0C0
:100D100001C0EBF002C0ECF003C0EDF055EC2DF09B
:100D200005EC2FF000C0BEF001C0BFF0BEC000F067
:100D3000BFC001F0E5EC2FF0C8C004F0C9C005F059
:100D4000CAC006F0CBC007F0C9EC2CF000C004F01C
:100D500001C005F002C006F003C007F07FC000F03C
:100D600080C001F081C002F082C003F0FAEC2DF0E7
:100D7000C8C004F0C9C005F0CAC006F0CBC007F077
:100D80001EEC27F0046A056A066A3F0E076EFCEC4B
:100D90002DF0C0C004F0C1C005F0C2C006F0C3C051
:100DA00007F0FAEC2DF000C0EAF001C0EBF002C051
:100DB000ECF003C0EDF055EC2DF005EC2FF0000148
:100DC000BE510024BC6FBF510120BD6FBCC000F0FC
:100DD000BDC001F0E5EC2FF0C0C004F0C1C005F0CB
:100DE000C2C006F0C3C007F0FCEC2DF0C8C004F090
:100DF000C9C005F0CAC006F0CBC007F0C9EC2CF0A2
:100E000000C07BF001C07CF002C07DF003C07EF02A
:100E100012005BC004F05CC005F05DC006F05EC06F
:100E200007F073C000F074C001F075C002F076C026
:100E300003F0C9EC2CF000C083F001C084F002C0C4
:100E400085F003C086F05BC004F05CC005F05DC0B7
:100E500006F05EC007F07BC000F07CC001F07DC0F2
:100E600002F07EC003F0C9EC2CF000C08BF001C092
:100E70008CF002C08DF003C08EF08FC004F090C0E3
:100E800005F091C006F092C007F08BC000F08CC056
:100E900001F08DC002F08EC003F0FAEC2DF000C01E
:100EA000D9F001C0DAF002C0DBF003C0DCF023ECC3
:100EB0002EF000C0B9F001C0BAF002C0BBF003C010
:100EC000BCF083C0D9F084C0DAF085C0DBF086C006
:100ED000DCF023EC2EF000C0BDF001C0BEF002C07B
:100EE000BFF003C0C0F087C0D9F088C0DAF089C075
:100EF000DBF08AC0DCF023EC2EF0BDC004F0BEC0F5
:100F000005F0BFC006F0C0C007F0C9EC2CF0B9C0B6
:100F100004F0BAC005F0BBC006F0BCC007F0C9ECD5
:100F20002CF000C0C1F001C0C2F002C0C3F003C089
:100F3000C4F083C0DDF084C0DEF085C0DFF086C081
:100F4000E0F0A8EC00F000C0C5F001C0C6F002C09F
:100F5000C7F003C0C8F087C0DDF088C0DEF089C0EC
:100F6000DFF08AC0E0F0A8EC00F0C5C004F0C6C015
:100F700005F0C7C006F0C8C007F0C9EC2CF0C1C02E
:100F800004F0C2C005F0C3C006F0C4C007F0FCEC1A
:100F90002DF000C0C9F001C0CAF002C0CBF003C000
:100FA000CCF06AEC2FF0046A180E056EC70E066EC0
:100FB000450E076EC9EC2CF000C0B5F001C0B6F0CC
:100FC00002C0B7F003C0B8F0B5C004F0B6C005F079
:100FD000B7C006F0B8C007F0006A016A7A0E026E68
:100FE000440E036EC9EC2CF005EF2FF083C0D9F04E
:100FF00084C0DAF085C0DBF086C0DCF023EC2EF094
:1010000000C0BDF001C0BEF002C0BFF003C0C0F020
:101010008FC004F090C005F091C006F092C007F0B8
:101020008BC000F08CC001F08DC002F08EC003F0C8
:10103000FAEC2DF000C0DDF001C0DEF002C0DFF000
:1010400003C0E0F0A8EC00F0BDC004F0BEC005F0A5
:10105000BFC006F0C0C007F0C9EC2CF000C0D1F052
:1010600001C0D2F002C0D3F003C0D4F08FC004F0AE
:1010700090C005F091C006F092C007F08BC000F060
:101080008CC001F08DC002F08EC003F0FAEC2DF0A0
:1010900000C0D9F001C0DAF002C0DBF003C0DCF020
:1010A00023EC2EF000C0C1F001C0C2F002C0C3F0BA
:1010B00003C0C4F083C0D9F084C0DAF085C0DBF08F
:1010C00086C0DCF023EC2EF000C0C5F001C0C6F0F5
:1010D00002C0C7F003C0C8F087C0DDF088C0DEF0F2
:1010E00089C0DFF08AC0E0F0A8EC00F0C5C004F0D1
:1010F000C6C005F0C7C006F0C8C007F0C9EC2CF0A8
:10110000C1C004F0C2C005F0C3C006F0C4C007F0FF
:10111000C9EC2CF000C0C9F001C0CAF002C0CBF08D
:1011200003C0CCF083C0DDF084C0DEF085C0DFF00A
:1011300086C0E0F0A8EC00F000C0CDF001C0CEF019
:1011400002C0CFF003C0D0F087C0D9F088C0DAF079
:1011500089C0DBF08AC0DCF023EC2EF0CDC004F0B7
:10116000CEC005F0CFC006F0D0C007F0C9EC2CF01F
:10117000C9C004F0CAC005F0CBC006F0CCC007F06F
:10118000FAEC2DF000C0D5F001C0D6F002C0D7F0C7
:1011900003C0D8F08AEC2BF000C0B9F001C0BAF05F
:1011A00002C0BBF003C0BCF057C004F058C005F04B
:1011B00059C006F05AC007F0B90EE96E000EEA6E8B
:1011C00037EC30F0046A056AB40E066E430E076E03
:1011D000B90EE96E000EEA6E03EC30F0046A056A9F
:1011E000B40E066E430E076EB9C000F0BAC001F02F
:1011F000BBC002F0BCC003F04BEC2FF0D8A00CD069
:10120000046A056AB40E066E430E076EB90EE96EE7
:10121000000EEA6E01EC30F0B9C000F0BAC001F087
:10122000BBC002F0BCC003F01200E96E010EE16E1B
:10123000E950D96EE1CF01F0D9CF00F0012A02D0F8
:10124000D8900032012EFCD70050E96EE950D91A2F
:10125000020EE96001D004D0E150080AD8A402D0FF
:10126000D9501200D890E136E5D7B7009EAA0ED02B
:10127000B7C0E9FFB8C0EAFFAECFEFFFABB202D014
:10128000ABA402D0AB98AB88D8801200D8901200E3
:101290009EA8FED7AD6E9E981200D96E0A0ED96038
:1012A00002D0300E01D0370ED926D950F1D7E16ED9
:1012B000E1380F0BF2DFE1500F0BEFD7B000B0C0F9
:1012C000E1FFB1C0E2FFE750D8B41200E1CFE9FF7F
:1012D000E2CFEAFFE14AE22AEF50DADFF4D7B000CA
:1012E0000001B251006EB351016EB207000EB35B44
:1012F00001500010D8B41200FBEC01F00001B05115
:10130000A96EB04BB12B3F0EA616A680A850C0DF29
:10131000E7D7BB00D96A0001BB05BC11BD11BE11E6
:10132000D8A40FD01FD000EE9BF00001BB51EE5EA1
:10133000BC51EE5ABD51EE5ABE51ED5AED52ED522E
:10134000D92A00EE9EF00001BE51ED5C08E1BD51CE
:10135000ED5C05E1BC51ED5C02E1BB51EF5CD8A056
:1013600003D0E1D79BC0D9FFD950D8B403D0010E28
:10137000E8CF07F101010753D8A40ED0D950D8A463
:101380000BD00001BF05D8B434D10001BF51020A0F
:10139000D8A41200200E7CD7D950300F79D7E16E37
:1013A0000001E80EBB6F030EBC6FBD6BBE6BE1505E
:1013B000BF6FB0DF640E0001BB6FBC6BBD6BBE6B5B
:1013C000E150BF6FA7DF0A0E0001BB6FBC6BBD6BA6
:1013D000BE6BE150BF6F9EDF90D0F36E0001A00E98
:1013E000BB6F860EBC6F010EBD6FBE6BF350BF6F3F
:1013F00091DF0001100EBB6F270EBC6FBD6BBE6B83
:10140000F350BF6F87DFF350CAD7F46E0001BB6B98
:10141000CA0EBC6F9A0EBD6F3B0EBE6FF450BF6F0D
:1014200079DF0001BB6BE10EBC6FF50EBD6F050EE1
:10143000BE6FF450BF6F6EDF0001800EBB6F960E63
:10144000BC6F980EBD6FBE6BF450BF6F63DF0001C1
:10145000400EBB6F420EBC6F0F0EBD6FBE6BF450E3
:10146000BF6F58DFF450B9D7B000B0C09BF0B1C027
:101470009CF0B2C09DF0B3C09EF00101076B00016B
:10148000B351B011B111B211D8B4B3D00001B451FD
:1014900086D7B000B0C09BF0B1C09CF0B2C09DF048
:1014A000B3C09EF00101076B0001B351B011B1113F
:1014B000B211D8B49ED00001B4518FD7B000B0C0E3
:1014C0009BF0B1C09CF0B2C09DF0B3C09EF0010192
:1014D000076B0001B351B011B111B211D8B489D06A
:1014E0000001B45192D7E16E0A0E0001BB6FBC6BD4
:1014F000BD6BBE6BE150BF6F0DDF010E0001BB6F16
:10150000BC6BBD6BBE6BE150BF6F04D7B000000178
:10151000E8CF9BF09C6B9D6B9E6B0101076B0001FC
:10152000B051E1D7BA000001E8CF9BF09C6B9D6BF6
:101530009E6B0101076B640E0001BB6FBC6BBD6B42
:10154000BE6BBA51BF6FE6DE0001BA51CCD7C40002
:101550000001C551ACDE0001C451A9D6C000000194
:10156000C251A5DEC0C0C4F0C1C0C5F0F1D7B00003
:101570000001B3519CDEB0C0C0F0B1C0C1F0B2C038
:10158000C2F0B3C0C3F0EBD7B4000001B7AF0ED0C8
:101590002D0E7EDE046A056A800E066EBF0E076E93
:1015A000B40EE96E000EEA6E37EC30F0B4C000F015
:1015B000B5C001F0B6C002F0B7C003F005EC2FF0E3
:1015C00000500001B96FB951D8A403D0300E60DECD
:1015D00004D00001BA6BB951A6DF2E0E59DEB40E4D
:1015E000E96E000EEA6EEE50EE10EE10EE10D8A48A
:1015F00002D0300E4DD6D96A0001B851D95CD8B0AE
:101600001200B9C000F0C1EC2FF000C004F001C01E
:1016100005F002C006F003C007F0B40EE96E000E3C
:10162000EA6E01EC30F0046A056A200E066E410E87
:10163000076EB40EE96E000EEA6E37EC30F0B40EB1
:10164000E96E000EEA6EEE50EE10EE10EE10D8B419
:101650001200B4C000F0B5C001F0B6C002F0B7C0CF
:1016600003F005EC2FF000500001B96FB951300FB5
:101670000FDED92AC1D73B0E0BDE0D0E09DE99EF26
:1016800014F03CBA3DA423D053C000F054C001F084
:1016900055C002F056C003F0046A056A066A03509A
:1016A000076E0750041005100610D8A410D000EEE5
:1016B00063F000015351EE1808E15451EE1805E1B2
:1016C0005551EE1802E15651EE18D8A4120005C18A
:1016D000E8FF020AD8A423D0F36A07D0F3502D0FF5
:1016E000E96EEA6AEF50E3DDF32A1450D8A402D081
:1016F000070E01D00E0E006E016AF3CF02F0036AEE
:101700000350800A046E0150800A045C02E100501C
:10171000025CD8A0E3D70D0EBBDD99EF14F005C134
:10172000E8FF030AD8A422D02A0EB2DDF36A07D05C
:10173000F3502D0FE96EEA6AEF50B9DDF32A145029
:10174000D8A402D0070E01D00E0E006E016AF3CFAE
:1017500002F0036A0350800A046E0150800A045CA0
:1017600002E10050025CD8A0E3D785D705C1E8FFAD
:10177000040AD8A42FD0400E8BDD97C0B0F098C0DB
:10178000B1F099C0B2F09AC0B3F0F2DECF508FDD65
:1017900017508DDDF36A07D0F3502D0FE96EEA6A1A
:1017A000EF5085DDF32A1450D8A402D0070E01D0E3
:1017B0000E0E006E016AF3CF02F0036A0350800A36
:1017C000046E0150800A045C02E10050025CD8A063
:1017D000E3D751D705C1E8FF080AD8A420D0FF0EEF
:1017E00057DDD96AD9502D0FE96EEA6AEF5050DD06
:1017F000D92A060ED964F6D7070ED96E1450D8B47C
:1018000007D0D9502D0FE96EEA6AEF5041DD02D0C2
:10181000000E3EDDD92A0D0ED964F0D7120005C1A5
:10182000E8FF090AD8A424D02F0E32DDF36A07D0CE
:10183000F3502D0FE96EEA6AEF5039DDF32A1450A8
:10184000D8A402D0070E01D00E0E006E016AF3CFAD
:1018500002F0036A0350800A046E0150800A045C9F
:1018600002E10050025CD8A0E3D705DF3D803C9E3A
:1018700005C100F00004D8A408D001C1E8FF020AA5
:10188000D8A403D0010EE8CF01F101010153D8A47F
:1018900002D02D0EFDDC01C100F00004D8A402D05E
:1018A0002B0EF6DC01C1E8FF020AD8A402D02A0EF2
:1018B000EFDC3DB020D0F36A07D0F3502D0FE96E76
:1018C000EA6AEF50F4DCF32A1450D8A402D0070ED1
:1018D00001D00E0E006E016AF3CF02F0036A0350CE
:1018E000800A046E0150800A045C02E10050025C30
:1018F000D8B0C1D6E2D73CAE1FD0F36A07D0F350C0
:101900002D0FE96EEA6AEF50D2DCF32A1450D8A406
:1019100002D0070E01D00E0E006E016AF3CF02F066
:10192000036A0350800A046E0150800A045C02E1DD
:101930000050025CD8A0E3D72C0EAADC45C000F012
:1019400046C001F0000E01BEFF0E026E036E00C025
:10195000B0F001C0B1F002C0B2F003C0B3F00001BA
:10196000B46B83DD2C0E94DC010E0001B06F03C15B
:10197000E8FFCDDD2C0E8CDC3DA409D063C0C0F0A7
:1019800064C0C1F065C0C2F066C0C3F0E8DD2C0ED3
:101990007FDC01010853D8B406D00001080EB06FF7
:1019A000010EB16F8CDC2C0E73DC01010853D8B42E
:1019B00003D004C1E8FF6CDC2C0E6ADC3DAA06D023
:1019C0003CB202D0300E01D0310E62DC2C0E60DC55
:1019D0003CAC66D03DAA1CD06BC0B0F06CC0B1F07E
:1019E0006DC0B2F06EC0B3F000EEB4F06FC0EEFFA9
:1019F00070C0EEFF71C0EEFF72C0EEFF000E3CB48F
:101A0000010E0001B86F000E3CB2010E81EC05F032
:101A10003CA824D03DAA0DD009EC07F000C0B0F0DE
:101A200001C0B1F002C0B2F003C0B3F00001B46B6A
:101A300046DD2C0E2DDC3DAA0ED0F6EC07F000C0E2
:101A4000B4F001C0B5F002C0B6F003C0B7F0040EA8
:101A50000001B86F9ADD2C0E1BDC42D03DAA0CD0E1
:101A600073C0B4F074C0B5F075C0B6F076C0B7F00E
:101A7000060E0001B86F89DD2C0E0ADC3DAA0CD0E1
:101A80007BC0B4F07CC0B5F07DC0B6F07EC0B7F0CE
:101A9000060E0001B86F79DD2C0E48EC09F020D05D
:101AA0003DAA0BD06BC0B0F06CC0B1F06DC0B2F00D
:101AB0006EC0B3F00001B46BEDDC2C0E48EC09F005
:101AC0003DAA0BD06FC0B0F070C0B1F071C0B2F0E1
:101AD00072C0B3F00001B46BDDDC2C0E48EC09F0F1
:101AE0003DA620D03CA403D0400E48EC09F06AC0CB
:101AF000E8FFE8AE0CD02D0E48EC09F0FF0E0468AC
:101B000005680668076800EE67F023EC30F067C0F0
:101B1000B0F068C0B1F069C0B2F06AC0B3F00001C3
:101B2000B46BB8DC2C0E48EC09F03DAE05D047C0D4
:101B3000C4F048C0C5F00CDD2C0E48EC09F03EA402
:101B400028D04EC0E8FFE8AE10D02D0E48EC09F0CA
:101B5000FF0E026803684DC000F04EC001F0D7ECE4
:101B60002FF004C04DF005C04EF04DC000F04EC047
:101B700001F0000E01BEFF0E026E036E00C0B0F059
:101B800001C0B1F002C0B2F003C0B3F00001B46B09
:101B90006CDC2C0E48EC09F03DAC28D044C0E8FFCA
:101BA000E8AE10D02D0E48EC09F0FF0E0268036875
:101BB00043C000F044C001F0D7EC2FF004C043F064
:101BC00005C044F043C000F044C001F0000E01BE67
:101BD000FF0E026E036E00C0B0F001C0B1F002C093
:101BE000B2F003C0B3F00001B46B3FDC2C0E48EC44
:101BF00009F03EA228D04AC0E8FFE8AE10D02D0E72
:101C000048EC09F0FF0E0268036849C000F04AC0C2
:101C100001F0D7EC2FF004C049F005C04AF049C0EC
:101C200000F04AC001F0000E01BEFF0E026E036E0E
:101C300000C0B0F001C0B1F002C0B2F003C0B3F018
:101C40000001B46B12DC2C0E48EC09F03EA00CD065
:101C500093C0B4F094C0B5F095C0B6F096C0B7F09C
:101C6000050E0001B86F91DC2C0E48EC09F03DA880
:101C700002D5000E3DB8010E0001B06FB16BB26B22
:101C8000B36BB46B35EC0AF0F6D4D96E2F0ED96471
:101C900006D03A0ED96003D0D950D00F1200400EB2
:101CA000D96406D0470ED96003D0D950C90F1200AD
:101CB000600ED964000C670ED960000CD950A90FD2
:101CC0001200200E0001B06F4C0E48EC09F0610EBE
:101CD00048EC09F0740E48EC09F03A0E48EC09F0B3
:101CE0000001B16B0001B20EB76F000EB86F36EC99
:101CF00009F0D8A0F7D70001B25148EC09F0000173
:101D0000B251C3DF0001B36FB46BB56BB66B0001AA
:101D1000B20EB76F000EB86F36EC09F0D8A0F7D747
:101D20000001B25148EC09F0040EB3C000F0B4C099
:101D300001F0B5C002F0B6C003F00DEC30F00001C8
:101D4000B251A3DF00100001B36F0150B46F025015
:101D5000B56F0350B66FFBEC01F00001B051A96EF6
:101D6000B02BB351A86E3F0EA616D890F2BED88005
:101D7000F29EA684550EA76EAA0EA76EA682A19803
:101D8000A694D8B0F28EB12B030EB165ABD70D0E71
:101D900048EC09F00A0E48EC09F0240E0001B06F7F
:101DA0004C0E48EC09F06F0E48EC09F06E0E48EC52
:101DB00009F03A0E48EC09F00001B16B0001B20ED7
:101DC000B76F000EB86F36EC09F0D8A0F7D7000156
:101DD000B25148EC09F00001B25157DF0001B36F76
:101DE000B46BB56BB66B0001B20EB76F000EB86F77
:101DF00036EC09F0D8A0F7D70001B25148EC09F051
:101E0000040EB3C000F0B4C001F0B5C002F0B6C01B
:101E100003F00DEC30F00001B25137DF001000018B
:101E2000B36F0150B46F0250B56F0350B66FFBEC47
:101E300001F00001B051A96EB02BB351A86E3F0E56
:101E4000A616D890F2BED880F29EA684550EA76E34
:101E5000AA0EA76EA682A198A694D8B0F28EB12B36
:101E6000030EB165ABD70D0E48EC09F00A0E48EC35
:101E700009F040EF04F07C0E48EC09F0200E66EC0F
:101E800003F000C0B0F001C0B1F002C0B2F003C076
:101E9000B3F0B0C0B4F0B1C0B5F0B2C0B6F0B3C0EA
:101EA000B7F0060EB86FC5EC0AF02C0E48EC09F03E
:101EB000240E66EC03F000C0B0F001C0B1F002C027
:101EC000B2F003C0B3F0B0C0B4F0B1C0B5F0B2C06E
:101ED000B6F0B3C0B7F0060EB86FC5EC0AF03BEF32
:101EE0000BF00001536B546B556B566B0001B66BD6
:101EF00000EE53F0080ED890EE36EE36EE36ED36A4
:101F0000ED52ED52E82EF7D7FBEC01F00001B6518F
:101F1000280FA96E3F0EA616A680A85000EE53F01B
:101F2000EE12000EEE12EE12ED12ED52ED52B62B45
:101F3000030EB665DDD71200FBEC01F0280EA96E8A
:101F4000A8683F0EA616D890F2BED880F29EA6844E
:101F5000550EA76EAA0EA76EA682A198A694D8B019
:101F6000F28EBFD73E0E48EC09F053C000F054C0CB
:101F700001F055C002F056C003F0046A056A066A13
:101F80000350076E0750041005100610D8A43BEF4D
:101F90000BF053C0C0F054C0C1F055C0C2F056C0E1
:101FA000C3F0AFEC0AF03BEF0BF0430E48EC09F046
:101FB0006F0E48EC09F0640E48EC09F0650E48EC31
:101FC00009F03A0E48EC09F0FBEC01F0280EA96E7E
:101FD000A86A3F0EA616D890F2BED880F29EA684BC
:101FE000550EA76EAA0EA76EA682A198A694D8B089
:101FF000F28E010E0001B06F0001B10EB76F000E3E
:10200000B86F36EC09F0D8A0F7D70001B15148EC11
:1020100009F00001B15139DE0001B26FB36BB46B4E
:10202000B56B0001B10EB76F000EB86F36EC09F05A
:10203000D8A0F7D70001B15148EC09F0040EB2C0A6
:1020400000F0B3C001F0B4C002F0B5C003F00DEC75
:1020500030F00001B15119DE00100001B26F0150E3
:10206000B36F0250B46F0350B56FFBEC01F0000189
:10207000B051280FA96EB251A86E3F0EA616D89087
:10208000F2BED880F29EA684550EA76EAA0EA76E49
:10209000A682A198A694D8B0F28EB02B030EB0659C
:1020A000ABD70D0E48EC09F00A0E48EC09F019D731
:1020B0003D0E48EC09F00001B06BB16B180EB26F29
:1020C000B36B70EC09F03BEF0BF0240E48EC09F019
:1020D000430E48EC09F0520E48EC09F0430E48EC70
:1020E00009F03A0E48EC09F081B602D0300E01D06A
:1020F000310E48EC09F02C0E48EC09F0310E48EC9A
:1021000009F0310E48EC09F0320E48EC09F03A0EB5
:1021100048EC09F081B402D0300E01D0310E48EC09
:1021200009F02C0E48EC09F0450E48EC09F0580E69
:1021300048EC09F0540E48EC09F03A0E48EC09F06E
:102140003DB002D0300E01D0310E48EC09F02C0E1B
:1021500048EC09F0520E48EC09F0410E48EC09F049
:10216000570E48EC09F03A0E48EC09F03CBE02D09C
:10217000300E01D0310E48EC09F02C0E48EC09F07D
:10218000500E48EC09F04F0E48EC09F0530E48ECA5
:1021900009F03A0E48EC09F03CBC02D0300E01D0F8
:1021A000310E48EC09F02C0E48EC09F0440E48ECD6
:1021B00009F0530E48EC09F0540E48EC09F03A0EC1
:1021C00048EC09F03CB802D0300E01D0310E48EC9A
:1021D00009F02C0E48EC09F0460E48EC09F04C0EC4
:1021E00048EC09F0540E48EC09F03A0E48EC09F0BE
:1021F0003CBA02D0300E01D0310E48EC09F02C0E62
:1022000048EC09F0410E48EC09F04C0E48EC09F09E
:10221000520E48EC09F03A0E48EC09F03CB602D0F8
:10222000300E01D0310E48EC09F02C0E48EC09F0CC
:102230004D0E48EC09F0440E48EC09F0450E48EC10
:1022400009F03A0E48EC09F005C1E8FF300F48EC00
:1022500009F02C0E48EC09F0410E48EC09F0430E51
:1022600048EC09F0520E48EC09F03A0E48EC09F03F
:1022700000C1E8FF300F48EC09F03BEF0BF0230EF4
:1022800048EC09F021C0B0F022C0B1F023C0B2F098
:1022900024C0B3F0010E0001B46F5FEC0AF02C0E05
:1022A00048EC09F029C0B0F02AC0B1F02BC0B2F060
:1022B0002CC0B3F0010E0001B46F5FEC0AF02C0EDD
:1022C00048EC09F019C0B0F01AC0B1F01BC0B2F070
:1022D0001CC0B3F0010E0001B46F5FEC0AF02C0ECD
:1022E00048EC09F025C0B0F026C0B1F027C0B2F02C
:1022F00028C0B3F0010E0001B46F5FEC0AF02C0EA1
:1023000048EC09F01DC0B0F01EC0B1F01FC0B2F023
:1023100020C0B3F0010E0001B46F5FEC0AF02C0E88
:1023200048EC09F04BC0C4F04CC0C5F0A8EC0AF072
:102330003BEF0BF081A67CD0026A5E0E48EC09F000
:10234000010E0001BA6F025093EC0AF02C0E48EC1B
:1023500009F002500B0D110EF324E96E010EF4206A
:10236000EA6EEECFC0F0EECFC1F0EECFC2F0EECF0E
:10237000C3F0AFEC0AF02C0E48EC09F002500B0D44
:10238000170EF324E96E010EF420EA6EEECFF6FF8D
:10239000EDCFF7FFF628D8B4F728D8B406D0F6CF9B
:1023A000C4F0F7CFC5F0A8EC0AF02C0E48EC09F009
:1023B000010E0001B06F02500B0D1B0EF324E96EED
:1023C000010EF420EA6EEF5087EC0AF02C0E48EC78
:1023D00009F002500B0D190EF324E96E010EF420E2
:1023E000EA6EEECF00F0EDCF01F000500001B06FCB
:1023F0000150B16FB26BB36B010EB46F4AEC0AF0CF
:102400002C0E48EC09F002500B0D150EF324E96E6A
:10241000010EF420EA6EEECFC4F0EDCFC5F0A8ECCB
:102420000AF03BEC0BF0022A410E026486D7120040
:102430005E0E48EC09F03BEF0BF03C0E48EC09F067
:1024400063C0C0F064C0C1F065C0C2F066C0C3F034
:10245000AFEC0AF03BEF0BF0B800E96E210E48EC50
:1024600009F063C0C0F064C0C1F065C0C2F066C0CE
:10247000C3F0AFEC0AF02C0E48EC09F0E95048EC40
:1024800009F02C0E48EC09F00001B85148EC09F0B5
:102490003BEF0BF0D96AD9500B0D150EF324E96E02
:1024A000010EF420EA6EEE6AED6AD9500B0D110EA2
:1024B000F324E96E010EF420EA6EEE6AEE6AEE6A2B
:1024C000ED6AD9500B0D170EF324E96E010EF420BE
:1024D000EA6EEE68ED68D9500B0D1B0EF324E96E21
:1024E000010EF420EA6EEF6AD9500B0D190EF32499
:1024F000E96E010EF420EA6EEE6AED6AD92A410E09
:10250000D964C9D712000001C06FD96A00EE63F028
:10251000D9500B0D110EF324E16E010EF420E26E82
:10252000E650EE1808E1E650EE1805E1E650EE1828
:1025300002E1E650EE18D8A41ED0C0C000F0016A37
:10254000026A036AD9500B0D110EF324E96E010ED5
:10255000F420EA6EEE52EE52EE520350ED5C08E1CA
:102560000250ED5C05E10150ED5C02E10050EF5CD2
:10257000D8B0010C000CD92A410ED964C7D7000C81
:10258000016E0268D96A0228D8A40DD0D9500B0D6B
:102590001B0EF324E96E010EF420EA6EEF50D8A46E
:1025A00002D0D950026E00EE63F0D9500B0D110E1F
:1025B000F324E16E010EF420E26EE650EE1808E11D
:1025C000E650EE1805E1E650EE1802E1E650EE188E
:1025D000D8A438D0D9500B0D1B0EF324E96E010E90
:1025E000F420EA6EEF50006E0150005CD8B00AD0C3
:1025F000D9500B0D1B0EF324E96E010EF420EA6E88
:1026000001C0EFFFD60E4BC000F04CC001F0002619
:10261000000E0122D9500B0D150EF324E96E010EA8
:10262000F420EA6E00C0EEFF01C0EDFFD9500B0DA3
:10263000190EF324E96E010EF420EA6EEE2A000E64
:10264000ED22010CD92A410ED9649DD70228D8B4B5
:10265000000C0104D8B4000C02500B0D110EF32431
:10266000E96E010EF420EA6E63C0EEFF64C0EEFF77
:1026700065C0EEFF66C0EEFF02500B0D170EF3248F
:10268000E96E010EF420EA6EEE68ED6802500B0D63
:102690001B0EF324E96E010EF420EA6E01C0EFFF79
:1026A000D60E4BC000F04CC001F00026000E0122F7
:1026B00002500B0D150EF324E96E010EF420EA6EA4
:1026C00000C0EEFF01C0EDFFD9500B0D190EF32431
:1026D000E96E010EF420EA6E010EEE6EED6A000C5A
:1026E000D96A00EE63F0D9500B0D110EF324E16EA0
:1026F000010EF420E26EE650EE1808E1E650EE1806
:1027000005E1E650EE1802E1E650EE18D8A40DD02F
:10271000D9500B0D170EF324E96E010EF420EA6E6A
:1027200047C0EEFF48C0EDFF010CD92A410ED96425
:10273000D8D7000C490E48EC09F0320E48EC09F0ED
:10274000430E48EC09F03A0E48EC09F00001B20ED5
:10275000B76F000EB86F36EC09F0D8A0F7D70001BC
:10276000B25148EC09F00001B25145EC0EF0000105
:10277000B16F0001B20EB76F000EB86F36EC09F002
:10278000D8A0F7D70001B25148EC09F00001B251CE
:1027900045EC0EF0016EB1C000F0003AF00E0016EC
:1027A000015000100001B16F100EB16501D0120090
:1027B000FBEC01F06E0EA96E0001B151A86E3F0E48
:1027C000A616D890F2BED880F29EA684550EA76EAB
:1027D000AA0EA76EA682A198A694D8B0F28EB15187
:1027E000D8B45AD0B06B54D00001B20EB76F000EFF
:1027F000B86F36EC09F0D8A0F7D70001B25148EC19
:1028000009F00001B25145EC0EF00001B36FB46B5A
:10281000B56BB66B0001B20EB76F000EB86F36EC39
:1028200009F0D8A0F7D70001B25148EC09F0040E26
:10283000B3C000F0B4C001F0B5C002F0B6C003F000
:102840000DEC30F00001B25145EC0EF0001000012B
:10285000B36F0150B46F0250B56F0350B66FFBEC0D
:1028600001F00001B0516F0FA96EB351A86E3F0E79
:10287000A616D890F2BED880F29EA684550EA76EFA
:10288000AA0EA76EA682A198A694D8B0F28EB02BFD
:102890000001B051B161A8D70D0E48EC09F049D044
:1028A000490E48EC09F0320E48EC09F0430E48ECB2
:1028B00009F03A0E48EC09F0FBEC01F06E0EA96E3F
:1028C0003F0EA616A680A8500001B06FB051D8A444
:1028D00007D04E0E48EC09F04F0E48EC09F026D018
:1028E000400E48EC09F0FBEC01F06F0EA96E3F0EB4
:1028F000A616A680A85057EC09F07C0E48EC09F00B
:10290000010E0001B16F0ED0FBEC01F00001B151DE
:102910006F0FA96E3F0EA616A680A85057EC09F0BF
:102920000001B12B0001B151B061EED70D0E48ECA2
:1029300009F00A0E48EF09F0B0000001B26FFBEC9D
:1029400001F00001B151A96E3F0EA616A680A85055
:10295000B16FB151D8A402D0D8801200100E00017E
:10296000B16502D0D88012003D0E48EC09F0490E46
:1029700048EC09F0320E48EC09F0430E48EC09F03F
:10298000200E48EC09F09E96C580F368F46803D0E9
:10299000F306D8A0F406F450C5A004D0F310D8A4D0
:1029A000F7D7F450F310D8B479D0FBEC01F0000164
:1029B000B251A96E3F0EA616A680A850E96E400E31
:1029C00048EC09F0E95057EC09F09E96E950C96EC1
:1029D000F368F46803D0F306D8A0F406F450C7A453
:1029E00004D0F310D8A4F7D7F450F310D8B456D0CD
:1029F000F368F46803D0F306D8A0F406F450C5AC2D
:102A000004D0F310D8A4F7D7F450F310D8B446D0BC
:102A10007C0E48EC09F00001B151D8B434D09E9638
:102A2000FBEC01F00001B051A96EB02B3F0EA616D1
:102A3000A680A850E96EE95057EC09F0E950C96E3C
:102A4000F368F46803D0F306D8A0F406F450C7A4E2
:102A500004D0F310D8A4F7D7F450F310D8B41ED094
:102A6000F368F46803D0F306D8A0F406F450C5ACBC
:102A700004D0F310D8A4F7D7F450F310D8B40ED084
:102A80000001B107C8D7D96A3A0E48EC09F04F0ED9
:102A900048EC09F04B0E48EC09F00BD0010ED96E52
:102AA0003A0E48EC09F04B0E48EC09F04F0E48EC9A
:102AB00009F00D0E48EC09F00A0E48EC09F0C58447
:102AC000F368F46803D0F306D8A0F406C5B4FBD7C6
:102AD000F450F310D8A4F7D79E96D9CF00F0003069
:102AE0001200B800F36AF46A0001BC6BBD6BB9B7A1
:102AF000F384B9B5BC8BB9B3F382B9B1BC89B8BFA3
:102B0000F380B8BDBC87B8BBBC85B8B7BC83B8B5CB
:102B1000BC8FB8B3BC81B8B1BC8DBCC000F0BDC027
:102B200001F0040E026ED89001320032022EFBD763
:102B300000010050BC1B0150BD1BBCC000F0BDC05B
:102B400001F0D89001320032D890013200320050AA
:102B5000BC1B0150BD1BD890BD31016EBC31006E55
:102B60000050BC1B0150BD1BFF0EF324026EFF0E74
:102B7000F420036EBCA104D0060E0226000E032230
:102B8000D8900234006E0334016E0050000FF66ED0
:102B90000150F76E040EF7220900F5CFBAF00900D4
:102BA000F5CFBBF0050E026E036ABCC000F0BDC0DD
:102BB00001F0D7EC2FF00001BA510426BB510522D9
:102BC000FF0E0424BC6FFF0E0520BD6FBCC000F0DB
:102BD000BDC001F01200C000800E006E040E016E38
:102BE000FA0E026E0368D96A0001C3AF08D0005024
:102BF000C01B0150C11B0250C21B0350C31B00016C
:102C0000D890C037C137C237C337D92A1F0ED9640D
:102C1000EBD7C0C000F0C1C001F0C2C002F0C3C019
:102C200003F01200C0000001800ECC6F040ECD6FC7
:102C3000FA0ECE6FCF69D96A0001C3AF08D0CC516C
:102C4000C01BCD51C11BCE51C21BCF51C31B1F0E88
:102C5000C4C000F0C5C001F0C6C002F0C7C003F098
:102C600018EC30F0010E0014046E056A066A076A5B
:102C70000001D890C035006EC135016EC235026EBC
:102C8000C335036E00500424C06F01500520C16F8E
:102C900002500620C26F03500720C36F1F0EC8C02A
:102CA00000F0C9C001F0CAC002F0CBC003F018ECBC
:102CB00030F0010E0014046E056A066A076AD890A7
:102CC000C435006EC535016EC635026EC735036E5C
:102CD00000500424C46F01500520C56F0250062027
:102CE000C66F03500720C76FD890C837C937CA3797
:102CF000CB37D92A570ED9649FD7C0C000F0C1C0C6
:102D000001F0C2C002F0C3C003F012000101016B68
:102D1000B80EE16E000EE26E30C0E6FF2FC0E6FF97
:102D20002EC0E6FF2DC0E6FFB6D0BC0EE16E000E51
:102D3000E26EE1CFE9FFE2CFEAFFE14AE22AEF6A81
:102D400033C0E6FF32C0E6FF31C0E6FFB8C0C0F0D6
:102D5000B9C0C1F0BAC0C2F0BBC0C3F03DDF0001D2
:102D60000050BC1B0150BD1B0250BE1B0350BF1BBB
:102D7000BDC0BCF0BEC0BDF0BFC0BEF0BF6B070E93
:102D8000006ED890BF33BE33BD33BC33002EF9D7AD
:102D9000BF51BC11BD11BE11010ED8A405D0E8CFA2
:102DA00001F1020EC0EF12F01926000E1A221B22AA
:102DB0001C221200B00EE16E000EE26E34C0E6FF7F
:102DC00033C0E6FF32C0E6FF31C0E6FFB40EE16E6D
:102DD000000EE26EE1CFE9FFE2CFEAFFE14AE22A2C
:102DE000EF6A37C0E6FF36C0E6FF35C0E6FFBC0E2F
:102DF000E16E000EE26EE1CFE9FFE2CFEAFFE14AC9
:102E0000E22AEF6A3AC0E6FF39C0E6FF38C0E6FFC3
:102E1000B8C0C0F0B9C0C1F0BAC0C2F0BBC0C3F006
:102E2000B0C0C4F0B1C0C5F0B2C0C6F0B3C0C7F006
:102E3000B4C0C8F0B5C0C9F0B6C0CAF0B7C0CBF0D6
:102E4000F2DE00010050BC1B0150BD1B0250BE1B36
:102E50000350BF1BBF51BC11BD11BE11010ED8A440
:102E600005D0E8CF01F1030EC0EF12F01926000ED5
:102E70001A221B221C221200010E83EC12F0000900
:102E8000D8B405D0010EE8CF01F1C0EF12F0020E68
:102E9000E8CF01F1120003C1E8FF0B0A01E145D7B9
:102EA0001A0A88E0030A86E0010AE6E0E5D73D94C5
:102EB000BC0EE16E000EE26E30C0E6FF2FC0E6FFF2
:102EC0002EC0E6FF2DC0E6FFC0D01AD10001BCC065
:102ED00063F0BDC064F0BEC065F0000EE8CF66F0E0
:102EE0002BD01AD03138E8461F0BD96E000ED964AA
:102EF00004D0050ED96001D00FD0D950130AD8A440
:102F000003D032BEFDD008D0040ED96407D0090E1C
:102F1000D96004D033B6F4D03D84F2D0080ED96421
:102F2000EFD0170ED960ECD031B0EAD0F5D731BE72
:102F3000E7D0F2D7E5D0F0D702C1E8FF000AD1E030
:102F4000010ACFE0030ACEE0010AF1E0070AF2E04D
:102F5000010AF1E0030AEFE0D3D00001BCC063F046
:102F6000BDC064F0BEC065F0000EBF15E8CF66F0CE
:102F7000D3D7B00EE16E000EE26E34C0E6FF33C070
:102F8000E6FF32C0E6FF31C0E6FFB40EE16E000E90
:102F9000E26EE1CFE9FFE2CFEAFFE14AE22AEF6A1F
:102FA00037C0E6FF36C0E6FF35C0E6FFB80EE16E7B
:102FB000000EE26EE1CFE9FFE2CFEAFFE14AE22A4A
:102FC000EF6A3AC0E6FF39C0E6FF38C0E6FFBCC092
:102FD000C0F0BDC0C1F0BEC0C2F0BFC0C3F0B0C041
:102FE000C4F0B1C0C5F0B2C0C6F0B3C0C7F0B4C041
:102FF000C8F0B5C0C9F0B6C0CAF0B7C0CBF013DE98
:1030000000C063F001C064F002C065F003C066F068
:1030100000EE63F00001B851EE1AB951EE1ABA5140
:10302000EE1ABB51ED1AED52ED5200EE63F0080EB0
:10303000EC52EC52EC52D890ED32ED32ED32EF32F0
:10304000E82EF6D769D73D841FD003C1E8FF000AF8
:10305000FAE0040AF8E0010AF6E00E0A01E17DD781
:103060001B0A87E0010A01E178D7030A01E12ED7A4
:10307000010A01E12AD7070A01E17BD7010A01E130
:1030800078D70D0A01E175D7B80EE16E000EE26E39
:10309000E1CFE9FFE2CFEAFFE14AE22AEF6A33C07B
:1030A000E6FF32C0E6FF31C0E6FFBCC0C0F0BDC0E5
:1030B000C1F0BEC0C2F0BFC0C3F08EDD00C063F07F
:1030C00001C064F002C065F003C066F000EE63F07A
:1030D0000001B851EE1AB951EE1ABA51EE1ABB51AD
:1030E000ED1AED52ED5200EE63F0080EEC52EC5288
:1030F000EC52D890ED32ED32ED32EF32E82EF6D7C9
:103100003DB43CA6120000EE63F000015351EE18EE
:1031100008E15451EE1805E15551EE1802E15651FF
:10312000EE18D8A4120080981DEC12F080881200CE
:10313000D96E000ED96406D01B0ED96003D0D950C9
:10314000400F12002F0ED964200C3A0ED960200CCB
:10315000D95012000101086B0101046B3C943E94AC
:103160003D9C3E923E903D983D9A3D963D9E17EF88
:103170001DF002D00ED0120002C1E8FF000AFAE0F2
:10318000010AF8E0030AF6E0010AF5E0050AF2E0B8
:1031900012003138E8461F0BD96E34D3440E05D0E7
:1031A000430E03D0420E01D0410EE8CF04F1F46A81
:1031B000F36A036A6DD0F32AF30411EE08F0E126F6
:1031C000000EE222F450320FE96EEA6AEF50006E10
:1031D000D8900032D89000303F0BAADFE76EF32A78
:1031E000F30411EE08F0E126000EE222F450330F52
:1031F000E96EEA6AEF50016E013A0F0E01160116F0
:10320000F450320FE96EEA6AEF50006E003AF00EA9
:103210000016300E0016015000108ADFE76EF32A08
:10322000F30411EE08F0E126000EE222F450340F10
:10323000E96EEA6AEF50016E060E006ED890013218
:10324000002EFCD7030E0116F450330FE96EEA6A24
:10325000EF50006E020E026ED8900036022EFCD7A0
:103260003C0E00160150001063DFE76EF32AF304F2
:1032700011EE08F0E126000EE222F450340FE96E60
:10328000EA6AEF503F0B54DFE76E030EF426032A81
:10329000010E036490D7F32AF30401EE08F0E92647
:1032A000000EEA22EF6A12003C843D867DD0325047
:1032B0000001B26FB36BB2C000F0B3C001F0003ACE
:1032C000013AF00E011600500F0B0112F00E00161D
:1032D00033380F0B0010B26F0150B36FB351B211FE
:1032E000D8B45FD0B2A92DD00F0EB2C000F0B3C0D9
:1032F00001F00016016AD890B331036EB231026E4C
:10330000F00BF66E0350F76E0050F610B26F0150DE
:10331000F710B36F190E026E036AB2C000F0B3C0AB
:1033200001F0D7EC2FF0180E0424E8CF67F0FC0E64
:103330000520E8CF68F0000EE8CF69F0E8CF6AF02A
:103340002FD0B2C0B8F0B3C0B9F072EC15F000C025
:10335000B0F001C0B1F00001B151B011D8B421D02A
:10336000640E046E056A066A076AB0C000F0B1C058
:1033700001F0000E01BEFF0E026E036E66EC2EF031
:1033800000C067F001C068F002C069F003C06AF0D5
:103390000001B40E6727FB0E6823FF0E69236A2322
:1033A0003D86D950D8B4120033C000F0020E016E31
:1033B000D8900032012EFCD700303C92D8B03C822D
:1033C00033C000F0030E0016000100C06BF06C6B00
:1033D0006D6B6E6B080E6BC000F06CC001F06DC0C1
:1033E00002F06EC003F00DEC30F034C004F0056A5A
:1033F000066A076A04500010E8CF6BF00550011010
:10340000E8CF6CF006500210E8CF6DF007500310C3
:10341000E8CF6EF0070E6BC000F06CC001F06DC01D
:1034200002F06EC003F00DEC30F000C0B4F001C04B
:10343000B5F002C0B6F003C0B7F035C000F0010E21
:10344000016ED8900032012EFCD700C004F0056A4E
:10345000066A076A00010450B411E8CF6BF005500A
:10346000B511E8CF6CF00650B611E8CF6DF00750FB
:10347000B711E8CF6EF035C000F0010E0016000164
:1034800000C06FF0706B716B726B080E6FC000F054
:1034900070C001F071C002F072C003F00DEC30F0AA
:1034A00036C004F0056A066A076A04500010E8CFC7
:1034B0006FF005500110E8CF70F006500210E8CF11
:1034C00071F007500310E8CF72F0080E6FC000F0E3
:1034D00070C001F071C002F072C003F00DEC30F06A
:1034E00037C004F0056A066A076A04500010E8CF86
:1034F0006FF005500110E8CF70F006500210E8CFD1
:1035000071F007500310E8CF72F03D8A12000001FD
:10351000436B446B496B4A6B936B946B956B966BE7
:10352000416B426B040ED96EF6D0010ED96E32C0DB
:1035300000F0030E0016000100C043F0446B33C0DE
:1035400002F0036A4351016E006A02500010E8CF96
:1035500043F003500110E8CF44F043514411D8B474
:1035600021D0D9CF02F0036A43C000F044C001F07B
:10357000FF0E00060120016ED7EC2FF004C043F0CF
:1035800005C044F032A40DD0FF0E0268036843C0AA
:1035900000F044C001F0D7EC2FF004C043F005C0A8
:1035A00044F03D8C34C000F07F0E0016000100C0D6
:1035B00049F04A6B35C000F0050E016ED89000321C
:1035C000012EFCD700C002F0036A49C000F04AC0D7
:1035D00001F0D89000360136D89000360136D890E8
:1035E0000036013602500010E8CF49F003500110B8
:1035F000E8CF4AF049514A11D8B4A3D0D9CF02F04C
:10360000036A49C000F04AC001F0FF0E0006012025
:10361000016ED7EC2FF004C049F005C04AF034AE7B
:103620000DD0FF0E0268036849C000F04AC001F0E7
:10363000D7EC2FF004C049F005C04AF03E8281D09B
:10364000010ED96E3E903EA027D03250030BF66E8D
:10365000F76AF650F76E33C0E8FFF66EF6CF00F06B
:10366000F7CF01F0EEEC2FF0046A056AB40E066E97
:10367000430E076EC9EC2CF0046A056A800E066ED4
:10368000440E076E1EEC27F000C093F001C094F0CA
:1036900002C095F003C096F034C000F07F0E001613
:1036A000000100C041F0426B35C000F0050E016E14
:1036B000D8900032012EFCD700C002F0036A41C04E
:1036C00000F042C001F0D89000360136D8900036A4
:1036D0000136D8900036013602500010E8CF41F094
:1036E00003500110E8CF42F041514211D8B429D023
:1036F000D9CF02F0036A41C000F042C001F0FF0ED2
:1037000000060120016ED7EC2FF004C041F005C087
:1037100042F03D8816D031C000F0070E001600C000
:1037200002F0036A0CD00250010A01E1FED6030A3E
:1037300001E1FDD6010A84E0070A84E002D00350CB
:10374000F2E035C000F0070E0016000100C04DF099
:103750004E6B36C000F0020E016ED8900032012E82
:10376000FCD700C002F0036A4DC000F04EC001F06B
:10377000060ED89000360136E82EFBD70250001016
:10378000E8CF4DF003500110E8CF4EF04D514E11EF
:10379000D8B412004DC000F04EC001F0060ED89013
:1037A00000360136E82EFBD7C00E0024E8CF4DF0DE
:1037B000FF0E0120E8CF4EF035A60DD0FF0E0268B7
:1037C00003684DC000F04EC001F0D7EC2FF004C0EC
:1037D0004DF005C04EF03E84120031C000F0070EDF
:1037E00000160004D8A412003238E842070B300F4C
:1037F000D96E8098D9500001B86F4D0E2DEC12F0A3
:1038000080881200D950000F10E6E30F0EE71D0F5D
:10381000020D080EF324F66E050EF420F76E090073
:10382000F5500900F5CFFAFFF96E12002F501F0B6B
:103830000001B26FB36BB251B36F30C0B2F0B211CE
:10384000D8B41200400EB215F36EF46A3F0EB2C047
:1038500000F0B3C001F00016016AD890B331036ED6
:10386000B231026EC00BF66E0350F76E0050F610C8
:10387000B26F0150F710B36FF450F310D8A41200D8
:10388000B2A92ED00F0EB2C000F0B3C001F00016E6
:10389000016AD890B331036EB231026EF00BF66E4E
:1038A0000350F76E0050F610B26F0150F710B36F6F
:1038B000190E026E036AB2C000F0B3C001F0D7EC7B
:1038C0002FF0180E0424E8CF67F0FC0E0520E8CF97
:1038D00068F0000EE8CF69F0E8CF6AF03D8612008C
:1038E000B2C0B8F0B3C0B9F072EC15F000C0B0F0DF
:1038F00001C0B1F00001B151B011D8B41200640E92
:10390000046E056A066A076AB0C000F0B1C001F033
:10391000000E01BEFF0E026E036E66EC2EF000C0BC
:1039200067F001C068F002C069F003C06AF00001EE
:10393000B40E6727FB0E6823FF0E69236A233D86BA
:1039400012002F501F0BF36EF46AF350F46E30C068
:10395000F3FFF450F310D8B412000001476B486B2A
:10396000F4A802D0100E4713F4A603D00001100EE5
:103970004813F4A403D00001200E4713F4A203D08F
:103980000001200E4813F4A003D00001400E47139D
:10399000F3AE03D00001400E4813F3AA03D0000198
:1039A000010E4813F3A803D00001010E4713F3A63C
:1039B00003D00001020E4813F3A403D00001020E4D
:1039C0004713F3A203D00001040E4813F3A003D061
:1039D0000001040E471370EC13F011D0310E05D026
:1039E000340E03D0350E01D0380ED96E8098D950E0
:1039F0000001B86F530E2DEC12F0808816D047C02E
:103A000002F048C003F00CD002504C0AEBE0FC0A74
:103A1000E7E00BD00250140AE1E0750AE5E005D0BA
:103A200003501D0AF1E0030AF5E03D8E120003C1C8
:103A3000E8FF000A01E1FAD6040A01E1F7D6010A1B
:103A400080E0150A01E1F2D6010A02E1C9EF18F09F
:103A5000030A02E1B9EF18F0060A01E1E7D6010A0C
:103A600001E16FD71200FBEC01F0180EA96E3F0EBA
:103A7000A616A680A8A002D03D8001D03D90FBEC08
:103A800001F0180EA96E3F0EA616A680A8A202D0BD
:103A90003C8E01D03C9EFBEC01F0180EA96E3F0E4F
:103AA000A616A680A8A402D03C8601D03C96FBECCA
:103AB00001F0180EA96E3F0EA616A680A8A602D089
:103AC0003C8A01D03C9AFBEC01F0180EA96E3F0E27
:103AD000A616A680A8A802D03C8C01D03C9CFBEC8A
:103AE00001F0180EA96E3F0EA616A680A8AA02D055
:103AF0003C8801D03C98FBEC01F0190EA96E3F0EFA
:103B0000A616A680A8CF05F11200FBEC01F0190E55
:103B1000A96E05C1A8FF3F0EA616D890F2BED880A8
:103B2000F29EA684550EA76EAA0EA76EA682A19835
:103B3000A694D8B0F28E12000001B06B3DB0B081F7
:103B40003CAE02D00001B0833CA602D00001B0859B
:103B50003CAA02D00001B0873CAC02D00001B08981
:103B60003CA802D00001B08BFBEC01F0180EA96E4E
:103B70000001B051A86E3F0EA616D890F2BED880B4
:103B8000F29EA684550EA76EAA0EA76EA682A198D5
:103B9000A694D8B0F28E1200B86AAF6EAE6AAE6A62
:103BA000AE6A1200FBEC01F01A0EA96E3F0EA616CB
:103BB000A680A850F1D7FBEC01F01B0EA96E3F0EBA
:103BC000A616A680A850C86E280EC66EC56A9E9618
:103BD000A1961200E8CFF2F3E9CFF1F3EACFF0F3C8
:103BE000D9CFEFF3DACFEEF304C0EDF303C0ECF37B
:103BF00002C0EBF301C0EAF300C0E9F3F4CFE8F34D
:103C0000F3CFE7F39EB09DA007D09E900001972BC5
:103C1000000E982399239A23F2B4F2AA72D0F29458
:103C200000014B2B000E4C2381A66BD00F0E4BC016
:103C300000F04CC001F00016016A01500010D8A439
:103C400060D006C1D9FF40D0D9500B0D110EF3241E
:103C5000E8CF51F0010EF420E8CF52F0000100EE61
:103C600004F05151E9265251EA22EECF02F0EDCF95
:103C700003F04BC000F04CC001F00350015C02E1C6
:103C80000250005CD8A01FD000EE04F05151E9268C
:103C90005251EA22EE6AED6A51C0E9FF52C0EAFFD2
:103CA000EE6AEE6AEE6AED6A00EE08F05151E9261E
:103CB0005251EA22EE6AED6A00EE0AF05151E9260D
:103CC0005251EA22EF6AD92A100E06C102F0036AA5
:103CD0000226000E0322D9CF00F0016A0150800AAB
:103CE000046E0350800A045C02E10250005C410E45
:103CF000D8B002D0D964A8D7D96401D0D96AD9CFB5
:103D000006F1E7C3F3FFE8C3F4FFE9C300F0EAC339
:103D100001F0EBC302F0ECC303F0EDC304F0EEC31B
:103D2000DAFFEFC3D9FFF0C3EAFFF1C3E9FFF2C343
:103D3000E8FF3BC0E0FFF3C3D8FF1000D06A9D6AE4
:103D4000F06AF16AC00EF26E896A80880F0E926E78
:103D50008A6AFC0E936E8B6AC10E946E010EC26E5F
:103D60000E0EC16EBE0EC06E010EE8CF00F1FBEC70
:103D700001F0090EA96E3F0EA616A680A850420AB1
:103D8000D8A460D0FBEC01F00A0EA96E3F0EA61677
:103D9000A680000EA6B0010E006E016AA8502E0A81
:103DA000D8A450D0FBEC01F00B0EA96E3F0EA61666
:103DB000A680000EA6B0010E006E016AA850560A39
:103DC000D8A440D0FBEC01F00C0EA96E3F0EA61655
:103DD000A680000EA6B0010E006E016AA850450A2A
:103DE000D8A430D0FBEC01F00D0EA96E3F0EA61644
:103DF000A680000EA6B0010E006E016AA8504C0A03
:103E0000D8A420D0FBEC01F00E0EA96E3F0EA61632
:103E1000A680000EA6B0010E006E016AA8504C0AE2
:103E2000D8A410D0FBEC01F00F0EA96E3F0EA61621
:103E3000A680000EA6B0010E006E016AA850450AC9
:103E4000D8B402D00101006B800EC76EB4DE80983A
:103E5000240EAC6E900EAB6E81A803D0190E9CDEC2
:103E600002D0020E99DE80883C903D82FCDD03EC9E
:103E700027F04AEC12F071EC0FF0809840EC04F05F
:103E80008088809858EC10F08088700E0001B06F28
:103E90006E0EB16F6F0E9DEC14F080A240D0040E38
:103EA000E8CF05F132DE520E48EC09F0590E48EC2D
:103EB00009F0520E48EC09F0590E48EC09F00D0ECD
:103EC00048EC09F00A0E48EC09F00001AF0EB76F9C
:103ED000000EB86F36EC09F0D8A0F7D70001AF514B
:103EE0003F0AD8A403D058EC10F00AD01F0E0001EE
:103EF000AF6506D0800EAF6103D0AF5148EC09F03A
:103F00008098FA0E0001AF6F80880001AF07AF29DB
:103F1000D8B4C3D7640E186E18EC27F0F6D7810E0C
:103F2000CD6E9E90CE6ACF6A05C1E8FF040AD8A480
:103F300002D09D8001D09D90870ED56E000EE8CFF7
:103F400006F1000106C14BF04C6B4BC0D6FF4CC0D4
:103F5000D7FF808830EC21F082A487D01450D8B4E9
:103F600005D0252A000E26222722282205C1E8FF97
:103F7000020AD8B40FD005C1E8FF030AD8B40AD0AA
:103F800005C1E8FF080AD8B405D005C1E8FF040A56
:103F9000D8A404D0020EE8CF01F148D0000EC2B27E
:103FA000010E006EC2500014D8A404D0C3CF45F057
:103FB000C4CF46F02D38E8461F0BE8CF03F12D5053
:103FC000070BE8CF02F157EC17F081A603D086EC7F
:103FD00016F003D0020EE8CF01F13CBA3DA423D085
:103FE00053C000F054C001F055C002F056C003F0B9
:103FF000046A056A066A0350076E0750041005102C
:104000000610D8A410D000EE63F000015351EE1852
:1040100008E15451EE1805E15551EE1802E15651F0
:10402000EE18D8A497D73DB0AAEC18F03DA217D04F
:1040300080A203D03FEC11F017D081A405D081A459
:1040400013D01450D8B410D081A606D081A60CD0BD
:1040500001010153D8B408D041EC0BF005D01D2A62
:10406000000E1E221F22202282940001AF0EB76F85
:10407000000EB86F36EC09F0D8B07AD0D1D03D82BE
:10408000CFD03D92CDD058EC10F0CAD065EC10F0F6
:10409000C7D054D661EC0EF0C3D03BEC0FF0C0D0CB
:1040A00003EC27F0BDD03FEC11F0BAD04AEC12F08F
:1040B000B7D09AEC11F0B4D09CEC0FF0B1D0D5ECA5
:1040C0000FF0AED0B2EC0FF0ABD0B2EC0FF0A8D046
:1040D0003C9632DDA5D03C862FDDA2D03C9A2CDD6B
:1040E0009FD03C8A29DD9CD03D9026DD99D03D8033
:1040F00023DD96D03C9E20DD93D03C8E1DDD90D0FC
:104100003C9C1ADD8DD03C8C17DD8AD03C9814DDA8
:1041100087D03C8811DD84D09AEC13F081D050EC2C
:1041200014F07ED00101056BF0DC20D0010EE8CF49
:1041300005F1EBDC1BD0020EE8CF05F1E6DC16D072
:10414000030EE8CF05F1E1DC11D0040EE8CF05F154
:10415000DCDCCE6ACF6A9D8063D0080EE8CF05F123
:10416000D4DC04D0090EE8CF05F1CFDC9D9058D007
:104170000001AF51110A83E0020A83E0230AD2E072
:10418000010AD4E0030AD7E0010ADAE0070ADDE019
:104190000C0AE3E0010AE6E0060A01E174D77E0AB0
:1041A00097E0020A83E0070AB1E0010A85E0030A0A
:1041B00095E00F0A87E0050AA3E01C0A01E16AD72F
:1041C000020A01E166D7010A01E16AD7070AA4E001
:1041D000030A90E00F0A88E0390A01E17CD7020A5D
:1041E00001E167D7070A95E0010A01E168D7030AF0
:1041F00001E177D70F0A01E168D7050A84E0030AD5
:1042000001E144D71F0A01E148D7030A01E14BD776
:10421000070A85E0030A01E170D70F0A01E167D7B9
:104220003CA002D0010E01D0000E006E81A602D08B
:10423000010E01D0000E001AD8B48CD6F294F29A76
:1042400081B6F28A3C9081B63C8084D6F28E212BD6
:10425000000E222323232423D8B003EC27F001D01F
:10426000F28E82929EBA1200F29E82B082A0F8D79D
:1042700000F09EBA120082A082B0FBD7CE50176F1A
:1042800000F082B082A0ECD700F000F000F082A035
:1042900082B0EFD700F000F000F082A082B0E9D742
:1042A00000F000F000F082A082B0E3D700F000F050
:1042B00000F082A082B0DDD700F000F000F082B004
:1042C00082A0CED700F000F000F082A082B0D1D75B
:1042D00000F000F000F082B082A0C2D700F000F041
:1042E00000F082A082B0C5D700F000F000F082A0FC
:1042F00082B0BFD700F000F000F082A082B0B9D742
:1043000000F000F000F082A082B0B3D700F000F01F
:1043100000F082A082B0ADD700F000F000F082A0E3
:1043200082B0A7D78294828200F082302D37146B3E
:104330002DB1142B00F082502D19010B87E000F0F5
:1043400000F082302D3700F000F000F000F08250D5
:104350002D19010B01E17AD700F082302D3700F0E2
:1043600000F000F000F082502D19010B01E16ED732
:1043700000F082302D3700F000F000F000F08250A5
:104380002D19010B01E162D700F082302D3700F0CA
:1043900000F000F000F082502D19010B01E156D71A
:1043A00000F082302D3700F000F000F000F0825075
:1043B0002D19010B01E14AD700F082302D3700F0B2
:1043C00000F000F000F082502D19010B01E13ED702
:1043D00000F082302D3700F000F000F0C2828250F1
:1043E0002D19010B01E132D700F082302E3700F099
:1043F00000F000F000F082502E19010B01E126D7E9
:1044000000F082302E3700F000F000F000F0825013
:104410002E19010B01E11AD700F082302E3700F07F
:1044200000F000F000F082502E19010B01E10ED7D0
:1044300000F082302E3700F000F000F000F08250E3
:104440002E19010B01E102D700F082302E3700F067
:1044500000F000F000F082502E19010B01E1F6D6B9
:1044600000F082302E3700F000F000F000F08250B3
:104470002E19010B01E1EAD600F082302E3700F050
:1044800000F000F000F082502E19010B01E1DED6A1
:1044900000F082302E3700F000F000F000F0825083
:1044A0002E19010B01E1D2D600F082302F3700F037
:1044B00000F000F000F082502F19010B01E1C6D688
:1044C00000F082302F3700F000F000F000F0825052
:1044D0002F19010B01E1BAD600F082302F3700F01E
:1044E00000F000F000F082502F19010B01E1AED670
:1044F00000F082302F3700F000F000F000F0825022
:104500002F19010B01E1A2D600F082302F3700F005
:1045100000F000F000F082502F19010B01E196D657
:1045200000F082302F3700F000F000F000F08250F1
:104530002F19010B01E18AD600F082302F3700F0ED
:1045400000F000F000F082502F19010B01E17ED63F
:1045500000F082302F3700F000F000F000F08250C1
:104560002F19010B01E172D600F08230303700F0D4
:1045700000F000F000F082503019010B01E166D626
:1045800000F08230303700F000F000F000F0825090
:104590003019010B01E15AD600F08230303700F0BB
:1045A00000F000F000F082503019010B01E14ED60E
:1045B00000F08230303700F000F000F000F0825060
:1045C0003019010B01E142D600F08230303700F0A3
:1045D00000F000F000F082503019010B01E136D6F6
:1045E00000F08230303700F000F000F000F0825030
:1045F0003019010B01E12AD600F08230303700F08B
:1046000000F000F000F082503019010B01E11ED6DD
:1046100000F08230303700F000F000F000F08250FF
:104620003019010B01E112D600F08230313700F071
:1046300000F000F000F082503119010B01E106D6C4
:1046400000F08230313700F000F000F000F08250CE
:104650003119010B01E1FAD500F08230313700F059
:1046600000F000F000F082503119010B01E1EED5AD
:1046700000F08230313700F000F000F000F082509E
:104680003119010B01E1E2D500F08230313700F041
:1046900000F000F000F082503119010B01E1D6D595
:1046A00000F08230313700F000F000F000F082506E
:1046B0003119010B01E1CAD500F08230313700F029
:1046C00000F000F000F082503119010B01E1BED57D
:1046D00000F08230313700F000F000F000F082503E
:1046E0003119010B01E1B2D500F08230323700F010
:1046F00000F000F000F082503219010B01E1A6D564
:1047000000F08230323700F000F000F000F082500C
:104710003219010B01E19AD500F08230323700F0F6
:1047200000F000F000F082503219010B01E18ED54B
:1047300000F08230323700F000F000F000F08250DC
:104740003219010B01E182D500F08230323700F0DE
:1047500000F000F000F082503219010B01E176D533
:1047600000F08230323700F000F000F000F08250AC
:104770003219010B01E16AD500F08230323700F0C6
:1047800000F000F000F082503219010B01E15ED51B
:1047900000F08230323700F000F000F000F082507C
:1047A0003219010B01E152D500F08230333700F0AD
:1047B00000F000F000F082503319010B01E146D502
:1047C00000F08230333700F000F000F000F082504B
:1047D0003319010B01E13AD500F08230333700F094
:1047E00000F000F000F082503319010B01E12ED5EA
:1047F00000F08230333700F000F000F000F082501B
:104800003319010B01E122D500F08230333700F07B
:1048100000F000F000F082503319010B01E116D5D1
:1048200000F08230333700F000F000F000F08250EA
:104830003319010B01E10AD500F08230333700F063
:1048400000F000F000F082503319010B01E1FED4BA
:1048500000F08230333700F000F000F000F08250BA
:104860003319010B01E1F2D414A1C2D282303437E2
:1048700000F000F000F082503419010B01E1E6D4A1
:1048800000F08230343700F000F000F000F0825089
:104890003419010B01E1DAD400F08230343700F032
:1048A00000F000F000F082503419010B01E1CED489
:1048B00000F08230343700F000F000F000F0825059
:1048C0003419010B01E1C2D400F08230343700F01A
:1048D00000F000F000F082503419010B01E1B6D471
:1048E00000F08230343700F000F000F000F0825029
:1048F0003419010B01E1AAD400F08230343700F002
:1049000000F000F000F082503419010B01E19ED458
:1049100000F08230343700F000F000F000F08250F8
:104920003419010B01E192D400F08230353700F0E8
:1049300000F000F000F082503519010B01E186D43F
:1049400000F08230353700F000F000F000F08250C7
:104950003519010B01E17AD400F08230353700F0CF
:1049600000F000F000F082503519010B01E16ED427
:1049700000F08230353700F000F000F000F0825097
:104980003519010B01E162D400F08230353700F0B7
:1049900000F000F000F082503519010B01E156D40F
:1049A00000F08230353700F000F000F000F0825067
:1049B0003519010B01E14AD400F08230353700F09F
:1049C00000F000F000F082503519010B01E13ED4F7
:1049D00000F08230353700F000F000F000F0825037
:1049E0003519010B01E132D400F08230363700F086
:1049F00000F000F000F082503619010B01E126D4DE
:104A000000F08230363700F000F000F000F0825005
:104A10003619010B01E11AD400F08230363700F06C
:104A200000F000F000F082503619010B01E10ED4C5
:104A300000F08230363700F000F000F000F08250D5
:104A40003619010B01E102D400F08230363700F054
:104A500000F000F000F082503619010B02E126EF61
:104A600021F000F08230363700F000F000F000F066
:104A700082503619010B02E126EF21F000F082305E
:104A8000363700F000F000F000F082503619010BCC
:104A900002E126EF21F000F08230363700F000F01E
:104AA00000F000F082503619010B02E126EF21F0F0
:104AB00000F08230373700F000F000F000F0825054
:104AC0003719010B02E126EF21F000F08230373771
:104AD00000F000F000F000F082503719010B02E105
:104AE00026EF21F000F08230373700F000F000F0C0
:104AF00000F082503719010B02E126EF21F000F09F
:104B00008230373700F000F000F000F082503719A3
:104B1000010B02E126EF21F000F08230373700F080
:104B200000F000F000F082503719010B02E126EF8F
:104B300021F000F08230373700F000F000F000F094
:104B400082503719010B02E126EF21F000F082308C
:104B5000373700F000F000F000F082503719010BF9
:104B600002E126EF21F000F08230373700F000F04C
:104B700000F000F082503719010B02E126EF21F01E
:104B800000F08230383700F000F000F000F0825082
:104B90003819010B02E126EF21F000F0823038379E
:104BA00000F000F000F000F082503819010B02E133
:104BB00026EF21F000F08230383700F000F000F0EE
:104BC00000F082503819010B02E126EF21F000F0CD
:104BD0008230383700F000F000F000F082503819D1
:104BE000010B02E126EF21F000F08230383700F0AF
:104BF00000F000F000F082503819010B02E126EFBE
:104C000021F000F08230383700F000F000F000F0C2
:104C100082503819010B02E126EF21F000F08230BA
:104C2000383700F000F000F000F082503819010B26
:104C300002E126EF21F000F08230383700F000F07A
:104C400000F000F082503819010B02E126EF21F04C
:104C500000F08230393700F000F000F000F08250B0
:104C60003919010B02E126EF21F000F082303937CB
:104C700000F000F000F000F082503919010B02E161
:104C800026EF21F000F08230393700F000F000F01C
:104C900000F082503919010B02E126EF21F000F0FB
:104CA0008230393700F000F000F000F082503919FE
:104CB000010B02E126EF21F000F08230393700F0DD
:104CC00000F000F000F082503919010B02E126EFEC
:104CD00021F000F08230393700F000F000F000F0F1
:104CE00082503919010B02E126EF21F000F08230E9
:104CF000393700F000F000F000F082503919010B54
:104D000002E126EF21F000F08230393700F000F0A8
:104D100000F000F082503919010B02E126EF21F07A
:104D200000F082303A3700F000F000F000F08250DE
:104D30003A19010B02E126EF21F000F082303A37F8
:104D400000F000F000F000F082503A19010B02E18F
:104D500026EF21F000F082303A3700F000F000F04A
:104D600000F082503A19010B02E126EF21F000F029
:104D700082303A3700F000F000F000F082503A192B
:104D8000010B02E126EF21F000F082303A3700F00B
:104D900000F000F000F082503A19010B02E126EF1A
:104DA00021F000F082303A3700F000F000F000F01F
:104DB00082503A19010B02E126EF21F000F0823017
:104DC0003A3700F000F000F000F082503A19010B81
:104DD00002E126EF21F000F082303A3700F000F0D7
:104DE00000F000F082503A19010B02E126EF21F0A9
:104DF00082928284292B000E2A232B232C23D8B0C5
:104E000002D8F28E1200216B226B236B246B196B7C
:104E10001A6B1B6B1C6B256B266B276B286B296B26
:104E20002A6B2B6B2C6B1D6B1E6B1F6B206B120088
:104E3000827200F08274182FFBD71200E96AEA6AC6
:104E4000F86A0001D8900236033602320636073679
:104E50000632F6CF11F0F7CF12F00C6AE86A076459
:104E60003BEF2FF0036444EF2FF0025006180F6E53
:104E7000028E068E000EF76ED89006344C0FF66E3A
:104E8000D8B0F72A0900F5CF0EF00900F5CF10F0E1
:104E90000900F5CF08F00900F5CF09F008500E5CC5
:104EA000086E09501058096E08500D6E0402F4CFB8
:104EB000F7FF09500502F4CF09F0F3CF08F0040220
:104EC000F350F726F4500822E86A09220D50050233
:104ED000F350F726F4500822E86A09220D6AF750C9
:104EE0000D5E08500E5A0950105A02C008F001C059
:104EF000F7FF00C0F6FF00500D02F4CF09F001509B
:104F00000E02F4CF00F0F3CF0AF00D02F3500926A1
:104F1000F4500A22E86A0022F6500E02F3500926E5
:104F2000F4500A22E86A002202510D02F3500A26C8
:104F3000F450002202510E02016AE86A0122F35085
:104F40000026F4500122F6501002F3500A26F450C5
:104F50000022026AE86A01220222F7501002F3508E
:104F60000026F4500122E86A022208501002F35091
:104F70000126F450022202BE05D00A360036013660
:104F800002360C060650086E05C0F7FF04C0F6FF97
:104F900004500D02F4CF09F005500E02F4CF04F0D6
:104FA000F3CF0BF00D02F3500926F4500B22E86A00
:104FB0000422F6500E02F3500926F4500B22E86A40
:104FC000042206500D02F3500B26F4500422065022
:104FD0000E02056AE86A0522F3500426F450052201
:104FE000F6501002F3500B26F4500422066AE86AC9
:104FF00005220622F7501002F3500426F450052231
:10500000E86A062208501002F3500526F4500622E2
:1050100006AE06BC06D009360B3604360536063613
:105020000C2A0B1E041E051E061E0B2AE86A04220B
:105030000522062202C010F001C00EF000C00DF0E3
:105040000AC0F6FF00500402F4CF09F001500B0231
:10505000F4500926015004020A6AE86A0A22F35051
:105060000926F4500A22F6500502F4500926006A77
:10507000E86A0A2200220D500502F3500926F45076
:105080000A22E86A00220E500502F3500A26F45064
:10509000002202500402F3500A26F450002202506B
:1050A0000502016AE86A0122F3500026F450012249
:1050B00010500B02F3500926F4500A22E86A00222D
:1050C000012210500602F4CF02F0F3500126E86AE4
:1050D0000222F6500602F3500926F4500A22E86A2A
:1050E0000022012202220D500602F3500A26F4503B
:1050F0000022E86A012202220E500602F350002626
:10510000F4500122E86A022202BE0CD00A360036B0
:10511000013602360C0602BE05D00A3600360136CC
:1051200002360C060750035E800ED8A00AD00C246D
:10513000032611C0F6FF12C0F7FFD8B02CEF2FF0F6
:1051400009D00C24032611C0F6FF12C0F7FFD8A027
:1051500031EF2FF00AAE14D0D880800E0A640030F0
:10516000E86A002201220222D8A00AD002320132CB
:10517000003211C0F6FF12C0F7FF034A2CEF2FF0E8
:105180000FAE029E11C0F6FF12C0F7FF02360332C7
:105190000232CBEF2FF0D500D5C004F0D6C005F019
:1051A000D7C006F0D8C007F0000E006A016A026A94
:1051B000036A4BEC2FF0D8A006D0000E006A016AFB
:1051C000026A036A1200D5C0DFF0D6C0E0F0D7C093
:1051D000E1F0D8C0E2F0046A056A800E066E3F0E68
:1051E000076EDFC000F0E0C001F0E1C002F0E2C0F5
:1051F00003F04BEC2FF0D8B018D0DFC004F0E0C0C3
:1052000005F0E1C006F0E2C007F0006A016A800E16
:10521000026E3F0E036E1EEC27F000C0DFF001C0EF
:10522000E0F002C0E1F003C0E2F0DFC0E3F0E0C074
:10523000E4F0E1C0E5F0E2C0E6F00001D90EE76F6E
:10524000000EE86F86EC2FF000C0DFF001C0E0F048
:1052500002C0E1F003C0E2F0DFC0E3F0E0C0E4F040
:10526000E1C0E5F0E2C0E6F0020E026E036AD9C0CA
:1052700000F0DAC001F0A1EC2FF004C0E7F005C0A7
:10528000E8F0DCEC2EF000C0DFF001C0E0F002C07E
:10529000E1F003C0E2F0046A056A800E066E3F0E7C
:1052A000076ED5C000F0D6C001F0D7C002F0D8C05C
:1052B00003F04BEC2FF0D8B018D0DFC004F0E0C002
:1052C00005F0E1C006F0E2C007F0006A016A800E56
:1052D000026E3F0E036E1EEC27F000C0DFF001C02F
:1052E000E0F002C0E1F003C0E2F0140EF66EF76ADF
:1052F000DFC004F0E0C005F0E1C006F0E2C007F056
:10530000D5C000F0D6C001F0D7C002F0D8C003F07D
:105310001EEC27F0DFC004F0E0C005F0E1C006F0AD
:10532000E2C007F0FCEC2DF0046A056A066A400E44
:10533000076E1EEC27F000C0DBF001C0DCF002C0FD
:10534000DDF003C0DEF00001E251DE1908E1E151B9
:10535000DD1905E1E051DC1902E1DF51DB19D8B4B8
:1053600013D0DBC0DFF0DCC0E0F0DDC0E1F0DEC078
:10537000E2F0F60EE96E0F0EEA6EEE06000EED5A42
:10538000EE50ED10D8A4B4D7DFC000F0E0C001F0BB
:10539000E1C002F0E2C003F01200CD00CDC000F089
:1053A000CEC001F0CFC002F0D0C003F002EC00F09C
:1053B00000C004F001C005F002C006F003C007F011
:1053C000006A016A800E026E3F0E036E4BEC2FF0F6
:1053D000000E006A016AD8B003D0026A036A1200A4
:1053E000800E026E3F0E036ECDC004F0CEC005F0FD
:1053F000CFC006F0D0C007F0CDC000F0CEC001F0A5
:10540000CFC002F0D0C003F0C9EC2CF000C004F013
:1054100001C005F002C006F003C007F0006A016A8F
:10542000800E026E3F0E036EFAEC2DF000C0D5F038
:1054300001C0D6F002C0D7F003C0D8F0CCEC28F001
:1054400000C0D1F001C0D2F002C0D3F003C0D4F04C
:10545000CDC000F0CEC001F0CFC002F0D0C003F04C
:1054600002EC00F08F0E046EC20E056E350E066E55
:105470003F0E076E4BEC2FF0D8B01CD0D1C004F01B
:10548000D2C005F0D3C006F0D4C007F0CDC000F004
:10549000CEC001F0CFC002F0D0C003F01EEC27F068
:1054A00000C0E1F001C0E2F002C0E3F003C0E4F0AC
:1054B000AEEF2AF00001CDC004F0CEC005F0CFC0A1
:1054C00006F0D0C007F0D1C000F0D2C001F0D3C0C8
:1054D00002F0D4C003F0D0AF22D049EC30F01EEC83
:1054E00027F000C0E1F001C0E2F002C0E3F003C029
:1054F000E4F0AEEC2AF000C004F001C005F002C0F8
:1055000006F003C007F0DB0E006E0F0E016EC90E31
:10551000026E3F0E036EFAEC2DF049EF30F01EECF8
:1055200027F000C0E1F001C0E2F002C0E3F003C0E8
:10553000E4F0AEEC2AF000C004F001C005F002C0B7
:1055400006F003C007F0DB0E006E0F0E016EC90EF1
:10555000026E3F0E036EFAEF2DF0E100E1C000F0A5
:10556000E2C001F0E3C002F0E4C003F002EC00F09E
:1055700000C0EAF001C0EBF002C0ECF003C0EDF0B7
:10558000EA0EE96E000EEA6EEE50EE10EE10EE102E
:10559000D8A406D0000E006A016A026A036A1200EB
:1055A000EAC004F0EBC005F0ECC006F0EDC007F077
:1055B000006A016A800E026E3F0E036E4BEC2FF004
:1055C000000ED8A0010E0001E56FE551EAC004F01D
:1055D000EBC005F0ECC006F0EDC007F0D8B418D071
:1055E000006A016A800E026E3F0E036E1EEC27F009
:1055F00000C0EAF001C0EBF002C0ECF003C0EDF037
:10560000EAC004F0EBC005F0ECC006F0EDC007F016
:10561000EAC000F0EBC001F0ECC002F0EDC003F016
:10562000C9EC2CF000C0E6F001C0E7F002C0E8F0E1
:1056300003C0E9F0E6C0F2F0E7C0F3F0E8C0F4F030
:10564000E9C0F5F000015A0EF66F050EF76F040E73
:10565000F86FF96B39EC2CF000C0EEF001C0EFF000
:1056600002C0F0F003C0F1F0E6C0F2F0E7C0F3F0E2
:10567000E8C0F4F0E9C0F5F00001420EF66F050E47
:10568000F76F050EF86FF96B39EC2CF0EEC004F0F3
:10569000EFC005F0F0C006F0F1C007F01EEC27F0F7
:1056A00000C004F001C005F002C006F003C007F01E
:1056B000EA0EE96E000EEA6E37EC30F00001E551BB
:1056C000D8B41AD0EAC004F0EBC005F0ECC006F084
:1056D000EDC007F0DB0E006E0F0E016EC90E026EFC
:1056E0003F0E036EFAEC2DF000C0EAF001C0EBF0C3
:1056F00002C0ECF003C0EDF00001EAC000F0EBC026
:1057000001F0ECC002F0EDC003F0E4AF120049EF8D
:1057100030F0D100D1C000F0D2C001F0D3C002F00F
:10572000D4C003F002EC00F000C0DDF001C0DEF0F8
:1057300002C0DFF003C0E0F0D5C000F0D6C001F039
:10574000D7C002F0D8C003F002EC00F0DDC004F0D6
:10575000DEC005F0DFC006F0E0C007F04BEC2FF034
:10576000D8A043D0D5C004F0D6C005F0D7C006F00D
:10577000D8C007F0D1C000F0D2C001F0D3C002F011
:10578000D4C003F01EEC27F000C0E1F001C0E2F04D
:1057900002C0E3F003C0E4F0AEEC2AF000C0D9F0A0
:1057A00001C0DAF002C0DBF003C0DCF00001D8AFCA
:1057B00013D0DB0E046E0F0E056E490E066E400E02
:1057C000076ED90EE96E000EEA6ED4BF03D003EC6B
:1057D00030F002D001EC30F0D9C000F0DAC001F0B6
:1057E000DBC002F0DCC003F01200D1C004F0D2C074
:1057F00005F0D3C006F0D4C007F0D5C000F0D6C085
:1058000001F0D7C002F0D8C003F01EEC27F000C0B2
:10581000E1F001C0E2F002C0E3F003C0E4F0AEEC5E
:105820002AF049EC30F000C0D9F001C0DAF002C033
:10583000DBF003C0DCF00001DB0E046E0F0E056E22
:10584000C90E066E3F0E076ED90EE96E000EEA6EA7
:10585000D4AF03D001EC30F002D003EC30F0D9C06B
:1058600000F0DAC001F0DBC002F0DCC003F012008F
:10587000F200F8C000F0F9C001F0D890003601360F
:10588000D890003601360001F6510026F75101226A
:1058900000C0F6FF01C0F7FF030EF7640DD009004A
:1058A000F5CF00F00900F5CF01F00900F5CF02F0C7
:1058B0000900F5CF03F00CD0F6CFE9FFF7CFEAFFF0
:1058C000EECF00F0EECF01F0EECF02F0EECF03F01E
:1058D00000C0FAF001C0FBF002C0FCF003C0FDF014
:1058E0000001F951F811D8B44BD0FAC004F0FBC054
:1058F00005F0FCC006F0FDC007F0F2C000F0F3C0F8
:1059000001F0F4C002F0F5C003F0C9EC2CF0F80E81
:10591000E96E000EEA6EEE06000EED5AEECFFEF0D6
:10592000EDCFFFF00001D890FE37FF37D890FE375B
:10593000FF37F651FE27F751FF23FEC0F6FFFFC0E9
:10594000F7FF030EF7640DD00900F5CF04F009004E
:10595000F5CF05F00900F5CF06F00900F5CF07F007
:105960000CD0F6CFE9FFF7CFEAFFEECF04F0EECF91
:1059700005F0EECF06F0EECF07F0FCEC2DF0A8D747
:10598000FAC000F0FBC001F0FCC002F0FDC003F063
:105990001200E96AEA6AD890023603360232063605
:1059A000073606320A6AE86A0762036444EF2FF09A
:1059B000025006180F6E075003267E0ED8A005D0A1
:1059C000035ED8B02CEF2FF004D0035ED8A031EFE7
:1059D0002FF0028E068E02C010F001C00EF000C043
:1059E0000DF000500402F4CF09F001500502F4CF8D
:1059F00000F0F3CF0AF00402F3500926F4500A2213
:105A0000E86A00220D500502F3500926F4500A22DC
:105A1000E86A002202500402F3500A26F4500022E1
:105A200002500502016AE86A0122F3500026F45090
:105A300001220D500602F3500A26F4500022026A99
:105A4000E86A012202220E500602F3500026F450AA
:105A50000122E86A022210500602F3500126F45097
:105A6000022202BE08D00A3600360136023603068C
:105A7000D8B431EF2FF00AAE10D0D880800E0A646F
:105A80000030E86A002201220222D8A006D00232A9
:105A900001320032034A2CEF2FF00FAE029E023685
:105AA00003320232CBEF2FF0EA00820EF66EF76877
:105AB000170EEAC000F0EBC001F0ECC002F0EDC040
:105AC00003F018EC30F00050F624F36E000EF720CF
:105AD000F46EF4AE0ED00001000E006A016AEDBF54
