:020000040800F2
:10000000886800209D0100088F1800087D170008EF
:100010008D1800081D03000891460008000000002C
:100020000000000000000000000000009F18000811
:1000300071030008000000009D180008A1180008C6
:10004000B7010008B7010008B7010008B7010008B0
:10005000B7010008B7010008B7010008B7010008A0
:10006000B7010008B7010008B7010008B701000890
:10007000B7010008B7010008B7010008B701000880
:10008000B7010008B7010008B7010008B701000870
:10009000B7010008B7010008B7010008B701000860
:1000A000B7010008B7010008B7010008B701000850
:1000B000B7010008B7010008B7010008B701000840
:1000C000B7010008B7010008B7010008B701000830
:1000D000B7010008B7010008B7010008B701000820
:1000E000B7010008B7010008B7010008B701000810
:1000F000B7010008B7010008B7010008B701000800
:10010000B7010008B7010008B7010008B7010008EF
:10011000B7010008B7010008B7010008B7010008DF
:10012000B7010008B7010008B7010008B7010008CF
:10013000B7010008B7010008B7010008B7010008BF
:10014000B7010008B7010008B701000891180008BE
:10015000B7010008B7010008B7010008B70100089F
:10016000B7010008B7010008B7010008B70100088F
:10017000B7010008B7010008B7010008000000003F
:10018000B7010008B7010008DFF80CD000F08CF8C8
:10019000004800471D4A000888680020064880473C
:1001A00006480047FEE7FEE7FEE7FEE7FEE7FEE75C
:1001B000FEE7FEE7FEE7FEE73919000889010008BF
:1001C0002DE9F05F0546002092469B46884606468C
:1001D000814640241BE0284641464746224600F01F
:1001E00053F853465A46C01A914110D31146184647
:1001F000224600F03AF82D1A67EB01084F462246D6
:100200000120002100F031F817EB00094E41201EBB
:10021000A4F10104DFDC484631462A464346BDE8E6
:10022000F09F40EA01039B0703D009E008C9121FB1
:1002300008C0042AFAD203E011F8013B00F8013BA0
:10024000521EF9D27047D2B201E000F8012B491ECC
:10025000FBD270470022F6E710B513460A46044663
:100260001946FFF7F0FF204610BD202A04DB203A94
:1002700000FA02F1002070479140C2F1200320FAF9
:1002800003F3194390407047202A04DB203A21FAF7
:1002900002F00021704721FA02F3D040C2F120029F
:1002A0009140084319467047064C074D06E0E06848
:1002B00040F0010394E8070098471034AC42F6D3AD
:1002C000FFF766FFD04B0008F04B00080449054AD1
:1002D00031F8101052F82000012200F097B9000008
:1002E000504B0008000000200449054A31F8101066
:1002F00052F82000002200F089B90000504B00089D
:10030000000000200349044A31F8101052F8200080
:1003100000F074B9504B000800000020FEE7000018
:1003200010B500224FEA020100EB8203521CC3F811
:100330008414102AF8D300224FF400738418521C3E
:1003400084F81C129A42F9D3017041700122827024
:10035000C0F8C414027640238371417680F81C14DF
:1003600080F81D2480F81F1480F81E14002010BD92
:10037000704710B50120FFF7C5FF642000F034F886
:100380000120FFF7BFFF642000F02EF80120FFF7E7
:10039000B9FF642000F028F8BDE810400120FFF705
:1003A000B1BF0022AFF3008030B50E4B05460120EF
:1003B0005C7A002C14D1587A1C54587A03EB8000D4
:1003C00045605D7A03F108002A54587A421C5A723B
:1003D000303008703A2048702F208870CC70002090
:1003E00030BD00007808002070B5044600F014F914
:1003F0000546601C02D004480078044400F00CF963
:10040000401BA042FAD370BD200000202DE9F84F18
:10041000DFF8BCA10022012503264FF00F090AF1E5
:10042000040BAAF1040E00BF0B6805FA02F4234086
:10043000A34270D10F7907F00307012F01D0022FDB
:1004400016D187684FEA420806FA08FC27EA0C072B
:10045000D1F80CC00CFA08FC4CEA070CC0F808C034
:100460004768A7430C79C4F3001494403C434460AC
:100470000C79E443A4070AD0C4684FEA420C06FA98
:100480000CF7BC438F6807FA0CF72743C7600C7959
:1004900004F00304022C12D1D40800EB840CDCF825
:1004A00020405707FF0E09FA07F824EA0804D1F89C
:1004B000108008FA07F848EA0408CCF8208004689D
:1004C0004FEA420C06FA0CF7BC430F7907F003071A
:1004D00007FA0CF7274307604C6814F4403F70D0CC
:1004E0003C4C276847F480472760246822F00307C4
:1004F00004F480440094384C07EB040CDCF8084802
:1005000097074FEA177809FA08F7BC43334FB84208
:1005100002D1002724E054E0314FB84201D1012735
:100520001EE0304FB84201D1022719E02E4FB842E9
:1005300001D1032714E02D4FB84201D104270FE069
:100540002B4FB84201D105270AE02A4FB84201D10A
:10055000062705E0284FB84201D1072700E0082709
:1005600007FA08F72743CCF80878DAF8004057462E
:10057000D1F804C09C435FEACC2C00D51C433C60FE
:10058000DBF800405F46D1F804C09C435FEA8C2C46
:1005900000D51C433C60DEF800407746D1F804C02B
:1005A0009C435FEA8C3C00D51C433C60084F083FED
:1005B0003C68D1F804C09C435FEACC3C00D51C43A6
:1005C0003C60521C102AFFF42FAFBDE8F88F0000EA
:1005D000083C014044380240003001400000024025
:1005E0000004024000080240000C024000100240DB
:1005F0000014024000180240001C0240426921EA37
:1006000002030A4043EA0241816170470AB18161F5
:1006100070470904FBE7000001488068704700004C
:1006200020000020D0F8000301F0FBBED0F800034A
:1006300001F001BF006803F049BD006803F04ABD46
:1006400001EB410202EBC10100EB810090F8600078
:10065000704701EB410202EBC10100EB8100006D2C
:10066000704710B5044690F8F802012809D001201F
:1006700084F8F802206803F038FD002084F8F802BE
:1006800010BD022010BD2DE9FE430546DDE90B70CB
:1006900095F8F842DDF828C0012C1ED001EB41048A
:1006A00004EBC1044FF0010905EB840485F8F892CE
:1006B000002684F83D6084F83830A4F8400084F8BF
:1006C000391084F83F7002F07F0884F83A805FEABE
:1006D000026805D584F83B9004E00220BDE8FE8363
:1006E00084F83B6084F83CC0CDF800C0CDE90170CF
:1006F000286803F05DFD85F8F862EFE770472DE9A3
:10070000F00301EB4104DDE906C9DDE9087504EBFE
:10071000C10400EB8404022684F83B2084F83F30B7
:10072000BCF1000F0AD084F8426000256BB1012BA8
:100730002FD0022B12D0032B16D10FE04FF003085D
:1007400084F8428084F83D50EFE7BCF1010F0BD1F3
:1007500052B9DFB9012284F8552003E0B2B194F810
:100760005420B2B184F84260C4F84490E76484F83D
:100770006050256584F8391084F86150027C04F1DA
:1007800038010068BDE8F00303F09BBD94F85520E4
:10079000E7E784F84250E7E72DE9F04106680446B0
:1007A000304603F09EFC012875D1206803F0ADFEB1
:1007B000002870D0206803F0A8FE800203D52168CD
:1007C0004FF400104861206803F09FFEC00203D57B
:1007D00021684FF480104861206803F096FE4001C4
:1007E00003D521684FF080604861206803F08DFEDA
:1007F000800702D5216802204861206803F085FE49
:10080000800015D521684FF000504861D6F84004AB
:10081000C0070DD11021304603F038FC304603F0FC
:1008200017FC0121206803F055FE2046FFF7FEFE6D
:10083000206803F06AFEC00102D5204600F00EFFDA
:10084000206803F062FE000705D5204600F0C7F8D7
:10085000216808204861206803F057FEC043C006A5
:100860000CD42068816921F010018161204600F0DC
:100870003FFF2068816941F010018161206803F029
:1008800044FE800123D5206803F017FD07460025AC
:100890004FF0010814E01AE005F00F0108FA01F02A
:1008A00038420CD006EB4510D0F80005E9B2000440
:1008B000204602D500F0CFFC01E000F0C1FD6D1C28
:1008C000A068A842E8D821684FF000704861BDE8F0
:1008D000F08170B58AB0040005D094F8F90225685B
:1008E000002618B107E001200AB070BD84F8F86254
:1008F000204600F027F8032084F8F902E86BC005D1
:1009000000D42661206803F06FFB04F11001282257
:100910000D466846FFF785FC94E80F0003F00AFBDC
:100920000121206803F02DFE282229466846FFF7A2
:1009300078FC94E80F0003F065FD012084F8F902CB
:100940000020D1E710B586B0044614216846FFF7B1
:1009500081FC2068B0F1A04F2FD119480021026816
:1009600042F001020260006800F0010005904FF4BF
:10097000C05000900220CDE90101032003900A201D
:10098000049069460F48FFF741FD0D48001D0168BE
:1009900041F0800101600A481430016841F480414F
:1009A00001600068002200F4804005901146432059
:1009B00000F0AAF8432000F099F806B010BD00003E
:1009C0003038024000000240D0F8000301F0C0BD02
:1009D000D0F8000301F0C0BD006803F0B9BDD0F845
:1009E000000301F06FBD10B5044690F8F80201282D
:1009F0000DD0012084F8F8020121206803F00CFBDF
:100A0000206803F01FFB002084F8F80210BD0220CC
:100A100010BD10B5044690F8F802012809D0012055
:100A200084F8F802206803F0DAFD002084F8F80268
:100A300010BD022010BD00000248816802781144F8
:100A400081607047200000200B4810B5016841F418
:100A500000710160016841F480610160016841F446
:100A600080710160032000F06FF8002000F006F8AC
:100A700000F024F8002010BD003C024070B50D4D80
:100A800004464FF47A712878B1FBF0F00A490968FE
:100A9000B1FBF0F000F00AFB48B9102C07D200229D
:100AA0002146501E00F030F800206C6070BD01201F
:100AB00070BD0000200000201C0000200A4808B57E
:100AC000016841F480410160006800F480400090BA
:100AD0000548001F016841F080510160006800F086
:100AE0008050009008BD000044380240002809DB17
:100AF00000F01F02012191404009800000F1E02038
:100B0000C0F8001170470000F0B40E4B1B680C4693
:100B1000C3F30223C3F10705042D00D90425191DD1
:100B2000072901D2002300E0DB1E012606FA05F1A9
:100B3000491E214099409E40761E16403143F0BC2C
:100B400003F0B8BD0CED00E0064900F007020868AC
:100B50004FF6FF03184040EA0220034A10430860A2
:100B6000704700000CED00E00000FA052DE9F047A9
:100B70000E46050065D0DFF81481D8F80000F7B202
:100B800000F00700B04207D288F80070D8F80000E3
:100B900000F00700B04254D128683D4C810712D5BF
:100BA000400703D5206840F4E05020602878000713
:100BB00003D5206840F4604020602068A96820F0D8
:100BC000F000084320602878C0072DD030496868BD
:100BD0000839012812D0022813D0032811D009683F
:100BE000890700292DDA216821F0030101432160E2
:100BF000FFF712FD814641F2883A0EE00968890349
:100C0000EFE709688901ECE7FFF706FDA0EB0901B2
:100C1000514502D90320BDE8F0872068696800F0DB
:100C20000C00B0EB810FEFD1D8F80010404601F076
:100C30000701B14207D90770006800F00700B04211
:100C400001D00120E7E72878400705D52068E9684A
:100C500020F4E050084320602878000706D520687B
:100C6000296920F4604040EAC100206000F038F8B3
:100C70002168084AC1F30311515CC8400649086065
:100C800006480068FFF7FAFE0020C4E7003C024077
:100C900008380240704B00081C000020240000208F
:100CA0000448054900680968044AC1F38221515C7F
:100CB000C84070471C00002008380240804B0008E4
:100CC0000448054900680968044AC1F34231515C8F
:100CD000C84070471C00002008380240804B0008C4
:100CE000154810B5006810F00C02144813D04110DC
:100CF000042A0FD0082A0ED10F4C241F2268236823
:100D000002F03F025B0207D52068C0F38810A0FB09
:100D1000010106E0084610BD2168C1F38811A1FB5E
:100D200000010023FFF74CFA2168C1F30141491C7F
:100D30004900B0FBF1F010BD083802400024F40077
:100D40002DE9F84F04006ED02078DFF84C93C007EF
:100D5000A9F104054AD009F104000168C1F3810139
:100D6000012908D00068C0F3810002280AD1D9F80F
:100D70000000400206D52868800337D56068002847
:100D8000E1D033E06068B0F5803F10D0B0F5A02F1F
:100D9000286810D020F480302860286820F4802053
:100DA00028606068A8B1FFF737FC06460DE02868A8
:100DB00040F48030F4E740F480202860F7E700BF7B
:100DC000FFF72AFC801B642873D828688003F7D5B6
:100DD0000CE0FFF721FC064605E000BFFFF71CFC16
:100DE000801B6428F0D828688003F7D42078DFF8C7
:100DF000AC8280074FF0000A3ED5A748001D01686D
:100E000011F00C0F08D00068C0F3810002280BD14C
:100E1000D9F80000400207D42868800716D5E0689A
:100E2000012800D112E033E1E068B8B10120C8F830
:100E30000000FFF7F1FB064605E000BFFFF7ECFB03
:100E4000801B0228C0D828688007F7D52868216948
:100E500020F0F80040EAC10028600DE0C8F800A0CA
:100E6000FFF7DAFB064604E0FFF7D6FB801B0228FB
:100E70001FD828688007F7D42078000722D5864F2E
:100E800087486169703771B101210160FFF7C4FBC8
:100E9000064604E0FFF7C0FB801B022809D838682B
:100EA0008007F7D50EE0C0F800A0FFF7B5FB0646B7
:100EB00005E082E0FFF7B0FB801B02287DD8386890
:100EC0008007F7D42078400768D5DFF8CCB1002739
:100ED0000BF13C0BDBF80000C0000BD4DBF800107A
:100EE00041F08051CBF80010DBF80000012700F042
:100EF000805000906B4E3068C00510D4306840F4CC
:100F000080703060FFF788FB009005E0FFF784FBFE
:100F10000099401A022850D83068C005F6D55E4EB8
:100F2000A0686C3601280FD00528306810D020F05A
:100F300001003060306820F004003060A068B8B173
:100F4000FFF76AFB00900FE0306840F00100F4E723
:100F500040F004003060F7E7FFF75EFB0099411AAC
:100F600041F28830814266D830688007F4D50EE0BF
:100F7000FFF752FB009007E0FFF74EFB0099411A84
:100F800041F28830814256D830688007F4D42FB1BE
:100F9000DBF8001021F08051CBF80010A069C8B335
:100FA0003D49091D0968C1F3810102294AD002287F
:100FB000504607D0C8F8600000E03CE0FFF72CFB8B
:100FC00004463BE04746C8F86000FFF725FB0646AD
:100FD00005E000BFFFF720FB801B02282BD8286804
:100FE0008001F7D4D4E907010843A16A2E4A4908D1
:100FF00002EB0141626A41EA8211084394F82C1025
:1010000040EA0161C9F8001001203866FFF704FBCF
:10101000044606E03EE000BFFFF7FEFA001B022890
:1010200009D828688001F7D534E000BFFFF7F4FA4B
:10103000001B022802D90320BDE8F88F2868800130
:10104000F4D427E00128F7D0D9F80000E26900F4D1
:10105000800191421CD1226A00F03F01914217D1D8
:1010600047F6C071626A0140B1EB821F10D1A26ADB
:101070004FF0FF3300F4403103EB5202B1EB024F6B
:1010800006D194F82C1000F07060B0EB016F01D025
:101090000120D1E70020CFE704380240000047429A
:1010A000800E4742007000400000FFFF10B5401E58
:1010B000B0F1807F01D3012010BD4FF0E0246061CA
:1010C0000F21601703F0F6FA0020A06107202061CD
:1010D000002010BD70B5040004D094F83D00002538
:1010E00010B106E0012070BD84F83C50204600F0AD
:1010F00023F8242084F83D002068C16821F40051C1
:10110000C160204600F026FC2068016921F490416E
:1011100001612068416921F02A0141612068C168AC
:1011200041F40051C1602564202084F83D0084F81A
:101130003E00002070BD000010B586B004461421AA
:101140006846FFF787F814492068884221D1134880
:101150000021026842F010020260006800F01000F6
:1011600005900E481438026842F0010202600068DF
:1011700000F0010005904FF4C06000900220CDE91E
:101180000101032003900720049069460448FFF7FB
:101190003DF906B010BD0000001001404438024087
:1011A000000002402DE9F843044690F83D001F4638
:1011B00016460D4620284CD1C5B1BEB194F83C006E
:1011C000012846D0012084F83C004FF00008C4F804
:1011D0004080212084F83D00FFF71EFAA684814656
:1011E000E684A068B0F5805F03D004E00120BDE88C
:1011F000F883206928B12E465FF0000584F83C8012
:101200000EE00026FAE78021204600F029FCA0B974
:10121000AEB116F8010B21684860E08C401EE084F6
:10122000E08C4B464FF0000200970028EBD14FF0C6
:101230004001204600F014FC30B10320D7E735F818
:10124000020BC0F30800E6E7202084F83D000020F0
:10125000CDE70220CBE72DE9F047074600680D46B1
:1012600000EB4116D6F8080501EB4103420703EBFA
:10127000C5014FF006004FF004084FF0050A07EBD8
:10128000810401D541463CE0D6F80815C90507D5CB
:101290004FF48070C6F80805072084F861001CE050
:1012A000D6F80815890603D52020C6F8080518E0E9
:1012B000D6F808150A074FF0080104D5C6F8081536
:1012C00084F861A009E0D6F80825520514D54FF43A
:1012D0008060C6F8080584F861102946386802F075
:1012E00004FFD6F8080580050ED52946386802F0B7
:1012F000FCFE4FF40070A0E0D6F808150906F0D502
:101300008021C6F80815C8E7D6F808054FF0000197
:10131000C0074FF010094FF001023BD0386930B1DF
:10132000A06CD6F81035C3F31203C01A206584F8F8
:101330006120E165C6F8082594F83F0030B1022825
:1013400004D0032809D0012807D012E029463868C4
:1013500002F0CBFEC6F808950BE0D6F8000540F089
:101360000050C6F8000584F8602029463846FFF78B
:10137000C5F93869012806D1B4F84010A06CB0FB5B
:10138000F1F0C00704D014F8540F80F00100207071
:10139000BDE8F087D6F80805800735D594F86100D8
:1013A000022301280AD005280BD006280CD00828D3
:1013B0000AD003280FD0072818D01CE084F860203A
:1013C00019E084F860A016E0E06D401CE06502289A
:1013D00001D9E1650DE084F86030D6F8000520F011
:1013E000804040F00040C6F8000504E0E06D401C7D
:1013F000E06584F86080C6F8083594F860202946D6
:101400003846FFF77BF9C3E7D6F80805C006BFD515
:1014100094F83F00032803D020B1022802D00BE04B
:10142000E16505E0E165386930B9032084F86100C1
:101430002946386802F059FE4846C6F80805A7E76D
:101440002DE9F047026802EB4114D4F8082501EBBE
:101450004103550703EBC1034FF004024FF0060AA6
:1014600000EB830304D5C4F8082583F861A051E09C
:10147000D4F808554FF00007AD064FF0020C0BD51D
:101480002022C4F8082593F83D20012A33D183F89F
:101490003D7083F860C03DE0D4F80855AD0504D533
:1014A0004FF40072C4F8082534E0D4F808554FF022
:1014B00001065FEAC5784FF040050DD0DF65D4F82E
:1014C0000825520603D583F83D60C4F80855C4F8D2
:1014D000086583F861601DE0D4F808855FEA486814
:1014E0000BD583F8612083F83D60DF65006802F06A
:1014F000FCFDC4F80855BDE8F087D4F808554FF056
:1015000008095FEA05784FF0050508D5C4F8089585
:1015100083F861500068BDE8F04702F0E6BDD4F8FA
:1015200008855FEAC86810D50322DF6583F861206B
:1015300093F83D2022B993F83C200AB983F83D6026
:10154000006802F0D2FD10201AE0D4F808855FEAA6
:10155000086818D5056955B1DD6D6D1CDD65022D76
:101560000BD9DF6583F86020FFF7C8F807E083F840
:1015700061A0006802F0B9FD01E083F860C080203E
:10158000C4F80805B7E7D4F808855FEA485807D5D6
:1015900083F86190006802F0A8FD4FF48060EFE7E7
:1015A000D4F808855FEA8878A5D593F86180B8F10A
:1015B000010F0FD0B8F1030F30D0B8F1040F2DD0C8
:1015C000B8F1050F2DD0B8F1060F2DD0B8F1080FE6
:1015D0002AD03CE083F8606093F83F20022A01D0D3
:1015E000032A34D102692AB993F8552082F0010206
:1015F00083F855200269012A29D1DA6C3AB3B3F88D
:1016000040502A44521EB2FBF5F2D2071FD093F885
:10161000552082F0010283F8552018E083F860C05D
:1016200015E083F8605012E0DD6D6D1CDD65022D64
:1016300003D9DF6583F8602009E083F860C0D4F83F
:10164000002522F0804242F00042C4F80025C4F890
:1016500008C593F86020FFF751F84CE77CB50468A3
:101660000546D4F840040190D4F8400420F02E0040
:1016700000900198800709D50198C00702D028463C
:10168000FEF7D0FF009840F002000090019800079C
:1016900024D5009840F008000090019840071AD522
:1016A000A869022803D0E86801280CD00FE001984F
:1016B000C0F341400228286803D0012102F00AFF4C
:1016C00005E00221FAE74EF66020C4F8040428463B
:1016D000FFF77EF902E02846FFF776F901988006C9
:1016E000009802D540F020000090C4F840047CBD72
:1016F0002DE9F041024600680646016AC1F3434302
:1017000001F00F07C1F30A15022B31D1002D2FD0A4
:1017100007EB470101EBC70102EB8104616C002973
:1017200026D0226DE36C2A449A4223D82A4602F03E
:10173000F0FE606C28446064206D2844206506EB50
:101740004710D0F81015B4F84020C1F3C941AA429F
:101750000ED100290CD0D0F8001521F0804141F0C5
:101760000041C0F8001514F8540F80F001002070FB
:10177000BDE8F081042084F86000F9E7FEE700008E
:1017800010B504490448FEF70CFE0249491E0870D2
:1017900010BD0000150000205C4B0008F0B587B0BC
:1017A00014216846FEF756FD21480024016841F0E7
:1017B00010010160016801F010010591016841F01C
:1017C00020010160016801F020010591016841F0EC
:1017D00080010160016801F080010591016841F01C
:1017E000010101600068134F00F001004FF4C06672
:1017F0000590002231463846FEF708FF18200125E3
:101800008DE8310069460C48FEF700FE0096CDE9F0
:101810000154694638460394FEF7F8FDCDE90054BB
:10182000694606480294FEF7F1FD07B0F0BD0000DE
:101830003038024000140240001002400000024014
:1018400010B501220B490C4800F0AAFD08B1FEF7C3
:1018500090FD0A49084802F09BF908B1FEF789FD9E
:10186000054802F077FA002803D0BDE81040FEF7E3
:1018700080BD10BD693D00089C0000202C000020A8
:10188000014801F01BBF00009C000020FEE77047EC
:101890000148FEF781BF00007405002070477047C3
:1018A000FFF7CAB830B593B030216846FEF7D2FCD6
:1018B00014210CA8FEF7CEFC1D480025016841F05C
:1018C00080510160006800F0805011901948016853
:1018D00041F4804101600068022400F480401190CE
:1018E00001200090000401908001CDE90640042011
:1018F0000890A820CDE9090407200B906846FFF75F
:101900001FFA08B1FEF735FD0CA90F2081E8310060
:101910004FF4A0500F904FF48050109005210CA868
:10192000FFF724F9002801D0FEF723FD13B030BDE6
:1019300040380240007000400548016841F47001E1
:10194000016003494FF00060803908607047000073
:1019500088ED00E070B5044600680169E26821F492
:101960004051114301612169A068E269084361693E
:10197000114308432168CA6849F20C639A43024341
:10198000CA6020684169A26921F440711143416134
:1019900031492068884202D03049884202D1FFF79D
:1019A0008FF901E0FFF77CF9E26900231921642532
:1019B0003226B2F5004F626828D0A0FB0101930FD8
:1019C0009200FEF7FDFB0146B0FBF5F06FF0180248
:1019D000504301EB800006EB0010B0FBF5F000F087
:1019E000F002B1FBF5F002EB0012B1FBF5F06FF085
:1019F0001803584301EB800006EB0010B0FBF5F034
:101A000000F00F0021681044886070BDA0FB010148
:101A100092185B41FEF7D4FB0146B0FBF5F00201E2
:101A2000B1FBF5F06FF01803584301EB800006EBB3
:101A3000C000B0FBF5F000F0F80002EB4002B1FB93
:101A4000F5F0584301EB800006EBC000B0FBF5F069
:101A500000F00700D6E7000000100140001401402C
:101A60002DE9F041984617460E460446069D27E0AC
:101A7000681C25D02DB1FEF7CFFDA0EB0800A842D1
:101A80001ED920680C3050E8001F21F4D07140E8C6
:101A90000012002AF5D12068143050E8001F21F010
:101AA000010140E80012002AF5D1202084F83D0011
:101AB00084F83E00002084F83C000320BDE8F0815B
:101AC0002068006836EA000004D00020B842CFD079
:101AD0000020F3E70120F9E710B500224FF6FF736D
:101AE00000EB8204B4F8844424040BD49A4207D057
:101AF00002F00F0300EB830041F40041C0F88414AE
:101B0000D0B210BD521CD2B2102AE9D31A46F7E760
:101B10007FB51C46012501AE0023009586E80E0026
:101B200002232A46214600F04BFD04B0002070BD80
:101B30007FB51D4690F81D34089C03B10024012395
:101B4000CDE90031CDE9022402230022294600F02C
:101B500037FD04B0002070BD10B500F059FC002026
:101B600010BD8278012A07D1022202740122427438
:101B7000002242828182C2820022114600F00FB808
:101B80007FB51C46012501AE0023009586E80E00B6
:101B90002A46214600F014FD04B0002070BD70B547
:101BA00004460120A3780546012B0BD0022B08D157
:101BB000204600F021F958B1032809D0022800D1AD
:101BC000A57070BDA160A28125760221A17070BDB3
:101BD000A5700021217670BD7FB51D4690F81D349B
:101BE000089C03B100240123CDE90031CDE9022492
:101BF00000231A46294600F0E3FC04B0002070BD23
:101C00001FB500231446CDE900310822CDE9022397
:101C10001A46214600F0D4FC04B0002010BDFEF7A7
:101C2000E3BB000070B50546002005F5876500BFE1
:101C300000EB800404EBC00405EB4404E67B0A34AB
:101C40008E4201D0FF2909D1A679964201D0FF2A00
:101C500004D1E4799C4206D0FF2B04D0401CC0B2D2
:101C60000228E5D3FF2070BD102907D200EB8100C8
:101C7000B0F88414C1F30E01C0F88414002070473A
:101C800030B48578029C012D0FD141F080010174A0
:101C90000621417403214282B1EB122F02D140F29E
:101CA000094100E000218182C482224630BC1946ED
:101CB000FFF775BF0A8803781A440A800178084440
:101CC0007047F8B50E4600F11C0400910546234606
:101CD0004FF400720021FFF7D3FF002806D13246EF
:101CE00021462846BDE8F84001F009BCF8BD38B5EA
:101CF0000D460091044600F507734FF480720021F1
:101D0000FFF7BEFF010044D194F81C0284F82604BA
:101D100094F81D0284F82704B4F81E02A4F82804DD
:101D200094F8200284F82A0494F8210284F82B0401
:101D300094F8220284F82C0494F8230284F82D04E9
:101D4000082806D0102804D0202802D0402800D02F
:101D5000402084F82D04082D1BD9B4F82402A4F8DF
:101D60002E04B4F82602A4F83004B4F82802A4F82B
:101D7000320494F82A0284F8340494F82B0284F88C
:101D8000350494F82C0284F8360494F82D0284F873
:101D90003704084638BDF8B51C461646009341F492
:101DA000407200F507731D460021FFF769FF002808
:101DB00014D16978032911D129788A1EA24200D84A
:101DC00014460021A2B2AD1C04E06B5C891C06F82D
:101DD000013B89B29142F8D300213170F8BD010076
:101DE0004FF0000004D0012901D0022901D00220C7
:101DF00070470120704700002DE9F84F0125017E52
:101E000004460B26092728464FF007084FF0050A1D
:101E10004FF00D090C2919D2DFE801F0BD060E269E
:101E2000313C48606B7C899A627904F1100120464C
:101E3000FFF7E6FE022012E06179204600F03EFB4B
:101E4000012804D0042871D002287FD0A3E0207C90
:101E5000E18A00F0800021B180283AD10320207669
:101E600099E0802814D02EE0D4F8C404E0812379CE
:101E7000A2892046A168FFF783FE0420EFE72179BD
:101E8000204600F01BFB012802D0052840D056E078
:101E9000277680E000906379A2892046A168FFF749
:101EA0009BFED4F8C404E0810620D8E7617920467F
:101EB00000F004FB012806D0052807D0022808D02E
:101EC000042809D067E084F8188064E00C202076AC
:101ED0001EE084F818A05EE026765BE000222379FD
:101EE00011462046FFF74CFED4F8C404E0810820D8
:101EF000B5E72179204600F0E1FA012804D0042852
:101F000024D0052804D046E084F81890002542E04B
:101F1000032540E000900022637911462046FFF738
:101F20005BFED4F8C404E0810A2098E70EE06179F2
:101F3000204600F0C3FA012804D00228A8D00428C3
:101F400004D028E0002584F8189024E0267622E0CA
:101F5000617E491CC9B26176022902D82076A07040
:101F600019E0D4F8D4240621204690470025657650
:101F70000AA002F08FFB0BA002F08CFB13A002F072
:101F800089FB61792046FFF76FFE21792046FFF734
:101F90006BFE257002252846BDE8F88F4552524F4A
:101FA000523A2000436F6E74726F6C206572726FCC
:101FB000723A20446576696365206E6F742072659D
:101FC00073706F6E64696E67000000000A000000A5
:101FD0002DE9FE430126417800250D270446B04631
:101FE00000F5077908290CD2DFE801F0042C4B8DAD
:101FF000ADC7D9F508212046FFF779FE10B10328B7
:1020000006D0FCE094F82D04A07184F801804FE024
:102010007EA002F03FFB7FA002F03CFB8AA002F012
:1020200039FB94F81E04401CC0B284F81E04032837
:1020300070D861792046FFF717FE21792046FFF717
:1020400013FE98E012212046FFF751FE10B103283D
:1020500012D0D4E0B4F830147CA002F01BFB7AA0BC
:1020600002F018FBB4F82E147BA002F013FB76A04C
:1020700002F010FB02206EE064A002F00BFB79A0DE
:102080004CE00121204601F03BFE10B1032829D08D
:10209000B5E00220FFF7C3FD414684F81C8480A010
:1020A00002F0F8FA68A002F0F5FA03206070A07957
:1020B00094F81D140091CDE9015094F81C34217955
:1020C0008022204601F011FAA07994F81D140091A5
:1020D000CDE9015094F81C3461790022204601F0CA
:1020E00004FA8CE049A002F0D5FA73A002F0D2FA0B
:1020F00055A002F0CFFA7DA002F0CCFA52A002F077
:10210000C9FA27705FE009212046FFF7DAFD10B910
:10211000042020E00FE003281FD070E002F0BAFA9C
:1021200049A002F0B7FA94F81E04401CC0B284F82B
:102130001E04032816D96DA002F0ACFA42A002F0EA
:10214000A9FA27705BE0B4F83A142046FFF7B9FD0E
:102150000028E0D10520607051E02CA002F09AFA2E
:102160007248DBE761792046FFF77EFD2179204642
:10217000FFF77AFD6570257041E094F83414062568
:1021800059B1FF234A462046FFF705FE10B1032848
:1021900003D034E0494666A010E06AA016E094F847
:1021A00035140725A9B1FF234A462046FFF7F3FD62
:1021B00010B103280DD022E0494667A002F06AFA68
:1021C00021A002F067FA657019E004E002F062FAFB
:1021D000F6E765A0FAE794F8361499B1FF234A466A
:1021E0002046FFF7D8FD10B103280BD007E0494681
:1021F00061A002F04FFA14A002F04CFA002630461B
:10220000BDE8FE8361A002F045FAF4E74552524F63
:10221000523A2000436F6E74726F6C206572726F59
:10222000723A204765742044657669636520446589
:102230007363726970746F722072657175657374FF
:10224000206661696C6564000A0000005049443AE8
:1022500020257868000000005649443A2025786817
:1022600000000000436F6E74726F6C206572726FB5
:10227000723A204765742046756C6C204465766917
:1022800063652044657363726970746F7220726550
:102290007175657374206661696C65640000000087
:1022A0004164647265737320282325642920617357
:1022B0007369676E65642E00436F6E74726F6C2075
:1022C0006572726F723A2044657669636520536562
:1022D00074204164647265737320726571756573EF
:1022E00074206661696C656400000000436F6E7461
:1022F000726F6C206572726F722C20446576696310
:1023000065206E6F7420526573706F6E64696E67BE
:1023100020506C6561736520756E706C75672074F4
:102320006865204465766963652E0000884B000867
:102330004D616E756661637475726572203A202511
:10234000730000004D616E7566616374757265722D
:10235000203A204E2F41000050726F647563742044
:102360003A2025730000000050726F64756374207A
:102370003A204E2F4100000053657269616C204E77
:10238000756D626572203A2025730000536572698D
:10239000616C204E756D626572203A204E2F4100AF
:1023A00070B50E46040018D084F8CC240025C4F87B
:1023B0007C54C4F8805404F58464FDF7B1FFE570E3
:1023C00025706570A570A4F584640EB1C4F8D4645A
:1023D000204600F087F8002070BD05A002F05AF9F1
:1023E00005A002F057F909A002F054F9022070BDCF
:1023F0004552524F523A2000496E76616C69642012
:10240000486F73742068616E646C65000A00000098
:1024100010B5D0F8D004FEF724F9BDE81040FFF75E
:10242000DEBC012180F82014002180F8211480F8FE
:1024300022140846704710B50446012084F8210490
:10244000002084F8200484F82304204600F0AFF82C
:1024500021792046FFF708FC61792046FFF704FC4C
:10246000002010BD10B5C820FDF7BEFF002010BD34
:10247000D0F8D004FEF7EDB810B50124D0F8D004A0
:10248000FEF7DBF820B1012805D0022803D101E0D6
:10249000002400E00224204610BDD0F8D00401EB57
:1024A000410202EBC10100EB810090F83B1011B139
:1024B00090F85400704790F855007047D0F8D00459
:1024C000FEF7BEB8D0F8C414491CC0F8C414017893
:1024D0000B2905D1D0F87C14002901D0896908475F
:1024E0007047000010B5044690F8CC0401281CD1B8
:1024F0000F484FF0A0410022C0F80043C4F8D004B8
:102500000160082181600121C0E903120221C0E9B4
:102510000612FEF7DEF908B1FDF72BFF0448FEF7BF
:1025200089F80146204600F024F8002010BD000084
:1025300074050020FEB508AF97E870008DE87000C4
:10254000D0F8D004FEF79FF8BDE8FE40FFF747BC87
:10255000002180F823147047012180F8231470476C
:1025600010B5D0F8D004FEF737FABDE81040FFF7F9
:1025700036BCC0F8C4147047D0F8D00401EB410356
:1025800003EBC10100EB810090F83B1011B180F822
:10259000542001E080F855200020704710B5D0F895
:1025A000D004FEF720FABDE81040FFF718BC10B5C4
:1025B000D0F8D004FEF72DFABDE81040FFF70FBCAD
:1025C0002DE9FF410DF1280898E8F0008DE8F000B2
:1025D000D0F8D004FEF793F804B0BDE8F041FFF75F
:1025E000FEBB03460220D3F87C14C9692AB1012A34
:1025F00005D189791846FFF7B4BAC979FAE7704767
:10260000D0F87C040549C06941650549816501210F
:1026100000F8501F8170002070470000555342435E
:10262000504030202DE9F84F0746D0F87C040126B1
:102630003546C4694FF00B0A4FF00A0B94F850006E
:102640004FF009094FF007080C2845D2DFE800F0E9
:10265000D20611252E4852757EA7AFCB84F86110A3
:10266000022084F85000009563791F2204F1540180
:1026700059E061793846FFF721FF012802D002288E
:102680007ED03FE0E06D002829D094F8600000067D
:1026900001D503204BE0052049E0237962893846C3
:1026A000D4F88C10FFF734FA042040E02179384642
:1026B000FFF704FF01284FD16289E06D90420CD9E9
:1026C000D4F88C10801A1144C4F88C10E0656BD0DB
:1026D00023793846FFF71CFA8CE00020E06563E0C0
:1026E0000095637922893846D4F88C10FFF720FAD8
:1026F00006201CE061793846FFF7E0FE012804D08F
:102700000228C8D0052815D074E02289E06D9042D7
:10271000E3D9D4F88C10801A1144C4F88C10E06509
:1027200042D0009563793846FFF702FA62E084F8F8
:1027300050005FE084F850B05CE023790D2204F192
:1027400078013846FFF7E4F90820F0E721793846A8
:10275000FFF7B4FE012802D005281DD04AE004F896
:10276000505F3846A570D7F87C14CC692179FFF703
:102770007FFE0D280CD12149A06F884208D100E0CE
:1027800036E0A16DE06F884202D194F8840008B170
:1027900002262FE000262DE084F850902AE0002247
:1027A0003846FFF71EFF38B984F8508022E0012236
:1027B0003846FFF716FF10B1042811D01AE06179EE
:1027C0003846FFF76AFEC0F10100C2B261793846AF
:1027D000FFF7D2FE217900223846FFF7CDFEDBE776
:1027E00084F850A006E0384600F015F8060001D144
:1027F00084F850503046BDE8F88F000055534253DE
:10280000A1220274FE2242740022428282820122AC
:10281000C282FFF7C4B921210174FF214174002154
:1028200041828182C1820A46FFF7B9B970B5D0F8FA
:102830007C140125CC69A17B21B1022902D0032996
:1028400034D12DE02146FFF7DBFF002605460328A3
:1028500001D01DB12AE02670002504E0207802286E
:1028600001D9022001E02078401CC1B2217010A0E3
:1028700001F010FF15A001F00DFF002002220BE077
:1028800000EB800101EBC00104EB8101401C81F8E9
:10289000922081F8C160C0B221788142F0D805E071
:1028A0000021FFF75EF908B9E07BA073284670BDF0
:1028B0004E756D626572206F6620737570706F72F1
:1028C000746564204C554E3A202564000A000000CF
:1028D00010B51446D0F87C240078D3690B2801D0B9
:1028E000022010BD01EB810000EBC10003EB800171
:1028F000342220469031FDF794FC002010BD70B5C5
:102900000546D0F87C040026C469617939B12846AF
:10291000FFF722F961792846FFF7A6F96671217958
:1029200039B12846FFF718F921792846FFF79CF9B5
:102930002671D5F87C04C06920B102F047F8D5F8BB
:102940007C04C661002070BDFEB50546D0F87C044D
:102950005023062201792846FFF764F90646FF282E
:1029600023D0022E21D20146284601F04FF9E0B9CA
:102970004FF48077384602F0B5F8D5F87C14044659
:10298000C861200011D03946FDF764FC06EB8600D3
:1029900000EBC60005EB400090F84E140A0606D581
:1029A000E171B0F85014618105E00220FEBDA17113
:1029B000B0F85014218190F856140A0604D5E1713C
:1029C000B0F85804608103E0A171B0F85804208188
:1029D000002020736073A073A1792846FFF77CF86C
:1029E0006071E1792846FFF777F820712846FFF7F4
:1029F00007FEA27942B3208930B395F81D14022650
:102A00000091CDE9016095F81C346179284600F009
:102A10006CFDE279C2B16089B0B195F81D140091E6
:102A2000CDE9016095F81C342179284600F05DFD60
:102A3000217900222846FFF79FFD61790022284670
:102A4000FFF79AFD0020FEBD0320FEBD2DE9F047F3
:102A50000746D0F87C044FF0010AC469207B10B10E
:102A600001283BD1DFE1B4F8F800217801254FF0CF
:102A70000008884270D200EB800101EBC00004EB3B
:102A80008000022680F89150B4F8F8104FF0050944
:102A900001EB810000EBC10004EB800292F8900092
:102AA00009281BD2DFE800F0051A5CD11BFA1A1ABC
:102AB000F900DFA001F0EEFDE0A001F0EBFDB4F8BD
:102AC000F810042001EB810202EBC10104EB81014B
:102AD00081F89000D7F8C404C4F8FC00A5E1C9B29D
:102AE00038469F3200F011FB002836D1B4F8F800C8
:102AF00000EB800101EBC00004EB8001D0A0A2310B
:102B000001F0C8FDCDA001F0C5FDB4F8F80000EB60
:102B1000800101EBC00004EB8001CFA0AB3101F0DC
:102B2000B9FDC6A001F0B6FDB4F8F80000EB8001D5
:102B300001EBC00004EB8001CDA0BC3101F0AAFD87
:102B4000BEA001F0A7FDB4F8F80000EB800101EB96
:102B5000C00004EB8000FAE05CE1022874D0DCE005
:102B6000C9B2384600F001FC10B1022836D0D4E0DA
:102B7000B4F8F80000EB800101EBC00004EB80002A
:102B800090F8921041B180F8C150BFA001F082FDD1
:102B9000AAA001F07FFD01E080F8C180B4F8F82020
:102BA000032002EB820101EBC20104EB810181F8F9
:102BB0009000B4F8F81001EB810202EBC10104EBC4
:102BC000810181F89180B4F8F81001EB810202EBE9
:102BD000C10104EB810181F8928026E1B4F8F8008C
:102BE00000EB800101EBC00004EB800090F8921034
:102BF000022908D080F8C150A8A001F04BFD8FA099
:102C000001F048FD01E080F8C180B4F8F81001EB54
:102C1000810202EBC10104EB810181F89090B4F8CC
:102C2000F80000EB800101EBC00004EB800080F8AD
:102C30009150B4F8F80000EB800101EBC00004EB08
:102C4000800080F89260F0E054E0C9B238469432D7
:102C500000F005FB002880D1B4F8F80000EB8001FB
:102C600001EBC00004EB800090F8C11001292CD1C9
:102C700050F8941F808841438EA001F00BFD6FA097
:102C800001F008FDB4F8F80000EB800101EBC00092
:102C900004EB8000D0F8941001E0B7E035E08DA09F
:102CA00001F0F8FC65A001F0F5FCB4F8F80000EBC9
:102CB000800101EBC00004EB8000B0F898108AA0FE
:102CC00001F0E8FC5DA001F0E5FCB4F8F80000EBD1
:102CD000800101EBC00004EB800080F89050B4F854
:102CE000F81001EB810202EBC10104EB810181F8D4
:102CF00091805FE0B4F8F81001EB810202EBC101B2
:102D000004EB810181F890908FE0C9B238469C3283
:102D100000F0E2FA20B1022851D0042861D084E00A
:102D2000B4F8F80000EB800101EBC00004EB800078
:102D300090F89C10062901D002290BD1D7F8C424A1
:102D4000D4F8FC30D21A42F210739A4202D280F8C0
:102D500090606AE069A001F09DFC38A001F09AFC47
:102D6000B4F8F80000EB800101EBC00004EB800038
:102D700090F89D1065A001F08DFC30A001F08AFC58
:102D8000B4F8F80000EB800101EBC00004EB800018
:102D900090F89E1064A001F07DFC28A001F07AFC60
:102DA000B4F8F80000EB800101EBC00004EB8000F8
:102DB00080F8905034F8F80F401C208035E037A0A0
:102DC00001F068FC1DA001F065FCB4F8F8100820C3
:102DD00001EB810202EBC10104EB810181F890005B
:102DE00023E0B4F8F80000EB800101EBC00004EB35
:102DF000800080F89050B4F8F80000EB800101EBFF
:102E0000C00004EB800080F891600EE0491CA4F83B
:102E1000F8100AE0A4F8F8802573D7F8D42402212A
:102E20003846904701E04FF0000A5046BDE8F08771
:102E30004C554E202325643A200000000A00000073
:102E4000496E71756972792056656E646F722020C3
:102E50003A20257300000000496E7175697279206F
:102E600050726F64756374203A202573000000006F
:102E7000496E71756972792056657273696F6E203B
:102E80003A202573000000004D53432044657669C5
:102E90006365207265616479000000004D53432032
:102EA000446576696365204E4F542072656164798C
:102EB000000000004D53432044657669636520633C
:102EC00061706163697479203A20256C75204279BC
:102ED00074657300426C6F636B206E756D62657212
:102EE000203A20256C750000426C6F636B2053699B
:102EF0007A652020203A20256C75000053656E739A
:102F000065204B657920203A20257800416464696A
:102F100074696F6E616C2053656E736520436F64D6
:102F200065203A20257800004164646974696F6EF9
:102F3000616C2053656E736520436F646520517525
:102F4000616C69666965723A202578002DE9F8435D
:102F5000D0F87C2401EB810303EBC103D269012586
:102F600002EB8304082794F890302E46052B22D0DC
:102F700000224FF00508062B02D0072B40D10CE0B1
:102F8000002300921A4600F02AF90BE002280FD025
:102F900018E000BF84F8907031E0002300921A46D8
:102FA00000F009FA0028F1D184F89060002527E0AC
:102FB00084F8908024E004F19C0200F08DF920B1A7
:102FC000022820D00428E5D01AE094F89C1011A023
:102FD000903401F05FFB13A001F05CFB617B12A059
:102FE00001F058FB0FA001F055FBA17B15A001F0EB
:102FF00051FB0CA001F04EFB2670022060700225F0
:103000002846BDE8F88318A001F044FB05A001F0B4
:1030100041FBF5E753656E7365204B657920203AD7
:10302000202578000A0000004164646974696F6EAD
:10303000616C2053656E736520436F6465203A2090
:10304000257800004164646974696F6E616C205377
:10305000656E736520436F6465205175616C6966A8
:103060006965723A202578004D534320446576699E
:103070006365204E4F542072656164790000000042
:103080002DE9F8430446D0F87C04089E0F46C56934
:1030900094F8200460B120780B2809D107EB870051
:1030A00000EBC70005EB800090F89010012902D0DA
:1030B0000220BDE8F8830621297380F89010A5F856
:1030C000FA7039462046009600F089F8D4F8C48496
:1030D00040F271204FF00109464309E0D4F8C414CE
:1030E000A1EB0800B0EB061F0CD894F8200448B1FF
:1030F00039462046FFF72AFF0128EFD085F80C90CB
:103100000020D6E785F80C90D2E72DE9F04115466E
:10311000D0F87C2402270026D4694FF0010894F8E7
:103120005220012A02D0022A56D126E024208022F1
:10313000E06584F860200A2284F86220C4F86360A5
:10314000C4F86760A4F86B60122284F86320490118
:1031500084F8641084F8656084F8666084F8670019
:1031600084F86860022084F8508084F8520004F1EA
:1031700010000127C4F88C002EE0FFF753FA070077
:103180002AD122212846FDF765F8D4F88C00007872
:1031900000F01F006870D4F88C0000784009287097
:1031A000D4F88C004078000602D585F8028000E053
:1031B000AE7054F88C0F10228168C5F80310C068F7
:1031C000C5F80700216805F10C001031FDF729F85A
:1031D0002068006AC5F81D003846BDE8F0812DE979
:1031E000F041154602461F46D2F87C340220069E66
:1031F000DC6994F85230012B06D0022B2DD1BDE8AA
:10320000F0411046FFF70EBAB4F898001021704351
:10321000E065802084F860000A2084F8620004F1F0
:103220006300FDF717F8282084F86300280E84F85F
:103230006500280C84F86600280A84F8670084F882
:103240006850300A84F86A0084F86B60012004F842
:10325000500F0220A0700120E763BDE8F08170B537
:103260001646D0F87C240125D46994F85220012A0E
:1032700002D0022A2ED11AE00820E065802084F8CE
:1032800060000A2084F86200102104F16300FCF75A
:10329000E1FF252084F86300012084F8500002201B
:1032A00084F8520004F11000C4F88C0012E0FFF71B
:1032B000B9F905000ED154F88C0F4188427849BA0B
:1032C000007862F31F4141EA006030602068C088E6
:1032D00040BAB080284670BD70B5154602460E460D
:1032E000D2F87C140220CC6994F85210012914D031
:1032F000022911D131461046FFF794F900280BD16D
:1033000054F88C1F897801F00F0129702168097B1E
:1033100069702168497BA97070BD0E258020E56524
:1033200084F860000A2084F86200102104F1630030
:10333000FCF790FF032084F86300700184F86400B8
:10334000002084F8650084F8660084F8675084F8EB
:103350006800012084F85000022084F8520004F133
:103360001000C4F88C00012070BD70B50246022028
:10337000D2F87C34DC6994F85230012B06D0022B51
:1033800018D1BDE870401046FFF74CB90025E5653F
:1033900084F860500A2084F86200102104F1630070
:1033A000FCF758FF84F86350012004F8500F022006
:1033B000A070012070BD2DE9F041154602461F4660
:1033C000D2F87C340220069EDC6994F85230012B3E
:1033D00006D0022B2DD1BDE8F0411046FFF722B9EF
:1033E000B4F8980010217043E065002084F8600074
:1033F0000A2084F8620004F16300FCF72BFF2A2006
:1034000084F86300280E84F86500280C84F86600B0
:10341000280A84F8670084F86850300A84F86A0043
:1034200084F86B60012004F8500F0220A070012086
:10343000E763BDE8F08100207047D0F87C24007875
:10344000D2690B2808D101EB810000EBC10002EB2F
:10345000800090F8910008B100207047012070476B
:103460002DE9F8430446D0F87C04089E0F46C56950
:1034700094F8200460B120780B2809D107EB87006D
:1034800000EBC70005EB800090F89010012902D0F6
:103490000220BDE8F8830721297380F89010A5F871
:1034A000FA70394620460096FFF785FFD4F8C484A9
:1034B00040F271204FF00109464309E0D4F8C414EA
:1034C000A1EB0800B0EB061F0CD894F8200448B11B
:1034D00039462046FFF73AFD0128EFD085F80C90D9
:1034E0000020D6E785F80C90D2E7FEB508AF97E844
:1034F00070008DE87000FFF71DF80020FEBD2DE97B
:10350000F74F82B00878029D4FF0000B4FF4007324
:1035100085F83804487885F8390448880C46D84638
:1035200005F58765984200D31846688008792871A8
:10353000487968718879A871C879E871207A287209
:1035400029780920092900D02870092A7CD98146C8
:10355000ADF800005FE069462046FEF7ABFB04468D
:103560004078042854D12078092801D084F80090AC
:1035700008EB880101EBC80005EB400A20788AF8C7
:103580000A0060788AF80B00A0788AF80C00E078CE
:103590008AF80D0020798AF80E0060798AF80F0009
:1035A000A0798AF81000E0790AF10A068AF8110079
:1035B000207A307200271CE069462046FEF77AFB2D
:1035C00004464078052814D17079012802D1B079D9
:1035D000022830D02078072801D0072020700AEB7D
:1035E000C70122461431029800F030F87F1C834650
:1035F000FFB23079B84204D96888BDF8001088421B
:10360000DAD83079B84211D808F1010000F0FF088B
:10361000B8F1020F04D26888BDF8001088429AD829
:103620002879022800D3022040450DD9032005B097
:10363000BDE8F08F08E0F0790028D0D12078092883
:10364000CDD084F80090CAE75846F0E7F0B513787B
:103650000B7053784B7093788B70D478CC709588BE
:103660008D800646937900208B71D5B16FF30A05E2
:103670008D8092884FF40077C2F30A02BA4200D3D9
:103680003A461543A1F8045096F81D14002904F099
:10369000030108D001290BD0E143890700D153B1C0
:1036A000F0BD0320F0E7012902D0E1438907F7D1FB
:1036B0000BB1102BF4D90320F0BD00002DE9FE431F
:1036C0004FF0020804468DF8008094F82114002081
:1036D000012901D10321217021780D260827002519
:1036E0000C291DD2DFE801F0061D47FD1C7CFC9A69
:1036F000A4AFCDFB94F82004002811D0ABA000F0BB
:10370000C9FFB0A000F0C6FF01202070C820FEF75E
:1037100086FA2046FEF724FF84F81C54C4F8C854E7
:103720003AE194F82304012814D0D4F8C804B0F581
:103730007A7F19D994F81F04401CC0B284F81F0482
:10374000032874D9A0A000F0A5FF9EA000F0A2FF5E
:10375000267021E1A7A000F09DFF9AA000F09AFF3B
:1037600084F81F544046E2E00A30C4F8C8040A2036
:10377000FEF755FA10E1D4F8D42412B10421204602
:1037800090476420FEF74BFA2046FEF775FE84F85A
:103790001D040520207000212046FEF79DF9607170
:1037A00080212046FEF798F920710146A07994F80F
:1037B0001D240092CDE9015094F81C34802220464B
:1037C000FFF793FEA07994F81D140091CDE9015004
:1037D00094F81C34617900222046FFF786FEDBE076
:1037E0002046FEF7F5FB8DF800009DF8000000284C
:1037F00096D187A000F04EFF72A000F04BFF84F836
:10380000245494F83704012801D007208FE085A0C4
:1038100000F040FF6BA000F03DFF06E0D4F8D42498
:10382000002A96D00121204690472770B4E026E078
:1038300094F83D14204600F071FA002889D109203F
:10384000207082A033E094F83F044FF00A05800610
:1038500015D50121204600F06FFA8DF800009DF883
:10386000000020B19DF80000032802D094E07EA063
:1038700000E085A000F00EFF52A000F00BFF2570C5
:103880008AE0D4F8801489B1C4F87C5494F84714C1
:1038900004EB8002D2F8782412798A420AD104EB30
:1038A0008000D0F87804C4F87C0408E081A000F01F
:1038B000F1FE10E0401C10F0FF00E9D0284610B3E4
:1038C00081682046884768B12670D4F87C04016876
:1038D00080A000F0DFFE3BA000F0DCFE5CE034E006
:1038E00014E039E006202070D4F87C04016881A03F
:1038F00000F0D0FE33A000F0CDFED4F8D424032194
:103900002046904748E026707FA0D0E7D4F87C049A
:10391000A8B10169204688478DF800009DF8000095
:1039200020B19DF80000022803D035E00B20207064
:1039300032E026707EA000F0ADFE7FA0B7E72670D3
:103940007BA000F0A7FE86A0B1E7D4F87C0418B3F2
:103950004169204688471FE084F821542046FCF73F
:10396000DFFCD4F87C0420B1C16820468847C4F845
:103970007C54D4F8D42412B10521204690477EA06F
:1039800000F088FE0FA000F085FE94F822040128C4
:1039900005D02046FEF702FE0020BDE8FE8384F835
:1039A0002254204600F0D6F9F6E700005553422095
:1039B00044657669636520436F6E6E656374656404
:1039C000000000000A000000555342205265736554
:1039D00074204661696C65642C20506C6561736568
:1039E00020756E706C756720746865204465766913
:1039F00063652E0055534220446576696365205205
:103A00006573657420436F6D706C65746564000048
:103A1000456E756D65726174696F6E20646F6E6559
:103A20002E00000054686973206465766963652020
:103A3000686173206F6E6C79203120636F6E6669E8
:103A40006775726174696F6E2E000000446566616F
:103A5000756C7420636F6E66696775726174696FE7
:103A60006E207365742E000044657669636520726C
:103A7000656D6F74652077616B65757020656E612B
:103A8000626C65640000000052656D6F746520779C
:103A9000616B657570206E6F7420737570706F72D6
:103AA0007465642062792074686520646576696352
:103AB000650000004E6F20436C6173732068617372
:103AC000206265656E2072656769737465726564EE
:103AD0002E000000446576696365206E6F74207364
:103AE0007570706F7274696E6720257320636C61E6
:103AF00073732E00257320636C617373207374617C
:103B0000727465642E0000004E6F207265676973E1
:103B1000746572656420636C61737320666F7220D4
:103B200074686973206465766963652E000000001F
:103B30004552524F523A2000446576696365206EC3
:103B40006F7420726573706F6E64696E6720506C5D
:103B50006561736520556E706C75672E00000000FE
:103B6000496E76616C696420436C617373204472A2
:103B7000697665722E0000005553422044657669CF
:103B8000636520646973636F6E6E6563746564005A
:103B900010B50022A1B1D0F8803453B10BA000F0D1
:103BA00079FD0CA000F076FD11A000F073FD02225B
:103BB00004E00123C0F88034C0F87814104610BD2A
:103BC00002A000F067FD0BA0ECE700004552524F49
:103BD000523A20004D617820436C617373204E751A
:103BE0006D62657220726561636865640000000043
:103BF0000A000000496E76616C696420436C617351
:103C0000732068616E646C650000000070B5054645
:103C100090F83C040C460026A04227D985F824449D
:103C2000214618A000F036FD1EA000F033FD04EB85
:103C3000840000EBC40005EB40041BA094F847147B
:103C400004F2474400F026FD16A000F023FD617841
:103C500019A000F01FFD13A000F01CFDA1781AA010
:103C600000F018FD0FA000F015FD09E01AA000F00B
:103C700011FD1BA000F00EFD0AA000F00BFD0226B6
:103C8000304670BD537769746368696E6720746FDE
:103C900020496E7465726661636520282325642956
:103CA000000000000A000000436C617373202020B4
:103CB000203A202578680000537562436C61737365
:103CC000203A20257868000050726F746F636F6C23
:103CD000203A2025786800004552524F523A200081
:103CE00043616E6E6F742053656C65637420546815
:103CF000697320496E746572666163652E00000009
:103D00008278012A06D1002202740523437441827D
:103D10008282C28200221146FDF741BF8278012AC9
:103D200006D1002202740923437441828282C28236
:103D300000221146FDF733BF8278012A06D1002206
:103D400002740323437441828282C282002211469C
:103D5000FDF725BF10B50446FEF720FC01212046E3
:103D6000FEF780FB002010BD01290AD0054802297A
:103D700006D0042903D0052903D1032100E0012145
:103D800001707047190000200020704730B58DB0D9
:103D90001546012449B1012909D0022910D003296F
:103DA00018D004240DB0204630BD0024FAE70146A7
:103DB0006A460E48FEF78CFD0028F3D1019813E007
:103DC00001466A460948FEF783FD0028EAD1BDF89E
:103DD000080009E001466A460448FEF779FD00281C
:103DE000E0D1BDF80800400A2860DEE79C00002012
:103DF00030B58FB0054600930B46014601241048AC
:103E0000FFF73EF968B101AA29460D48FEF760FDAB
:103E10009DF81100042806D0282804D03A280CD197
:103E200001E0002409E007A000F034FC07A000F046
:103E300031FC0CA000F02EFC03240FB0204630BD56
:103E40009C0000204552524F523A200055534220C8
:103E50004469736B206973206E6F742072656164AE
:103E6000792100000A00000010B501460124034832
:103E7000FFF7E3FA00B10024204610BD9C000020AB
:103E800030B58FB0054600930B4601460124174814
:103E9000FFF7E6FA78B101AA29461448FEF718FDA3
:103EA0009DF81100042813D0272806D028280FD009
:103EB0003A2817D10CE0002414E00DA000F0EAFB32
:103EC0000DA000F0E7FB14A000F0E4FB022409E0E1
:103ED00007A000F0DFFB11A000F0DCFB0EA000F05B
:103EE000D9FB03240FB0204630BD00009C00002009
:103EF0004552524F523A2000555342204469736B49
:103F00002069732057726974652070726F746563DD
:103F100074656421000000000A000000555342202F
:103F20004469736B206973206E6F742072656164DD
:103F30007921000070B5044606990A9E049D0D98EB
:103F4000012916D0E06840F04000E060204600F013
:103F50002BF8A16B1EB321F48031A163012D07D191
:103F6000A16841F00601A160A16841F02001A160B3
:103F700070BDA16B21F48031A163E168094A114051
:103F8000E160E16821F44011E160012803D1E068BB
:103F900040F48010E060204600F006F8DEE741F4CF
:103FA0008031DAE7BFFFBDFF08B500220D4900925E
:103FB000009B5B1C00938B420CD80369002BF7DA43
:103FC0000092026942F001020261009A521C0092C2
:103FD0008A4201D9032008BD0269D207F5D1002029
:103FE00008BD0000400D0300816821F001018160DF
:103FF0000020704700EB4110064AC0F81025D0F8A9
:10400000001521F0804141F00041C0F8001500206A
:10401000704700000000088008B5D0F8402422F066
:104020002E020092D20405D4012909D1009941F44D
:10403000805103E021B9009921F48051C0F8401467
:10404000002008BD816841F00101816000207047B7
:1040500008B500220C490092009B5B1C00938B4228
:104060000AD80369002BF7DA009210220261009A45
:10407000521C00928A4201D9032008BD0269D2066F
:10408000F5D4002008BD0000400D030018B5002342
:104090000D4A0093009C641C009494420CD804695F
:1040A000002CF7DA0093202343EA81110161009983
:1040B000491C0091914201D9032018BD016989066C
:1040C000F5D4002018BD0000400D0300D0F808040E
:1040D00080B2704708B5D0F840040090C0F341406A
:1040E00008BD406900F00100704718B5002200EBE0
:1040F00041110092D1F80025D1F80035C2F3814278
:104100008468DB0FA40600D51BB34FF47A736AB141
:10411000022A0BD0D1F8002542F08042C1F80025D8
:10412000D0F8100410F47F0F2BD00CE0D1F800254C
:1041300042F08042C1F800258268920609D4C06A24
:1041400010F47F0F07D0D1F8000540F00040C1F80F
:104150000005002018BDD1F8000520F00040C1F88E
:104160000005D1F8000540F00040C1F800050098B6
:10417000401C00909842ECD8D1F800050028F6DBEE
:10418000E7E7D1F8000520F00040C1F80005D1F8BC
:10419000000540F00040C1F800050098401C009068
:1041A0009842D6D8D1F800050028F6DBD1E7000008
:1041B0002DE9F0431E46DDE90785002700EB411499
:1041C0007B1EDDF82490C4F8083505B3012D39D0E5
:1041D000022D1CD0032D2ED05FF00107D4F80C3532
:1041E00043F00203C4F80C35D0F8183401F00F0C7A
:1041F000012101FA0CF10B43C0F81834816941F038
:104200000071816111062AD54FF4004128E040F287
:104210009D43C4F80C35130605D500BFD4F80C3502
:1042200043F4807318E0C36BDB05D7D5D4F80C35A5
:1042300043F0600310E040F29D63C4F80C351306B0
:10424000ECD4CBE740F22523C4F80C351306C5D5D2
:10425000D4F80C3543F4C073C4F80C35BEE7002124
:10426000FFF738FFB8F1020F04D1022802D04FF453
:10427000003000E000204FF0FE5303EA86534FF475
:10428000F04606EAC22213434FF4402202EA854276
:104290001343C9F30A0213430B430343C4F8003525
:1042A000032D01D0012D05D1D4F8000540F00050B8
:1042B000C4F800053846BDE8F083D0F8140480B295
:1042C0007047F8B54C78C56B4FF48073ED0515D584
:1042D0000D799DB9012A01D06AB10FE0CD790DB1F8
:1042E000022D0BD100EB4415D5F80C6526F07006B5
:1042F000C5F80C6502E04D79012D0DD04E697EB1F7
:104300000D8977197F1EB7FBF5F7BFB29F4208D919
:104310001F462B020B6104E02146FFF76BFE6EE0A7
:104320000127CB781BB10B897B430B6101E033463E
:104330000E61C3F312056FF0604303EAC7431D43E8
:104340008B7A4FF0C04606EA43731D4300EB4413DB
:10435000C3F8105512B1CC68C3F81445D0F808441E
:10436000D3F8005544F3000425F00055C3F8005578
:10437000D3F80055641C45EA4474C3F80045D3F8EB
:10438000004524F080440094CC78002C009C02D09E
:1043900044F4004401E024F4004444F00044009458
:1043A000C3F800455ABBCA784ABB4A693AB3CB79CD
:1043B00033B1012B0FD0022B02D0032B17D10AE00F
:1043C000D21CC36AC2F38F029BB293420FD282699E
:1043D00042F020020AE0D21CD0F81034C2F38F025F
:1043E0009BB2934203D2826942F0806282610022D2
:1043F00000928A8A93B24A78C96800F035F90020A1
:10440000F8BD00002DE9F0410025DDF818801746C1
:1044100004462E46C0F8005E806B40F40010A06396
:10442000A06B20F40020A063A06B20F48020A06388
:10443000E06BC00501D5012B04D0D4F8000420F0B6
:10444000040103E0D4F8000440F004012046C4F85D
:1044500000141021FFF71AFE00B101252046FFF7D6
:10446000F7FD00B101250020411E06E004EB4012DB
:10447000C2F80815C2F80C65401C8742F6D8A66140
:104480006161E06BC00506D54FF4007060620C48B6
:10449000A0620C4804E0802060620B48A0620B48D8
:1044A000C4F80001B8F1000F03D1A06940F010007A
:1044B000A061A06906490843A0612846BDE8F081D3
:1044C000000200010003E00080006000E000400006
:1044D000080020A3D0F8002422F00302C0F8002432
:1044E000D0F8002401F003031A43C0F80024012986
:1044F00002D0022903D006E04BF6803101E041F200
:104500007071C0F804140020704741698069084048
:10451000704730B503460846940802F003010022B4
:1045200003F5805303E01D6840F8045B521CA2426F
:10453000F9D300290BD01C680022D50024FA05F31A
:10454000491E521C090400F8013B090CF5D130BD8D
:1045500038B50446D0F8400420F02E00009040F416
:104560008070C4F84004642004F58864FBF73CFFC5
:10457000009820F4807020600A20FBF735FF0020AF
:1045800038BD70B50446C068002520F0C040E0602A
:10459000012901D079B120E0E06840F00050E060EE
:1045A0000120FBF721FF60696D1C10F0010F10D195
:1045B000322DF5D30DE0E06840F08040E06001204E
:1045C000FBF712FF60696D1C10F0010F01D0322D56
:1045D000F5D3322D01D0002070BD012070BD38B55B
:1045E000002504460095806820F00100A06010219D
:1045F0002046FFF74BFD00B101252046FFF728FDBF
:1046000000B10125002004EB4011D1F8002522F073
:10461000802242F08042C1F80025401C0F28F2D9C8
:1046200000204FF47A7304EB4011D1F8002522F4F6
:10463000004242F04042C1F80025009A521C00920C
:104640009A4203D8D1F80025002AF6DB401C0F2837
:10465000E9D94FF0FF30C4F814046061A06840F05D
:104660000100A060284638BD10B5029C74B9DB1C5F
:104670009C0800EB0230002300F5805004E000BFEE
:1046800051F8042B02605B1CA342F9D3002010BD3B
:10469000FEE700000FB4054B10B503A9044A0298C9
:1046A00000F028F810BC5DF814FB0000B5490008C4
:1046B0004C0000200907090E002804DB00F1E0206F
:1046C00080F80014704700F00F0000F1E02080F83F
:1046D000141D704702E008C8121F08C1002AFAD151
:1046E00070477047002001E001C1121F002AFBD172
:1046F000704700002DE9FF4F8DB09B460F460446E2
:10470000002606E025280BD05A460F999047641CD6
:10471000761C20780028F5D111B03046BDE8F08F26
:104720000025A8460122984900E0054314F8013FFE
:10473000203B02FA03F00842F7D120782E2817D147
:1047400014F8010F45F004052A280ED06FF02F024F
:104750002078A0F1300109290AD808EB880102EB82
:10476000410100EB0108641CF2E757F8048B641C5C
:1047700020786C280DD004DC4C2812D06A2811D186
:1047800004E074280DD07A280CD10AE045F4001515
:1047900007E0617845F48015814202D1641C05F57B
:1047A0008015641C2278692A45D008DC002AB3D021
:1047B000582A69D0632A10D0642A08D13BE0702AB5
:1047C00067D0732A13D0752A5CD0782A5CD0104643
:1047D0005A460F999047761CD3E017F8040B8DF8D2
:1047E000000000208DF80100E946012003E057F8A1
:1047F000049B4FF0FF3069074FF0000501D40AE039
:104800006D1C45450DDA8542FADB19F805100029C3
:10481000F6D106E06D1C8542FCDB19F80510002975
:10482000F8D12E4404E019F8010B5A460F9990472D
:104830006D1EF8D2A5E00A200021CDE90801C5F3DC
:10484000025002280DD001CFC117031E71F10003E1
:104850000DDA4FF0000CD0EB0C006CEB01012D23B6
:1048600008E0FF1D27F00707F7E80201EDE72B0539
:1048700004D52B238DF8283001233BE0EB0739D0FA
:104880002023F7E70A2000E010200021CDE90801ED
:1048900007E01020002145F00405CDE908014FF0A4
:1048A0000808C5F3025002280FD001CF00214FF0B5
:1048B000000A2B071FD5702A0DD0DDE908C38CF044
:1048C000100C5CEA030C0CD015E0FF1D27F0070765
:1048D000F7E80201EBE740228DF828204FF0010AAB
:1048E0000BE050EA010306D030238DF828308DF814
:1048F000292002239A46582A04D024A20DF1200927
:104900000B9209E026A2F9E7DDE90823FBF758FC42
:104910000B9B9B5C09F8013D50EA0102F4D1ADEB21
:10492000090020300890680701D44FF00108089969
:10493000884502DDA8EB010000E00020804600254C
:1049400006E00AA85A46405D0F9990476D1C761CF8
:104950005545F6DB04E030205A460F999047761C07
:10496000B8F10001A8F10108F5DC05E019F8010B28
:104970005A460F999047761C0899481E08900029BE
:10498000F4DC641CC5E60000092801003031323334
:10499000343536373839616263646566000000007B
:1049A0003031323334353637383941424344454665
:1049B0000000000013B54FF6FF730122694602485C
:1049C000FCF7F0FB00981CBD5800002010B5002833
:1049D00021D0114B0022001F196803E0814203D847
:1049E0000A4649680029F9D152B11368841A9C42D9
:1049F00004D1006818441060104602E0506000E0E6
:104A0000186039B102680B1A934203D10B681A443B
:104A100002604968416010BD50000020FCF714F8A6
:104A2000FCF740FFFCF7BAFE284827490024016044
:104A30004FF4E131C0E901140C21C460C0E9044124
:104A40008461C461FCF746FB08B1FBF792FCFCF7FC
:104A5000F7FEFCF795FE0020FBF738FC0120FBF782
:104A600035FCC820FBF7C0FC0020FBF73DFC012013
:104A7000FBF73AFCC820FBF7B7FC0020FBF726FC4D
:104A80000120FBF723FC12A0FFF704FE0226144DC1
:104A90004FF4FA77FCF7F4FE287801280ED00028AE
:104AA000F8D00228F6D13846FBF79EFC0020FBF731
:104AB0001BFC0120FBF70AFC2C70EBE73846FBF7E8
:104AC00093FC2E70E6E70000001001405800002023
:104AD00053746172742073797374656D0D0A0000EC
:104AE00019000020F0B50B30154D20F0070100240F
:104AF000144A0FE003688B420BD38B4205D95E1A30
:104B000043184768C3E9006700E04368136002C0C8
:104B100004E0021D10680028ECD12046002802D1D4
:104B2000286808B10020F0BD064A07481060074A0F
:104B3000121A22F00702C0E9002401202860D7E7FA
:104B400054000020500000208C08002088280020FD
:104B5000000200040100100008000000893D000868
:104B6000693E0008F13D0008813E00088D3D0008C7
:104B7000000000000000000001020304060708090D
:104B80000000000001020304436F6E74726F6C201A
:104B90006572726F723A2047657420446576696366
:104BA0006520636F6E66696775726174696F6E20E8
:104BB00064657363726970746F7220726571756574
:104BC0007374206661696C65640000004D53430096
:104BD000F04B00080000002058000000D4460008F8
:104BE000484C00085800002030680000E4460008E7
:104BF0000014024000140240000002400010024075
:104C00000010024000000000000000000024F4003A
:104C1000010000001000000000000000CC4B000864
:104C20000800000049290008FF2800082D28000876
:104C30004D2A000837340008000000000000000082
:084C400000000000000000006C
:040000050800018965
:00000001FF
