:020000040800F2
:10000000D01500209D010008631A0008251900087A
:10001000611A00081D030008413E000800000000AE
:10002000000000000000000000000000731A00083B
:100030007103000800000000711A0008751A00081A
:10004000B7010008B7010008B7010008B7010008B0
:10005000B7010008B7010008B7010008B7010008A0
:10006000B7010008B7010008B7010008B701000890
:10007000B7010008B7010008B7010008B701000880
:10008000B7010008B7010008B7010008B701000870
:10009000B7010008B7010008B7010008B701000860
:1000A000B7010008B7010008B7010008B701000850
:1000B000B7010008B7010008B7010008B701000840
:1000C000B7010008B7010008B7010008B701000830
:1000D000B7010008B7010008B7010008B701000820
:1000E000B7010008B7010008B7010008B701000810
:1000F000B7010008B7010008B7010008B701000800
:10010000B7010008B7010008B7010008B7010008EF
:10011000B7010008B7010008B7010008B7010008DF
:10012000B7010008B7010008B7010008B7010008CF
:10013000B7010008B7010008B7010008B7010008BF
:10014000B7010008B7010008B7010008651A0008E8
:10015000B7010008B7010008B7010008B70100089F
:10016000B7010008B7010008B7010008B70100088F
:10017000B7010008B7010008B7010008000000003F
:10018000B7010008B7010008DFF80CD000F08CF8C8
:1001900000480047CD410008D015002006488047A0
:1001A00006480047FEE7FEE7FEE7FEE7FEE7FEE75C
:1001B000FEE7FEE7FEE7FEE7091B000889010008ED
:1001C0002DE9F05F0546002092469B46884606468C
:1001D000814640241BE0284641464746224600F01F
:1001E00053F853465A46C01A914110D31146184647
:1001F000224600F03AF82D1A67EB01084F462246D6
:100200000120002100F031F817EB00094E41201EBB
:10021000A4F10104DFDC484631462A464346BDE8E6
:10022000F09F40EA01039B0703D009E008C9121FB1
:1002300008C0042AFAD203E011F8013B00F8013BA0
:10024000521EF9D27047D2B201E000F8012B491ECC
:10025000FBD270470022F6E710B513460A46044663
:100260001946FFF7F0FF204610BD202A04DB203A94
:1002700000FA02F1002070479140C2F1200320FAF9
:1002800003F3194390407047202A04DB203A21FAF7
:1002900002F00021704721FA02F3D040C2F120029F
:1002A0009140084319467047064C074D06E0E06848
:1002B00040F0010394E8070098471034AC42F6D3AD
:1002C000FFF766FFB0430008D04300080449054A21
:1002D00031F8101052F82000012200F073B900002C
:1002E00044430008000000200449054A31F810107A
:1002F00052F82000002200F065B9000044430008D5
:10030000000000200349044A31F8101052F8200080
:1003100000F050B94443000800000020FEE7000050
:1003200010B500224FEA020100EB8203521CC3F811
:100330008414102AF8D300224FF400738418521C3E
:1003400084F81C129A42F9D3017041700122827024
:10035000C0F8C414027640238371417680F81C14DF
:1003600080F81D2480F81F1480F81E14002010BD92
:1003700070470120FFF7C6FF642000F011F801204C
:10038000FFF7C0FF642000F00BF80120FFF7BAFF71
:10039000642000F005F80120FFF7B4FF72B6FEE715
:1003A00070B5044600F014F90546601C02D00448FC
:1003B0000078044400F00CF9401BA042FAD370BD51
:1003C000140000202DE9F84FDFF8BCA10022012520
:1003D00003264FF00F090AF1040BAAF1040E00BF27
:1003E0000B6805FA02F42340A34270D10F7907F09D
:1003F0000307012F01D0022F16D187684FEA420868
:1004000006FA08FC27EA0C07D1F80CC00CFA08FC25
:100410004CEA070CC0F808C04768A7430C79C4F33E
:10042000001494403C4344600C79E443A4070AD090
:10043000C4684FEA420C06FA0CF7BC438F6807FA0F
:100440000CF72743C7600C7904F00304022C12D187
:10045000D40800EB840CDCF820405707FF0E09FAA3
:1004600007F824EA0804D1F8108008FA07F848EAE7
:100470000408CCF8208004684FEA420C06FA0CF716
:10048000BC430F7907F0030707FA0CF7274307600F
:100490004C6814F4403F70D03C4C276847F48047C8
:1004A0002760246822F0030704F480440094384C49
:1004B00007EB040CDCF8084897074FEA177809FAAD
:1004C00008F7BC43334FB84202D1002724E054E080
:1004D000314FB84201D101271EE0304FB84201D15F
:1004E000022719E02E4FB84201D1032714E02D4F07
:1004F000B84201D104270FE02B4FB84201D10527A4
:100500000AE02A4FB84201D1062705E0284FB84239
:1005100001D1072700E0082707FA08F72743CCF89E
:100520000878DAF800405746D1F804C09C435FEAE7
:10053000CC2C00D51C433C60DBF800405F46D1F872
:1005400004C09C435FEA8C2C00D51C433C60DEF861
:1005500000407746D1F804C09C435FEA8C3C00D54C
:100560001C433C60084F083F3C68D1F804C09C43E2
:100570005FEACC3C00D51C433C60521C102AFFF4BF
:100580002FAFBDE8F88F0000083C0140443802401E
:100590000030014000000240000402400008024018
:1005A000000C0240001002400014024000180240FB
:1005B000001C0240426921EA02030A4043EA024168
:1005C000816170470AB1816170470904FBE700004F
:1005D000014880687047000014000020D0F8000334
:1005E00002F063BBD0F8000302F069BB006803F0BF
:1005F00045B9006803F046B901EB410202EBC101C5
:1006000000EB810090F86000704701EB410202EBC3
:10061000C10100EB8100006D704710B5044690F8F1
:10062000F802012809D0012084F8F802206803F0BC
:1006300034F9002084F8F80210BD022010BD2DE925
:10064000FE430546DDE90B7095F8F842DDF828C059
:10065000012C1ED001EB410404EBC1044FF0010951
:1006600005EB840485F8F892002684F83D6084F850
:100670003830A4F8400084F8391084F83F7002F054
:100680007F0884F83A805FEA026805D584F83B90D9
:1006900004E00220BDE8FE8384F83B6084F83CC09F
:1006A000CDF800C0CDE90170286803F059F985F84C
:1006B000F862EFE770472DE9F00301EB4104DDE953
:1006C00006C9DDE9087504EBC10400EB84040226C9
:1006D00084F83B2084F83F30BCF1000F0AD084F846
:1006E000426000256BB1012B2FD0022B12D0032BBF
:1006F00016D10FE04FF0030884F8428084F83D5093
:10070000EFE7BCF1010F0BD152B9DFB9012284F838
:10071000552003E0B2B194F85420B2B184F842609D
:10072000C4F84490E76484F86050256584F8391073
:1007300084F86150027C04F138010068BDE8F003E0
:1007400003F097B994F85520E7E784F84250E7E7BB
:100750002DE9F04106680446304603F09AF8012876
:1007600075D1206803F0A9FA002870D0206803F042
:10077000A4FA800203D521684FF400104861206874
:1007800003F09BFAC00203D521684FF48010486142
:10079000206803F092FA400103D521684FF0806091
:1007A0004861206803F089FA800702D52168022099
:1007B0004861206803F081FA800015D521684FF068
:1007C00000504861D6F84004C0070DD110213046D2
:1007D00003F034F8304603F013F80121206803F0E9
:1007E00051FA2046FFF7FEFE206803F066FAC001CA
:1007F00002D5204601F006F8206803F05EFA0007F3
:1008000005D5204600F0C7F8216808204861206817
:1008100003F053FAC043C0060CD42068816921F06C
:1008200010018161204601F037F82068816941F0AC
:1008300010018161206803F040FA800123D520680F
:1008400003F013F9074600254FF0010814E01AE001
:1008500005F00F0108FA01F038420CD006EB451004
:10086000D0F80005E9B20004204602D500F0C7FD2B
:1008700001E000F0B9FE6D1CA068A842E8D821682C
:100880004FF000704861BDE8F08170B58AB0040097
:1008900005D094F8F9022568002618B107E0012078
:1008A0000AB070BD84F8F862204600F027F80320F3
:1008B00084F8F902E86BC00500D42661206802F0D4
:1008C0006BFF04F1100128220D466846FFF7A9FCD2
:1008D00094E80F0002F006FF0121206803F029FAD6
:1008E000282229466846FFF79CFC94E80F0003F095
:1008F00061F9012084F8F9020020D1E710B586B033
:10090000044614216846FFF7A5FC2068B0F1A04F0B
:100910002FD119480021026842F0010202600068EC
:1009200000F0010005904FF4C05000900220CDE986
:100930000101032003900A20049069460F48FFF745
:1009400041FD0D48001D016841F0800101600A4829
:100950001430016841F4804101600068002200F415
:10096000804005901146432000F0AAF8432000F093
:1009700099F806B010BD0000303802400000024077
:10098000D0F8000302F016BAD0F8000302F016BA4D
:10099000006803F0B5B9D0F8000302F0C6B910B58D
:1009A000044690F8F80201280DD0012084F8F802DE
:1009B0000121206802F008FF206802F01BFF0020E0
:1009C00084F8F80210BD022010BD10B5044690F85E
:1009D000F802012809D0012084F8F802206803F009
:1009E000D6F9002084F8F80210BD022010BD0000E6
:1009F0000248816802781144816070471400002029
:100A00000B4810B5016841F400710160016841F4C0
:100A100080610160016841F480710160032000F091
:100A20006FF80F2000F006F800F024F8002010BD49
:100A3000003C024070B50D4D04464FF47A712878A1
:100A4000B1FBF0F00A490968B1FBF0F000F00AFBD5
:100A500048B9102C07D200222146501E00F030F871
:100A600000206C6070BD012070BD000014000020EB
:100A7000200000200A4808B5016841F48041016067
:100A8000006800F4804000900548001F016841F0B4
:100A900080510160006800F08050009008BD0000A7
:100AA00044380240002809DB00F01F020121914078
:100AB0004009800000F1E020C0F8001170470000FC
:100AC000F0B40E4B1B680C46C3F30223C3F10705B9
:100AD000042D00D90425191D072901D2002300E0A7
:100AE000DB1E012606FA05F1491E214099409E4071
:100AF000761E16403143F0BC03F0B4B90CED00E0B3
:100B0000064900F0070208684FF6FF03184040EA64
:100B10000220034A10430860704700000CED00E01B
:100B20000000FA052DE9F0470E46050065D0DFF814
:100B30001481D8F80000F7B200F00700B04207D2E5
:100B400088F80070D8F8000000F00700B04254D1D7
:100B500028683D4C810712D5400703D5206840F432
:100B6000E05020602878000703D5206840F46040FA
:100B700020602068A96820F0F000084320602878F1
:100B8000C0072DD0304968680839012812D00228E2
:100B900013D0032811D00968890700292DDA2168AC
:100BA00021F0030101432160FFF712FD814641F26C
:100BB000883A0EE009688903EFE709688901ECE7E4
:100BC000FFF706FDA0EB0901514502D90320BDE85E
:100BD000F0872068696800F00C00B0EB810FEFD15E
:100BE000D8F80010404601F00701B14207D907705C
:100BF000006800F00700B04201D00120E7E7287844
:100C0000400705D52068E96820F4E05008432060DB
:100C10002878000706D52068296920F4604040EA5A
:100C2000C100206000F038F82168084AC1F30311C0
:100C3000515CC8400649086006480068FFF7FAFEA4
:100C40000020C4E7003C0240083802404E43000840
:100C500020000020180000200448054900680968A9
:100C6000044AC1F38221515CC84070472000002033
:100C7000083802405E4300080448054900680968D6
:100C8000044AC1F34231515CC84070472000002043
:100C9000083802405E430008154810B5006810F09F
:100CA0000C02144813D04110042A0FD0082A0ED188
:100CB0000F4C241F2268236802F03F025B0207D515
:100CC0002068C0F38810A0FB010106E0084610BDB3
:100CD0002168C1F38811A1FB00010023FFF770FA1E
:100CE0002168C1F30141491C4900B0FBF1F010BD7E
:100CF000083802400024F4002DE9F84F04006ED0BB
:100D00002078DFF84C93C007A9F104054AD009F117
:100D100004000168C1F38101012908D00068C0F313
:100D2000810002280AD1D9F80000400206D52868BF
:100D3000800337D560680028E1D033E06068B0F503
:100D4000803F10D0B0F5A02F286810D020F480305C
:100D50002860286820F4802028606068A8B1FFF728
:100D600037FC06460DE0286840F48030F4E740F494
:100D700080202860F7E700BFFFF72AFC801B64286B
:100D800073D828688003F7D50CE0FFF721FC0646EE
:100D900005E000BFFFF71CFC801B6428F0D8286822
:100DA0008003F7D42078DFF8AC8280074FF0000A88
:100DB0003ED5A748001D016811F00C0F08D000684F
:100DC000C0F3810002280BD1D9F80000400207D4FB
:100DD0002868800716D5E068012800D112E033E1C9
:100DE000E068B8B10120C8F80000FFF7F1FB064643
:100DF00005E000BFFFF7ECFB801B0228C0D8286885
:100E00008007F7D52868216920F0F80040EAC10082
:100E100028600DE0C8F800A0FFF7DAFB064604E002
:100E2000FFF7D6FB801B02281FD828688007F7D45D
:100E30002078000722D5864F87486169703771B1E5
:100E400001210160FFF7C4FB064604E0FFF7C0FB89
:100E5000801B022809D838688007F7D50EE0C0F853
:100E600000A0FFF7B5FB064605E082E0FFF7B0FB08
:100E7000801B02287DD838688007F7D42078400787
:100E800068D5DFF8CCB100270BF13C0BDBF8000094
:100E9000C0000BD4DBF8001041F08051CBF80010FB
:100EA000DBF80000012700F0805000906B4E3068A6
:100EB000C00510D4306840F480703060FFF788FBC4
:100EC000009005E0FFF784FB0099401A022850D8F3
:100ED0003068C005F6D55E4EA0686C3601280FD08C
:100EE0000528306810D020F001003060306820F014
:100EF00004003060A068B8B1FFF76AFB00900FE013
:100F0000306840F00100F4E740F004003060F7E79B
:100F1000FFF75EFB0099411A41F28830814266D8A2
:100F200030688007F4D50EE0FFF752FB009007E031
:100F3000FFF74EFB0099411A41F28830814256D8A2
:100F400030688007F4D42FB1DBF8001021F0805115
:100F5000CBF80010A069C8B33D49091D0968C1F369
:100F6000810102294AD00228504607D0C8F8600003
:100F700000E03CE0FFF72CFB04463BE04746C8F8A6
:100F80006000FFF725FB064605E000BFFFF720FBEA
:100F9000801B02282BD828688001F7D4D4E90701E8
:100FA0000843A16A2E4A490802EB0141626A41EAFC
:100FB0008211084394F82C1040EA0161C9F800102E
:100FC00001203866FFF704FB044606E03EE000BF60
:100FD000FFF7FEFA001B022809D828688001F7D520
:100FE00034E000BFFFF7F4FA001B022802D9032007
:100FF000BDE8F88F28688001F4D427E00128F7D0F5
:10100000D9F80000E26900F4800191421CD1226A03
:1010100000F03F01914217D147F6C071626A01406A
:10102000B1EB821F10D1A26A4FF0FF3300F44031C0
:1010300003EB5202B1EB024F06D194F82C1000F0F2
:101040007060B0EB016F01D00120D1E70020CFE745
:101050000438024000004742800E474200700040C2
:101060000000FFFF10B5401EB0F1807F01D30120CA
:1010700010BD4FF0E02460610F21601702F0F2FE16
:101080000020A06107202061002010BD70B590F8FD
:101090003C20012A32D0012480F83C40022280F812
:1010A0003D2003685A689D6822F070060A68324342
:1010B0005A60134B02689A4214D0B2F1804F11D09B
:1010C000104B9A420ED0104B9A420BD00F4B9A42C3
:1010D00008D00F4B9A4205D00E4B9A4202D00E4BCD
:1010E0009A4204D1496825F080031943916080F841
:1010F0003D40002180F83C10084670BD022070BDC4
:10110000000001400004004000080040000C0040C6
:1011100000040140004001400018004010B50400E8
:1011200003D094F83D0010B107E0012010BD00206D
:1011300084F83C00204600F01FF8022084F83D00AF
:10114000211D206800F0E8FC012084F8460084F8A6
:101150003E0084F83F0084F8400084F8410084F8A1
:10116000420084F8430084F8440084F8450084F881
:101170003D00002010BD000008B500680649884207
:1011800008D10648016841F002010160006800F0E2
:101190000200009008BD00000004004040380240FA
:1011A00070B5044690F83C000025012817D00126B0
:1011B00084F83C60022084F83D002068826822F0B8
:1011C000770222F47F4282600868502838D00DDC14
:1011D00020284FD005DC90B3102811D14AE002201E
:1011E00070BD302846D040280AD13BE060282FD07F
:1011F00070280DD0B0F5805F03D0B0F5005F12D03D
:10120000012584F83D60002084F83C00284670BD2C
:10121000CB68D1E90121206800F0E2FC20688168F8
:1012200041F0770109E0CB68D1E90121206800F0A5
:10123000D7FC2068816841F480418160E1E719E0D2
:10124000CA684968206800F0DDFC5021206806E08B
:10125000CA684968206800F0E6FC6021206800F058
:10126000C9FCCEE7CA684968206800F0CBFC402181
:101270002068F4E7226801461046F0E770B50400E4
:1012800004D094F83D00002510B106E0012070BDA7
:1012900084F83C50204600F023F8242084F83D00D8
:1012A0002068C16821F40051C160204600F0CEFCE6
:1012B0002068016921F4904101612068416921F0B1
:1012C0002A0141612068C16841F40051C160256470
:1012D000202084F83D0084F83E00002070BD00000E
:1012E00010B586B0044614216846FEF7B3FF1449D2
:1012F0002068884221D113480021026842F0100280
:101300000260006800F0100005900E481438026872
:1013100042F001020260006800F0010005904FF405
:10132000C06000900220CDE9010103200390072056
:10133000049069460448FFF745F806B010BD000068
:101340000010014044380240000002402DE9F843FB
:10135000044690F83D001F4616460D4620284CD105
:10136000C5B1BEB194F83C00012846D0012084F8F4
:101370003C004FF00008C4F84080212084F83D0074
:10138000FFF726F9A6848146E684A068B0F5805F61
:1013900003D004E00120BDE8F883206928B12E467F
:1013A0005FF0000584F83C800EE00026FAE780211B
:1013B000204600F0D1FCA0B9AEB116F8010B2168AF
:1013C0004860E08C401EE084E08C4B464FF0000209
:1013D00000970028EBD14FF04001204600F0BCFC04
:1013E00030B10320D7E735F8020BC0F30800E6E779
:1013F000202084F83D000020CDE70220CBE72DE936
:10140000F047074600680D4600EB4116D6F8080580
:1014100001EB4103420703EBC5014FF006004FF01B
:1014200004084FF0050A07EB810401D541463CE072
:10143000D6F80815C90507D54FF48070C6F8080519
:10144000072084F861001CE0D6F80815890603D54A
:101450002020C6F8080518E0D6F808150A074FF04E
:10146000080104D5C6F8081584F861A009E0D6F88B
:101470000825520514D54FF48060C6F8080584F895
:1014800061102946386802F008FAD6F80805800588
:101490000ED52946386802F000FA4FF40070A0E03B
:1014A000D6F808150906F0D58021C6F80815C8E752
:1014B000D6F808054FF00001C0074FF010094FF0B3
:1014C00001023BD0386930B1A06CD6F81035C3F3B7
:1014D0001203C01A206584F86120E165C6F808256A
:1014E00094F83F0030B1022804D0032809D0012825
:1014F00007D012E02946386802F0CFF9C6F80895FF
:101500000BE0D6F8000540F00050C6F8000584F85E
:10151000602029463846FFF7CDF83869012806D102
:10152000B4F84010A06CB0FBF1F0C00704D014F880
:10153000540F80F001002070BDE8F087D6F8080550
:10154000800735D594F86100022301280AD00528C8
:101550000BD006280CD008280AD003280FD0072863
:1015600018D01CE084F8602019E084F860A016E030
:10157000E06D401CE065022801D9E1650DE084F8CA
:101580006030D6F8000520F0804040F00040C6F8FA
:10159000000504E0E06D401CE06584F86080C6F85A
:1015A000083594F8602029463846FFF783F8C3E7EA
:1015B000D6F80805C006BFD594F83F00032803D02D
:1015C00020B1022802D00BE0E16505E0E165386951
:1015D00030B9032084F861002946386802F05DF9CB
:1015E0004846C6F80805A7E72DE9F047026802EB70
:1015F0004114D4F8082501EB4103550703EBC1035F
:101600004FF004024FF0060A00EB830304D5C4F840
:10161000082583F861A051E0D4F808554FF0000781
:10162000AD064FF0020C0BD52022C4F8082593F824
:101630003D20012A33D183F83D7083F860C03DE03E
:10164000D4F80855AD0504D54FF40072C4F8082548
:1016500034E0D4F808554FF001065FEAC5784FF042
:1016600040050DD0DF65D4F80825520603D583F870
:101670003D60C4F80855C4F8086583F861601DE052
:10168000D4F808855FEA48680BD583F8612083F8B1
:101690003D60DF65006802F000F9C4F80855BDE858
:1016A000F087D4F808554FF008095FEA05784FF045
:1016B000050508D5C4F8089583F861500068BDE8B1
:1016C000F04702F0EAB8D4F808855FEAC86810D598
:1016D0000322DF6583F8612093F83D2022B993F857
:1016E0003C200AB983F83D60006802F0D6F810206B
:1016F0001AE0D4F808855FEA086818D5056955B17D
:10170000DD6D6D1CDD65022D0BD9DF6583F8602072
:10171000FEF7D0FF07E083F861A0006802F0BDF893
:1017200001E083F860C08020C4F80805B7E7D4F86A
:1017300008855FEA485807D583F86190006802F091
:10174000ACF84FF48060EFE7D4F808855FEA88785A
:10175000A5D593F86180B8F1010F0FD0B8F1030F50
:1017600030D0B8F1040F2DD0B8F1050F2DD0B8F15D
:10177000060F2DD0B8F1080F2AD03CE083F8606046
:1017800093F83F20022A01D0032A34D102692AB9F2
:1017900093F8552082F0010283F855200269012A4E
:1017A00029D1DA6C3AB3B3F840502A44521EB2FB46
:1017B000F5F2D2071FD093F8552082F0010283F88A
:1017C000552018E083F860C015E083F8605012E0FF
:1017D000DD6D6D1CDD65022D03D9DF6583F86020AA
:1017E00009E083F860C0D4F8002522F0804242F07E
:1017F0000042C4F80025C4F808C593F86020FEF73D
:1018000059FF4CE77CB504680546D4F840040190C4
:10181000D4F8400420F02E0000900198800709D5EC
:101820000198C00702D02846FEF7D8FE009840F085
:10183000020000900198000724D5009840F00800AD
:101840000090019840071AD5A869022803D0E868DB
:1018500001280CD00FE00198C0F34140022828680D
:1018600003D0012102F00EFA05E00221FAE74EF65C
:101870006020C4F804042846FFF786F802E02846F2
:10188000FFF77EF801988006009802D540F020000E
:101890000090C4F840047CBD2DE9F0410246006888
:1018A0000646016AC1F3434301F00F07C1F30A156D
:1018B000022B31D1002D2FD007EB470101EBC701DF
:1018C00002EB8104616C002926D0226DE36C2A446E
:1018D0009A4223D82A4602F0F4F9606C28446064E6
:1018E000206D2844206506EB4710D0F81015B4F899
:1018F0004020C1F3C941AA420ED100290CD0D0F832
:10190000001521F0804141F00041C0F8001514F8A5
:10191000540F80F001002070BDE8F081042084F8AD
:101920006000F9E7FEE7000070B586B01421684654
:10193000FEF790FC1D480024016841F01001016091
:10194000016801F010010591016841F0800101601A
:10195000016801F080010591016841F00101016019
:101960000068134E00F0010005900022C0213046AF
:10197000FEF728FE1820CDE9000469460D480294C0
:10198000FEF720FD0125CDE900546946304602945A
:10199000FEF718FDC0200090CDE90154694630469D
:1019A0000394FEF70FFD06B070BD00003038024012
:1019B000000002400010024010B586B00024144818
:1019C0000094019402940394049410490594C0E98E
:1019D00000144FF6FF71C0E9024104618461FFF712
:1019E0009DFB78B94FF48050009069460848FFF796
:1019F000D7FB38B9049404A905480594FFF746FBC2
:101A0000002801D0FEF7B5FC06B010BD0004004070
:101A10005405002010B501220B490C4801F0F4F8E0
:101A200008B1FEF7A6FC0A49084801F05FFD08B1BD
:101A3000FEF79FFC054801F03BFE002803D0BDE8FF
:101A40001040FEF796BC10BDC5360008E00500202A
:101A500028000020014801F0DFBA0000E005002066
:101A6000FEE7FEE70148FEF773BE0000B80A00205B
:101A700070477047FEF7BCBF30B593B03021684661
:101A8000FEF7E8FB14210CA8FEF7E4FB1C48002538
:101A9000016841F080510160006800F080501190B1
:101AA0001848016841F4804101600068022400F494
:101AB0008040119001200090000401908001CDE948
:101AC000064004200890A820CDE9090407200B90C7
:101AD0006846FFF711F970B90CA90F2081E83100B1
:101AE0004FF4A0500F90E002109005210CA8FFF7D2
:101AF00019F8002801D0FEF73CFC13B030BD0000FF
:101B000040380240007000400248016841F4700112
:101B10000160704788ED00E0F0B50268254C264D65
:101B2000264E274F274B4FF0804CA04209D06045EE
:101B300007D0A84205D0B04203D0B84201D09842A5
:101B400004D122F0700E4A6842EA0E02A0421BD075
:101B5000604519D0A84217D0B04215D0B84213D072
:101B6000984211D0184DA8420ED0184DA8420BD063
:101B7000174DA84208D0174DA84205D0164DA842CF
:101B800002D0164DA84203D122F44075CA682A43F8
:101B90004D6922F080022A4302608A68C2620A68A4
:101BA0008262A04201D0984201D1096901630121FA
:101BB0004161F0BD00000140000400400008004009
:101BC000000C00400004014000400140004401407E
:101BD0000048014000180040001C00400020004068
:101BE00010B5846842EA032224F47F440A43224366
:101BF000826010BD826822F070020A4342F0070141
:101C00008160704710B5036A046A24F0010404621D
:101C1000846924F0F00444EA021423F00A020A431F
:101C20008461026210BD10B5036A23F010030362E1
:101C30008369046A23F4704343EA023224F0A00368
:101C400043EA01118261016210BD000070B50446D3
:101C500000680169E26821F4405111430161216982
:101C6000A068E26908436169114308432168CA68B2
:101C700049F20C639A430243CA6020684169A26931
:101C800021F440711143416131492068884202D0FA
:101C90003049884202D1FEF7EFFF01E0FEF7DCFF9A
:101CA000E2690023192164253226B2F5004F6268EB
:101CB00028D0A0FB0101930F9200FEF781FA0146A4
:101CC000B0FBF5F06FF01802504301EB800006EB1B
:101CD0000010B0FBF5F000F0F002B1FBF5F002EB04
:101CE0000012B1FBF5F06FF01803584301EB8000D0
:101CF00006EB0010B0FBF5F000F00F002168104477
:101D0000886070BDA0FB010192185B41FEF758FA94
:101D10000146B0FBF5F00201B1FBF5F06FF01803DE
:101D2000584301EB800006EBC000B0FBF5F000F07B
:101D3000F80002EB4002B1FBF5F0584301EB8000E4
:101D400006EBC000B0FBF5F000F00700D6E700009E
:101D500000100140001401402DE9F041984617465B
:101D60000E460446069D27E0681C25D02DB1FEF7DF
:101D70002FFCA0EB0800A8421ED920680C3050E8C8
:101D8000001F21F4D07140E80012002AF5D120682C
:101D9000143050E8001F21F0010140E80012002A31
:101DA000F5D1202084F83D0084F83E00002084F81E
:101DB0003C000320BDE8F0812068006836EA00009E
:101DC00004D00020B842CFD00020F3E70120F9E78B
:101DD00010B500224FF6FF7300EB8204B4F8844480
:101DE00024040BD49A4207D002F00F0300EB8300C7
:101DF00041F40041C0F88414D0B210BD521CD2B2DC
:101E0000102AE9D31A46F7E710B500F045FF002085
:101E100010BD8278012A07D1022202740122427485
:101E2000002242828182C2820022114600F00FB855
:101E30007FB51C46012501AE0023009586E80E0003
:101E40002A46214600F0EEFF04B0002070BD70B5B8
:101E500004460120A3780546012B0BD0022B08D1A4
:101E6000204600F0FDFB58B1032809D0022800D11C
:101E7000A57070BDA160A28125760221A17070BD00
:101E8000A5700021217670BD7FB51D4690F81D34E8
:101E9000089C03B100240123CDE90031CDE90224DF
:101EA00000231A46294600F0BDFF04B0002070BD93
:101EB0001FB500231446CDE900310822CDE90223E5
:101EC0001A46214600F0AEFF04B0002010BDFEF718
:101ED00067BA000070B50546002005F5876500BFAC
:101EE00000EB800404EBC00405EB4404E67B0A34F9
:101EF0008E4201D0FF2909D1A679964201D0FF2A4E
:101F000004D1E4799C4206D0FF2B04D0401CC0B21F
:101F10000228E5D3FF2070BD102907D200EB810015
:101F2000B0F88414C1F30E01C0F884140020704787
:101F300030B48578029C012D0FD141F080010174ED
:101F40000621417403214282B1EB122F02D140F2EB
:101F5000094100E000218182C482224630BC19463A
:101F6000FFF775BF0A8803781A440A80017808448D
:101F70007047F8B50E4600F11C0400910546234653
:101F80004FF400720021FFF7D3FF002806D132463C
:101F900021462846BDE8F84000F05FBFF8BD38B5DF
:101FA0000D460091044600F507734FF4807200213E
:101FB000FFF7BEFF010044D194F81C0284F8260408
:101FC00094F81D0284F82704B4F81E02A4F828042B
:101FD00094F8200284F82A0494F8210284F82B044F
:101FE00094F8220284F82C0494F8230284F82D0437
:101FF000082806D0102804D0202802D0402800D07D
:10200000402084F82D04082D1BD9B4F82402A4F82C
:102010002E04B4F82602A4F83004B4F82802A4F878
:10202000320494F82A0284F8340494F82B0284F8D9
:10203000350494F82C0284F8360494F82D0284F8C0
:102040003704084638BDF8B51C461646009341F4DF
:10205000407200F507731D460021FFF769FF002855
:1020600014D16978032911D129788A1EA24200D897
:1020700014460021A2B2AD1C04E06B5C891C06F87A
:10208000013B89B29142F8D300213170F8BD0100C3
:102090004FF0000004D0012901D0022901D0022014
:1020A0007047012070470000F8B50546D0F87C0461
:1020B0000126C4696079062864D2DFE800F0036372
:1020C0002D033D4805F11C00ED8B092D0DD909218B
:1020D000ADF8001005E06946FFF744FF417821297B
:1020E00005D0BDF80010A942F5D302201DE001780B
:1020F00084F82610417884F82710418821850179D9
:1021000084F82A10417984F82B10817984F82C10F6
:10211000B0F80700E085E8E7E18D284600F0A6F872
:1021200010B1032803D02DE0042060712AE016A02E
:1021300001F088FE16A01FE000221146284600F09C
:1021400072FA052108B103281CD161711AE000213F
:10215000284600F075FA10B1032809D012E00120DA
:102160006071D5F8D424022128469047002609E062
:1021700005A001F067FE16A001F064FE22A001F0A8
:1021800061FE02263046F8BD4552524F523A2000B9
:10219000436F6E74726F6C206572726F723A204872
:1021A00049443A2044657669636520476574205246
:1021B00065706F72742044657363726970746F72B6
:1021C0002072657175657374206661696C65640061
:1021D000436F6E74726F6C206572726F723A204832
:1021E00049443A20446576696365205365742070DC
:1021F000726F746F636F6C20726571756573742094
:102200006661696C656400000A0000007047002385
:102210008380C3808372028101607047F0B5837A46
:102220000024EBB901238372002317E08588C78857
:102230006E1CBE4217D0B0F808C0664500D197B1F9
:10224000076811F8016B7E5585886D1CADB28580DD
:102250000689B54200D184805B1C9BB29342E5D3D2
:1022600084721046F0BD84721846F0BD08B500F5C2
:10227000077300914FF408520121FFF759FE08BD82
:1022800030B4A125029C0574012542EA0121457460
:10229000418200218182C482224630BC1946FFF768
:1022A000D6BD70B50546D0F87C040026C4696178B7
:1022B00039B12846FFF7A8FD61782846FFF72CFEC4
:1022C0006670217839B12846FFF79EFD21782846AF
:1022D000FFF722FE2670D5F87C04C06920B101F01A
:1022E0004DFFD5F87C04C661002070BD2DE9FE438A
:1022F0000546D0F87C040027FF23017901222846F7
:10230000FFF7E8FD0646FF2826D0022E24D201461C
:10231000284601F029F9F8B9342001F0DDFFD5F89D
:102320007C140446C861200016D03421FDF792FFCA
:102330000720A07006EB860000EBC60005EB400608
:1023400096F8490401280AD0022810D035A001F0DF
:1023500079FD3AA001F076FD0220BDE8FE8338A0A9
:1023600001F070FD35A001F06DFD3B4806E03BA09B
:1023700001F068FD31A001F065FD3D4820630020BB
:10238000A070607196F84E04A076B6F850042083D1
:1023900096F85204A0830A2801D20A20A08396F856
:1023A0004604022801D8804637E04FF0020800BFFB
:1023B00006EBC7004FF0030990F84E14080613D53A
:1023C00021712846FFF704FD60700146208B95F8C7
:1023D0001D34CDE90039029095F81C342279284645
:1023E00000F031FD617812E0E1702846FFF7F0FC63
:1023F00020700146208B95F81D34CDE900390290FC
:1024000095F81C34E278284600F01DFD2178002262
:10241000284600F0E3FC7F1CFFB24745C8D30020EC
:102420009BE7000050726F746F636F6C206E6F7467
:1024300020737570706F727465642E000A0000005E
:102440004B6579426F6172642064657669636520CB
:10245000666F756E64210000752400084D6F7573FA
:10246000652064657669636520666F756E6421001A
:10247000D124000870B50146D0F87C04124A134DEF
:10248000C369002050709070D070107150719071BD
:10249000D07110720246A5F1080400BF45F8220071
:1024A00044F82200521C022AF8D3188B082801D9BC
:1024B00008201883502203F1080001F507715C61C0
:1024C000FFF7A5FE002070BDBC0D002050000020CD
:1024D00070B50146D0F87C04114A114DC369002043
:1024E000107050709070D07010710835024605F170
:1024F000080400BF45F8220044F82200521C022ABA
:10250000F8D3188B082801D908201883502203F12A
:10251000080001F507715C61FFF779FE002070BDCE
:10252000580000202DE9F8430646D0F87C04002529
:102530000127C4694FF00408A07807285FD2DFE8BC
:1025400000F004095E5E29243800216B304688477C
:10255000A77054E0207E009000220121304663697C
:10256000FFF78EFE05004FF0050107D0012D07D0C3
:10257000032807D00720A070022540E0A1703EE0AC
:10258000A77000E0A170002539E0D6F8C404C007A8
:1025900033D134E06378227E3046616900F06CFB11
:1025A0000620A070D6F8C4042062002084F824001D
:1025B00025E06178304600F0B4FB012861783046B0
:1025C00004D000F0AEFB052812D018E000F094FB18
:1025D00094F8241099B990B1228B04F10800616934
:1025E000FFF71CFE84F824703046FFF70FFE06E06C
:1025F000A17E3046FFF70DFC08B984F8028028461A
:10260000BDE8F883D0F87C14C9698A78062A08D115
:10261000D0F8C4040A6A801A8A8B904201D304203D
:10262000887000207047212303740A23437442EA10
:102630000121418200218182C1820A46FFF707BC45
:10264000212202740B224274002209B1428201E06D
:10265000012141828282C28200221146FFF7F7BB2C
:102660002DE9F84F0125017E04460B26092728464F
:102670004FF007084FF0050A4FF00D090C2919D249
:10268000DFE801F0BD060E26313C48606B7C899A7C
:10269000627904F110012046FFF70AFC022012E0E3
:1026A0006179204600F03DFB012804D0042871D058
:1026B00002287FD0A3E0207CE18A00F0800021B1D5
:1026C00080283AD10320207699E0802814D02EE08B
:1026D000D4F8C404E0812379A2892046A168FFF7D9
:1026E000A7FB0420EFE72179204600F01AFB012820
:1026F00002D0052840D056E0277680E0009063792C
:10270000A2892046A168FFF7BFFBD4F8C404E0818A
:102710000620D8E76179204600F003FB012806D0A7
:10272000052807D0022808D0042809D067E084F8DB
:10273000188064E00C2020761EE084F818A05EE08B
:1027400026765BE00022237911462046FFF770FBD6
:10275000D4F8C404E0810820B5E72179204600F0D0
:10276000E0FA012804D0042824D0052804D046E04B
:1027700084F81890002542E0032540E000900022F4
:10278000637911462046FFF77FFBD4F8C404E0814B
:102790000A2098E70EE06179204600F0C2FA01288D
:1027A00004D00228A8D0042804D028E0002584F80A
:1027B000189024E0267622E0617E491CC9B2617639
:1027C000022902D82076A07019E0D4F8D42406217A
:1027D00020469047002565760AA001F033FB0BA048
:1027E00001F030FB13A001F02DFB61792046FFF7CB
:1027F00093FB21792046FFF78FFB257002252846A1
:10280000BDE8F88F4552524F523A2000436F6E7424
:10281000726F6C206572726F723A204465766963DC
:1028200065206E6F7420726573706F6E64696E6779
:10283000000000000A0000002DE9FE430126417857
:1028400000250D270446B04600F5077908290CD26B
:10285000DFE801F0042C4B8DADC7D9F508212046E7
:10286000FFF79DFB10B1032806D0FCE094F82D047F
:10287000A07184F801804FE07EA001F0E3FA7FA010
:1028800001F0E0FA8AA001F0DDFA94F81E04401C81
:10289000C0B284F81E04032870D861792046FFF77F
:1028A0003BFB21792046FFF737FB98E012212046B9
:1028B000FFF775FB10B1032812D0D4E0B4F8301440
:1028C0007CA001F0BFFA7AA001F0BCFAB4F82E1493
:1028D0007BA001F0B7FA76A001F0B4FA02206EE016
:1028E00064A001F0AFFA79A04CE00121204600F08D
:1028F000B5FE10B1032829D0B5E00220FFF7E7FAB2
:10290000414684F81C8480A001F09CFA68A001F084
:1029100099FA03206070A07994F81D140091CDE914
:10292000015094F81C3421798022204600F08BFA63
:10293000A07994F81D140091CDE9015094F81C344D
:1029400061790022204600F07EFA8CE049A001F077
:1029500079FA73A001F076FA55A001F073FA7DA020
:1029600001F070FA52A001F06DFA27705FE00921C2
:102970002046FFF7FEFA10B9042020E00FE00328FC
:102980001FD070E001F05EFA49A001F05BFA94F804
:102990001E04401CC0B284F81E04032816D96DA082
:1029A00001F050FA42A001F04DFA27705BE0B4F854
:1029B0003A142046FFF7DDFA0028E0D105206070C8
:1029C00051E02CA001F03EFA7248DBE76179204625
:1029D000FFF7A2FA21792046FFF79EFA657025706D
:1029E00041E094F83414062559B1FF234A462046A5
:1029F000FFF729FB10B1032803D034E0494666A055
:102A000010E06AA016E094F835140725A9B1FF2359
:102A10004A462046FFF717FB10B103280DD022E0ED
:102A2000494667A001F00EFA21A001F00BFA65708B
:102A300019E004E001F006FAF6E765A0FAE794F879
:102A4000361499B1FF234A462046FFF7FCFA10B12D
:102A500003280BD007E0494661A001F0F3F914A068
:102A600001F0F0F900263046BDE8FE8361A001F0D8
:102A7000E9F9F4E74552524F523A2000436F6E7421
:102A8000726F6C206572726F723A204765742044D1
:102A900065766963652044657363726970746F72EB
:102AA0002072657175657374206661696C65640078
:102AB0000A0000005049443A2025786800000000D0
:102AC0005649443A2025786800000000436F6E7430
:102AD000726F6C206572726F723A2047657420467F
:102AE000756C6C2044657669636520446573637218
:102AF0006970746F72207265717565737420666198
:102B0000696C656400000000416464726573732041
:102B100028232564292061737369676E65642E001C
:102B2000436F6E74726F6C206572726F723A2044DC
:102B300065766963652053657420416464726573CA
:102B4000732072657175657374206661696C656464
:102B500000000000436F6E74726F6C206572726FBC
:102B6000722C20446576696365206E6F742052650F
:102B700073706F6E64696E6720506C656173652059
:102B8000756E706C7567207468652044657669633E
:102B9000652E0000684300084D616E7566616374C0
:102BA00075726572203A2025730000004D616E75C4
:102BB0006661637475726572203A204E2F41000081
:102BC00050726F64756374203A2025730000000012
:102BD00050726F64756374203A204E2F41000000DC
:102BE00053657269616C204E756D626572203A2082
:102BF0002573000053657269616C204E756D6265C6
:102C000072203A204E2F410070B50E46040018D0B5
:102C100084F8CC240025C4F87C54C4F8805404F50E
:102C20008464FDF77DFBE57025706570A570A4F5E3
:102C300084640EB1C4F8D464204600F085F8002006
:102C400070BD05A001F0FEF805A001F0FBF809A099
:102C500001F0F8F8022070BD4552524F523A200060
:102C6000496E76616C696420486F73742068616E88
:102C7000646C65000A0000007FB51C46012501AEAA
:102C80000023009586E80E0003232A46214600F023
:102C9000C9F804B0002070BD10B5D0F8D004FDF71D
:102CA000BCFCBDE81040FFF7F2B9012180F8201408
:102CB000002180F8211480F822140846704710B5CE
:102CC0000446012084F82104002084F8200484F8BC
:102CD0002304204600F09DF821792046FFF71CF9D7
:102CE00061792046FFF718F9002010BD10B5C82003
:102CF000FDF756FB002010BDD0F8D004FDF785BCD1
:102D000010B50124D0F8D004FDF773FC20B10128E0
:102D100005D0022803D101E0002400E0022420466F
:102D200010BDD0F8D004FDF767BCD0F8C414491C1E
:102D3000C0F8C41401780B2905D1D0F87C140029FF
:102D400001D089690847704710B5044690F8CC0453
:102D500001281CD10F484FF0A0410022C0F80043C9
:102D6000C4F8D0040160082181600121C0E9031288
:102D70000221C0E90612FDF788FD08B1FDF7F9FA56
:102D80000448FDF733FC0146204600F024F80020FB
:102D900010BD0000B80A0020FEB508AF97E870002B
:102DA0008DE87000D0F8D004FDF749FCBDE8FE4086
:102DB000FFF76DB9002180F823147047012180F8D6
:102DC0002314704710B5D0F8D004FDF7E1FDBDE83D
:102DD0001040FFF75CB9C0F8C4147047D0F8D004B5
:102DE00001EB410303EBC10100EB810090F83B10C4
:102DF00011B180F8542001E080F855200020704780
:102E000010B5D0F8D004FDF7CAFDBDE81040FFF7BB
:102E10003EB910B5D0F8D004FDF7D7FDBDE810409D
:102E2000FFF735B92DE9FF410DF1280898E8F000CA
:102E30008DE8F000D0F8D004FDF73DFC04B0BDE80B
:102E4000F041FFF724B9FEB508AF97E870008DE8B0
:102E50007000FFF7A1FF0020FEBD2DE9F74F82B003
:102E60000878029D4FF0000B0C4685F8380448782E
:102E700085F839044888D84605F58765FF2801D9C3
:102E80004FF4807068800879287148796871887972
:102E9000A871C879E871207A28722978092009294F
:102EA00000D02870092A7CD98146ADF800005FE087
:102EB00069462046FFF756F804464078042854D166
:102EC0002078092801D084F8009008EB880101EBF4
:102ED000C80005EB400A20788AF80A0060788AF872
:102EE0000B00A0788AF80C00E0788AF80D002079B1
:102EF0008AF80E0060798AF80F00A0798AF810002D
:102F0000E0790AF10A068AF81100207A3072002767
:102F10001CE069462046FFF725F80446407805285E
:102F200014D17079012802D1B079022830D02078EC
:102F3000072801D0072020700AEBC7012246143170
:102F4000029800F031F87F1C8346FFB23079B84216
:102F500004D96888BDF800108842DAD83079B842C0
:102F600011D808F1010000F0FF08B8F1020F04D2F7
:102F70006888BDF8001088429AD82879022800D3C2
:102F8000022040450DD9032005B0BDE8F08F08E0D0
:102F9000F0790028D0D120780928CDD084F800908D
:102FA000CAE75846F0E70000F0B513780B70537885
:102FB0004B7093788B70D478CC7095888D80064652
:102FC000937900208B71D5B16FF30A058D809288BB
:102FD0004FF40077C2F30A02BA4200D33A461543CF
:102FE000A1F8045096F81D14002904F0030108D03C
:102FF00001290BD0E143890700D153B1F0BD032073
:10300000F0E7012902D0E1438907F7D10BB1102B7A
:10301000F4D90320F0BD00002DE9FE434FF0020873
:1030200004468DF8008094F821140020012901D174
:103030000321217021780D26082700250C291DD297
:10304000DFE801F0061D47FD1C7CFC9AA4AFCDFB18
:1030500094F82004002811D0ABA000F0F3FEB0A03B
:1030600000F0F0FE01202070C820FEF730FF20465F
:10307000FFF7A8FE84F81C54C4F8C8543AE194F849
:103080002304012814D0D4F8C804B0F57A7F19D9E4
:1030900094F81F04401CC0B284F81F04032874D99C
:1030A000A0A000F0CFFE9EA000F0CCFE267021E193
:1030B000A7A000F0C7FE9AA000F0C4FE84F81F5439
:1030C0004046E2E00A30C4F8C8040A20FEF7FFFEDA
:1030D00010E1D4F8D42412B1042120469047642092
:1030E000FEF7F5FE2046FFF70BFE84F81D040520D1
:1030F000207000212046FEF76BFE60718021204683
:10310000FEF766FE20710146A07994F81D24009216
:10311000CDE9015094F81C3480222046FFF793FE3D
:10312000A07994F81D140091CDE9015094F81C3455
:10313000617900222046FFF786FEDBE02046FFF79C
:103140007BFB8DF800009DF80000002896D187A039
:1031500000F078FE72A000F075FE84F8245494F814
:103160003704012801D007208FE085A000F06AFE17
:103170006BA000F067FE06E0D4F8D424002A96D0B5
:103180000121204690472770B4E026E094F83D14D2
:10319000204600F071FA002889D10920207082A011
:1031A00033E094F83F044FF00A05800615D501215D
:1031B000204600F06FFA8DF800009DF8000020B165
:1031C0009DF80000032802D094E07EA000E085A0D6
:1031D00000F038FE52A000F035FE25708AE0D4F8E9
:1031E000801489B1C4F87C5494F8471404EB80022D
:1031F000D2F8782412798A420AD104EB8000D0F800
:103200007804C4F87C0408E081A000F01BFE10E004
:10321000401C10F0FF00E9D0284610B3816820461A
:10322000884768B12670D4F87C04016880A000F05B
:1032300009FE3BA000F006FE5CE034E014E039E05B
:1032400006202070D4F87C04016881A000F0FAFD0B
:1032500033A000F0F7FDD4F8D42403212046904792
:1032600048E026707FA0D0E7D4F87C04A8B10169BB
:10327000204688478DF800009DF8000020B19DF899
:103280000000022803D035E00B20207032E02670C9
:103290007EA000F0D7FD7FA0B7E726707BA000F0EE
:1032A000D1FD86A0B1E7D4F87C0418B3416920466B
:1032B00088471FE084F821542046FDF731F8D4F800
:1032C0007C0420B1C16820468847C4F87C54D4F8F7
:1032D000D42412B10521204690477EA000F0B2FD13
:1032E0000FA000F0AFFD94F82204012805D020467D
:1032F000FFF786FD0020BDE8FE8384F822542046B7
:1033000000F0D6F9F6E7000055534220446576698F
:10331000636520436F6E6E65637465640000000032
:103320000A000000555342205265736574204661BF
:10333000696C65642C20506C6561736520756E70D6
:103340006C756720746865204465766963652E0036
:1033500055534220446576696365205265736574F0
:1033600020436F6D706C657465640000456E756D0B
:1033700065726174696F6E20646F6E652E00000067
:103380005468697320646576696365206861732099
:103390006F6E6C79203120636F6E6669677572613C
:1033A00074696F6E2E00000044656661756C742050
:1033B000636F6E66696775726174696F6E2073659D
:1033C000742E00004465766963652072656D6F74C4
:1033D000652077616B65757020656E61626C6564F0
:1033E0000000000052656D6F74652077616B657534
:1033F00070206E6F7420737570706F7274656420C6
:1034000062792074686520646576696365000000F0
:103410004E6F20436C617373206861732062656531
:103420006E20726567697374657265642E000000B2
:10343000446576696365206E6F7420737570706F74
:103440007274696E6720257320636C6173732E003C
:10345000257320636C617373207374617274656487
:103460002E0000004E6F2072656769737465726587
:103470006420636C61737320666F72207468697373
:10348000206465766963652E000000004552524F46
:10349000523A2000446576696365206E6F7420722D
:1034A0006573706F6E64696E6720506C65617365DB
:1034B00020556E706C75672E00000000496E7661B5
:1034C0006C696420436C6173732044726976657221
:1034D0002E000000555342204465766963652064E0
:1034E0006973636F6E6E65637465640010B5002266
:1034F000A1B1D0F8803453B10BA000F0A3FC0CA014
:1035000000F0A0FC11A000F09DFC022204E00123C9
:10351000C0F88034C0F87814104610BD02A000F046
:1035200091FC0BA0ECE700004552524F523A2000AC
:103530004D617820436C617373204E756D626572C6
:103540002072656163686564000000000A00000085
:10355000496E76616C696420436C617373206861A5
:103560006E646C650000000070B5054690F83C0480
:103570000C460026A04227D985F82444214618A0ED
:1035800000F060FC1EA000F05DFC04EB840000EB8A
:10359000C40005EB40041BA094F8471404F2474410
:1035A00000F050FC16A000F04DFC617819A000F06E
:1035B00049FC13A000F046FCA1781AA000F042FCE0
:1035C0000FA000F03FFC09E01AA000F03BFC1BA09C
:1035D00000F038FC0AA000F035FC0226304670BD31
:1035E000537769746368696E6720746F20496E74DD
:1035F0006572666163652028232564290000000048
:103600000A000000436C617373202020203A2025BB
:1036100078680000537562436C617373203A20250B
:103620007868000050726F746F636F6C203A2025C9
:10363000786800004552524F523A200043616E6E46
:103640006F742053656C65637420546869732049F6
:103650006E746572666163652E0000008278012ACF
:1036600006D1002202740523437441828282C28201
:1036700000221146FEF7EBBB8278012A06D1002218
:1036800002740923437441828282C282002211465D
:10369000FEF7DDBB8278012A06D1002202740323E3
:1036A000437441828282C28200221146FEF7CFBB60
:1036B00010B50446FFF7A4FB01212046FFF716FBD7
:1036C000002010BD01290AD00548022906D004298E
:1036D00003D0052903D1032100E0012101707047C7
:1036E0002400002070B5044606990A9E049D0D989A
:1036F000012916D0E06840F04000E060204600F06C
:103700002BF8A16B1EB321F48031A163012D07D1E9
:10371000A16841F00601A160A16841F02001A1600B
:1037200070BDA16B21F48031A163E168094A1140A9
:10373000E160E16821F44011E160012803D1E06813
:1037400040F48010E060204600F006F8DEE741F427
:103750008031DAE7BFFFBDFF08B500220D490092B6
:10376000009B5B1C00938B420CD80369002BF7DA9B
:103770000092026942F001020261009A521C00921A
:103780008A4201D9032008BD0269D207F5D1002081
:1037900008BD0000400D0300816821F00101816037
:1037A0000020704700EB4110064AC0F81025D0F801
:1037B000001521F0804141F00041C0F800150020C3
:1037C000704700000000088008B5D0F8402422F0BF
:1037D0002E020092D20405D4012909D1009941F4A6
:1037E000805103E021B9009921F48051C0F84014C0
:1037F000002008BD816841F0010181600020704710
:1038000008B500220C490092009B5B1C00938B4280
:103810000AD80369002BF7DA009210220261009A9D
:10382000521C00928A4201D9032008BD0269D206C7
:10383000F5D4002008BD0000400D030018B500239A
:103840000D4A0093009C641C009494420CD80469B7
:10385000002CF7DA0093202343EA811101610099DB
:10386000491C0091914201D9032018BD01698906C4
:10387000F5D4002018BD0000400D0300D0F8080466
:1038800080B2704708B5D0F840040090C0F34140C2
:1038900008BD406900F00100704718B5002200EB38
:1038A00041110092D1F80025D1F80035C2F38142D0
:1038B0008468DB0FA40600D51BB34FF47A736AB19A
:1038C000022A0BD0D1F8002542F08042C1F8002531
:1038D000D0F8100410F47F0F2BD00CE0D1F80025A5
:1038E00042F08042C1F800258268920609D4C06A7D
:1038F00010F47F0F07D0D1F8000540F00040C1F868
:103900000005002018BDD1F8000520F00040C1F8E6
:103910000005D1F8000540F00040C1F8000500980E
:10392000401C00909842ECD8D1F800050028F6DB46
:10393000E7E7D1F8000520F00040C1F80005D1F814
:10394000000540F00040C1F800050098401C0090C0
:103950009842D6D8D1F800050028F6DBD1E7000060
:103960002DE9F0431E46DDE90785002700EB4114F1
:103970007B1EDDF82490C4F8083505B3012D39D03D
:10398000022D1CD0032D2ED05FF00107D4F80C358A
:1039900043F00203C4F80C35D0F8183401F00F0CD2
:1039A000012101FA0CF10B43C0F81834816941F090
:1039B0000071816111062AD54FF4004128E040F2E0
:1039C0009D43C4F80C35130605D500BFD4F80C355B
:1039D00043F4807318E0C36BDB05D7D5D4F80C35FE
:1039E00043F0600310E040F29D63C4F80C35130609
:1039F000ECD4CBE740F22523C4F80C351306C5D52B
:103A0000D4F80C3543F4C073C4F80C35BEE700217C
:103A1000FFF738FFB8F1020F04D1022802D04FF4AB
:103A2000003000E000204FF0FE5303EA86534FF4CD
:103A3000F04606EAC22213434FF4402202EA8542CE
:103A40001343C9F30A0213430B430343C4F800357D
:103A5000032D01D0012D05D1D4F8000540F0005010
:103A6000C4F800053846BDE8F083D0F8140480B2ED
:103A70007047F8B54C78C56B4FF48073ED0515D5DC
:103A80000D799DB9012A01D06AB10FE0CD790DB150
:103A9000022D0BD100EB4415D5F80C6526F070060D
:103AA000C5F80C6502E04D79012D0DD04E697EB14F
:103AB0000D8977197F1EB7FBF5F7BFB29F4208D972
:103AC0001F462B020B6104E02146FFF76BFE6EE000
:103AD0000127CB781BB10B897B430B6101E0334697
:103AE0000E61C3F312056FF0604303EAC7431D4341
:103AF0008B7A4FF0C04606EA43731D4300EB441334
:103B0000C3F8105512B1CC68C3F81445D0F8084476
:103B1000D3F8005544F3000425F00055C3F80055D0
:103B2000D3F80055641C45EA4474C3F80045D3F843
:103B3000004524F080440094CC78002C009C02D0F6
:103B400044F4004401E024F4004444F000440094B0
:103B5000C3F800455ABBCA784ABB4A693AB3CB7925
:103B600033B1012B0FD0022B02D0032B17D10AE067
:103B7000D21CC36AC2F38F029BB293420FD28269F6
:103B800042F020020AE0D21CD0F81034C2F38F02B7
:103B90009BB2934203D2826942F08062826100222A
:103BA00000928A8A93B24A78C96800F035F90020F9
:103BB000F8BD00002DE9F0410025DDF8188017461A
:103BC00004462E46C0F8005E806B40F40010A063EF
:103BD000A06B20F40020A063A06B20F48020A063E1
:103BE000E06BC00501D5012B04D0D4F8000420F00F
:103BF000040103E0D4F8000440F004012046C4F8B6
:103C000000141021FFF71AFE00B101252046FFF72E
:103C1000F7FD00B101250020411E06E004EB401233
:103C2000C2F80815C2F80C65401C8742F6D8A66198
:103C30006161E06BC00506D54FF4007060620C480E
:103C4000A0620C4804E0802060620B48A0620B4830
:103C5000C4F80001B8F1000F03D1A06940F01000D2
:103C6000A061A06906490843A0612846BDE8F0812B
:103C7000000200010003E00080006000E00040005E
:103C8000080020A3D0F8002422F00302C0F800248A
:103C9000D0F8002401F003031A43C0F800240129DE
:103CA00002D0022903D006E04BF6803101E041F258
:103CB0007071C0F8041400207047416980690840A1
:103CC000704730B503460846940802F0030100220D
:103CD00003F5805303E01D6840F8045B521CA242C8
:103CE000F9D300290BD01C680022D50024FA05F373
:103CF000491E521C090400F8013B090CF5D130BDE6
:103D000038B50446D0F8400420F02E00009040F46E
:103D10008070C4F84004642004F58864FCF740FB1C
:103D2000009820F4807020600A20FCF739FB002006
:103D300038BD70B50446C068002520F0C040E06082
:103D4000012901D079B120E0E06840F00050E06046
:103D50000120FCF725FB60696D1C10F0010F10D1EC
:103D6000322DF5D30DE0E06840F08040E0600120A6
:103D7000FCF716FB60696D1C10F0010F01D0322DAD
:103D8000F5D3322D01D0002070BD012070BD38B5B3
:103D9000002504460095806820F00100A0601021F5
:103DA0002046FFF74BFD00B101252046FFF728FD17
:103DB00000B10125002004EB4011D1F8002522F0CC
:103DC000802242F08042C1F80025401C0F28F2D921
:103DD00000204FF47A7304EB4011D1F8002522F44F
:103DE000004242F04042C1F80025009A521C009265
:103DF0009A4203D8D1F80025002AF6DB401C0F2890
:103E0000E9D94FF0FF30C4F814046061A06840F0B5
:103E10000100A060284638BD10B5029C74B9DB1CB7
:103E20009C0800EB0230002300F5805004E000BF46
:103E300051F8042B02605B1CA342F9D3002010BD93
:103E4000FEE700000FB4054B10B503A9044A029821
:103E500000F028F810BC5DF814FB00006541000874
:103E6000700000200907090E002804DB00F1E020A3
:103E700080F80014704700F00F0000F1E02080F897
:103E8000141D704702E008C8121F08C1002AFAD1A9
:103E900070477047002001E001C1121F002AFBD1CA
:103EA000704700002DE9FF4F8DB09B460F4604463A
:103EB000002606E025280BD05A460F999047641C2F
:103EC000761C20780028F5D111B03046BDE8F08F7F
:103ED0000025A8460122984900E0054314F8013F57
:103EE000203B02FA03F00842F7D120782E2817D1A0
:103EF00014F8010F45F004052A280ED06FF02F02A8
:103F00002078A0F1300109290AD808EB880102EBDA
:103F1000410100EB0108641CF2E757F8048B641CB4
:103F200020786C280DD004DC4C2812D06A2811D1DE
:103F300004E074280DD07A280CD10AE045F400156D
:103F400007E0617845F48015814202D1641C05F5D3
:103F50008015641C2278692A45D008DC002AB3D079
:103F6000582A69D0632A10D0642A08D13BE0702A0D
:103F700067D0732A13D0752A5CD0782A5CD010469B
:103F80005A460F999047761CD3E017F8040B8DF82A
:103F9000000000208DF80100E946012003E057F8F9
:103FA000049B4FF0FF3069074FF0000501D40AE091
:103FB0006D1C45450DDA8542FADB19F8051000291C
:103FC000F6D106E06D1C8542FCDB19F805100029CE
:103FD000F8D12E4404E019F8010B5A460F99904786
:103FE0006D1EF8D2A5E00A200021CDE90801C5F335
:103FF000025002280DD001CFC117031E71F100033A
:104000000DDA4FF0000CD0EB0C006CEB01012D230E
:1040100008E0FF1D27F00707F7E80201EDE72B0591
:1040200004D52B238DF8283001233BE0EB0739D052
:104030002023F7E70A2000E010200021CDE9080145
:1040400007E01020002145F00405CDE908014FF0FC
:104050000808C5F3025002280FD001CF00214FF00D
:10406000000A2B071FD5702A0DD0DDE908C38CF09C
:10407000100C5CEA030C0CD015E0FF1D27F00707BD
:10408000F7E80201EBE740228DF828204FF0010A03
:104090000BE050EA010306D030238DF828308DF86C
:1040A000292002239A46582A04D024A20DF120097F
:1040B0000B9209E026A2F9E7DDE90823FCF780F876
:1040C0000B9B9B5C09F8013D50EA0102F4D1ADEB7A
:1040D000090020300890680701D44FF001080899C2
:1040E000884502DDA8EB010000E0002080460025A5
:1040F00006E00AA85A46405D0F9990476D1C761C51
:104100005545F6DB04E030205A460F999047761C5F
:10411000B8F10001A8F10108F5DC05E019F8010B80
:104120005A460F999047761C0899481E0890002916
:10413000F4DC641CC5E6000009280100303132338C
:1041400034353637383961626364656600000000D3
:1041500030313233343536373839414243444546BD
:104160000000000013B54FF6FF73012269460248B4
:10417000FDF7ECF800981CBD9C05002010B5002848
:1041800021D0114B0022001F196803E0814203D89F
:104190000A4649680029F9D152B11368841A9C4231
:1041A00004D1006818441060104602E0506000E03E
:1041B000186039B102680B1A934203D10B681A4494
:1041C00002604968416010BD740000209CB0FCF79B
:1041D00017FCFDF751FCFDF7A7FB2B4829490024EC
:1041E00001604FF4E131C0E901140C21C460C0E961
:1041F00004418461C461FDF741F808B1FCF7B9F8E6
:10420000FDF708FCFDF7D8FB0020FCF75FF8012064
:10421000FCF75CF8C820FCF7C3F80020FCF764F852
:104220000120FCF761F8C820FCF7BAF80020FCF781
:104230004DF80120FCF74AF814A0FFF703FE1748D9
:10424000D0F87C04C56916A0FFF7FCFD05F108064F
:10425000FDF700FC95F874000228F9D118A0FFF7CB
:10426000F1FD702231466846FBF7DBFFD5E90023FC
:1042700017A0FFF7E7FD11A0FFF7E4FD85F87440F4
:10428000E6E70000001001409C05002053746172B5
:10429000742073797374656D0D0A00007C00002032
:1042A00053544D3332463420555342204653205206
:1042B000544C2D53445220486F73740D0A00000073
:1042C00052544C5344525F48616E646C650D0A0051
:1042D0005374202564000000F0B50B30154D20F01C
:1042E00007010024144A0FE003688B420BD38B4272
:1042F00005D95E1A43184768C3E9006700E04368C0
:10430000136002C004E0021D10680028ECD12046B2
:10431000002802D1286808B10020F0BD064A0748ED
:104320001060074A121A22F00702C0E90024012097
:104330002860D7E77800002074000020D40D00200A
:10434000D011002040008000010010000800000093
:104350000000000000000102030406070809000035
:104360000000010203040000436F6E74726F6C2042
:104370006572726F723A204765742044657669638E
:104380006520636F6E66696775726174696F6E2010
:1043900064657363726970746F722072657175659C
:1043A0007374206661696C656400000048494400CC
:1043B000D0430008000000207C000000843E00087C
:1043C0004C4400087C00002054150000943E000876
:1043D00000000240000002400000024000100240C5
:1043E000001002400100000010000000000000006A
:1043F0000024F40000000000AC43000803000000AB
:10440000ED220008A3220008A920000825250008A5
:104410000526000800000000000000000000000069
:10442000000000000000000000000000000000008C
:10443000000000000000000000000000000000007C
:0C44400000000000000000000000000070
:040000050800018965
:00000001FF
