:020000040800F2
:100000004006002045010008530F00084F0F00086C
:10001000510F0008F5010008FD270008000000004E
:10002000000000000000000000000000B510000803
:10003000F7010008000000005B0100085D010008F6
:100040005F0100085F0100085F0100085F01000810
:100050005F0100085F01000819020008290200087A
:100060005F0100085F0100085F0100085F010008F0
:100070005F0100085F0100085F0100085F010008E0
:100080005F0100085F0100085F0100085F010008D0
:100090005F0100085F0100085F0100085F010008C0
:1000A0005F0100085F0100085F0100085F010008B0
:1000B0005F0100085F0100085F0100085F010008A0
:1000C0005F0100085F0100085F0100085F01000890
:1000D0005F010008DD2700085F0100085F010008DC
:1000E0005F0100085F0100085F0100085F01000870
:1000F0005F0100085F0100085F0100085F01000860
:100100005F0100085F0100085F0100085F0100084F
:100110005F0100085F010008392500085F01000841
:100120005F0100085F0100085F0100085F0100082F
:10013000DFF80CD000F04CF800480047152B000801
:10014000400600200648804706480047FEE7FEE7D5
:10015000FEE7FEE7FEE7FEE7FEE7FEE7FEE7FEE777
:10016000352500083101000840EA01039B0703D050
:1001700009E008C9121F08C0042AFAD203E011F8E6
:10018000013B00F8013B521EF9D27047D2B201E0A8
:1001900000F8012B491EFBD270470022F6E710B58C
:1001A00013460A4604461946FFF7F0FF204610BDE5
:1001B00030B505460020034600E05B1C934205D2A3
:1001C000EC5CC85C201A01D1002CF6D130BD0000D7
:1001D000064C074D06E0E06840F0010394E8070094
:1001E00098471034AC42F6D3FFF7A6FF442D000821
:1001F000642D0008FEE7704738B1012807D00228B7
:1002000007D0032807D101F0A3BA01F0D7B801F055
:10021000DDB901F04DBA70470249012008600020A5
:10022000FFF7EABF140401400249022008600120E0
:10023000FFF7E2BF14040140094A002152F83130AF
:10024000834208D802EBC1039B68834203D902EBC7
:10025000C10000797047491CC9B21529EED3FEE7E9
:100260002C2C00082DE9F05F90F8211000240229C1
:1002700003D004218163012485E001680A6822F02B
:100280000E020A6001680A6822F001020A603F4E0D
:100290003E4FB215DFF8F4C0DFF8F090DFF8ECA0C5
:1002A000DFF8E8B0DFF8E4E00168783F13011502F9
:1002B000ACF1640CA9F15009AAF13C0AABF1280B8E
:1002C000AEF1140E4FF48018B14227D9B9420ED0C6
:1002D000614512D049451DD0514518D0594518D017
:1002E000714501D1424615E0294EB14201D10122AA
:1002F00010E0274E1436B14201D110220AE0244EFC
:100300002836B14206D0224A3C32914201D11A46E7
:1003100000E02A461E49091F0A602BE0B94213D0AB
:10032000614517D0494522D051451DD059451DD0B2
:10033000714501D142461AE0B14202D14FF08072BC
:1003400015E0134EB14201D1012210E0104E1436D7
:10035000B14201D110220AE00D4E2836B14206D03A
:100360000B4A3C32914201D11A4600E02A46074925
:1003700080394A60012180F82110002180F8201086
:10038000416B01B188472046BDE8F09F80000240E4
:10039000080402402DE9F84FDFF8C091002409F16C
:1003A000040A0AF1040B23464FF00F080BF1040E68
:1003B000CCE00127A7403A40BA4272D1DFF8A0C191
:1003C0004D68A5EB0C0665452BD00DDC032D34D014
:1003D00005DC35B3012D19D0022D2FD11BE0112DD5
:1003E00016D0122D2AD119E0B6F5881F19D006DCD7
:1003F000B6F5803F15D0B6F5801F1FD111E0B6F5D8
:10040000001F0ED0B6F5041F18D10AE0CB6815E026
:10041000CB681B1D12E0CB6808330FE0CB680C33B0
:100420000CE08B682BB1012B4FF0080303D0476120
:1004300004E0042302E0076100E00023FF2A01D862
:10044000064601E000F104064FEA840501D9A5F152
:100450002005376808FA05FC27EA0C0703FA05F5BA
:1004600047EA050737604D68ED006ED53D4DAE6932
:1004700046F00106AE61AD6924F0030605F0010502
:100480000095394D7719BE68A5072D0F08FA05FCB0
:1004900026EA0C06DFF8D4C0604503D14FF0000C0B
:1004A00025E052E0DFF8C8C0604502D14FF0010CF2
:1004B0001DE0DFF8C0C0604502D14FF0020C16E02D
:1004C000DFF8B4C0604502D14FF0030C0FE0DFF855
:1004D000ACC0604502D14FF0040C08E0DFF8A0C0CA
:1004E000604502D14FF0050C01E04FF0060C0CFA0C
:1004F00005FC4CEA060CC7F808C04D68D9F8006046
:10050000ED034D4601D5164300E096432E604D683D
:10051000DAF80060AD03554601D5164300E0964376
:100520002E604D68DBF80060ED025D4601D5164394
:1005300000E096432E604D68DEF80060AD0275461F
:1005400001D5164300E096432E60641C0A6832FA17
:1005500004F57FF42EAFBDE8F88F000000040140E1
:10056000000011100010024000000140000801408E
:10057000000C01400010014000140140001801402F
:10058000001C014001488068704700001C000020EA
:10059000074810B5016841F010010160052000F026
:1005A00057F80F2000F006F800F024F8002010BDE6
:1005B0000020024070B50D4D04464FF47A71287842
:1005C000B1FBF0F00A490968B1FBF0F000F0DCFA89
:1005D00048B9102C07D200222146501E00F018F80E
:1005E00000206C6070BD012070BD00001C00002068
:1005F000000000207047002809DB00F01F020121E5
:1006000091404009800000F1E020C0F800117047DF
:10061000F0B40E4B1B68C3F30223C3F10704042C90
:1006200000D904241D1D072D01D2002300E0DB1E8C
:10063000012606FA04F56D1E0D409D409E40761E73
:10064000164045EA0601F0BC02F0E2B80CED00E00D
:10065000064A00F0070110684FF6FF03184040EA11
:100660000120034908431060704700000CED00E0D2
:100670000000FA052DE9F0470D46040067D0DFF8C9
:100680001881D8F8000000F00700A8420CD2D8F872
:10069000001021F007012943C8F80010D8F8000025
:1006A00000F00700A84252D120683C4E810712D5C5
:1006B000400703D5706840F4E06070602078000760
:1006C00003D5706840F4605070607068A16820F0D5
:1006D000F000084370602078C00727D060680128C8
:1006E00010D03168022810D0890700292FDA7168EC
:1006F00021F0030101437160FFF744FF074641F217
:1007000088390CE031688903EFE78901EDE7FFF7ED
:1007100039FFC11B494502D90320BDE8F087706845
:10072000616800F00C00B0EB810FF0D1D8F8001038
:10073000404601F00701A9420BD9016821F00701E9
:1007400029430160006800F00700A84201D00120A1
:10075000E3E72078400705D57068E16820F4E060A1
:10076000084370602078000706D57068216920F47E
:10077000605040EAC100706000F038F87168084AC3
:10078000C1F30311515CC84006490860064800687F
:10079000FFF710FF0020C0E70020024000100240D9
:1007A000D82B000800000020200000200448054944
:1007B00000684968044AC1F30221515CC84070478F
:1007C0000000002000100240E82B00080448054902
:1007D00000684968044AC1F3C221515CC8407047AF
:1007E0000000002000100240E82B000812A085B095
:1007F0000FC88DE80F0014A0144B006804905968CE
:10080000134801F00C02042A10D0082A0ED1C1F3BB
:100810008342C9031DF802000AD5596804AAC1F32E
:100820004041515C0A4A5043B0FBF1F005B07047BB
:1008300008494843FAE700000203040506070809CF
:100840000A0B0C0D0E0F10100102000000100240E8
:1008500000127A0000093D002DE9F84F04006FD026
:100860002078BE4DC00747D06868C0F381000128DA
:1008700007D06868C0F38100022809D16868C00306
:1008800006D52868800337D560680028E7D033E0B4
:100890006068B0F5803F0BD010B1B0F5A02F11D03B
:1008A000286820F480302860286820F4802002E046
:1008B000286840F480302860606888B1FFF762FEE5
:1008C000064609E0286840F480202860F0E7FFF73A
:1008D00059FE801B642873D828688003F7D50BE085
:1008E000FFF750FE064604E0FFF74CFE801B64282D
:1008F000F1D828688003F7D42078DFF86482800775
:100900004FF0010A4FF0000939D5686810F00C0F5C
:1009100007D06868C0F38100022809D16868C00365
:1009200006D42868800714D52069012808D110E072
:100930002069B0B1C8F800A0FFF724FE064605E024
:1009400007E1FFF71FFE801B0228C4D82868800734
:10095000F7D52868616920F0F80040EAC1002860F6
:100960000DE0C8F80090FFF70DFE064604E0FFF723
:1009700009FE801B022823D828688007F7D4207836
:1009800000072CD57748A169D9B1C0F800A0FFF7BE
:10099000F9FD064604E0FFF7F5FD801B02280FD89D
:1009A000686A8007F7D570484FF4FA510068B0FBC9
:1009B000F1F0009000BF0098411E0091FAD20EE0C5
:1009C0007CE0C0F80090FFF7DDFD064604E0FFF78D
:1009D000D9FD801B022871D8686A8007F7D4207877
:1009E00040075BD5E8690027C00008D4E86940F0FB
:1009F0008050E861E869012700F0805000905B4872
:100A00000168C90511D40168834641F48071016011
:100A1000FFF7B8FD064604E0FFF7B4FD801B64282D
:100A20004CD8DBF80000C005F6D5E06801280AD0F4
:100A300008B1052813D0286A20F001002862286A2E
:100A400020F0040002E0286A40F001002862E0681B
:100A500041F2883B88B1FFF795FD064609E0286A18
:100A600040F004002862EEE7FFF78CFD811B59453A
:100A70005BD8286A8007F7D50BE0FFF783FD0646B1
:100A800004E0FFF77FFD811B59454ED8286A800797
:100A9000F7D41FB1E86920F08050E861E069A8B39D
:100AA0006968C1F38101022946D00228484606D070
:100AB000C8F86000FFF766FD044639E035E04746B8
:100AC000C8F86000FFF75EFD064604E0FFF75AFD38
:100AD000801B022829D828688001F7D4206AB0F545
:100AE000803F05D16868A16820F400300843686041
:100AF000D4E908010843696821F474110843686067
:100B0000C7F860A0FFF73EFD044605E023E0FFF7CD
:100B100039FD001B022808D828688001F7D51AE0A3
:100B2000FFF730FD001B022802D90320BDE8F88F33
:100B300028688001F4D40EE00128F7D06868226AA2
:100B400000F48031914204D1616A00F4701088424F
:100B500001D00120EAE70020E8E700000010024091
:100B60000000424280044242000000200070004029
:100B70004FF0E0210428086903D020F00400086148
:100B8000704740F00400FAE710B5401EB0F1807FD6
:100B900001D3012010BD4FF0E02460610F216017E8
:100BA00001F036FE0020A06107202061002010BD6A
:100BB00010B5040003D094F83D0010B107E0012007
:100BC00010BD002084F83C00204600F01EF80220F2
:100BD00084F83D00211D206801F002FD012084F809
:100BE000460084F83E0084F83F0084F8400084F812
:100BF000410084F8420084F8430084F8440084F8FB
:100C0000450084F83D00002010BD704790F83D106D
:100C1000012901D001207047022180F83D100168B0
:100C2000CA6842F00102CA6000680E4988420ED0CC
:100C30000D4988420BD0B0F1804F08D00B49884253
:100C400005D00B49884202D00A49884204D1816804
:100C500001F00701062903D0016841F0010101609C
:100C600000207047002C0140003401400004004087
:100C700000080040000C00400168CA6822F0010230
:100C8000CA6001680A6A41F211131A4207D10A6A5E
:100C90009B101A4203D10A6822F001020A60012166
:100CA00080F83D10002070477047000070B5026862
:100CB00004461068D168536910F00F0F52D003F04A
:100CC000010501F490762E435FD0C20705D0CA0516
:100CD00003D5E26B42F00102E263420705D5DA0771
:100CE00003D0E26B42F00202E263820705D5DA0725
:100CF00003D0E26B42F00402E263020707D501F081
:100D000020022A4303D0E26B42F00802E263E26B66
:100D1000002A33D0800604D5880602D5204601F08B
:100D2000BBFC20684069E16BC0F38010090700D468
:100D300028B3204601F0A2FC2068416949061AD573
:100D4000416921F040014161606BA0B12D494163CF
:100D5000606BFFF787FA002810D0606B416BBDE82D
:100D600070400847830610D58B060ED52046BDE897
:100D7000704001F091BC2046FFF796FF70BD204601
:100D8000FFF792FF0020E06370BD03062BD50B0632
:100D900029D594F839002128F6D1A068B0F5805FF4
:100DA00001D12069B0B1206A411C2162216800781C
:100DB0004860E08C401E0004000CE084E4D1206810
:100DC000C16821F08001C1602068C16841F0400124
:100DD000C16070BD206A0088C0F308005060206ABE
:100DE000801C2062E5E74006F3D54806F1D5D168BE
:100DF000204621F04001D160202184F8391000F014
:100E0000A5F870BD6D26000870B5040004D094F8F4
:100E10003900002510B106E0012070BD84F838507B
:100E2000204600F023F8242084F839002068C168A7
:100E300021F40051C160204601F074FC2068016972
:100E400021F4904101612068416921F02A0141614A
:100E50002068C16841F40051C160E563202084F836
:100E6000390084F83A00002070BD000010B5006819
:100E70001E4986B0884236D11D48816941F004017F
:100E80008161816901F004010491816941F00401EB
:100E90008161816901F004010491816941F480411B
:100EA00081618069134C00F4804004904FF400701D
:100EB00000900220019001200290032003906946D7
:100EC0002046FFF767FA211500910021019169463C
:100ED0002046FFF75FFA2520FFF78DFB032211461E
:100EE0002520FFF795FB06B010BD0000003801403B
:100EF000001002400008014090F83A30202B22D127
:100F0000F9B1F2B190F83830012B1CD081628285A2
:100F1000C2850021C163222280F83A2080F838106F
:100F20000168CA6842F48072CA6001684A6942F086
:100F300001024A610068C16841F02001C1600020DF
:100F40007047012070470220704770477047FEE7E6
:100F5000FEE770472DE9F04107460A481E46154650
:100F6000806A0C4680472146074C0A46A01DA18096
:100F70003946FFF7F9F86570A67001202070BDE8CA
:100F8000F0810000DC2C000804000020054810B5AA
:100F9000806A8047044903200870BDE8104003A020
:100FA00001F02EBCDC2C0008040000205278204503
:100FB00072726F720D0A0000054810B5806A804792
:100FC000044902200870BDE8104003A001F018BCDD
:100FD000DC2C00080400002052782054696D656FF5
:100FE00075740D0A00000000034810B5806A804740
:100FF00002490420087010BDDC2C00080400002009
:10100000054810B5806A8047044905200870BDE88E
:10101000104003A001F0F4BBDC2C00080400002009
:1010200054782054696D656F75740D0A00000000D6
:1010300070B5092000F03FFC0546062000F03BFC9F
:101040000404072000F037FC44EA0024082000F0E4
:1010500032FC204300F07BF804460021092001F017
:1010600017FA3B2000F027FC40F040013B2001F044
:101070000FFA3B2000F01FFC8006FAD40C4800F069
:1010800029FD3B2000F017FC40F040013B2001F01F
:10109000FFF93B2000F00FFC8006FAD42946092016
:1010A00001F0F6F92046BDE8704000F013BD0000E5
:1010B00000A1BC33704700002DE9F05F19490646D6
:1010C00008200860DFF86090DFF85CB00024054677
:1010D0004FF08008ABF1080B09F1040A20276006E5
:1010E000040E3006404601D5494600E051460860EE
:1010F0007006060E012001F0E7FCC9F8007001201F
:1011000001F0E2FCDBF80000400601D544F00104E8
:10111000CAF800706D1E15F0FF05E0D12046BDE84D
:10112000F09F0000141C014010080140012070478E
:1011300043F60953B0FBF3F15A4201FB02005A1087
:1011400002EB0020B0FBF3F000EB01207047010A36
:10115000A0EB012043F6095251435043803001EB8C
:1011600010207047002070470248006800F002001D
:1011700070470000081C0140F0B50025DDE905645A
:10118000121D079F052901D0062902D10C2B00D280
:101190000C2310B1012802D004E00B2901D00C2946
:1011A00000D101250FB1102000E0002000EBC400A9
:1011B0004C4200EB84040EB1002000E014202044D7
:1011C0008C00062902D9083005B1083C002800DA55
:1011D00000202044401E90FBF4F00C3300FB023052
:1011E000062900D8801C012202EB8000891E88405D
:1011F000F0BD000001480078704700009401002015
:10120000FEB51F4616460D46DDE90A23DDE908CE88
:1012100001004FF000004FF0010402D001292ED14F
:1012200014E0BEF1000F05D0002000EBCC011BB193
:10123000022002E00820F8E70020104401EBC00083
:101240004FF47A7118304843344618E0CDF800E086
:10125000CDE9012363463A4631462846FFF78CFF25
:101260004FF47A714843002425B1012D04D0022D9A
:1012700005D103E0044C02E0044C00E0044C20449F
:10128000401EB0FBF4F0FEBD48E8010090D0030022
:1012900020A1070010B5FFF765FF401C10BD00003E
:1012A00070B51049086000F051FBFFF7C1FE002047
:1012B00000F07EFC0C4E002404EB4405705D00F051
:1012C0003BFCA8198178407801F0E2F8641CE4B294
:1012D000102CF1D3002000F02FFC044900200870EE
:1012E00070BD000028000020FC2B000894010020A5
:1012F0002DE9F0432D4885B0816941F0800181617D
:10130000816901F080010491816941F004018161EA
:101310008069082500F00400012604900320DFF80E
:101320009090CDE90056039069464846FFF732F8A1
:101330008020DFF88080009069464046FFF72AF859
:101340002027694640460097FFF724F800244020F4
:10135000CDE90004694640460294FFF71BF81648A1
:101360000096CDE9010469464846FFF713F80222CA
:1013700000210620FFF74CF90620FFF73CF9022078
:10138000009069464846FFF705F802220021072031
:10139000FFF73EF90720FFF72EF9054810300560EA
:1013A00004481430076005B0BDE8F0830010024027
:1013B000001C01400008014000001110F8B5002495
:1013C0008DF800407D4E7E4D3078012807D00228F0
:1013D0004DD101F057F8707801287CD1DFE000F0A2
:1013E000E7FA7078B8B1012841D14021122001F00C
:1013F0004FF8122000F05FFA8DF800009DF8000011
:1014000080067DD52021122001F042F896F8520086
:1014100000286DD06DE096F8200001282CD13F20E7
:1014200000F049FA8DF800009DF80000800723D4F1
:101430000B213E2001F02CF810213F2001F028F86C
:1014400000F0B6FA96F8220090B10D2000F033FAC1
:1014500040F040010D2001F01BF8286810B1006930
:1014600000B1804706F82C4F7470B4817481F8BDC8
:1014700000F0F6FF3470F0E7F18E524F49B9308F2B
:1014800038B9B07F48B3322000F015FAF08696F8EC
:101490003610308F091AC9B2384400F031FAF08E94
:1014A000308700F085FA96F82200E8B10D2000F0B0
:1014B00002FA40F040010D2000F0EAFF2868002801
:1014C000D0D08568002DCDD096F92E20F18E002346
:1014D0003C48A847C6E766E012E0FFE7374801212D
:1014E000363000F00DFAD2E7347000F0B9FFE5E7CE
:1014F000347000F05DFA28680028B8D0006957E021
:10150000192000F0D8F940B2801C801086F85C00E9
:101510001A2000F0D0F996F95C102B4A00290CDA59
:1015200073680144934202D96FF09C0201E06FF0AE
:10153000A30202EB2010084407E0716800EB2010C2
:10154000914201D99D3800E0A438A6F85E0013202E
:1015500000F0B1F986F860001020523600F0ABF9C7
:1015600001460D2000F094FFB17B164800F0C8F949
:1015700016F8520900B9347000F01AFA28680028E9
:10158000BBD08468002CB8D016F95C3FA446B6F9ED
:101590000220317901B00B48BDE8F04060470821D6
:1015A000122000F075FF347028680028A5D000686C
:1015B0000028A2D001B0BDE8F0400047940100200F
:1015C000280000209400002040DD4A1F70B5364DF1
:1015D000284629784078A5F58074012916D002297B
:1015E0005BD1002859D1FFF7BFFD012855D0E98E06
:1015F000288F0A1A95F83B108A424FDD204400F0EC
:1016000069FF288F95F83B10084445E0B8B10128E0
:1016100043D1FFF7A9FD00283FD000F0C9F9802190
:10162000122000F035FF00202870204800680028B4
:1016300033D0C068002830D0BDE870400047FFF7C5
:1016400093FD002829D000F00BFFE88E38B9288FD1
:1016500028B9A87FA8B1322000F02DF9E886E98EDC
:10166000288F0A1A95F83A108A4210DB491EC9B22F
:10167000204400F045F9288F95F83A100844401EA0
:101680000AE009480121363000F03AF9E7E7D1B223
:10169000204400F035F905E0288770BDD1B2204420
:1016A00000F018FFE88EF7E79401002028000020E2
:1016B00070B5254D254C28462A78417890F84F0082
:1016C000012A03D0022A00D109B970BDB9B101299C
:1016D000FBD10128F9D10221122000F0D9FE2068A7
:1016E0000028F2D040690028EFD01C2000F0E3F879
:1016F000216800F03F004969BDE8704008470124B7
:1017000085F82C4095F82D000028DED100F0A8FEC9
:1017100005F82D4F112000F0CEF8400840426870C7
:101720001C2000F0C8F804461B2000F0C4F844EA6E
:101730000020FFF70CFDC5F803000C2000F0BBF8FB
:101740004009E87170BD00009401002028000020CD
:10175000134810B54078002821D001281FD112204D
:1017600000F0A9F80F4CC0070BD00521122000F0A3
:101770008FFE2068002812D0816900290FD0012037
:101780000AE00421122000F083FE2068002806D021
:101790008169002903D00020BDE81040084710BD32
:1017A00094010020280000202DE9F0472F4FDFF89A
:1017B000C0904FF00008387801282BD0022853D170
:1017C00000F0C4F8FFF734FC002000F0F1F9294ED6
:1017D000002404EB4405705D00F0AEF9A81981788F
:1017E000407800F055FE641CE4B2102CF1D30020C8
:1017F00000F0A2F997F8580000F0F6F987F8008099
:10180000D9F8000000282FD0406800282CD0BDE86F
:10181000F04700477878C0B987F82C8087F82D808A
:10182000A7F83880A7F8368044460B213E2022379F
:1018300000F02EFE10213F2000F02AFE17F82209AA
:10184000012808D03C7000F00BFED9F800000028F9
:101850000AD0C068D9E70D2000F02DF840F0400113
:101860000D2000F015FEF0E7BDE8F08794010020A0
:1018700028000020FC2B000870B50025012000F096
:101880005BF9FF21112000F003FE052000F090F924
:101890000024012001F0FAF82C2000F00CF800F0F0
:1018A0000100A040641C0543E4B2202CF1D300F0F9
:1018B0000BFC284670BD08B50122694600F004F80B
:1018C0009DF8000008BD00002DE9F0410E460B49CF
:1018D000082715460F6000F07F0000F001FE00248D
:1018E00005E00020FFF7E8FB3055641CE4B2AC4291
:1018F000F7D30248001F0760BDE8F081141C0140C7
:101900000A4601460020FFF7DFBF000010B520B1F6
:10191000012808D04FF0FF3010BD1120FFF7CBFF9A
:101920004008404210BD07480749406888424FF0D0
:101930001B0003D9FFF7BFFF9D3810BDFFF7BBFFAA
:10194000A43810BD9401002040DD4A1F7FB5FFF789
:10195000CFFC03200F4E0424012503906946304636
:10196000CDE90045FEF716FD0A4814300460012059
:1019700001F08CF80748103004600020CDE90040E9
:10198000694602953046FEF705FD062001F07EF817
:101990007FBD0000001C014000EB80004FF0FF31D4
:1019A00001EB400080B241F61F4100F0EFBD0000A6
:1019B0000148FFF761B90000F801002073B5384C09
:1019C00005460020617811B1012966D129E0002087
:1019D00020879DF80410E186A07F50B1322000F0EE
:1019E00057FD9DF80420501E3F2807D884F83B205F
:1019F0000BE0012101A800F06DFDF2E7294629481E
:101A0000FEF7B2FB202084F83B0094F83B102846F8
:101A1000243400F05FFDA08AE17D0844A0822068A4
:101A20003BE094F8510001284FF0330021D0FFF73C
:101A300042FF00F0BE013320491C00F029FD1D21AA
:101A40003B2000F025FD9DF8041084F86010222052
:101A500000F01EFD00210E2000F01AFD00210D20D7
:101A600000F016FD0120FFF726FF30F0F80009D046
:101A70000DE0FFF720FF00F0BE01332000F008FD6D
:101A80001921DDE700F034FB012000F0FFFF9DF895
:101A90000410284600F01EFD606D00F039FB7CBD8F
:101AA00094010020940000207047000002490A7849
:101AB000824200D0087070472C000020202108B11D
:101AC000034801E00248001D0160002000F0DEBF75
:101AD000101C014070B50546FFF72AFB0446094873
:101AE000C4F307414560062000F0D2FCC4F307218F
:101AF000072000F0CDFCE1B2BDE87040082000F006
:101B0000C7BC00009401002070B50D46044600F0EB
:101B100013F824B1012C0CD12946232005E00548F7
:101B2000807F002805D129463220BDE8704000F0B2
:101B3000AFBC70BD9401002010B504460120FFF732
:101B4000BAFE1A49000601D5012000E000204870C5
:101B5000C0B2A04228D04C70012C4FF000000FD032
:101B600000F026F80120FFF7A6FE00F07F0101201B
:101B700000F08EFC0021402000F08AFC30210EE0B5
:101B800000F016F80120FFF796FE40F080010120DA
:101B900000F07EFC0021402000F07AFC0021BDE82E
:101BA0001040412000F074BC10BD000094010020E2
:101BB00010B504004FF0010012D0FFF77FFF0020A6
:101BC000FFF774FF2046FFF76FFF0120FFF773FE5A
:101BD00000F0F8012143BDE81040012000F058BC9E
:101BE000FFF764FFF1E7000010B504460120FFF79E
:101BF000A3FF064880F858400CB1342100E01221C0
:101C0000BDE81040392000F043BC000094010020E2
:101C100070B504460920FFF74EFE06464D20FFF73B
:101C20004AFE054606F07F0040F08000010623D5FD
:101C3000112C02DD45F0070502E005F0F8052D1D29
:101C4000E943490703D0022C0CDA02240DE0052CED
:101C500001DA052402E0142C00DD142400F0F00168
:101C6000641F05E0112C00DD112400F0F001A41E1A
:101C700004F00F00014314E0002C08DD0F2C00DD00
:101C80000F2400F08000204340F0700008E06FF067
:101C900003018C4200DA0C4600F08000241D204332
:101CA000C1B2092000F0F4FB2946BDE870404D2088
:101CB00000F0EEBB70B50646002400F0E3FB6E4D6D
:101CC000687810B1012824D124E015F8224F402073
:101CD000FFF7F1FD00F0030040F00C01402000F0A0
:101CE000D7FB4120FFF7E7FD40F0C101412000F0A4
:101CF000CFFB3520FFF7DFFD00F03F0028761E21E7
:101D00000D2000F0C5FB0020A872E872E882A882CE
:101D1000223D85E095F8510001284FF0330025D091
:101D2000FFF7C9FD00F0BE013320491C00F0B0FBF5
:101D30001D213B2000F0ACFB286C09284FF031003E
:101D40007AD2FFF7B8FD00F07F01312000F0A0FB50
:101D50000021302000F09CFB286C092846D2DFE8E7
:101D600000F00E161E262E3641414100FFF7A3FD5E
:101D700040F04101332000F08BFB1921D9E74821C5
:101D80002F2000F085FB41F68261686826E044213F
:101D90002F2000F07DFB42F6B40168681EE044216C
:101DA0002F2000F075FB43F60451686816E04421CB
:101DB0002F2000F06DFB45F25E1168680EE04421B3
:101DC0002F2000F065FB47F61221686806E04421E9
:101DD0002F2000F05DFB68684AF2C6210844FFF737
:101DE00079FE03E040212F2000F052FB95F84F00D0
:101DF00095F85240012825D01F21112000F048FB02
:101E00004020FFF758FD00F03F01402000F040FB6C
:101E100000210F2000F03CFB00210D2000F038FBDA
:101E20000120287016B13046FFF7B6FD687898B1EA
:101E3000E4B105201BE0FFE7FFF73DFD40F0800126
:101E40003120D1E71D21112000F022FB4020FFF7B7
:101E500032FD00F03301D8E70520FFF7A9FE002C82
:101E600009D13046BDE8704000F0EEBA0620BDE86A
:101E70007040FFF79DBE70BD940100202DE9F84F22
:101E80009B46DDE90C9614460D468246DDF83C8003
:101E90000B9FFFF751FE00F02BF988484FEA1722FD
:101EA0005FEA0A01009205D0BAF1010F70D1022D4C
:101EB00055D9FEE740F8105F4FF4FA5284600A9952
:101EC000416086730E99C17380F810801299417435
:101ED0001399817409FB02F1B1FBF4F187818161EF
:101EE0007748B0FBF4F4C4F30721022000F0D0FAE5
:101EF000E1B2032000F0CCFA2846FEF79DF9014636
:101F0000122000F0C5FA0A98FEF796F90146132050
:101F100000F0BEFA2520009900F0BAFAF9B22620A6
:101F200000F0B6FA0EB10E9900E0FF21322000F069
:101F3000AFFA3020FFF7BFFC00F06F010EB10020B8
:101F400000E08020014341EA0811302000F0A0FAAF
:101F50003120FFF7B0FC40F0400131208CE0824698
:101F6000ED1DE0E910540C2C80F809B04781067390
:101F70000E99417380F80E801099C1731199017404
:101F80001299417413998AF8521002D90C2403E073
:101F900091E0062C00D20624072D02D0082D02D095
:101FA00003E00B2C45D00C2C43D000218AF84810BC
:101FB0001D20FFF780FC290141EA4B003043C1B2EC
:101FC0001D2000F065FA1E20FFF775FC00F00800E8
:101FD00040EA041141EA8800032202EA1921084379
:101FE000C1B21E2000F054FA2620FFF764FC00F076
:101FF000F7019AF8480041EAC000C1B2262000F07B
:1020000047FA09F0FF011F2000F042FA2020009952
:1020100000F03EFAF9B2212000F03AFA1EB1222077
:102020000E9900F035FA9AF84F005646012802D072
:102030000EE00121BAE74420FFF73DFC40F08001AB
:10204000442000F025FA96F85010242000F020FAE1
:10205000092D15D00321362000F01AFA062C4FF076
:1020600031001ED0FFF727FC00F0F8013120C91C19
:1020700000F00EFA0A213720BDE8F84F00F008BA48
:102080001049706888424FF002014FF0360003D9C2
:1020900000F0FEF9642102E000F0FAF97F213A2015
:1020A000DAE7FFF708FC00F0F8013120491D00F0E5
:1020B000EFF90C21DFE7BDE8F88F00009401002064
:1020C0000048E80140DD4A1F10B500F0DBF9FFF7DA
:1020D0006FFC00F0C5F90020FFF76AFD0020FFF754
:1020E000EDFC02490020087010BD000094010020A2
:1020F00010B500F0C7F9FFF75BFC00F0B1F9012063
:10210000FFF756FD01490020087010BD9401002022
:1021100070B50546FFF74CFC214C617811B10129DF
:102120002AD117E04020FFF7C6FB00F00301402052
:1021300000F0AEF94120FFF7BEFB00F03E01412068
:1021400000F0A6F93520FFF7B6FB00F03F0084F859
:102150003A0011E094F84F00012817D0F721112020
:1021600000F096F94020FFF7A6FB00F03F0040F09A
:102170004001402000F08CF902202070284600F039
:1021800075F9BDE870400320FFF712BDF52111205D
:1021900000F07EF94020FFF78EFB00F03300E6E709
:1021A000940100202DE9FF4F81B01D46DDE9106844
:1021B000DDE915AB8946129F0E9C0198FFF7BCFC28
:1021C000FFF796FF4846FFF723FD7048320A019952
:1021D000009231B101296ED180F83C90022D48D98E
:1021E000FEE780F8089003998461C0E903158683AF
:1021F00080F81E8080F8207080F821A0C0F824B0FC
:102200000398FEF795FF0546C0F30721042000F070
:102210003FF9E9B2052000F03BF95D48B0FBF4F46A
:10222000C4F30721022000F033F9E1B2032000F0EB
:102230002FF92520009900F02BF9F1B2262000F0AB
:1022400027F93020FFF737FB00F06F01B8F1000FDE
:1022500001D0002000E08020014341EA0711302036
:1022600000F016F93120FFF726FB40F04001312045
:1022700079E0ED1DC0E910540F9980F84910A0F8DD
:102280004A6080F84C80139980F84F10149A80F8B7
:10229000502080F84E7080F851A0C0F854B00C2C3B
:1022A00001D90C2402E0062C00D20624072D03D00D
:1022B000082D03D004E065E00B2C08D00C2C06D0D0
:1022C000002280F848208146012902D00EE0012238
:1022D000F7E74420FFF7EFFA40F08001442000F0D8
:1022E000D7F899F85010242000F0D2F81D20FFF7FD
:1022F000E2FA0F98290141EA400040EA0800C1B221
:102300001D2000F0C5F81E20FFF7D5FA00F00B00E5
:1023100040EA041040EA8700C1B21E2000F0B8F87D
:102320002620FFF7C8FA00F0F70199F8480041EAC3
:10233000C000C1B2262000F0ABF82020009900F0C8
:10234000A7F8F1B2212000F0A3F8062C4FF03100DD
:102350000ED0FFF7B0FA00F0F8013120C91C00F0F0
:1023600097F80A21372005B0BDE8F04F00F090B88B
:10237000FFF7A1FA00F0F8013120491D00F088F8BC
:102380000C21EFE705B0BDE8F08F000094010020BC
:102390000048E80130B50D4601464FF47A7002FB63
:1023A00000F489B00846FFF795FB002305930693D8
:1023B000CDE907340520CDE901304FF49650009067
:1023C00003931A46294604931846FFF7EBFE312083
:1023D000FFF771FA00F0BF01312000F059F8F02149
:1023E000402000F055F8A021412000F051F80649A6
:1023F00002200870204600F039F809B00320BDE83B
:102400003040FFF7D5BB00009401002010B50D4C03
:102410006078002814D0012812D1FA21112000F090
:1024200037F84020FFF747FA00F0FC01402000F0A9
:102430002FF803202070BDE810400720FFF7B8BB3D
:1024400010BD00009401002000EB80004FF0FF3130
:1024500001EB400080B241F61F4100F097B8000048
:102460000148FEF709BC0000F801002000EB8000E5
:102470004FF0FF3101EB400080B241F61F4100F008
:1024800085B800000148FEF7F7BB0000F801002006
:1024900013B5012201A900F001F81CBD2DE9F0419E
:1024A0000E460B49082715460F60C0B240F0800069
:1024B00000F016F8002404E0305D00F011F8641C10
:1024C000E4B2AC42F8D30248001F0760BDE8F081D7
:1024D000141C01400A4601460020FFF7DFBF000040
:1024E0002DE9F0471149054608200860DFF84080D3
:1024F0008026044608F104092027280601D5404615
:1025000000E0484606606806050E012000F0DCFA8F
:10251000C8F80070012000F0D7FAC9F80070641EF6
:1025200014F0FF04E9D1BDE8F0870000141C01405D
:102530001008014070470000074800680169C9435E
:10254000C90708D1C168C943C90704D1891E0161FF
:102550000020FFF729B97047F8010020084882B031
:10256000C16941F01001C161C069074900F0100064
:10257000009004480860084602B0FEF719BB00004E
:102580000010024000100040F8010020114A08B578
:10259000D36943F01003D361D2690F4B02F01002EC
:1025A00000921A6842F004021A600C4AD060C2E934
:1025B00000311046FEF7FCFA032200213620FEF718
:1025C00027F83620FEF717F8BDE808400348FEF765
:1025D0001DBB00000010024000100040F801002068
:1025E000F0B502681C4D1D4E1D4FDFF878C01E4B24
:1025F0004FF0804EA84209D0984207D0704505D0D0
:10260000B04203D0B84201D0604503D122F070043B
:102610004A682243A84209D0984207D0704505D0A5
:10262000B04203D0B84201D0604503D122F44074D7
:10263000CA6822434C6922F08002224302608A6801
:10264000C2620A688262A84201D0984201D1096937
:10265000016301214161F0BD002C014000040040F4
:1026600000080040000C00400034014010B5406AF2
:102670000021C185C184FEF717FB10BD0168CA683F
:1026800022F49072CA6001684A6922F001024A612C
:10269000202180F83A10704710B590F83A1022299E
:1026A00001D0022010BD81684FF48053994201D1BE
:1026B000026922B1826A99421BD049B10AE00268DC
:1026C000816A5268C2F308020A80816A891C08E0A4
:1026D000016971B10168496801F07F011170816A77
:1026E000491C8162C18D491E0904090CC18503D0B2
:1026F00016E001684968F1E70168CA6822F0200223
:10270000CA600168CA6822F48072CA6001684A69B6
:1027100022F001024A61202180F83A10FEF715FCF0
:10272000002010BD70B5044600680169E26821F41C
:10273000405111430161A16820690143606901436F
:102740002068C26841F20C639A430A43C260206861
:102750004169A26921F44071114341611E49206819
:10276000884202D1FEF732F801E0FEF71FF800EBD5
:10277000C00101EB0011606864228000B1FBF0F33E
:10278000B3FBF2F36FF018067343B1FBF0F5B1FB46
:10279000F0F605EB8305322303EB0515B5FBF2F5E7
:1027A000B6FBF2F605F0F00505EB0615B1FBF0F609
:1027B000B1FBF0F0B0FBF2F06FF01801484306EB0C
:1027C000800003EB0010B0FBF2F0216800F00F0076
:1027D0002844886070BD00000038014010B50548ED
:1027E000FEF764FA012204490248FEF785FB00283F
:1027F000F8D110BD5400002018000020FEE70000B2
:10280000014A024900F023B8FD2A00081400002004
:102810000907090E002804DB00F1E02080F800140D
:10282000704700F00F0000F1E02080F8141D7047A1
:1028300002E008C8121F08C1002AFAD17047704789
:10284000002001E001C1121F002AFBD170472DE9D1
:10285000F04116460F460446002503E03946B047CE
:10286000641C6D1C20780028F8D12846BDE8F08152
:102870006B488AB0694901606A4981606A49416070
:102880006A49C1606B4D6A49016129680124884722
:10289000E96869488847002640F6B83005960696EC
:1028A000CDE907604FF001084FF00809CDE9018933
:1028B000CDE903680A200090AF6933463246112102
:1028C0004046B847CDE90868CDE904680696CDE9E9
:1028D000006907960296039601230A226F69002178
:1028E0001846B847296B4FF47A708847DFF84C8157
:1028F0004FF050094FF04E0A4FF0470BA8F1060772
:1029000038780628FCD2DFE800F00304686839391B
:10291000F6E7B88884B300287ED0042248494748A7
:10292000FDF746FC38B146490422491F4348FDF7EC
:102930003FFC10B330E043A0FFF762FF88F800903F
:10294000492088F8010088F802A088F803B04246C0
:102950000420BB8803E0011F1154401CC0B2984200
:10296000F9D30A2000F092F838A0FFF749FF6A6A0D
:102970003979324890474FE005E00024296B4FF445
:102980007A70884748E0002846D02D490422491F24
:102990002A48FDF70DFC08B10124EFE72EA0FFF750
:1029A0002FFF88F800904F2088F8010088F802A0D7
:1029B00088F803B041460420BB8803E0021F0A5494
:1029C000401CC0B29842F9D30A2000F05FF86A6A4E
:1029D00039791A48904722A01CE0002CCED088F804
:1029E0000090492088F8010088F802A088F803B018
:1029F00041460420BB8803E0021F0A54401CC0B2B9
:102A00009842F9D30A2000F041F86A6A39790B48F4
:102A100090470EA0FFF7F4FE3E7071E7E90F000843
:102A200030000020550F000801100008B90F000801
:102A30008D0F0008DC2C0008C0CA89360A0000206F
:102A4000F52B000852583A504F4E470053454E441C
:102A50003A50494E4700000052583A50494E4700FC
:102A600053454E443A504F4E4700000010B54FF0CA
:102A7000E0220021044611610846FEF779F8024978
:102A8000E008088010BD0000100000204FF47A71AB
:102A900070B5B0FBF1F2B0FBF1F401FB1205094E89
:102AA00003E0304600F010F8641E002CF9D1002D30
:102AB00006D04FF47A706843BDE8704000F004B867
:102AC00070BD000040420F000B49098848434FF099
:102AD000E021486100238B61086940F00100086132
:102AE0000869C20701D0C003FAD5086920F00100C7
:102AF00008618B61704700001000002004490A68DB
:102B00005206FCD5024AC1B2121D11607047000086
:102B10000038014010B5FDF73BFD4FF4E01000F028
:102B200015F84820FFF7A2FF4FF4E13000F038F825
:102B3000FFF714FD03A0FFF763FEFFF799FE0020E7
:102B400010BD000052455345540D0A0070B590B0B9
:102B5000064628216846FDF720FB14210AA8FDF748
:102B60001CFB0120010400248DE8130002250996B6
:102B7000CDE907516846FDF76FFE00B1FEE70F2073
:102B8000CDE90A054FF48060CDE90C4002210AA886
:102B90000E94FDF76FFD002800D0FEE710B070BD69
:102BA0000B4910B5094AC1E9002000208860C860BF
:102BB000086188610C2048610846FEF725F9BDE8E8
:102BC0001040012203490248FEF796B9003801403F
:102BD0005400002018000020000000000000000049
:102BE00001020304060708090000000001020304B3
:102BF00050494E4700504F4E47000000000C230044
:102C00000D1E000ED2001A01001FAA002407002783
:102C1000120028C1002994002AC10030D800359F35
:102C2000003B02004000004130012340280A000020
:102C3000170000001C0C00000F0000003C0F0000FB
:102C40000700000050140000160000009C1800004F
:102C50000E000000781E000006000000A028000002
:102C600015000000D43000000D000000F03C000012
:102C7000050000004051000014000000A8610000A1
:102C80000C000000447A000004000000E4A20000F0
:102C90001300000050C300000B00000024F40000EB
:102CA000030000008545010012000000A08601001D
:102CB0000A00000048E80100020000002C8B02001E
:102CC00011000000400D03000900000090D0030037
:102CD00001000000E093040000000000A1120008C1
:102CE000F5110008391B0008D51A000879180008EA
:102CF0007D1E0008A52100082D1100080112000802
:102D0000BD190008C9200008F1200008B51C000802
:102D10000D240008952300080D19000891240008CF
:102D2000B71800089D240008C9180008091B0008EE
:102D3000E91B0008951200080000000000000000D8
:102D400000000000642D000800000020300000009A
:102D500030280008942D00083000002010060000E4
:102D6000402800080024F4000000000005000000D6
:102D70000000000000000000000000000000000053
:102D80000100000010000000000000000000000032
:042D9000000000003F
:0400000508000131BD
:00000001FF
