:020000040800F2
:1000000098060020450100089F1400089B14000872
:100010009D140008F5010008352D000800000000BF
:10002000000000000000000000000000D9160008D9
:10003000F7010008000000005B0100085D010008F6
:100040005F0100085F0100085F0100085F01000810
:100050005F0100085F01000819020008290200087A
:100060005F0100085F0100085F0100085F010008F0
:100070005F0100085F0100085F0100085F010008E0
:100080005F0100085F0100085F0100085F010008D0
:100090005F0100085F0100085F0100085F010008C0
:1000A0005F0100085F0100085F0100085F010008B0
:1000B0005F0100085F0100085F0100085F010008A0
:1000C0005F0100085F0100085F0100085F01000890
:1000D0005F010008152D00085F0100085F0100089E
:1000E0005F0100085F0100085F0100085F01000870
:1000F0005F0100085F0100085F0100085F01000860
:100100005F0100085F0100085F0100085F0100084F
:100110005F0100085F010008712A00085F01000804
:100120005F0100085F0100085F0100085F0100082F
:10013000DFF80CD000F04CF80048004765300008AC
:10014000980600200648804706480047FEE7FEE77D
:10015000FEE7FEE7FEE7FEE7FEE7FEE7FEE7FEE777
:100160006D2A00083101000840EA01039B0703D013
:1001700009E008C9121F08C0042AFAD203E011F8E6
:10018000013B00F8013B521EF9D27047D2B201E0A8
:1001900000F8012B491EFBD270470022F6E710B58C
:1001A00013460A4604461946FFF7F0FF204610BDE5
:1001B00030B505460020034600E05B1C934205D2A3
:1001C000EC5CC85C201A01D1002CF6D130BD0000D7
:1001D000064C074D06E0E06840F0010394E8070094
:1001E00098471034AC42F6D3FFF7A6FF64330008FB
:1001F00084330008FEE7704738B1012807D0022891
:1002000007D0032807D101F061BD01F095BB01F0D3
:100210009BBC01F00BBD7047024901200860002023
:10022000FFF7EABF140401400249022008600120E0
:10023000FFF7E2BF14040140094A002152F83130AF
:10024000834208D802EBC1039B68834203D902EBC7
:10025000C10000797047491CC9B21529EED3FEE7E9
:100260004C3200082DE9F05F90F82110002402299B
:1002700003D004218163012485E001680A6822F02B
:100280000E020A6001680A6822F001020A603F4E0D
:100290003E4FB215DFF8F4C0DFF8F090DFF8ECA0C5
:1002A000DFF8E8B0DFF8E4E00168783F13011502F9
:1002B000ACF1640CA9F15009AAF13C0AABF1280B8E
:1002C000AEF1140E4FF48018B14227D9B9420ED0C6
:1002D000614512D049451DD0514518D0594518D017
:1002E000714501D1424615E0294EB14201D10122AA
:1002F00010E0274E1436B14201D110220AE0244EFC
:100300002836B14206D0224A3C32914201D11A46E7
:1003100000E02A461E49091F0A602BE0B94213D0AB
:10032000614517D0494522D051451DD059451DD0B2
:10033000714501D142461AE0B14202D14FF08072BC
:1003400015E0134EB14201D1012210E0104E1436D7
:10035000B14201D110220AE00D4E2836B14206D03A
:100360000B4A3C32914201D11A4600E02A46074925
:1003700080394A60012180F82110002180F8201086
:10038000416B01B188472046BDE8F09F80000240E4
:10039000080402402DE9F84FDFF8C091002409F16C
:1003A000040A0AF1040B23464FF00F080BF1040E68
:1003B000CCE00127A7403A40BA4272D1DFF8A0C191
:1003C0004D68A5EB0C0665452BD00DDC032D34D014
:1003D00005DC35B3012D19D0022D2FD11BE0112DD5
:1003E00016D0122D2AD119E0B6F5881F19D006DCD7
:1003F000B6F5803F15D0B6F5801F1FD111E0B6F5D8
:10040000001F0ED0B6F5041F18D10AE0CB6815E026
:10041000CB681B1D12E0CB6808330FE0CB680C33B0
:100420000CE08B682BB1012B4FF0080303D0476120
:1004300004E0042302E0076100E00023FF2A01D862
:10044000064601E000F104064FEA840501D9A5F152
:100450002005376808FA05FC27EA0C0703FA05F5BA
:1004600047EA050737604D68ED006ED53D4DAE6932
:1004700046F00106AE61AD6924F0030605F0010502
:100480000095394D7719BE68A5072D0F08FA05FCB0
:1004900026EA0C06DFF8D4C0604503D14FF0000C0B
:1004A00025E052E0DFF8C8C0604502D14FF0010CF2
:1004B0001DE0DFF8C0C0604502D14FF0020C16E02D
:1004C000DFF8B4C0604502D14FF0030C0FE0DFF855
:1004D000ACC0604502D14FF0040C08E0DFF8A0C0CA
:1004E000604502D14FF0050C01E04FF0060C0CFA0C
:1004F00005FC4CEA060CC7F808C04D68D9F8006046
:10050000ED034D4601D5164300E096432E604D683D
:10051000DAF80060AD03554601D5164300E0964376
:100520002E604D68DBF80060ED025D4601D5164394
:1005300000E096432E604D68DEF80060AD0275461F
:1005400001D5164300E096432E60641C0A6832FA17
:1005500004F57FF42EAFBDE8F88F000000040140E1
:10056000000011100010024000000140000801408E
:10057000000C01400010014000140140001801402F
:10058000001C014001488068704700001C000020EA
:10059000074810B5016841F010010160052000F026
:1005A00057F80F2000F006F800F024F8002010BDE6
:1005B0000020024070B50D4D04464FF47A71287842
:1005C000B1FBF0F00A490968B1FBF0F000F081FDE1
:1005D00048B9102C07D200222146501E00F018F80E
:1005E00000206C6070BD012070BD00001C00002068
:1005F000000000207047002809DB00F01F020121E5
:1006000091404009800000F1E020C0F800117047DF
:10061000F0B40E4B1B68C3F30223C3F10704042C90
:1006200000D904241D1D072D01D2002300E0DB1E8C
:10063000012606FA04F56D1E0D409D409E40761E73
:10064000164045EA0601F0BC02F07EBB0CED00E06E
:10065000064A00F0070110684FF6FF03184040EA11
:100660000120034908431060704700000CED00E0D2
:100670000000FA052DE9F0470D46040067D0DFF8C9
:100680001881D8F8000000F00700A8420CD2D8F872
:10069000001021F007012943C8F80010D8F8000025
:1006A00000F00700A84252D120683C4E810712D5C5
:1006B000400703D5706840F4E06070602078000760
:1006C00003D5706840F4605070607068A16820F0D5
:1006D000F000084370602078C00727D060680128C8
:1006E00010D03168022810D0890700292FDA7168EC
:1006F00021F0030101437160FFF744FF074641F217
:1007000088390CE031688903EFE78901EDE7FFF7ED
:1007100039FFC11B494502D90320BDE8F087706845
:10072000616800F00C00B0EB810FF0D1D8F8001038
:10073000404601F00701A9420BD9016821F00701E9
:1007400029430160006800F00700A84201D00120A1
:10075000E3E72078400705D57068E16820F4E060A1
:10076000084370602078000706D57068216920F47E
:10077000605040EAC100706000F038F87168084AC3
:10078000C1F30311515CC84006490860064800687F
:10079000FFF710FF0020C0E70020024000100240D9
:1007A000F83100080000002020000020044805491E
:1007B00000684968044AC1F30221515CC84070478F
:1007C00000000020001002400832000804480549DB
:1007D00000684968044AC1F3C221515CC8407047AF
:1007E00000000020001002400832000812A085B06E
:1007F0000FC88DE80F0014A0144B006804905968CE
:10080000134801F00C02042A10D0082A0ED1C1F3BB
:100810008342C9031DF802000AD5596804AAC1F32E
:100820004041515C0A4A5043B0FBF1F005B07047BB
:1008300008494843FAE700000203040506070809CF
:100840000A0B0C0D0E0F10100102000000100240E8
:1008500000127A0000093D002DE9F84F04006FD026
:100860002078BE4DC00747D06868C0F381000128DA
:1008700007D06868C0F38100022809D16868C00306
:1008800006D52868800337D560680028E7D033E0B4
:100890006068B0F5803F0BD010B1B0F5A02F11D03B
:1008A000286820F480302860286820F4802002E046
:1008B000286840F480302860606888B1FFF762FEE5
:1008C000064609E0286840F480202860F0E7FFF73A
:1008D00059FE801B642873D828688003F7D50BE085
:1008E000FFF750FE064604E0FFF74CFE801B64282D
:1008F000F1D828688003F7D42078DFF86482800775
:100900004FF0010A4FF0000939D5686810F00C0F5C
:1009100007D06868C0F38100022809D16868C00365
:1009200006D42868800714D52069012808D110E072
:100930002069B0B1C8F800A0FFF724FE064605E024
:1009400007E1FFF71FFE801B0228C4D82868800734
:10095000F7D52868616920F0F80040EAC1002860F6
:100960000DE0C8F80090FFF70DFE064604E0FFF723
:1009700009FE801B022823D828688007F7D4207836
:1009800000072CD57748A169D9B1C0F800A0FFF7BE
:10099000F9FD064604E0FFF7F5FD801B02280FD89D
:1009A000686A8007F7D570484FF4FA510068B0FBC9
:1009B000F1F0009000BF0098411E0091FAD20EE0C5
:1009C0007CE0C0F80090FFF7DDFD064604E0FFF78D
:1009D000D9FD801B022871D8686A8007F7D4207877
:1009E00040075BD5E8690027C00008D4E86940F0FB
:1009F0008050E861E869012700F0805000905B4872
:100A00000168C90511D40168834641F48071016011
:100A1000FFF7B8FD064604E0FFF7B4FD801B64282D
:100A20004CD8DBF80000C005F6D5E06801280AD0F4
:100A300008B1052813D0286A20F001002862286A2E
:100A400020F0040002E0286A40F001002862E0681B
:100A500041F2883B88B1FFF795FD064609E0286A18
:100A600040F004002862EEE7FFF78CFD811B59453A
:100A70005BD8286A8007F7D50BE0FFF783FD0646B1
:100A800004E0FFF77FFD811B59454ED8286A800797
:100A9000F7D41FB1E86920F08050E861E069A8B39D
:100AA0006968C1F38101022946D00228484606D070
:100AB000C8F86000FFF766FD044639E035E04746B8
:100AC000C8F86000FFF75EFD064604E0FFF75AFD38
:100AD000801B022829D828688001F7D4206AB0F545
:100AE000803F05D16868A16820F400300843686041
:100AF000D4E908010843696821F474110843686067
:100B0000C7F860A0FFF73EFD044605E023E0FFF7CD
:100B100039FD001B022808D828688001F7D51AE0A3
:100B2000FFF730FD001B022802D90320BDE8F88F33
:100B300028688001F4D40EE00128F7D06868226AA2
:100B400000F48031914204D1616A00F4701088424F
:100B500001D00120EAE70020E8E700000010024091
:100B60000000424280044242000000200070004029
:100B700070B5040008D0606A002538B12561656150
:100B800094F8510040B10CE0012070BD6068B0F5F0
:100B9000827FF5D0E561F3E784F85050204600F0FD
:100BA00047F8022084F851002068016821F04001D4
:100BB0000160A088218900F4827001F40441084397
:100BC000A18901F400610843217C01F0020108437E
:100BD000217D01F001010843218B01F400710843DC
:100BE000217F01F03801084394F8201001F08001C2
:100BF0000843218D01F40051084321680860A06971
:100C0000042101EA104021684860A06AB0F5005F45
:100C100003D1A08D216880B208612068C16921F4E8
:100C20000061C1616565012084F85100002070BD3C
:100C300010B500681B4986B0884231D11A488169D5
:100C400041F008018161816901F008010491816925
:100C500041F008018161816901F008010491816915
:100C600041F0080181618069104C00F00800049097
:100C70002020009002200190012002900320039088
:100C800069462046FFF786FB4021009169462046D1
:100C9000FFF780FB8021009169462046FFF77AFB31
:100CA00006B010BD003001400010024000080140B5
:100CB0002DE9F84F044690F8500000261D46904656
:100CC000894601280ED04FF0010B84F850B0FFF791
:100CD00059FC074694F851004146B246012804D019
:100CE0000226ABE00220BDE8F88FB9F1000F7BD0FF
:100CF000B8F1000F78D0032084F85100C4F854A054
:100D0000C4F83090A4F83480A4F83680C4F838A031
:100D1000A4F83CA0A4F83EA0C4F844A0C4F840A0A5
:100D2000A068B0F5004F09D12068026822F04002A7
:100D300002602068026842F480420260A06A4FF4B8
:100D40000058404509D12068026822F40052026030
:100D50002068026842F4005202602068026852066D
:100D600003D4026842F040020260E068B0F5006F10
:100D7000606803D028B3012923D03FE008B10129DE
:100D80001BD1206B21680088C86006E0206881685C
:100D9000890709D5216B0988C160206B801C2063FD
:100DA000E08E401EE08608E0FFF7ECFBC01BA84287
:100DB00002D3681C01D038E0B5B3E08E0028E5D13D
:100DC0001FE0206B21680078087306E020688168C6
:100DD00089070AD5216B09780173206B401C2063B9
:100DE000E08E401EE08609E027E0FFF7CBFBC01B4A
:100DF000A84202D3681C01D017E0ADB1E08E0028F4
:100E0000E4D1A06A404504D12068016841F48051D2
:100E100001603A462946204600F0F2FB08B1202046
:100E20006065A06818B106E0FFE7032606E02068C9
:100E3000C16880680090606D00B1012684F851B0EF
:100E400084F850A030464EE72DE9F84F044690F85C
:100E50005000012500270A9E984692468B4601289D
:100E60000FD0012084F85000FFF78CFB94F851104C
:100E700081466268404601290CD0B2F5827F07D1D5
:100E800002E00220BDE8F88FA2680AB9042901D067
:100E900002270AE1BBF1000F3CD0BAF1000F39D0B4
:100EA000B8F1000F36D094F85110042902D0052172
:100EB00084F8511000216165C4F838A0A4F83E8080
:100EC000A4F83C80C4F830B0A4F83680A4F834808C
:100ED00021646164A16A4FF40058414509D1216839
:100EE0000A6822F400520A6021680A6842F400523B
:100EF0000A6021680A68520603D40A6842F0400278
:100F00000A60E168B1F5006F616805D0F1B30128AE
:100F10004DD08DE00127C8E009B1012840D1206BF8
:100F200021680088C860206B801C2063E08E401E12
:100F3000E08635E020688168890717D5E18EA9B180
:100F4000012D13D1216B0988C160206B801C2063A7
:100F5000E08E401EE086E08E002538B9A06A40454C
:100F600004D12068016841F48051016020688168E3
:100F7000C9070DD0E18F59B1C068A16B0880A06B83
:100F8000801CA063E08F401EE08700E00FE0012599
:100F9000FFF7F8FAA0EB0900B04201D3701C5DD155
:100FA000E08E0028C6D1E08F0028C3D146E0206B38
:100FB000216800780873206B401C2063E08E401E7F
:100FC000E08635E020688168890717D5E18EA9B1F0
:100FD000012D13D1216B09780173206B401C206314
:100FE000E08E401EE086E08E002538B9A06A4045BC
:100FF00004D12068016841F4805101602068816853
:10100000C9070BD0E18F49B1C068A16B0870A06B14
:10101000401CA063E08F401EE0870125FFF7B2FA75
:10102000A0EB0900B04202D3701C01D016E0AEB1B3
:10103000E08E0028C6D1E08F0028C3D1A06A4045C9
:1010400010D10122334611462046CDF8009000F021
:10105000E7FA28B1606D40F002006065032724E0E4
:101060002068C06820688168C943C9060DD4616DD5
:1010700041F002016165016821F4005101602068BE
:10108000016841F40051016001274A46314620467B
:1010900000F0B6FA18B101272020606505E0A068CD
:1010A00018B92068C16880680090012084F8510058
:1010B000002084F850003846E4E64FF0E021042890
:1010C000086903D020F004000861704740F0040074
:1010D000FAE710B5401EB0F1807F01D3012010BDAA
:1010E0004FF0E02460610F21601701F02DFE002019
:1010F000A06107202061002010BD10B5040003D0BE
:1011000094F83D0010B107E0012010BD002084F8E4
:101110003C00204600F01EF8022084F83D00211D0E
:10112000206801F0F9FC012084F8460084F83E00B4
:1011300084F83F0084F8400084F8410084F84200BD
:1011400084F8430084F8440084F8450084F83D00A6
:10115000002010BD7047000090F83D10012901D01B
:1011600001207047022180F83D100168CA6842F0F2
:101170000102CA6000680E4988420ED00D498842BB
:101180000BD0B0F1804F08D00B49884205D00B49F5
:10119000884202D00A49884204D1816801F00701DF
:1011A000062903D0016841F0010101600020704769
:1011B000002C0140003401400004004000080040C1
:1011C000000C00400168CA6822F00102CA60016890
:1011D0000A6A41F211131A4207D10A6A9B101A4295
:1011E00003D10A6822F001020A60012180F83D1053
:1011F000002070477047000070B502680446106810
:10120000D168536910F00F0F52D003F0010501F4BB
:1012100090762E435FD0C20705D0CA0503D5E26B96
:1012200042F00102E263420705D5DA0703D0E26B20
:1012300042F00202E263820705D5DA0703D0E26BCF
:1012400042F00402E263020707D501F020022A43BC
:1012500003D0E26B42F00802E263E26B002A33D073
:10126000800604D5880602D5204601F0B1FC20682E
:101270004069E16BC0F38010090700D428B3204611
:1012800001F098FC2068416949061AD5416921F0AE
:1012900040014161606BA0B12D494163606BFEF775
:1012A000E1FF002810D0606B416BBDE8704008473B
:1012B000830610D58B060ED52046BDE8704001F0A0
:1012C00087BC2046FFF796FF70BD2046FFF792FFD0
:1012D0000020E06370BD03062BD50B0629D594F8DA
:1012E00039002128F6D1A068B0F5805F01D12069CE
:1012F000B0B1206A411C2162216800784860E08C0E
:10130000401E0004000CE084E4D12068C16821F094
:101310008001C1602068C16841F04001C16070BDBA
:10132000206A0088C0F308005060206A801C206298
:10133000E5E74006F3D54806F1D5D168204621F00F
:101340004001D160202184F8391000F0A5F870BD6B
:10135000A52B000870B5040004D094F839000025CE
:1013600010B106E0012070BD84F83850204600F02E
:1013700023F8242084F839002068C16821F4005142
:10138000C160204601F06AFC2068016921F49041A7
:1013900001612068416921F02A0141612068C1682A
:1013A00041F40051C160E563202084F8390084F8DD
:1013B0003A00002070BD000010B500681E4986B0DC
:1013C000884236D11D48816941F0040181618169FB
:1013D00001F004010491816941F004018161816996
:1013E00001F004010491816941F4804181618069C7
:1013F000134C00F4804004904FF4007000900220E1
:101400000190012002900320039069462046FEF7D8
:10141000C1FF211500910021019169462046FEF788
:10142000B9FF2520FFF7E7F8032211462520FFF733
:10143000EFF806B010BD0000003801400010024077
:101440000008014090F83A30202B22D1F9B1F2B1D6
:1014500090F83830012B1CD081628285C285002132
:10146000C163222280F83A2080F838100168CA68E7
:1014700042F48072CA6001684A6942F001024A611E
:101480000068C16841F02001C16000207047012060
:1014900070470220704770477047FEE7FEE77047CD
:1014A0002DE9F04107460A481E461546806A0C465B
:1014B00080472146074C0A46A01DA1803946FEF709
:1014C00053FE6570A67001202070BDE8F081000019
:1014D000FC32000804000020054810B5806A8047EF
:1014E000044903200870BDE8104003A001F024BCAB
:1014F000FC320008040000205278204572726F729E
:101500000D0A0000054810B5806A80470449022092
:101510000870BDE8104003A001F00EBCFC320008CA
:101520000400002052782054696D656F75740D0AAF
:1015300000000000034810B5806A8047024904207B
:10154000087010BDFC32000804000020054810B5EA
:10155000806A8047044905200870BDE8104003A058
:1015600001F0EABBFC32000804000020547820544B
:10157000696D656F75740D0A0000000070B5092073
:1015800000F057FC0546062000F053FC0404072039
:1015900000F04FFC44EA0024082000F04AFC2043FD
:1015A00000F0B5F804460021092001F02FFA3B2095
:1015B00000F03FFC40F040013B2001F027FA3B20C7
:1015C00000F037FC8006FAD40C4800F041FD3B20C7
:1015D00000F02FFC40F040013B2001F017FA3B20C7
:1015E00000F027FC8006FAD42946092001F00EFA03
:1015F0002046BDE8704000F02BBD000000A1BC33C8
:1016000038B50B46009204460022802100F008F80D
:10161000002804D0606D40F020006065032038BDD4
:101620002DE9F8431E46914688460446089DFEF77C
:10163000A9FF401B351AFEF7A5FF0746254800689D
:10164000C0F3CB30684338E0701C37D0FEF79AFF08
:10165000C01BA84203D215B1009860B32CE02068EB
:10166000416821F0E00141606068B0F5827F0BD1F4
:10167000A068B0F5004F02D0B0F5806F04D12068AB
:10168000016821F040010160A06AB0F5005F09D156
:101690002068016821F4005101602068016841F46C
:1016A00000510160012084F85100002084F85000AE
:1016B0000320BDE8F8830025401E00902068816863
:1016C00038EA010004D000204845BDD10020F0E7F1
:1016D0000120F9E70000002070470000024A0821BD
:1016E000116001F00DBD0000141C01400120704785
:1016F00043F60953B0FBF3F15A4201FB02005A10C2
:1017000002EB0020B0FBF3F000EB01207047010A70
:10171000A0EB012043F6095251435043803001EBC6
:1017200010207047002070470248006800F0020057
:1017300070470000081C0140F0B50025DDE9056494
:10174000121D079F052901D0062902D10C2B00D2BA
:101750000C2310B1012802D004E00B2901D00C2980
:1017600000D101250FB1102000E0002000EBC400E3
:101770004C4200EB84040EB1002000E01420204411
:101780008C00062902D9083005B1083C002800DA8F
:1017900000202044401E90FBF4F00C3300FB02308C
:1017A000062900D8801C012202EB8000891E884097
:1017B000F0BD00000148007870470000940100204F
:1017C000FEB51F4616460D46DDE90A23DDE908CEC3
:1017D00001004FF000004FF0010402D001292ED18A
:1017E00014E0BEF1000F05D0002000EBCC011BB1CE
:1017F000022002E00820F8E70020104401EBC000BE
:101800004FF47A7118304843344618E0CDF800E0C0
:10181000CDE9012363463A4631462846FFF78CFF5F
:101820004FF47A714843002425B1012D04D0022DD4
:1018300005D103E0044C02E0044C00E0044C2044D9
:10184000401EB0FBF4F0FEBD48E8010090D003005C
:1018500020A1070010B5FFF765FF401C10BD000078
:1018600070B50F49086000F02FFB002000F05EFC0F
:101870000C4E002404EB4405705D00F01BFCA8191D
:101880008178407801F0C2F8641CE4B2102CF1D3E6
:10189000002000F00FFC04490020087070BD00001B
:1018A000280000201C3200089401002070B51F4859
:1018B00086B0816941F080018161806900F080001B
:1018C000049001F0EBFB012001F02AFC0320184EEC
:1018D00008240125039069463046CDE90045FEF70E
:1018E00059FD14486946CDE9005000200290304669
:1018F000FEF750FD022200210620FEF789FE062099
:10190000FEF779FE0220009069463046FEF742FD60
:10191000022200210720FEF77BFE0720FEF76BFE68
:1019200003481030046006B070BD00000010024093
:10193000001C014000001110F8B500248DF8004093
:101940007D4E7E4D3078012807D002284DD101F020
:1019500057F8707801287CD1DFE000F0E7FA707862
:10196000B8B1012841D14021122001F04FF81220D6
:1019700000F05FFA8DF800009DF8000080067DD52C
:101980002021122001F042F896F8520000286DD074
:101990006DE096F8200001282CD13F2000F049FA94
:1019A0008DF800009DF80000800723D40B213E2015
:1019B00001F02CF810213F2001F028F800F0B6FAD1
:1019C00096F8220090B10D2000F033FA40F040016B
:1019D0000D2001F01BF8286810B1006900B18047A4
:1019E00006F82C4F7470B4817481F8BD00F0F6FFD6
:1019F0003470F0E7F18E524F49B9308F38B9B07F6B
:101A000048B3322000F015FAF08696F83610308F81
:101A1000091AC9B2384400F031FAF08E308700F06C
:101A200085FA96F82200E8B10D2000F002FA40F0A5
:101A300040010D2000F0EAFF28680028D0D085681A
:101A4000002DCDD096F92E20F18E00233C48A847DA
:101A5000C6E766E012E0FFE737480121363000F0C4
:101A60000DFAD2E7347000F0B9FFE5E7347000F00A
:101A70005DFA28680028B8D0006957E0192000F006
:101A8000D8F940B2801C801086F85C001A2000F063
:101A9000D0F996F95C102B4A00290CDA73680144DE
:101AA000934202D96FF09C0201E06FF0A30202EBB7
:101AB0002010084407E0716800EB2010914201D922
:101AC0009D3800E0A438A6F85E00132000F0B1F9BC
:101AD00086F860001020523600F0ABF901460D2068
:101AE00000F094FFB17B164800F0C8F916F85209CF
:101AF00000B9347000F01AFA28680028BBD0846856
:101B0000002CB8D016F95C3FA446B6F90220317912
:101B100001B00B48BDE8F04060470821122000F0FA
:101B200075FF347028680028A5D000680028A2D06E
:101B300001B0BDE8F04000479401002028000020DB
:101B40009400002040DD4A1F70B5364D28462978A4
:101B50004078A5F58074012916D002295BD10028B0
:101B600059D1FFF7E1FD012855D0E98E288F0A1AD7
:101B700095F83B108A424FDD204400F069FF288F22
:101B800095F83B10084445E0B8B1012843D1FFF770
:101B9000CBFD00283FD000F0C9F98021122000F0D1
:101BA00035FF0020287020480068002833D0C06826
:101BB000002830D0BDE870400047FFF7B5FD002891
:101BC00029D000F00BFFE88E38B9288F28B9A87FFC
:101BD000A8B1322000F02DF9E886E98E288F0A1A84
:101BE00095F83A108A4210DB491EC9B2204400F031
:101BF00045F9288F95F83A100844401E0AE0094834
:101C00000121363000F03AF9E7E7D1B2204400F084
:101C100035F905E0288770BDD1B2204400F018FFE7
:101C2000E88EF7E7940100202800002070B5254DCC
:101C3000254C28462A78417890F84F00012A03D095
:101C4000022A00D109B970BDB9B10129FBD101281F
:101C5000F9D10221122000F0D9FE20680028F2D02C
:101C600040690028EFD01C2000F0E3F8216800F064
:101C70003F004969BDE870400847012485F82C40C1
:101C800095F82D000028DED100F0A8FE05F82D4FB4
:101C9000112000F0CEF84008404268701C2000F08F
:101CA000C8F804461B2000F0C4F844EA0020FFF7FF
:101CB0002EFDC5F803000C2000F0BBF84009E871C8
:101CC00070BD00009401002028000020134810B5CA
:101CD0004078002821D001281FD1122000F0A9F857
:101CE0000F4CC0070BD00521122000F08FFE20689A
:101CF000002812D0816900290FD001200AE00421B8
:101D0000122000F083FE2068002806D08169002997
:101D100003D00020BDE81040084710BD940100200A
:101D2000280000202DE9F0472F4FDFF8C0904FF03A
:101D30000008387801282BD0022853D100F0C4F8CD
:101D4000FFF71CFC002000F0F1F9294E002404EB01
:101D50004405705D00F0AEF9A8198178407800F074
:101D600055FE641CE4B2102CF1D3002000F0A2F95F
:101D700097F8580000F0F6F987F80080D9F80000CD
:101D800000282FD0406800282CD0BDE8F04700473D
:101D90007878C0B987F82C8087F82D80A7F838802C
:101DA000A7F8368044460B213E20223700F02EFE55
:101DB00010213F2000F02AFE17F82209012808D040
:101DC0003C7000F00BFED9F8000000280AD0C06873
:101DD000D9E70D2000F02DF840F040010D2000F073
:101DE00015FEF0E7BDE8F0879401002028000020F0
:101DF0001C32000870B50025012000F05BF9FF21BE
:101E0000112000F003FE052000F090F900240120CD
:101E100001F0E4F82C2000F00CF800F00100A040E4
:101E2000641C0543E4B2202CF1D300F00BFC2846DF
:101E300070BD08B50122694600F004F89DF8000065
:101E400008BD00002DE9F0410E460B490827154654
:101E50000F6000F07F0000F001FE002405E000208C
:101E6000FFF73CFC3055641CE4B2AC42F7D30248A7
:101E7000001F0760BDE8F081141C01400A460146BE
:101E80000020FFF7DFBF000010B520B1012808D007
:101E90004FF0FF3010BD1120FFF7CBFF400840424C
:101EA00010BD07480749406888424FF01B0003D91E
:101EB000FFF7BFFF9D3810BDFFF7BBFFA43810BD73
:101EC0009401002040DD4A1F7FB5FFF7EFFC03209F
:101ED0000F4E04240125039069463046CDE90045A4
:101EE000FEF758FA0A4814300460012001F076F831
:101EF0000748103004600020CDE900406946029593
:101F00003046FEF747FA062001F068F87FBD000072
:101F1000001C014000EB80004FF0FF3101EB40005E
:101F200080B241F61F4100F0CDBD00000148FFF72F
:101F300049B900005002002073B5384C0546002016
:101F4000617811B1012966D129E0002020879DF830
:101F50000410E186A07F50B1322000F057FD9DF8BB
:101F60000420501E3F2807D884F83B200BE00121B5
:101F700001A800F06DFDF2E729462948FEF7F4F8C4
:101F8000202084F83B0094F83B102846243400F0CD
:101F90005FFDA08AE17D0844A08220683BE094F8C0
:101FA000510001284FF0330021D0FFF742FF00F02D
:101FB000BE013320491C00F029FD1D213B2000F00B
:101FC00025FD9DF8041084F86010222000F01EFD0D
:101FD00000210E2000F01AFD00210D2000F016FD5A
:101FE0000120FFF726FF30F0F80009D00DE0FFF7E1
:101FF00020FF00F0BE01332000F008FD1921DDE7CD
:1020000000F034FB012000F0E9FF9DF804102846A1
:1020100000F01EFD606D00F039FB7CBD94010020D6
:10202000940000207047000002490A78824200D0E4
:10203000087070472C000020202108B1034801E0FF
:102040000248001D0160002000F0C8BF101C0140C4
:1020500070B50546FFF74CFB04460948C4F3074139
:102060004560062000F0D2FCC4F30721072000F0F1
:10207000CDFCE1B2BDE87040082000F0C7BC000014
:102080009401002070B50D46044600F013F824B109
:10209000012C0CD12946232005E00548807F00282B
:1020A00005D129463220BDE8704000F0AFBC70BDBC
:1020B0009401002010B504460120FFF7BAFE1A492A
:1020C000000601D5012000E000204870C0B2A04207
:1020D00028D04C70012C4FF000000FD000F026F8F3
:1020E0000120FFF7A6FE00F07F01012000F08EFC2A
:1020F0000021402000F08AFC30210EE000F016F8AC
:102100000120FFF796FE40F08001012000F07EFCE8
:102110000021402000F07AFC0021BDE81040412061
:1021200000F074BC10BD00009401002010B5040044
:102130004FF0010012D0FFF77FFF0020FFF774FF80
:102140002046FFF76FFF0120FFF773FE00F0F80154
:102150002143BDE81040012000F058BCFFF764FFA8
:10216000F1E7000010B504460120FFF7A3FF064881
:1021700080F858400CB1342100E01221BDE8104035
:10218000392000F043BC00009401002070B50446E3
:102190000920FFF74EFE06464D20FFF74AFE054692
:1021A00006F07F0040F08000010623D5112C02DDEF
:1021B00045F0070502E005F0F8052D1DE943490744
:1021C00003D0022C0CDA02240DE0052C01DA0524E0
:1021D00002E0142C00DD142400F0F001641F05E07F
:1021E000112C00DD112400F0F001A41E04F00F00FA
:1021F000014314E0002C08DD0F2C00DD0F2400F05B
:102200008000204340F0700008E06FF003018C4232
:1022100000DA0C4600F08000241D2043C1B20920E2
:1022200000F0F4FB2946BDE870404D2000F0EEBB05
:1022300070B50646002400F0E3FB6E4D687810B1DF
:10224000012824D124E015F8224F4020FFF7F1FDAA
:1022500000F0030040F00C01402000F0D7FB4120CB
:10226000FFF7E7FD40F0C101412000F0CFFB352032
:10227000FFF7DFFD00F03F0028761E210D2000F063
:10228000C5FB0020A872E872E882A882223D85E0A2
:1022900095F8510001284FF0330025D0FFF7C9FD14
:1022A00000F0BE013320491C00F0B0FB1D213B2093
:1022B00000F0ACFB286C09284FF031007AD2FFF710
:1022C000B8FD00F07F01312000F0A0FB002130209C
:1022D00000F09CFB286C092846D2DFE800F00E16BF
:1022E0001E262E3641414100FFF7A3FD40F041017B
:1022F000332000F08BFB1921D9E748212F2000F073
:1023000085FB41F68261686826E044212F2000F0B9
:102310007DFB42F6B40168681EE044212F2000F0E6
:1023200075FB43F60451686816E044212F2000F045
:102330006DFB45F25E1168680EE044212F2000F02D
:1023400065FB47F61221686806E044212F2000F063
:102350005DFB68684AF2C6210844FFF779FE03E096
:1023600040212F2000F052FB95F84F0095F8524085
:10237000012825D01F21112000F048FB4020FFF745
:1023800058FD00F03F01402000F040FB00210F20ED
:1023900000F03CFB00210D2000F038FB01202870EC
:1023A00016B13046FFF7B6FD687898B1E4B1052064
:1023B0001BE0FFE7FFF73DFD40F080013120D1E752
:1023C0001D21112000F022FB4020FFF732FD00F01C
:1023D0003301D8E70520FFF7A9FE002C09D13046CC
:1023E000BDE8704000F0EEBA0620BDE87040FFF78F
:1023F0009DBE70BD940100202DE9F84F9B46DDE99C
:102400000C9614460D468246DDF83C800B9FFFF784
:1024100051FE00F02BF988484FEA17225FEA0A01C3
:10242000009205D0BAF1010F70D1022D55D9FEE707
:1024300040F8105F4FF4FA5284600A994160867345
:102440000E99C17380F810801299417413998174A8
:1024500009FB02F1B1FBF4F1878181617748B0FBA0
:10246000F4F4C4F30721022000F0D0FAE1B2032013
:1024700000F0CCFA2846FDF7DFFE0146122000F0FE
:10248000C5FA0A98FDF7D8FE0146132000F0BEFAFF
:102490002520009900F0BAFAF9B2262000F0B6FA29
:1024A0000EB10E9900E0FF21322000F0AFFA30208B
:1024B000FFF7BFFC00F06F010EB1002000E08020AC
:1024C000014341EA0811302000F0A0FA3120FFF763
:1024D000B0FC40F0400131208CE08246ED1DE0E987
:1024E00010540C2C80F809B0478106730E99417383
:1024F00080F80E801099C17311990174129941747A
:1025000013998AF8521002D90C2403E091E0062CAA
:1025100000D20624072D02D0082D02D003E00B2C98
:1025200045D00C2C43D000218AF848101D20FFF71D
:1025300080FC290141EA4B003043C1B21D2000F06C
:1025400065FA1E20FFF775FC00F0080040EA041150
:1025500041EA8800032202EA19210843C1B21E2081
:1025600000F054FA2620FFF764FC00F0F7019AF817
:10257000480041EAC000C1B2262000F047FA09F045
:10258000FF011F2000F042FA2020009900F03EFADF
:10259000F9B2212000F03AFA1EB122200E9900F083
:1025A00035FA9AF84F005646012802D00EE0012174
:1025B000BAE74420FFF73DFC40F08001442000F0E2
:1025C00025FA96F85010242000F020FA092D15D095
:1025D0000321362000F01AFA062C4FF031001ED0ED
:1025E000FFF727FC00F0F8013120C91C00F00EFABB
:1025F0000A213720BDE8F84F00F008BA104970688A
:1026000088424FF002014FF0360003D900F0FEF986
:10261000642102E000F0FAF97F213A20DAE7FFF7BF
:1026200008FC00F0F8013120491D00F0EFF90C2101
:10263000DFE7BDE8F88F0000940100200048E801C2
:1026400040DD4A1F10B500F0DBF9FFF76FFC00F02A
:10265000C5F90020FFF76AFD0020FFF7EDFC0249F5
:102660000020087010BD00009401002010B500F09B
:10267000C7F9FFF75BFC00F0B1F90120FFF756FD49
:1026800001490020087010BD9401002070B5054676
:10269000FFF74CFC214C617811B101292AD117E0D8
:1026A0004020FFF7C6FB00F00301402000F0AEF928
:1026B0004120FFF7BEFB00F03E01412000F0A6F9EB
:1026C0003520FFF7B6FB00F03F0084F83A0011E038
:1026D00094F84F00012817D0F721112000F096F947
:1026E0004020FFF7A6FB00F03F0040F040014020F3
:1026F00000F08CF902202070284600F075F9BDE842
:1027000070400320FFF712BDF521112000F07EF983
:102710004020FFF78EFB00F03300E6E79401002035
:102720002DE9FF4F81B01D46DDE91068DDE915ABED
:102730008946129F0E9C0198FFF7BCFCFFF796FF9D
:102740004846FFF723FD7048320A0199009231B1E3
:1027500001296ED180F83C90022D48D9FEE780F81F
:10276000089003998461C0E90315868380F81E8070
:1027700080F8207080F821A0C0F824B00398FEF7FC
:10278000B7FF0546C0F30721042000F03FF9E9B286
:10279000052000F03BF95D48B0FBF4F4C4F30721D9
:1027A000022000F033F9E1B2032000F02FF92520D8
:1027B000009900F02BF9F1B2262000F027F9302023
:1027C000FFF737FB00F06F01B8F1000F01D00020D8
:1027D00000E08020014341EA0711302000F016F9A3
:1027E0003120FFF726FB40F04001312079E0ED1D5C
:1027F000C0E910540F9980F84910A0F84A6080F899
:102800004C80139980F84F10149A80F8502080F86B
:102810004E7080F851A0C0F854B00C2C01D90C2493
:1028200002E0062C00D20624072D03D0082D03D089
:1028300004E065E00B2C08D00C2C06D0002280F8B8
:1028400048208146012902D00EE00122F7E744200A
:10285000FFF7EFFA40F08001442000F0D7F899F834
:102860005010242000F0D2F81D20FFF7E2FA0F9854
:10287000290141EA400040EA0800C1B21D2000F0F1
:10288000C5F81E20FFF7D5FA00F00B0040EA04104F
:1028900040EA8700C1B21E2000F0B8F82620FFF7FA
:1028A000C8FA00F0F70199F8480041EAC000C1B247
:1028B000262000F0ABF82020009900F0A7F8F1B234
:1028C000212000F0A3F8062C4FF031000ED0FFF7C6
:1028D000B0FA00F0F8013120C91C00F097F80A2185
:1028E000372005B0BDE8F04F00F090B8FFF7A1FA2F
:1028F00000F0F8013120491D00F088F80C21EFE7C5
:1029000005B0BDE8F08F0000940100200048E80108
:1029100030B50D4601464FF47A7002FB00F489B0E1
:102920000846FFF795FB002305930693CDE907348E
:102930000520CDE901304FF49650009003931A46DC
:10294000294604931846FFF7EBFE3120FFF771FA92
:1029500000F0BF01312000F059F8F021402000F0D4
:1029600055F8A021412000F051F8064902200870D6
:10297000204600F039F809B00320BDE83040FFF7E9
:10298000D5BB00009401002010B50D4C60780028E4
:1029900014D0012812D1FA21112000F037F840207C
:1029A000FFF747FA00F0FC01402000F02FF8032069
:1029B0002070BDE810400720FFF7B8BB10BD000035
:1029C0009401002000EB80004FF0FF3101EB40004C
:1029D00080B241F61F4100F075B800000148FEF7D3
:1029E000F1BB00005002002000EB80004FF0FF31EF
:1029F00001EB400080B241F61F4100F063B80000D7
:102A00000148FEF7DFBB00005002002013B5012291
:102A100001A900F001F81CBD2DE9F0410E460B495B
:102A2000082715460F60C0B240F0800000F016F88D
:102A3000002404E0305D00F011F8641CE4B2AC4204
:102A4000F8D30248001F0760BDE8F081141C014064
:102A50000A4601460020FFF7DFBF0000024A0821B6
:102A6000116000F077BB0000141C014070470000AB
:102A7000074800680169C943C90708D1C168C9434B
:102A8000C90704D1891E01610020FFF74BB97047C7
:102A900050020020084882B0C16941F01001C161B4
:102AA000C069074900F0100000900448086008461B
:102AB00002B0FEF722BB00000010024000100040F0
:102AC00050020020114A08B5D36943F01003D361C6
:102AD000D2690F4B02F0100200921A6842F0040211
:102AE0001A600C4AD060C2E900311046FEF705FBBF
:102AF000032200213620FDF78BFD3620FDF77BFDFC
:102B0000BDE808400348FEF727BB00000010024064
:102B10000010004050020020F0B502681C4D1D4E10
:102B20001D4FDFF878C01E4B4FF0804EA84209D0F1
:102B3000984207D0704505D0B04203D0B84201D0CA
:102B4000604503D122F070044A682243A84209D0AC
:102B5000984207D0704505D0B04203D0B84201D0AA
:102B6000604503D122F44074CA6822434C6922F0C4
:102B70008002224302608A68C2620A688262A842B6
:102B800001D0984201D10969016301214161F0BD81
:102B9000002C01400004004000080040000C0040F0
:102BA0000034014010B5406A0021C185C184FEF7A0
:102BB00021FB10BD0168CA6822F49072CA600168E6
:102BC0004A6922F001024A61202180F83A107047D8
:102BD00010B590F83A10222901D0022010BD81686A
:102BE0004FF48053994201D1026922B1826A99421D
:102BF0001BD049B10AE00268816A5268C2F3080238
:102C00000A80816A891C08E0016971B1016849681C
:102C100001F07F011170816A491C8162C18D491EDA
:102C20000904090CC18503D016E001684968F1E781
:102C30000168CA6822F02002CA600168CA6822F4EA
:102C40008072CA6001684A6922F001024A6120214B
:102C500080F83A10FEF71FFC002010BD70B5044646
:102C600000680169E26821F4405111430161A168E3
:102C700020690143606901432068C26841F20C6326
:102C80009A430A43C26020684169A26921F44071F5
:102C9000114341611E492068884202D1FDF796FD2B
:102CA00001E0FDF783FD00EBC00101EB001160685E
:102CB00064228000B1FBF0F3B3FBF2F36FF018066F
:102CC0007343B1FBF0F5B1FBF0F605EB830532235E
:102CD00003EB0515B5FBF2F5B6FBF2F605F0F005D2
:102CE00005EB0615B1FBF0F6B1FBF0F0B0FBF2F02E
:102CF0006FF01801484306EB800003EB0010B0FBB7
:102D0000F2F0216800F00F002844886070BD0000D8
:102D10000038014010B50548FEF76EFA012204495B
:102D20000248FEF78FFB0028F8D110BD54000020A8
:102D300018000020FEE70000014A024900F023B815
:102D40004D300008140000200907090E002804DB9C
:102D500000F1E02080F80014704700F00F0000F14F
:102D6000E02080F8141D704702E008C8121F08C157
:102D7000002AFAD170477047002001E001C1121FFC
:102D8000002AFBD170472DE9F04116460F46044654
:102D9000002503E03946B047641C6D1C20780028EC
:102DA000F8D12846BDE8F0816D488AB06B490160D2
:102DB0006C4981606C4941606C49C1606D4D6C49E2
:102DC00001612968012488476BA0FFF7B5FFE96816
:102DD0006D488847002640F6B83005960696CDE93E
:102DE00007604FF001084FF00809CDE90189CDE9EE
:102DF00003680A200090AF693346324611214046ED
:102E0000B847CDE90868CDE904680696CDE90069C0
:102E100007960296039601230A226F69002118463D
:102E2000B847296B4FF47A708847DFF860814FF01C
:102E300050094FF04E0A4FF0470BA8F106073878BB
:102E40000628FCD2DFE800F0030468683939F6E7A9
:102E5000B88884B300287ED004224D494B48FDF742
:102E6000A7F938B14A490422491F4848FDF7A0F99B
:102E700010B330E047A0FFF75FFF88F800904920CB
:102E800088F8010088F802A088F803B042460420C0
:102E9000BB8803E0011F1154401CC0B29842F9D313
:102EA0000A2000F09BF83DA0FFF746FF6A6A3979D7
:102EB000364890474FE005E00024296B4FF47A70C4
:102EC000884748E0002846D031490422491F2F484E
:102ED000FDF76EF908B10124EFE733A0FFF72CFFEF
:102EE00088F800904F2088F8010088F802A088F840
:102EF00003B041460420BB8803E0021F0A54401C73
:102F0000C0B29842F9D30A2000F068F86A6A3979A9
:102F10001E48904726A01CE0002CCED088F80090D8
:102F2000492088F8010088F802A088F803B04146DB
:102F30000420BB8803E0021F0A54401CC0B2984220
:102F4000F9D30A2000F04AF86A6A39790F489047A5
:102F500012A0FFF7F1FE3E7071E700003515000882
:102F600030000020A11400084D15000805150008C8
:102F7000D9140008FC3200084552524F52204652E4
:102F80004551210D0A000000C0CA89360A00002000
:102F90001532000852583A504F4E470053454E44A0
:102FA0003A50494E4700000052583A50494E4700A7
:102FB00053454E443A504F4E4700000010B54FF075
:102FC000E0220021044611610846FEF776F8024926
:102FD000E008088010BD0000100000204FF47A7156
:102FE00070B5B0FBF1F2B0FBF1F401FB1205094E34
:102FF00003E0304600F010F8641E002CF9D1002DDB
:1030000006D04FF47A706843BDE8704000F004B811
:1030100070BD000040420F000B49098848434FF043
:10302000E021486100238B61086940F001000861DC
:103030000869C20701D0C003FAD5086920F0010071
:1030400008618B61704700001000002004490A6885
:103050005206FCD5024AC1B2121D11607047000031
:103060000038014010B5FDF793FA4FF4E01000F07E
:103070007DF84820FFF7A2FF4FF4E13000F0A0F800
:10308000FFF708FD03A0FFF757FEFFF78DFE0020B6
:1030900010BD000052455345540D0A0038B515487F
:1030A000816941F4805181618069144C00F4805041
:1030B0000090114820604FF4827060600020A06092
:1030C0000121E060C4E904014902A1613821C4E999
:1030D00007106062A0620720E0622046FDF748FD0D
:1030E0002068016841F040010160BDE83840FF20E0
:1030F00000F006B80010024000300140F801002046
:1031000001B582B04FF47A700090012301AA02A9A0
:103110000248FDF799FE9DF804000EBDF80100205D
:103120000B4A10B511680B6823F040030B6011685F
:103130000B684FF6C77423400B6011680B6843EAB5
:10314000C00008601068016841F04001016010BDD6
:10315000F801002001B54FF47A7301226946024854
:10316000FDF7A6FD08BD0000F801002070B590B085
:10317000064628216846FDF710F814210AA8FDF735
:103180000CF80120010400248DE8130002250996A3
:10319000CDE907516846FDF75FFB00B1FEE70F2060
:1031A000CDE90A054FF48060CDE90C4002210AA860
:1031B0000E94FDF75FFA002800D0FEE710B070BD56
:1031C0000B4910B5094AC1E9002000208860C86099
:1031D000086188610C2048610846FEF7BBF8BDE82D
:1031E0001040012203490248FEF72CB90038014083
:1031F0005400002018000020000000000000000023
:10320000010203040607080900000000010203048C
:1032100050494E4700504F4E47000000000C23001D
:103220000D1E000ED2001A01001FAA00240700275D
:10323000120028C1002994002AC10030D800359F0F
:10324000003B02004000004130012340280A0000FA
:10325000170000001C0C00000F0000003C0F0000D5
:103260000700000050140000160000009C18000029
:103270000E000000781E000006000000A0280000DC
:1032800015000000D43000000D000000F03C0000EC
:10329000050000004051000014000000A86100007B
:1032A0000C000000447A000004000000E4A20000CA
:1032B0001300000050C300000B00000024F40000C5
:1032C000030000008545010012000000A0860100F7
:1032D0000A00000048E80100020000002C8B0200F8
:1032E00011000000400D03000900000090D0030011
:1032F00001000000E09304000000000061180008D5
:10330000B5170008B520000851200008F51D000879
:10331000F923000821270008ED160008C11700084E
:10332000391F0008452600086D26000831220008D4
:103330008929000811290008891E00080D2A0008A3
:10334000331E0008192A0008451E000885200008C1
:10335000652100085518000800000000000000006A
:10336000000000008433000800000020300000004E
:10337000682D0008B4330008300000206806000003
:10338000782D00080024F400000000000500000073
:10339000000000000000000000000000000000002D
:1033A000010000001000000000000000000000000C
:0433B0000000000019
:0400000508000131BD
:00000001FF
